:020000040800F2
:100000000000022055E90508599300081D37020831
:1000100005EA050805EA050805EA050800000000EC
:1000200000000000000000000000000025AE0008F5
:1000300027AE00080000000029AE00080D4A0108A4
:1000400005EA050805EA050805EA050805EA0508C0
:1000500005EA050805EA05089F0B0108A30B01083E
:1000600005EA0508A70B0108AB0B0108E59D000890
:10007000F99D00080D9E0008219E0008359E00088D
:10008000499E00085D9E000805EA05080000000082
:10009000000000000000000000000000AF0B01089D
:1000A0001D9D0008459D00086D9D0008079D0008E6
:1000B000959D0008A99D0008BD9D000805EA05085A
:1000C00005EA050805EA050805EA050805EA050840
:1000D00005EA0508E5950008F19500080000000014
:1000E000B30B010805EA05082BAE0008000000006C
:1000F000000000000000000000000000719E0008E9
:100100000000000005EA0508D19D000805EA050881
:1001100000000000000000000000000000000000DF
:10012000859E0008999E0008AD9E0008C19E0008AB
:10013000D59E000800000000000000000000000044
:100140000000000000000000000000007DAE00087C
:10015000E99E0008FD9E0008119F000805EA0508B9
:1001600005EA050805EA0508000000000000000097
:10017000000000000000000000000000000000007F
:100180000000000005EA0508000000000000000073
:0801900005EA050805EA05086F
:08019800E8E40500010000008D
:1001A000C0210120020100000300142AE0210120E7
:1001B000020300000300142A00220120010B0000AA
:1001C0000000770020220120010C000000007600D2
:1001D0004022012001100000000076006022012072
:1001E000010D0100000077008022012001120000B3
:1001F00000007600A02201200114000000001E0073
:10020000C0220120011A000000000D00E0220120A0
:10021000011B000000000E0000230120011C000053
:1002200000001E00202301200117000000000C0028
:10023000402301200118000000000E00602301206F
:100240000128010000001800802301200120000087
:1002500000004800A0230120012100000000490007
:10026000C02301200122000000004A00E0230120F9
:100270000123000000004B000024012001240000A5
:1002800000004C00202401200125000000004D004A
:10029000402401200126000000004E0060240120BF
:1002A0000127000000004F0080240120012F0100E1
:1002B00000002800A02401200233060000012C00C9
:1002C000C02401200132000000003C00E024012095
:1002D000013500000000200000250120013600004B
:0402E00000002900F1
:1080000003899B0746BF0089C0F3C0100120704759
:10801000D0E907239A422FBFD01AC0688018C01A2F
:108020007047D0E9092300699A4238BF1218D31A61
:108030000138C01A7047D0E90902131A5842584152
:108040007047036A41690246C85CD16801338B42BC
:1080500028BF002313627047436A8269D154436A80
:1080600002690133934228BF0023426B4362D36805
:1080700043F08003D3607047436B188810F0100002
:108080001EBF1A889B8801207047436B99891A8804
:10809000890610B592B2044607D5900605D5E26A66
:1080A00022B39888216B80B29047636B99891A88B4
:1080B000090692B20FD510060DD5D4E909128A42ED
:1080C00022D0A169895C998021690132B2FBF1F06B
:1080D00001FB1022A262998A1A88C90592B204D5BE
:1080E000D20744BF4FF6F7721A8010BD9B88E26931
:1080F0006169DBB28B54E369E2680133B3FBF2F1EF
:1081000002FB1133E361D0E7DA6822F08002DA6023
:10811000E1E7036941681F2B30B54FF0200285BFAE
:10812000A3F120054C680C68AA4098BF9A402242EF
:108130001ED0826900201074D0688468206820F006
:10814000010020605468206865790A4C828934F8FF
:10815000154092B21F2B22EA0402828188BF203B85
:108160004FF020028BBF9A4002FA03F3CA608B6083
:1081700030BD00BFE84206080E4BDA68D20310D4C7
:10818000DA68D1060FD4DA68D2050ED4DA6812F0B4
:10819000E00F0CD1DB6813F0020F14BF0820092098
:1081A0007047012070470620704702207047072063
:1081B000704700BF003C024007B509238DF8073027
:1081C000FFF7DAFF8DF807009DF80730012BF7D095
:1081D0009DF8070003B05DF804FB838A028B9BB215
:1081E00043EA024331EA03030CBF01200020704739
:1081F00082B0002301930093012300900193019B1F
:1082000063B1009A21F07F4314320092009A126801
:108210001A4214BF0120002002B07047009A1832A1
:10822000F3E77047704701207047044BD3E9000320
:10823000984288BF03F50063181A7047D0160020D3
:10824000054AD2E900318B42FDD0D1180133C3F386
:108250000A03087A13607047D0160020044BD3F845
:10826000080820B1D3F80808431F58425841704706
:10827000D0160020012380F84930704710B5D0F89F
:10828000E83504461B699847032384F8123100201F
:1082900010BD08B590F8123180F81331042380F82E
:1082A0001231D0F8E835DB689847002008BD08B5E2
:1082B000D0F8E435DB6903B19847002008BD08B564
:1082C000D0F8E4351B6A9847002008BD08B5D0F8FF
:1082D000E4355B6A9847002008BD30B501380024BA
:1082E00023460134055D002DFAD1DBB201335B007A
:1082F00013800B7003234B70022310F8014F04B955
:1083000030BD5A1CD2B2CC5402338D54DBB2F4E7E8
:1083100010B5074C2068FF2808D00649D1F80C2872
:1083200001F5016100F070F8FF232360002010BD0B
:1083300000000020D0160020432301480B80704726
:1083400004000020122301480B80704747000020E2
:10835000042301480B8070475900002008B50A46E5
:1083600002490348FFF7B9FF084608BDE81E002090
:1083700095D0060808B50A4602490348FFF7ADFF45
:10838000084608BDE81E00209DD0060808B50A462C
:1083900002490348FFF7A1FF084608BDE81E002078
:1083A000A2D0060808B50A4602490348FFF795FF20
:1083B000084608BDE81E0020ACD0060808B50A46ED
:1083C00002490348FFF789FF084608BDE81E002060
:1083D000B7D00608704770477047704770477047BE
:1083E000044B00200522C3F80828C3F81809C3F875
:1083F0001C097047D0160020024B0020C3F8080863
:10840000704700BFD0160020212838B50C461BD07D
:1084100022282BD0202815D1A1B1072A12D11A4D1C
:10842000D5F81C3913B10968002098472368C5F8AE
:108430002039237985F82439637985F82539A3799A
:1084400085F82639002038BD0029FBD0072AF9D14C
:108450000D4BD3F820290A6093F824290A7193F868
:1084600025294A7193F826398B71EBE70029E9D069
:10847000022AE7D1044BD3F81839002BE2D009883F
:1084800000209847DEE700BFD0160020074AD2F848
:108490002839D2F82C29934203F1FF338CBF0020F6
:1084A00001209B1A03EBC020704700BFD0160020AC
:1084B000ECE730B50F4CD4E900239A4286BF03F5B0
:1084C0000065AA1A9A1A0A44B2F5006F10D801443E
:1084D0000022814203D102B16360002030BDE21866
:1084E00010F8015B15720133C3F30A030122F0E7B0
:1084F0000220F3E7D0160020034B93F8540900380C
:1085000018BF0120704700BFD0160020034B93F81E
:108510005409032894BF002001207047D016002082
:108520000048704728200020837B042B0DD0074B88
:10853000D3F898200132C3F8982042600422827355
:10854000D3F89C200132C3F89C2070479C50002037
:10855000202301480B8070475D0000201223014852
:108560000B8070477D000020042301480B8070477A
:108570008F0000200A4608B5044920B90448FFF7D7
:10858000ACFE024808BD0348F9E700BF58200020B0
:10859000C5D00608DDD0060808B50A4602490348DA
:1085A000FFF79BFE084608BD58200020F5D00608BE
:1085B00008B50A4602490348FFF78FFE084608BD82
:1085C0005820002008D1060808B50A460249034889
:1085D000FFF783FE084608BD5820002013D1060887
:1085E000002370B54D1C1E46040FB0F1204F34BF60
:1085F0003034373401F8134005F813600133DCB22E
:10860000A2424FEA0010EFD870BD1A2310B50B80BC
:10861000094BD3F8E807D3F8EC2780180AD0D3F831
:10862000EA4706490822FFF7DBFF04221031204603
:10863000FFF7D6FF024810BD00F0FF1F9500002095
:108640009300002000207047002070472DE9F34779
:10865000038A8689B6B205460C461E404FF0004993
:1086600001F14C0701F1340816B902B0BDE8F087FA
:10867000B6FA86F329FA03F2D24391B22982164060
:108680001B3B002C40D0042BEED8DFE803F039343C
:108690002E280300E368D5F82CA02BB19B681BB1F2
:1086A0001FFA8AF1201D9847636A33B19B6823B192
:1086B0001FFA8AF104F11C009847E36B2BB19B6809
:1086C0001BB11FFA8AF140469847636D002BCBD04F
:1086D0009B68002BC8D01FFA8AF1384603E0E36894
:1086E000696B5B68201D9847BEE7636AA96B5B688E
:1086F00004F11C00F7E7E36BE96B5B684046F2E7C7
:10870000636D296C5B68E8E7042B06D8DFE803F0AB
:108710000D0B09070300EB6A0193019BA4E76B6B48
:10872000FAE7AB6BF8E7EB6BF6E72B6CF4E790F846
:108730004820531C0244DBB280F8483082F83410E1
:1087400090F849200AB1132B01D954F0D9BF7047D2
:10875000002280F8492054F0D3BF70B50F4E96F830
:10876000873A002BFBD104464518AC4201D10020CA
:1087700070BDD6F82C3914F8011BF2180133C3F37D
:108780000A0382F8881AC6F82C39FFF77FFE002802
:10879000EBD101200CF0D5F9F7E700BFD01600208F
:1087A00038B50C461146FFF759FD48B1054D002A72
:1087B000D5F8903104DD2046FFF7CFFFD5F8903192
:1087C00038BD00BFC8270020F0B590F8CF5590F80D
:1087D000CE1590F8D12590F8D03590F8CC7590F85A
:1087E000CDC501EB05218DB203EB022390F8D31523
:1087F00090F8D22585B002EB012207F01F06012177
:1088000092B29BB28E4204468DF808708DF809C072
:10881000ADF80A50ADF80C30ADF80E20C0F840218C
:1088200080F8111100F00C81022E00F01D81002E45
:1088300040F09B81BCF1090F5ED8DFE81CF0B60068
:10884000F4005D00C8005D0057000A005D00A9004B
:1088500076002E0A022EADF806200BD0032E25D06E
:10886000012E49D1D0F8EC351B68A0780DF1060136
:10887000984709E0D0F8E43580789B6A0DF106014D
:1088800098474670C4F8F005BDF80620002A47D086
:10889000BDF80E30002B43D09A4228BF1A46ADF8DF
:1088A00006200146204654F019FE39E0E9B20529B8
:1088B00022D8DFE801F003070B0F1317D0F8EC35CF
:1088C0005B68D2E7D0F8EC359B68CEE7D0F8EC35A2
:1088D000DB68CAE7D0F8EC351B69C6E7D0F8EC35A1
:1088E0005B69C2E7D0F8EC359B69BEE71A4303D158
:1088F00090F81231032B03D1204652F0B9FB0FE060
:10890000016905F07F0680F814610B6865F30A12AF
:108910001A430A6054F0F6FD2EB1022384F8123196
:10892000002005B0F0BD0123F8E7E9B2904D012920
:1089300085F89411E0D890F81231022B0FD0032B58
:10894000DAD1C1B9022380F81231D0F8E43580F8C9
:1089500010115B689847204654F0D4FDE0E70029E9
:10896000F9D00121032380F8101180F8123120463C
:1089700054F0B0FCEFE790F810110129EBD0D0F8DB
:10898000E4355B68984795F8941184F81011EEE788
:10899000012AB1D190F81231022B04D0032BABD1B4
:1089A00000F588717EE773497CE790F81231023B4D
:1089B000012BA1D86E4B0022C3F89C21D0F81821BE
:1089C00012B10222C3F89C216B4902226AE7012DF1
:1089D00008D1C0F81851D4F8E43502A99B682046A4
:1089E0009847B8E7022D9BD1DAB2002A98D10269E4
:1089F0001B0A023B5268032B03D8DFE803F00C0E7E
:108A00001012012363F30612594BC3F8A02101236E
:108A100084F816319FE70223F4E70323F2E70423E7
:108A2000F0E70523EEE790F81231023B012B3FF609
:108A300063AF012D7FF474AF0023C0F81831CAE78B
:108A400090F81221032A7FF457AFDBB2012B3FF6D7
:108A500053AFD0F8E43502A99B689847BDF80E30B3
:108A6000002B7FF45DAF76E707F06007202FD9B2C7
:108A700005D1D0F8E43502A99B68984750E7BCF1CE
:108A8000010F31D0BCF1030F1ED0BCF1000F7FF4F9
:108A900047AF90F81221022A5AD0032A7FF42CAF54
:108AA00013F0800F4FF02802314B59D001F07F01B5
:108AB00002FB010191F81E21002A4FD00122C3F8C8
:108AC000A4212E490222EDE690F81231022B3FD06C
:108AD000032B7FF411AF002D7FF47DAF4A063FF4E6
:108AE0007AAF54F003FC76E790F81221022A2FD0D7
:108AF000032A7FF401AF002D7FF412AF11F07F0045
:108B00003FF429AF5BB2002B4FF02802B5BF02FB48
:108B1000004102FB014101F58E7101F55D710022FA
:108B2000DB0F08708A704B7004EB8000C9786BB162
:108B30008269136802396FF3555301298CBFC3F35F
:108B40000071012161F31C73136044E7426DF0E78B
:108B50004B063FF4E5AE54F0C9FBE1E60022AEE778
:108B600002FB010191F87623A6E707F08001F2E706
:108B7000C827002060290020642900206C290020DB
:108B800010B5044671BB90F81131032B1BD1D0F8FE
:108B90009023D0F87C339A4217D9C178012908BFB5
:108BA000D0F88013A2EB030204BFC918C0F88013E9
:108BB000934228BF1346C0F890239BB2D0F880237D
:108BC000002154F04FFD002010BDD0F8E4351B69A2
:108BD00023B190F81221032A00D19847204654F07F
:108BE00091FCF0E7D0F8E4359B69002BEBD090F8CE
:108BF0001221032AE7D19847E5E770B50A7812F009
:108C0000600406460D462AD0202C2FD1CC884B7804
:108C1000FCB112060CD51F4922461846FFF7F4FB9B
:108C2000EA881C49304654F059FC0024204670BDA7
:108C3000194A1360194A0323C2F80C4880F811310D
:108C4000C0E9E444234602F50162002154F00AFD24
:108C5000EBE7022211441846FFF7D6FBE6E74B7814
:108C60000A2B08D00B2B0BD0062BDFD1304652F04D
:108C7000FFF90224DAE70A49012254F02FFCD5E774
:108C80008B781BB9074BC3F8A841CFE752F0F0F936
:108C9000CCE700BFE01E002000000020D01600201E
:108CA00070290020C827002010B5282303FB0101EC
:108CB000074AB1F88C1304461046FFF7FAFB20462A
:108CC000034A4023012154F0CDFC002010BD00BF19
:108CD0007429002070B50F4DD5F8F431044643B126
:108CE00095F8F82195F80C32134302D1012154F084
:108CF000FDFA8121204654F0F9FA95F80C32022B46
:108D000007D12046044ABDE870401F23012154F0DA
:108D1000A9BC70BDC8270020B4290020002310B5CD
:108D200019460446402254F03CFB40228021204654
:108D3000002354F036FB012384F81231D4F8E835CF
:108D4000A0785B689847002010BD38B540220446E3
:108D50000223812154F025FB2046022340220121D9
:108D600054F01FFB204603230822822154F019FBF4
:108D7000084B0222002583F84B2083F84C50FFF764
:108D80002FFB01212046044A402354F06BFC284667
:108D900038BD00BF000000207429002010B58121DB
:108DA000044654F0D5FA2046012154F0D1FA204669
:108DB000822154F0CDFAFFF71FFB002010BD10B543
:108DC0008121044654F0C4FA2046012154F0C0FA2F
:108DD000024B002083F80D0210BD00BFC827002001
:108DE00038B5264C94F8872A012A034633D1244803
:108DF000D0F810221AB984F8872A002038BD402AFA
:108E0000D4F8281919D9403A01F14005C0F81022C8
:108E1000C4F8285940221B4810FA81F1C3E95411C3
:108E200040F201100021C3E95621A3F8440103F5E3
:108E3000A271184654F07DFBDFE702EB0105C4F890
:108E400028594FF00005C0F810520ABF022092B214
:108E500084F8870ADFE7022ACFD1002540F2011209
:108E6000C0E95455C0E95655A0F8442100F5A27157
:108E700054F05FFB84F8875ABFE700BFD01600208C
:108E8000C82700205821002038B52A4CD4F81432C5
:108E90000F2B03F1010203D0C4F81422002038BDC7
:108EA000254A0023C4F8143292F8873A002BF5D1F2
:108EB000D2F82819B1F5006F08BFC2F82839D2F8E6
:108EC0002819D2F82C39994203D1002382F8873A25
:108ED000E4E78CBFC1F500635B1A402B1BD9403B14
:108EE00001F14005C4F81032012382F8873AC2F834
:108EF00028594023114A12FA81F140F20112A0F8D8
:108F000044210022C0E95411C0E9563200F5A27193
:108F100054F00FFBC2E701EB0305C2F828594FF0EC
:108F20000005C4F810520EBF022401249BB282F83F
:108F3000874ADFE7C8270020D016002058210020EC
:108F4000064BD3F884391A79022A05D19A68920718
:108F500002D5586953F0E2BE704700BFD01600201A
:108F600008B5104A1049D2F88439187902280BD074
:108F7000D2F884090379022B13D183689B0710D59B
:108F8000BDE8084008F0ECB993F91030142000FB5C
:108F90000313D3F8B000FFF733F80028E8D000BF80
:108FA000E1E708BDD01600200000002073B50A4E8E
:108FB000441C0025D6F88409012300220DF1070185
:108FC00054F0F0FB9DF80700FF2802D10135A542BF
:108FD000F0D102B070BD00BFD016002037B50446F6
:108FE00008200191FFF7E2FFFF2813D0FE2813D1DC
:108FF0000A4D019BD5F884090022214654F0D2FB8A
:109000000022D5F884090223114654F0CBFB00203E
:1090100003B030BD0120FBE70220F9E7D0160020A5
:1090200037B5124D4FF6FF530024D5F88409ADF83B
:10903000043001AA02232146C5F8504954F0B2FB7E
:109040000120FFF7B3FFFF2805D1042385F8543929
:10905000022003B030BD092385F85439044BD3F8FE
:109060009031C5F844392046F3E700BFD016002000
:10907000C827002013B540F040038DF800300B0ED8
:109080008DF801300B0C8DF802300B0A8DF803308F
:10909000952304468DF804108DF8053051F0D0FF6B
:1090A00000B964B907480623D0F884096A4600214C
:1090B00054F078FB0820FFF779FF02B010BDFF20C5
:1090C000FBE700BFD01600202DE9F041194C1E46E9
:1090D00094F85439042B0546884617461CD1FFF7EF
:1090E0002FFF94F84A3903BB69021120FFF7C2FF32
:1090F000E8B9052384F854390F4BC4F83089D3F804
:109100009031C4F83459C4F83C79C4F84069C4F8C3
:1091100044390120BDE8F081082B01D00020F9E797
:10912000FFF77EFF0228F9D1D9E72946DDE7FFF7EF
:1091300017FFF3E7D0160020C827002038B500221B
:109140000F233321022009F0A9FB254CC4F8840920
:1091500010B984F8540938BD002107F076FB4FF4AC
:109160007A700BF0EEFCD4F884090379022B04D159
:1091700083689B0701D508F0F3F800221146D4F864
:109180008409184D0A2354F00DFB174A1421D4F812
:1091900084391879022809D0144BD3F89031C4F8D7
:1091A0004439012384F85439002316E093F9103030
:1091B00001FB0323D3F8B000FEF722FF0028EBD019
:1091C000013DE4D1D4F8840907F032FB94F8483922
:1091D000C4F8845984F85459013384F84839BAE7FB
:1091E000D0160020A186010000000020C827002022
:1091F00038B5134C0023A07BE0B125688D4219D10E
:10920000104C03F581751AB904EB0514A27138BD31
:1092100004F1180101EB43239A4209D1831E5842FD
:10922000584104EB051453F063FF0123A371EEE7EB
:109230000020F6E70133082B04F11004DBD1E6E748
:10924000B45000209C400020174838B5002380F817
:10925000A03000F1180425688D421ED1A57B032D96
:109260001BD1124C03F581754AB904EB0514042394
:10927000A371D0F89C300133C0F89C3038BD04F1A4
:10928000180000EB4320131A5842584104EB051410
:1092900053F02EFF0123A371F0E70133082B04F1F3
:1092A0001004D8D1EAE700BF9C5000209C40002069
:1092B00070B50446144EFFF782FD2046022340227B
:1092C000812154F06EF8402201212046022354F0FF
:1092D00068F80025D6F8183286F80D521B6886F813
:1092E0000C5228469847E06854F0DAF9E06801210A
:1092F00054F0ECF920461F2306F5F672012154F0D4
:10930000B1F9284670BD00BFC82700200E49D1F82A
:10931000883043F47003C1F888300C4B1A68002081
:1093200042F001021A6098601A6822F0847222F4F6
:1093300080321A60064A5A601A6822F480221A6043
:10934000D860044B8B60704700ED00E000380240AD
:10935000103000240000000870472DE9F0414769F3
:1093600006468846002F59D10368C3F30D0515B38F
:10937000D8F800803568FEF71FFF092840F0878085
:10938000444C236923F440732361236943F400733D
:109390002361236943F001032361C5F80080FEF7D0
:1093A0000BFF2369092823F0010323616FD1336880
:1093B0000433336032E0384A934229D302F58042C5
:1093C000934224D302F5804293422AD3334A9342F4
:1093D00029D902F58032934227D902F5003293420F
:1093E00025D902F50032934223D902F50032934287
:1093F00021D902F5003293421FD902F5802293420F
:109400001DD9B3F1016F1CD305200BF0AFFB08256C
:10941000FEF7D2FE092816D04FF0FF373846BDE8D8
:10942000F0811025F4E71825F2E72025F0E728253C
:10943000EEE73025ECE73825EAE74025E8E7482560
:10944000E6E75825E4E7134C236923F440732361CE
:10945000236943F400732361236923F0F803236134
:1094600023691D4345F002052561236943F48033D8
:109470002361FEF7A1FE236923F002032361236920
:10948000092823F0F80323613FF472AFC4E76FF0BB
:109490000107C3E7003C024000400008FFFF00084E
:1094A000002808DB4209012300F01F0003FA00F046
:1094B000014B43F82200704700E100E00028ACBFF8
:1094C00000F16040064B4FEA0111ACBF00F561406E
:1094D00000F00F00C9B2B4BF195480F800137047F0
:1094E00014ED00E02DE9F04798463C4B914603EB24
:1094F000800205469468002C45D02833636004F14F
:109500003E03A36104F59F73E3614FF48073C4E9E4
:109510000433236894F83D00E160A36304F046FE41
:10952000064694F8440294F83CA0271D08B152F076
:10953000B9F994F8450208B152F0B4F9D4F84032C0
:109540001BB1274A116B0B43136318F0080F23D08C
:109550000135EDB21EB14FF4E163F380357218F0BE
:10956000100F94F8462211D00221304609F092F9EA
:1095700094F94702D4F84812FFF7A0FF94F9470284
:10958000FFF78EFF3C462046BDE8F08718F0200F1D
:1095900014BF12213221E8E719F0020F0CD06B1C26
:1095A000DBB21EB14FF4A162F280337294F846220E
:1095B0000221304609F06EF919F0010FD8D050465B
:1095C00004F0F4FD0135EDB218B14FF4C163C3806E
:1095D000057294F846220221C8E700BFE842060857
:1095E000003802400148FEF750BD00BF04010020D2
:1095F0000148FEF74ABD00BF50030020024B586FE0
:10960000C0F30070704700BF003802407047064A40
:10961000002352F83310814201D1D8B27047013390
:109620000E2BF6D1FE207047404306082DE9F04787
:1096300006460068FFF7EBFF0D28054608DD1F4AC8
:109640000021052006F096F900242046BDE8F087A9
:109650001B4F07EB80094FEA8008D9F81CA2BAF12A
:10966000000F1CD10A21642006F04CFA0446C9F808
:109670001C0228B90146134A052006F07BF9E4E7ED
:10968000642251465AF093FD0F48D9F81C322DB28E
:1096900000EBC505C3E90053DB615B63DB64474452
:1096A0007179D7F81C42182000FB014300221C46A8
:1096B000C3E903229E601A750434C6E721D1060867
:1096C000C827002046D1060840430608704770B5F9
:1096D000002828D04C684CB9426815685679AB8987
:1096E00002229BB2B24023EA0203AB818A683AB9F4
:1096F00043681D68AB8923F001031B041B0CAB817D
:10970000816044B14468216864798D890223A34053
:109710002B439BB28B8132B143681A6893899BB209
:1097200043F00103938170BD0B4B30B51A46002402
:109730001D79854208D1DD68294203D0142000FB41
:10974000042030BD0029F9D001340A2C03F11403A0
:10975000EED10020F5E700BF9805002038B503687A
:109760001B681C68254B03F5CC6393ED007A07EE6C
:10977000902AB8EE477AF8EE677A013987EE270A21
:109780008DB2DFED1F7A30EE270A57F0E9FA1D4A55
:1097900023880138944280B29BB212D002F58062D5
:1097A00094420ED0B4F1804F0BD0A2F58032944297
:1097B00007D002F58062944203D002F580629442A1
:1097C00002D123F070039BB20F4A944206D002F5F7
:1097D000806294421CBF23F440739BB22380094BE8
:1097E000E5629C42208503D003F580639C4201D151
:1097F000002323860123A38238BD00BF0000002080
:109800000AD7233C000001400010004010B5044678
:10981000FFF7A4FF23681B68587990B1032140B279
:10982000FFF74CFE23681B685A7993F90530002B2B
:1098300007DB02F01F0101228A405B09104941F851
:10984000232023681B68987990B1032140B2FFF769
:1098500035FE23681B689A7993F90630002B07DBE5
:1098600002F01F0101228A405B09054941F82320CB
:1098700063681A6813889BB243F00103138010BD1C
:1098800000E100E070B546684C4C73792344002930
:1098900093F8C85014BF002002200123CC3454F8A0
:1098A00023108A4225D25A1E336892B2198C2DBBDE
:1098B00021F001010904090C1984198B1C8C89B24F
:1098C00021F0F301A4B241EA021224F00A0192B29B
:1098D000084342F0010240F001001A8318841A8BF9
:1098E00022F00C021204120C1A831A8B92B21A8301
:1098F00070BD0133102BD2D10F22D5E7042D1CD11E
:1099000021F010010904090C19841C8B198C24F412
:109910004074240589B2240D44EA023221F0A001EA
:1099200092B241EA001042F4807240F010001A83B3
:1099300018841A8B22F44062D4E7082D21D121F437
:1099400080710904090C1984998B1C8C89B221F04F
:10995000F301A4B241EA021224F4206192B241EA76
:10996000002042F0010240F480709A8318849A8BA0
:1099700022F00C021204120C9A839A8B92B29A83F0
:10998000B6E721F480510904090C1984998B1C8CC9
:1099900021F440710905090D41EA023245F6FF71D3
:1099A000214092B241EA003042F4807240F480508B
:1099B0009A8318849A8B22F44062DBE7E842060817
:1099C0002DE9F0434568A87910F0040300F0020285
:1099D0000BD0002017468046042406466B79032BE3
:1099E00049D8DFE803F0094A89C990464FF48070EE
:1099F0001F461C460126F1E72D682B8C23F001033E
:109A00001B041B0C2B84B5F820C0B5F804902B8BDD
:109A100023F073031B041B0C43F0600E2CF0020CAC
:109A20006E4B4FEA0C4C4FEA1C4C48EA06069D422E
:109A30001FFA89F94CEA060C03D003F580639D42B6
:109A40000AD14FF6F3730CEA03033B4329F4407940
:109A500043EA040C40EA0909A5F80490A5F818E0C7
:109A60006963A5F820C02B8B23F008031B041B0C93
:109A700043F008032B83BDE8F0832D682B8C23F083
:109A800010031B041B0C2B842A8CB5F804E0B5F8DA
:109A900018C0524B2CF4E64C22F020024FEA0C4C3A
:109AA00012044FEA1C4C120C48EA06069D421FFAAB
:109AB0008EFE4CF4C04C42EA061203D003F58063DC
:109AC0009D420BD122F0800242EA071222F04002AE
:109AD0002EF4406E42EA04124EEA800EA5F804E02D
:109AE000A5F818C0A9632A842B8B23F400631B04F8
:109AF0001B0C43F40063BDE72D682B8C23F48073AB
:109B00001B041B0C2B842A8CB5F804E0B5F81CC090
:109B100022F400732CF0730C304A4FEA0C4C1B04F7
:109B20004FEA1C4C1B0C48EA060695421FFA8EFEB3
:109B30004CF0600C43EA062303D002F580629542A4
:109B40000BD123F4006343EA072323F480632EF44C
:109B5000405E43EA04234EEA001EA5F804E0A5F89F
:109B60001CC0E9632B84AB8B23F008031B041B0C84
:109B700043F00803AB837EE72C68238C23F48053E7
:109B80001B041B0C2384258CA288A38B25F4005571
:109B90002D0448EA06062D0C23F4E64345EA063573
:109BA0000E4E1B041B0CB44292B243F4C04303D0CC
:109BB00006F58066B44203D122F4804242EA801264
:109BC000A280A38321642584A38B23F400631B0458
:109BD0001B0C43F40063A3834DE700BF000001406A
:109BE00043685A79032A0FD8DFE802F00205080B10
:109BF00018683430704718683830704718683C303F
:109C000070471868403070470020704710B54368AF
:109C10001A685879084B0344012093F8C840138C04
:109C2000A0409BB223EA00031384138CA140194384
:109C300089B2118410BD00BFE8420608F0B5EFF309
:109C40001184102383F31288C5684668AA681368D4
:109C500023F00103136032687779104E938936F848
:109C600017609BB223EA060393812A696D681F2A55
:109C70004FF0200385BF203A93409340EB6098BF9C
:109C8000AB60E3B283F31188C3689B6859601A68BC
:109C900042F001021A6001230374F0BDE842060895
:109CA0000268137D012B04BF0223137592F82C1058
:109CB0000CBF4FF400730023012904BF022182F876
:109CC0002C1092F8441008BF43F48063012904BFAC
:109CD000022182F8441092F85C1008BF43F400633C
:109CE00001290DD1022182F85C1043F480534268AF
:109CF000116800224A628A8992B213438B8101E083
:109D0000002BF4D17047034B0348D3F81C12FEF725
:109D10009DBC00BFC82700200000014010B5064CC4
:109D20000648D4F81C12FEF791FCD4F83C12044803
:109D3000BDE81040FEF78ABCC827002000000140A3
:109D40000040014010B5064C0648D4F81C12FEF73E
:109D50007DFCD4F840120448BDE81040FEF776BC04
:109D6000C8270020000001400044014010B5064C07
:109D70000648D4F81C12FEF769FCD4F844120448D3
:109D8000BDE81040FEF762BCC8270020000001407B
:109D900000480140034B4FF08040D3F82012FEF7FB
:109DA00055BC00BFC8270020024B0348D3F824123B
:109DB000FEF74CBCC827002000040040024B0348BB
:109DC000D3F82812FEF742BCC82700200008004044
:109DD000024B0348D3F82C12FEF738BCC8270020EA
:109DE000000C00400348D0F8703613B100F26460F4
:109DF00018477047000000200348D0F8903613B190
:109E000000F2846018477047000000200348D0F833
:109E1000B03613B100F2A46018477047000000206C
:109E20000348D0F8D03613B100F2C4601847704729
:109E3000000000200348D0F8F03613B100F2E460CF
:109E400018477047000000200348D0F8103713B1BE
:109E500000F2047018477047000000200348D0F853
:109E6000303713B100F2247018477047000000200B
:109E70000348D0F8503713B100F2447018477047C8
:109E8000000000200348D0F8703713B100F264706E
:109E900018477047000000200348D0F8903713B1EE
:109EA00000F2847018477047000000200348D0F883
:109EB000B03713B100F2A4701847704700000020BB
:109EC0000348D0F8D03713B100F2C4701847704778
:109ED000000000200348D0F8F03713B100F2E4701E
:109EE00018477047000000200348D0F8103813B11D
:109EF00000F6040018477047000000200348D0F81F
:109F0000303813B100F624001847704700000020D5
:109F10000348D0F8503813B100F644001847704792
:109F200000000020036823F00103036000230360A6
:109F300043608360C3600361212343612A4B9842DD
:109F400003D13D2243F8082C7047284B984204D196
:109F50004FF4746243F8202C7047254B984204D18B
:109F60004FF4741243F8382C7047224B984204D1B6
:109F70004FF0746243F8502C70471F4B984203D146
:109F80001E4A43F8642C70471D4B984203D11D4A6A
:109F900043F87C2C70471C4B984203D11B4A43F872
:109FA000942C70471A4B984204D14FF03D5243F81D
:109FB000AC2C17E0174B9842C3D0174B9842C7D030
:109FC000164B9842CCD0164B9842D1D0154B9842A4
:109FD000D6D0154B9842DAD0144B9842DED0144BB1
:109FE0009842E2D0704700BF1060024028600240F3
:109FF0004060024058600240706002403D00002016
:10A0000088600240400F0020A060024000003D2018
:10A01000B86002401064024028640240406402407C
:10A02000586402407064024088640240A0640240A8
:10A03000B86402402DE9F0410022012603250B6897
:10A0400006FA02FC3CEA030331D10368540005FA26
:10A0500004FE23EA0E0303600B79D0F800806FEA58
:10A060000E0703FA04FE013B4EEA080E012BC0F86E
:10A0700000E011D883681F4087604B798768A34050
:10A080003B438360436823EA0C0343608B79476852
:10A0900093409BB23B434360C36805FA04F723EA4D
:10A0A0000703C360CB79C768A3403B43C360013259
:10A0B000102AC4D1BDE8F081204A936803F00C0354
:10A0C000042B10B520D0082B20D01D4B1B4C036057
:10A0D000A3681C4AC3F30313134493F8641803687A
:10A0E000CB404360A168C1F38221114491F8641808
:10A0F00023FA01F18160A168C1F342310A4492F868
:10A100006428D340C36010BD0F4BDFE7536851682C
:10A1100013F4800F01F03F01536814BF0A4A084A44
:10A12000B2FBF1F1054A5268C2F30142C3F388134E
:10A1300001324B435200B3FBF2F3C7E70038024051
:10A140000024F4000000002040787D01F0B5446B4D
:10A150008668A38923F400531B041B0CA381827916
:10A16000278A0546BFB2100312F0040F4FEA0221FE
:10A1700000F400506A7927F4405740EA0700208233
:10A1800014BF4FF4805C4FF0000C12F0010F0CBFB5
:10A19000002304239207A28922F4B05201F48061C3
:10A1A00022F00C0248BF43F0080341EA0C011204FC
:10A1B0000B43120C1A43A281A38A23F440731B049D
:10A1C0001B0C85B0A3826846FFF776FF214B9C42AB
:10A1D00003D003F580639C423AD1039BA2891921E5
:10A1E000170401FB03F34FF064014CBF7600B60087
:10A1F000B3FBF6F3B3FBF1F001FB10330201A089CE
:10A2000000044BBFDB001B01323332334BBFB3FBC7
:10A21000F1F3B3FBF1F303F0070303F00F03134370
:10A220009BB223816A6BAB7913F0080F938A0BBF43
:10A2300023F008039BB21B0443F0080308BF1B0C68
:10A24000938293899BB243F40053938105B0F0BD90
:10A25000029BC3E7001001402DE9F8431E46204B46
:10A260009DF820509DF824709842894690462CD144
:10A270003B462A4631460020FFF734F904460020C9
:10A28000C4E90700C4E90900C4E90B986571A66038
:10A29000A7712046FFF75AFFEA0707D5636B4FF611
:10A2A000DF721A80DA6842F02002DA60626BAB0774
:10A2B00042BFD36843F08003D36093899BB243F4D9
:10A2C000005393812046BDE8F883064B984204D1A1
:10A2D0003B462A4631460120CEE70024F2E700BF84
:10A2E000001001400044004081602FE741712DE7DC
:10A2F0002DE9F043654F07EBC00985B005464FEAED
:10A30000C00899F8780803F051FF064699F87908D3
:10A3100003F04CFF044699F87A0851F0C3FA6B1C1D
:10A32000DBB21EB140F60E12F28033721CB140F661
:10A330000E22E280237204223A21304608F0AAFA63
:10A34000204604223A2108F0A5FA07EB0803D3F8C7
:10A3500074484F4B9C4263D103F5F2331A6A42F4BE
:10A3600000121A621A6A22F400121A62474497F81D
:10A370007B38022B6ED0032B6ED0464E464A012B03
:10A3800008BF1646A78827F03F0768463F04FFF737
:10A3900093FE3F0C029A414BB2FBF3F398B2074392
:10A3A000A780218821F001010904090C21803C4982
:10A3B0008E4253D13B4BB2FBF3F2013092B2042AEE
:10A3C00080B238BF04222084A28323889BB243F04A
:10A3D00001032380238823F4816323F002031B04F9
:10A3E0001B0C43F4806323804FF480432381238834
:10A3F00023F080031B041B0C238023889BB243F0B3
:10A4000001032380284B03EB4513012283F85922D3
:10A41000002283F8585283F85A2205B0BDE8F08331
:10A42000224B9C4209D103F5F0331A6A42F48002B0
:10A430001A621A6A22F4800297E71D4B9C4295D15A
:10A4400003F5EE331A6A42F400021A621A6A22F421
:10A4500000028AE7124E95E7124E93E706EB460696
:10A46000B2FBF6F291B2C2F30B020AB941F001015C
:10A4700041F400424FF496714B434FF47A71B3FBB1
:10A48000F1F301339BB223849EE700BF000000205C
:10A4900000540040801A060000350C0040420F00B6
:10A4A000A0860100400D0300C8270020005800408E
:10A4B000005C00402DE9F047B74D460105EB40191F
:10A4C0000AF000FB99F95822B44B8846D10003EBFF
:10A4D000C2020746D2F8744899F85A22013A142A5F
:10A4E00000F28380DFE812F0790089009F00B70056
:10A4F000C200CC00D500EA00F5000A011501640194
:10A500007D01A301060217022902320243026702FB
:10A5100015005F184FF0090A97F8780803F046FE17
:10A52000044697F8790803F041FEB5F8B8320133D4
:10A530009BB207462046A5F8B83206F00CFF384615
:10A5400006F009FF1121204607F03FFE1121384691
:10A5500007F03BFE4FF0650803E0052000210AF0FC
:10A56000DFFA204606F0E6FE10B9B8F10108F4D192
:10A57000204607F025FE002105200AF0D1FA2046EA
:10A5800006F0E9FE052000210AF0CAFABAF1010A34
:10A59000E0D1204607F014FE002105200AF0C0FAA1
:10A5A000384607F00DFE002105200AF0B9FA2046D2
:10A5B00006F0D1FE052000210AF0B2FA384606F076
:10A5C000CAFEAB1993F95802431C01D0FFF790FE65
:10A5D000AB19002283F85A2207E0238813F4007392
:10A5E00040F02381AA1982F85A32AB1993F85A32F3
:10A5F000002B7FF465AFBDE8F087238823F4006368
:10A600001B041B0C238023889BB243F480632380AC
:10A6100023889BB243F480732380AB19C3E99878F5
:10A62000032283F85A225E492046FDF7D6FDAB1976
:10A63000002855D093F86A225AB993F86B22FF2A62
:10A6400004D193F868220AB10A22C3E7AB190422A5
:10A65000C0E70F22BEE7AB1993F8692202F0FE02B1
:10A660002282C3E99878052283F85A224D49204670
:10A67000FDF7B3FD002800F07081AB190622A9E7B1
:10A68000AB1993F86B222282C3E99878072283F8EA
:10A690005A2245492046FDF7A0FD002800F05D81C3
:10A6A000AB19D3F86C223AB9228892B242F4007204
:10A6B0002280C3E998780EE108228BE723889BB2B9
:10A6C00043F480732380AB19C3E99878092283F897
:10A6D0005A2233492046FDF780FDAB190028B3D13B
:10A6E000D3E9980142F21072381A68EB01019042E6
:10A6F00071F10002FFF479AF15226BE7AB1993F803
:10A70000692242F001022282C3E998780B2283F881
:10A710005A2226492046FDF760FD002800F01D81E1
:10A72000AA19D2F86C32012B1AD1238823F4806342
:10A730001B041B0C2380EFF31181102383F3128879
:10A74000238B23889BB243F400732380CBB283F323
:10A7500011880C2382F85A32AB19C3E9987844E780
:10A76000022B15D123889BB243F400632380EFF3BF
:10A770001181102383F31288238B238823F48063B1
:10A780001B041B0C2380CBB283F311880D23E1E75C
:10A79000238B0E23DEE700BFC82700200000002027
:10A7A000010003008200070084000700020003008C
:10A7B00086492046FDF71CFDAB19002890D0D3F840
:10A7C0007022511CC3F87012218A1170D3F86C22C8
:10A7D000013AC3F86C220122C3E9987883F8742205
:10A7E000F8E67B492046FDF703FDF0B1EFF3118257
:10A7F000102383F3128823889BB243F400732380D1
:10A80000AB19D2B2D3F87012481CC3F87002208A78
:10A81000087082F31188D3F87022511CC3F87012AB
:10A82000218A11706FF00102D3E7AB1958E768492C
:10A830002046FDF7DDFCAB1900283FF451AFD3F8FB
:10A840006C22032A03F5187130D1228822F4806229
:10A850001204120C2280EFF31180102282F312886E
:10A86000D3F8702202F1010CC3F870C2B4F810C022
:10A8700082F800C0228892B242F400722280C2B2F2
:10A8800082F31188D3F87022501CC3F87002208A1A
:10A890001070D3F86C22023AC3F86C220C2283F8B1
:10A8A0005A22C3F86072C1F804809EE6022A14D8C6
:10A8B000228822F480621204120C2280228892B232
:10A8C00042F400722280228AC3F86072002283F868
:10A8D0007422C1F8048001227CE6D3F87022501C57
:10A8E000C3F87002208A1070D3F86C22013AC3F8C2
:10A8F0006C22D6E7238823F480631B041B0C23807F
:10A90000AB1993F8692202F0FE022282C3E998781B
:10A91000102283F85A222F492046FDF75EFCE0B151
:10A92000AB1993F86B22FF2A04D193F868220AB17D
:10A9300013224FE6AB1911224CE6AB1993F86B22A8
:10A940002282C3E99878122283F85A2222492046AB
:10A95000FDF743FC08B1AB19EAE720492046FDF7B3
:10A9600047FCAB1900283FF4BBAE142232E6AB190A
:10A9700003F51870D3F86C2282B1D3F87012013A43
:10A9800011F801CBA4F810C0C3F86C22C3F86072B0
:10A99000C3F87012C0F8048012221BE6228892B21B
:10A9A00042F4007222800122C3F8607283F874229C
:10A9B000C0F804800EE623889BB243F40073238022
:10A9C0004FF6FF33A382AB1973E600BF40000010BF
:10A9D000040000108200070084000700000400103B
:10A9E00038B5114C04EB401494F85952D5B1C4F861
:10A9F0006C32049BC4F87032002384F87432022352
:10AA0000490084F86B2284F85A3201229DF81430F0
:10AA100084F8691284F86A2284F86832FFF74AFDE4
:10AA200094F87452284638BDC827002038B5114C18
:10AA300004EB401494F85952CDB1C4F86C32049B25
:10AA4000C4F870320223490084F86B2284F85A3229
:10AA500000229DF8143084F8691284F86A2284F880
:10AA6000742284F86832FFF725FD94F87452284662
:10AA700038BD00BFC8270020F0B587B00023009381
:10AA80000193744B1A6842F480321A601A6802F417
:10AA900000320192009A01320092019A1AB9009A8A
:10AAA000B2F5A04FF2D11B6813F4003318BF012395
:10AAB0000193019B012B40F0B180664B66491A6CF3
:10AAC00042F080521A640A6842F440420A609A686E
:10AAD0009A609A689A609A6842F480529A605F4AD3
:10AAE0005A601A6842F080721A601A689201FCD5A6
:10AAF0005B4A40F2027111609A6822F003029A6088
:10AB00009A6842F002029A60524A936803F00C037A
:10AB1000082BFAD19368534C03F00C03042B7FD01D
:10AB2000082B7FD0504BC4F860364A4B4F4D9A6883
:10AB30004F48C2F303122244002692F88C18D4F82E
:10AB40006026CA40C4F860264A4AEA605A6F4A4AF8
:10AB5000AA605A6B22F080025A635A6F42F08072E8
:10AB60005A67196B454A0A431A635A6B5A631A6C3F
:10AB700042F0875242F4F61242F41F6242F00F0292
:10AB80001A64596C3E4A0A435A6402A948F2FF7398
:10AB9000CDE902364FF6FF77FFF74CFA00F58060FB
:10ABA0000297FFF747FA00F580600297FFF742FA35
:10ABB00000F58060FFF73EFA00F58060FFF73AFA93
:10ABC0000846FFF779FA029B2E4AB3FBF2F32E4AAE
:10ABD000C2F8BC32D5F8FC302C4A43F08073C5F87B
:10ABE000FC302B4BC3F8B02F5E601A6842F00102B4
:10ABF0001A60D4F860364FF47A72B3FBF2F3013B7B
:10AC0000B3F1807F08D24FF0E0225361F02385F842
:10AC1000233007239661136107B0F0BD00BFFDE745
:10AC20001C4B80E75368516813F4800F01F03F011B
:10AC3000536814BF174A0C4AB2FBF1F1054A526837
:10AC4000C2F30142C3F3881301324B435200B3FBFA
:10AC5000F2F368E7003802400070004019544107E1
:10AC6000003C0240000000200024F40000ED00E061
:10AC7000000002400003FA05000000081F90670072
:10AC80003357070040420F00C827002055CEACC5FF
:10AC9000001000E040787D0182B000230193054B55
:10ACA0000193019B03EB80000190019B196002B0AE
:10ACB000704700BF5028004082B000230193054B2D
:10ACC0000193019B03EB80000190019B186802B087
:10ACD000704700BF5028004010B51C2003F066FAF2
:10ACE0001121044607F071FA204607F069FAC820DE
:10ACF00009F027FF2046BDE8104006F02CBB436D4D
:10AD0000064A1A61C278012A06D100F2CC50586175
:10AD10001A684FF080221A60704700BF1800086060
:10AD200038B5044600296FD190F81131022B2AD191
:10AD3000D0F83821D0F824118A4232D9C378012BB7
:10AD400004BFD0F828315B18A2EB010208BFC0F89D
:10AD500028314FF48071D0F82831C0F8382100250F
:10AD600092B2A0F81C11C0F82C31C0F83451C0F8D0
:10AD7000302100F58E7152F05FFB2B462A462946A2
:10AD8000204652F06FFC94F81631012B07D1244A6B
:10AD90002369D2F8A0215A60002384F816310020DC
:10ADA00038BDD0F83C31B3FBF1F501FB1535A5B941
:10ADB000994212D8D0F8402193420ED24FF48073BA
:10ADC000C0E94A55C0E94C55A0F81C3100F58E7118
:10ADD00052F032FBC4F84051CFE7D4F8E435DB68D9
:10ADE0002BB194F81221032A01D12046984705235C
:10ADF00084F81131002320461A46194652F032FCDD
:10AE00002046FFF77CFFBEE7D0F8E4355B69002BF6
:10AE1000C5D090F81221032AC1D19847BFE700BFDF
:10AE2000C827002070477047704710B5114C94F840
:10AE3000CA32CBB14FF0E022D2F8103D23F0060326
:10AE4000C2F8103DFEF762FA94F8CA3263B1D4F842
:10AE5000D0329B68DB0707D5D4F8CC23136823F0E6
:10AE6000030161F307031360034B4FF480225A611F
:10AE700010BD00BFC8270020003C01402DE9F04F65
:10AE8000974CD4F8CC325A69D0078DB000F1A58226
:10AE90005A699B691340019300F09F82C3F30743F3
:10AEA0000293019B190311D5D4F8D032DFF83C92FC
:10AEB0009E69DB6904F5307B1E40360C04F545774E
:10AEC0004FF00008DA46002E40F01681029B5A0728
:10AED0000FD5D4F8D032834E9F69DB691F40BFB2D3
:10AEE000A6F118054FF00009A6F53678002F40F0BE
:10AEF0004881019B9DF80470980741BF784BD3F8B7
:10AF0000CC3202225A61019B002B1BDA744D95F85A
:10AF1000CA323BB1D5F8CC23136823F0030161F3A7
:10AF200007031360D5F8D0226F48536823F001035C
:10AF300053606E4BD3F8B4389847D5F8CC324FF005
:10AF400000425A61019B1905C3F3072631D5644DB0
:10AF500000238DF81F3095F8D2338DF81F30634BE6
:10AF600005F53070D3F8B0389847D5F8CC22D5F82D
:10AF7000D0324FF400619B68516195F8CA22C2B18A
:10AF8000DA0716D595F8D533012B12D19DF81F306D
:10AF9000032B0ED1D5F8CC331A6842F001021A60A7
:10AFA0001A6842F003021A60514A136943F006031B
:10AFB00013613B070AD54A4D4C4B05F53070D3F869
:10AFC000A8389847D5F8CC3208225A61FD0615D525
:10AFD000434BD3F8CC02826922F010028261026AEC
:10AFE000C2F34341022902F00F0500F087810629D0
:10AFF00000F0AB81836943F010038361F00637D51D
:10B00000374DD5F8D022D5F8CC025368002723F06D
:10B0100001035360394652F059FBB84695F8C10216
:10B020003B4605F53675FF218342C0F09C81D4F87C
:10B03000D0322D484FF0FF329A614FF00112DA61A1
:10B040000B2262F3070762F307085F61C3F8108001
:10B050001A686FF30A121A60FFF751FED4F8CC3267
:10B0600021484FF480525A61204BD3F8AC389847AE
:10B07000B10640F194811A4CD4F8D032D4F8D802F9
:10B0800099680268C1F34101022906BF032161F3F7
:10B090000A026FF30A0202605A6842F480725A6030
:10B0A00008A8FFF709F8D4F8CC12D4F8D002CB687E
:10B0B000099A6FF38D23CB6085680E48C5F341056F
:10B0C000284490F80C01032840F05481002284F8B1
:10B0D000C2224FF40072A4F8C422092259E100BF31
:10B0E000C8270020A02A0020882A00200000002075
:10B0F00000ED00E0E8420608F2073BD55FFA88F170
:10B1000004EB8103D3F814339D68D4F8D0325B6923
:10B110001D40EB0720D594F8C3023B680125A842E7
:10B120009D6007D11869DBF87C33C0F312001B1A4D
:10B13000CBF88C33D9F89C385046984794F8C332F2
:10B14000012B09D1B8F1000F06D194F8D133052BAA
:10B1500002D15046FFF7D3FDA80742BF3B68022546
:10B160009D60290706D5D9F8A438504698473B6812
:10B1700008229A6008F10108760804370BF1280BC1
:10B18000A1E6FB0777D5D8F8D0325FFA89FA1969BA
:10B19000586B08EB8A0220FA0AFBD2F8D8224FEA51
:10B1A000CB1B92685FFA8BFB4BEA010B0BEA020B9D
:10B1B0001BF0010F1ED05A6BA8484FF0010B0BFA81
:10B1C00009F122EA01025A633368C3F808B0A44BBC
:10B1D0005146D3F8A038984798F8C3325B4509D157
:10B1E000B9F1000F06D198F8D133042B02D19B4856
:10B1F000FFF785FD1BF0080F1EBF33684FF0080BEB
:10B20000C3F808B01BF0100F1EBF33684FF0100BCF
:10B21000C3F808B01BF0400F1EBF33684FF0400B5F
:10B22000C3F808B01BF0020F1EBF33684FF0020BCB
:10B23000C3F808B01BF0800F1DD0D5E94C329B1A23
:10B24000D5F82421D6F800E098F8C3B2DEF818004B
:10B25000934228BF13460333D8F8D02203920AF151
:10B26000320A9B0808EB8A0A80B2984203D9D5E9D2
:10B270004C03984205D809F101097F0804362835A6
:10B2800034E6C01AD5F82431984228BF1846C31CAA
:10B290009B08BBF1000F1CD0D5F82811D5F834213C
:10B2A0000144C5F82811D5F8301102448A42DEF86D
:10B2B0001800C5F83421D7D1039A95F81C11526BA8
:10B2C0004FF0010C0CFA01F122EA010203994A63E2
:10B2D000CAE7D5F82821049282B2DAF8C8120332FC
:10B2E00092108C4605925946059A8A42D4D0049A07
:10B2F00052F82120CCF800200131F5E747F6F07133
:10B3000011423FF477AE282101FB0531C2F30A1246
:10B31000D71CD3F890E3D1F840C6BF1000218F426C
:10B320000DD1282101FB0533D3F840161144C3F891
:10B330004016D3F84C160A44C3F84C265AE6DEF8F9
:10B3400000804CF821800131E9E7D3F890130F68B1
:10B35000C3F88C780968C3F89018282101FB0533DD
:10B36000C2F30A12E5E755F8042B9160AA6B01338A
:10B37000916059E6012084F8C2024020A4F8C4027A
:10B38000A0F56400374CA0F562401044A04227D8D5
:10B390000E2262F38D23CB604FF400534B61029B6E
:10B3A000DA060BD5304C2E4B04F53070D3F8B83894
:10B3B0009847D4F8CC324FF480125A61029B9B0616
:10B3C0000BD5294C264B04F53070D3F8BC38984780
:10B3D000D4F8CC324FF400125A610DB0BDE8F08FB2
:10B3E000224CA2F57400A0F51050A04201D80D2205
:10B3F000CFE71F481F4C1044A04201D20C22C8E7DF
:10B400001D4CA2F18C70A0F54340A04201D80B2244
:10B41000BFE71A481A4C1044A04201D20A22B8E7EA
:10B420001848194C1044A042FFF457AE174CA2F133
:10B43000B770A0F55850A04201D20822A9E71448DD
:10B44000144C1044A04201D20722A2E71248104433
:10B45000124A904234BF062205229AE7882A002029
:10B46000000000203F420F00C8270020DFC8100066
:10B470002013FBFE20D61300FF69180000D3CEFE78
:10B4800040771B00C05BB3FEC091210040AC270099
:10B49000C01D6AFE40E13300803C36FEE09C410066
:10B4A000034BD3F8800908B105F044BF0120704771
:10B4B000D016002010B5FFF7F3FF0F4C18B900238A
:10B4C00084F8543910BD94F85439032B04D9D4F8B6
:10B4D0008409002105F0B9F994F848390133DBB249
:10B4E000072B84F84839EAD8044BD3F89031C4F8D4
:10B4F00044390123E4E700BFD0160020C82700200C
:10B500002DE9FF47D14CD4F88409002800F0C1810F
:10B51000CF4DD04E04F5176794F85439013B082BF2
:10B5200000F2A081DFE813F009004100CE009E0187
:10B53000BC012D017A019E01F401FDF701FD0021FE
:10B540000846FDF797FD8046FDF70AFDB8F1010FAB
:10B5500040F088814FF0000984F84999FDF7F0FC2C
:10B5600040F2AB110820FDF785FD05280CD184F8C9
:10B570004989FDF7F5FC94F84939002B00F0628108
:10B58000022384F85439C7E70128F2D10423D4F800
:10B5900084094A46694652F005F99DF80330AB2B01
:10B5A00004BF022384F84939E3E7FDF7C9FC94F8A6
:10B5B0004939022B0CBF4FF080484FF000080021A2
:10B5C0003720FDF757FD41462920FDF753FD804602
:10B5D000FDF7C6FCB8F1000F40F0448194F84939FA
:10B5E000022B39D1FDF7ACFC41463A20FDF742FD74
:10B5F000042381464246D4F88409694652F0D2F8C1
:10B60000FDF7AEFCB9F1000F02D0FFF753FF83E75F
:10B61000009B1BBAC3F3807384F84A39FDF790FC92
:10B6200000210920FDF726FD98B910213846FDF7C5
:10B63000D5FC814668B901217F204FF0E1FC01284B
:10B64000804606D1022148464FF0DAFC38B1012885
:10B650002CD0FDF785FC05E184F84A89DEE704215A
:10B660002C204FF0CDFC032182464E204FF0C8FC29
:10B670000C21814636204FF0C3FC09F10202411C27
:10B6800001FA02F208FA0AF3A2FB03385B0A43EA62
:10B69000C853C4F85839FDF763FCFDF751FC00218D
:10B6A0000A20FDF7E7FC50B903236AE716213A2088
:10B6B0004FF0A6FC01308002C4F85809EBE7FDF713
:10B6C0004FFCA2E710216846FDF788FC002840F0F7
:10B6D000C9809DF8003084F85E39BDF801305BBA4E
:10B6E000A4F85C399DF8033084F85F399DF8043084
:10B6F00084F860399DF8053084F861399DF806308A
:10B7000084F862399DF8073084F863399DF8083071
:10B710001A0903F00F0384F86939DDF8093084F859
:10B7200068291BBAC4F864399DF80D309DF80E20C5
:10B730001B01DBB243EA121303F5FA6302F00F02B6
:10B74000A4F86A3984F86C29FDF70AFC94F84A39A0
:10B750006BB9FDF7F5FB4FF400711020FDF78AFC83
:10B760008046FDF7FDFBB8F1000F7FF44EAFD4F833
:10B770008409022105F069F80023C4F85039042334
:10B78000FFE694F83819D4F83029D4F884098023D6
:10B7900002EBC112002152F005F894F83839013358
:10B7A000DBB2042B84F838395CD1D4F88409022345
:10B7B0003246002151F0F6FF0123D4F8840900221B
:10B7C000694651F0EFFF9DF8003003F01F03052B91
:10B7D00014D1072384F854391D4BD4F83C59D3F8BD
:10B7E0009031C4F84439002D3CD0D4F84039D4F815
:10B7F0003029D4F834190120A84733E0FFF75AFE66
:10B80000D4F83C89B8F1000F3FF486AED4F8403943
:10B81000D4F8341900220120C0477DE64FF010FC17
:10B8200000287CD0002384F84839D4F85039012B03
:10B8300012D9013BC4F85039D4F84C390133C4F85B
:10B840004C39082384F854390CE000BFD01600208E
:10B85000C8270020F84306081ED1FDF7E1FB0228A7
:10B860003FF4F7AE94F85439013B022B09D8314B21
:10B87000D4F84429D3F890319B1AC82B01D9FFF78B
:10B8800019FE94F85409042852D0A0F10803584234
:10B89000584104B0BDE8F087042384F85439D8E651
:10B8A000D4F830094FF40071FDF798FB0128804669
:10B8B00016D002281BD00028D4D1FDF751FBD4F8B4
:10B8C0003C5984F84889042384F85439002DC9D0A0
:10B8D000D4F84039D4F83029D4F8341940468BE7ED
:10B8E000D4F84439D5F8902164339342BAD2FDF7A5
:10B8F00037FBFFF7DFFDD4F83C89B8F1000F3FF4C8
:10B900000BAE0022D4F84039D4F83419104683E73E
:10B910004FF096FB18B1FDF723FB042392E7D4F810
:10B920004439D5F89021FA339342FFF46EAE99E78B
:10B930000120AEE7C82700202DE9F341284C054639
:10B940000E4690461F4694F85439042B0BD0082B12
:10B9500007D1D4F84C39AB4219D0FDF761FB02286E
:10B96000F1D001200EE0FDF7EBFA94F84A3963B903
:10B9700069021820FDF77EFB48B1FDF7F1FAFFF7E9
:10B9800099FD032002B0BDE8F0812946F1E794F863
:10B990005439D4F88409082B0CBFFC23FE23FF2262
:10B9A0008DF804208DF8053001AA0223002151F002
:10B9B000F9FED4F8840980233246002151F0F2FECA
:10B9C000012384F838390623C4F83069C4F834599F
:10B9D000C4F83C89C4F8407984F854390020D1E790
:10B9E000D016002070B51C4C94F85439042B054631
:10B9F0000E4610D1FDF7A4FA00213720FDF73AFBDF
:10BA000031461720FDF736FB90B1FDF7A9FAFFF795
:10BA100051FD032002E0082B01D0012070BDD4F8B5
:10BA20004C39834214D0FDF7FBFA0228F5D1E1E747
:10BA300094F84A3973B969021920FDF71BFB0028F5
:10BA4000E3D1082384F85439C4F85069C4F84C5938
:10BA50000220E3E72946EFE7D0160020044B054A11
:10BA600003F6C801D3F8C838C2F8B418184700BFA5
:10BA700000000020C8270020034BD3F8B40808B109
:10BA800003691847704700BFC827002008B5002089
:10BA90004FF080FEFFF7E2FFFFF7EEFF0028FBD03C
:10BAA00001204FF077FE002008BD08B5FFF7E4FF46
:10BAB00080F00100404240B208BD2DE9F84FDFF8A8
:10BAC00044800E4617461D460024A54202DC002095
:10BAD000BDE8F88F06EB442A04EB0709D8F8B43820
:10BAE00003B9FEE7D3F804B000231A46514648468E
:10BAF000D8470028F2D0FFF7BFFF0028FBD0013461
:10BB0000E3E700BFC82700202DE9F84FDFF844A085
:10BB10000E4615461F460024A74218DD06EB4429B1
:10BB200005EB040801E0FFF7A7FFDAF8B43843B1EA
:10BB3000D3F80CB000231A4649464046D84700289F
:10BB4000F1D1FFF799FF0028FBD00134E4E7002092
:10BB5000BDE8F88FC8270020034BD3F8B40808B11C
:10BB600043691847704700BFC8270020034BD3F82C
:10BB7000B40808B183691847704700BFC827002080
:10BB8000034BD3F8B40808B1C3691847704700BF26
:10BB9000C827002038B50D461446FFF7F1FF0368AB
:10BBA0002B604FF400732360002038BD034B1B78DB
:10BBB000032B0CBF80204FF4807070479C40002006
:10BBC00008B50B4A68B1816811B10723937008BDAD
:10BBD000FFF7ECFFC2E90311C2E90100117504236C
:10BBE000F4E702F58051012381F8B4315370EEE798
:10BBF0009C40002010B502784368022A0B4A06D107
:10BC0000D2E9800100EB410000EB532010BD016937
:10BC1000D2F81802D2F8104218400239D2F80C3289
:10BC2000400A04FB01001844F0E700BF9C500020CC
:10BC3000074B1B78022B0BBF030AC0F3D413C0B20F
:10BC400000F07F000CBF0B600B601060704700BFFE
:10BC50009C40002090F91A305A1C0AD003F58172DA
:10BC6000124B03EB0213DA796FF30002DA71FF2350
:10BC7000837690F91B104B1C16D00C4A01F581718C
:10BC800002EB011302EB0112DB79D179C3F3450317
:10BC9000012B86BF03F1FF3303F03F03002363F35F
:10BCA0004601FF23D171C376704700BF9C4000203E
:10BCB00008B5FFF77BFF034BD3F81032584340021F
:10BCC00008BD00BF9C5000200378022B09D10D4B0A
:10BCD000D3F820224368B3EB422F2CBF0120002071
:10BCE0007047006960B1084B1B78032B0EBF074BF0
:10BCF00080B24FF6F773984294BF0020012070473E
:10BD0000012070479C5000209C400020F7FFFF0F4F
:10BD1000F7B50D464168C1F308032B44B3F5007F26
:10BD2000044603D22944616001202EE0FFF792FF10
:10BD30000378022B01D16168F4E7164BD3F8102287
:10BD4000B5EB422F4FEA422721DCD3F81832466880
:10BD50001E407342AB421ADCAB19BB4210D30169DF
:10BD6000007E01AA51F098FA012810D1236963617D
:10BD7000019B236163683B449B1BED1B636035445F
:10BD80002046FFF7A1FF0028D5D003B0F0BD00206A
:10BD9000FBE700BF9C50002070B504460E461546D8
:10BDA000FFF7B6FF20B10DB12046A847012007E0FC
:10BDB00094F82800022320B9C4E90B5684F82830EF
:10BDC00070BD1846FCE7054A92F8B411012309B981
:10BDD00082F8B431024A5370704700BF9C50002073
:10BDE0009C40002008B5074BC31A48BF03F2FF135D
:10BDF000B3F5805F4FEA632003D3FFF7E4FF4FF012
:10BE0000FF3008BDB44000202DE9F74F12F0020BBF
:10BE10000191174600F0D180002840F0CE80FFF756
:10BE2000D2FF02266EE04FF0FF36DFF8C4C1DFF824
:10BE3000ACA1B6463446B1460025DCF800109CF8AB
:10BE40000E8088421BD1B8F1000F00F09880D2F824
:10BE50009840624E0134C2F8984005F58172120193
:10BE6000B4502C465D4D04F5817805EB08129679A7
:10BE7000042ED4D8DFE806F0315DB05D6700B8F17C
:10BE8000000F26D0B8F1010F14D105F581780AEB27
:10BE9000081898F8078018F0010F0BD118F07E0FE2
:10BEA00008D15FEAD81116D1DCF80880C14501D964
:10BEB000AE46C1460135082D0CF1100CBDD1751CE4
:10BEC00079D1611C5CD1BEF1FF3F00F085807446E2
:10BED00056E02E46EEE72C46ECE717F0010215D0AF
:10BEE0003F4BD3F8B438002B76D03E495F683E4ACA
:10BEF000002301EB4421B84700286DD005EB08155D
:10BF00000223AB71304603B0BDE8F08F05EB08109B
:10BF1000FE1090F807C0032B66F3C71C80F807C01B
:10BF20002BD94FF6FF72934228BF134605EB081238
:10BF30009380BBF1000F06D005EB041000F5805094
:10BF40001830FCF7F1FA7A0741BF05EB0812D379F4
:10BF500043F00103D371FB0608D505EB0815EB7917
:10BF6000C3F34502013262F34603EB711D4B019AA4
:10BF700003EB442313600126C4E71346D6E72C469F
:10BF8000164E41F2180506EB041C4CF80500D2F8D9
:10BF900098500135C2F8985041F21C024CF80250FA
:10BFA00004F581724FEA021C06EB021246F80C50AF
:10BFB0000025556056E73446E2E70C4AD2F808629D
:10BFC000002E3FF430AFD2E9834505FB0644A04282
:10BFD000FFF429AFFFF7F7FE002693E79C4000200F
:10BFE000C8270020B4400020F19100089C50002098
:10BFF000B45000207FB50F4D01AA0C4602A9FFF7EF
:10C0000017FE05F58053029ED3F800020322002399
:10C0100003A93044FFF7F8FE012808D12978039BD3
:10C02000019A02290CBF23F8124043F8224004B0C1
:10C0300070BD00BF9C4000202DE9F0470D4686B042
:10C04000164604A903AA07462868FFF7F1FD364AF9
:10C050000499D2F8003201EB0308039B013B9C19C1
:10C06000FFF7A4FD2B68E41A0444A2F5805AB4FB40
:10C07000F0F408EB04092968B142A9EB080303D3E3
:10C08000012006B0BDE8F087039A0193FFF78EFD0B
:10C090009419641A8442019B28BF0446002A35D1B2
:10C0A000A04294BF0A220B2205A94046FFF7ACFE2E
:10C0B0000128E6D19AF800002A680599039B022816
:10C0C00002F101022DD1A34222D32B68039A9B1ABD
:10C0D0002344012F2B6014D1B34212D102280BBF8D
:10C0E00004F1004404F1804304F1FF3403F1FF3311
:10C0F0000BBF4FF6FF734FF0FF3221F8143041F8B9
:10C100002320002308F101080393B4E70B22CBE7B7
:10C1100021F8132001330132D5E741F82320013300
:10C120000132A342F9D3D0E79C5000202DE9F04F13
:10C1300085B08346FFF73AFD0C461646814601AAB4
:10C14000206802A9FFF774FD0BF1FF33012B68D9BA
:10C15000019B63B94D46DFF8D080BBF1010F8CBF66
:10C160004FF0000B4FF0010BA8F5805A1BE0FFF7D2
:10C170002AFE02202AE0D8F87821C2B1D8F894012A
:10C18000884214D1D8F81032013A590202EB432305
:10C19000B3FBF1F30344B3FBF5F205FB12320AB132
:10C1A0002B449B1A23602168B142E4D329E0D8F8DC
:10C1B0000002029F0023092203A93844FFF724FE4E
:10C1C000012806D00228D4D00028ECD105B0BDE863
:10C1D000F08F9AF800200399022A07D0032AC8D1C9
:10C1E000019B51F8233023F0704302E0019B31F8AA
:10C1F00013302768B3FA83F35B095B4504D1BE4271
:10C20000E4D826600320E1E7019B2B442F444B45F3
:10C2100027600193E0D3029B013302930023019333
:10C22000C1E7012597E700BF9C50002037B50446C1
:10C23000C0690D4698B10023032201A9FFF7E4FD70
:10C24000012806D1B4F92030002B0ADAFFF7BBFD34
:10C25000022003B030BDE5255554A2680BE0012053
:10C26000F7E7019A012D4FEA431102EB4313F4D093
:10C27000022DF0D0E268DA612278032A04D100228C
:10C280001A775A779A77DA77626A5A83110C998209
:10C29000DFE770B5304D0446042694F83430052BA2
:10C2A0002CD8DFE803F003243139424BD5F80822BB
:10C2B00004F1300102320120FFF738FF012807D0D6
:10C2C0000238C0B2012819D8052384F83430E4E7D5
:10C2D000D5F81012E268236BC5F8143202EB412244
:10C2E000E260E26A236102B963620123EDE7206B39
:10C2F0004FF0FF31FFF77EFE012801D0002070BD16
:10C30000E36A3BB10223E0E7D4E90B01FFF772FED9
:10C310000128F3D10323D8E700212046FFF786FF49
:10C320000128EBD184F83460B7E794F82830082B63
:10C3300002D1002384F828300120E0E794F8283067
:10C34000082B04BF002384F82830034B012283F814
:10C35000B5210220D3E700BF9C5000202DE9F74310
:10C36000DFF81891044694F83850032D00F28180CC
:10C37000DFE805F002106E772046FFF78AFF0128FC
:10C3800002D184F83800EEE7022873D1032384F841
:10C390003830E8E723786668022B18BFD9F81832DE
:10C3A000204618BF1E40FFF725FCC6F34F26074660
:10C3B000361A0023022201A93846FFF725FD06EBB5
:10C3C000070801281FFA88F8054653D101984FF451
:10C3D0000072002157F0EBFEE369FBB16368EBB933
:10C3E000019B4FF020322E211A605A601970C3F859
:10C3F0000720606A5883050C10201A625A6283F87D
:10C40000201083F82110D872C3F82720E26B9D8298
:10C4100022FA00F199865A8783F82B00D9F8101276
:10C420004B1E984508D24FF400712046FFF770FC70
:10C4300050F05EFE0137BCE7C1EBC151490201F586
:10C4400000712046FFF764FC50F052FE02239EE785
:10C45000002384F82830236C0BB12046984701252F
:10C4600008E0236C002084F8280003B198470225D7
:10C4700000E00025284603B0BDE8F0839C50002072
:10C48000F8B52E4E044600F13007A6F5B87594F8BD
:10C490003830032B50D8DFE803F0022E363FD5F8B2
:10C4A00094212261FFF704FCE3681844E060FFF781
:10C4B0007DFB1044C5F89401FFF7FAFBD5F87831FD
:10C4C000181AC5F87801FFF7F3FBD5F87C31181A74
:10C4D000C5F87C012263FFF769FBE36A10446063DF
:10C4E00023B96262012384F83830D0E7FFF75EFB9E
:10C4F000101A2063F6E700213046FFF797FE012867
:10C500000ED10223EFE7626B39460120FFF794FD5D
:10C51000012805D10323E6E700212046FFF786FE28
:10C52000431EDBB2012B06D894F82830062B04BF3B
:10C53000002384F82830F8BD0220F1E70C520020D7
:10C540002DE9F743454D0029044614BF0226002675
:10C5500005F5805794F83C30042B71D8DFE803F0E0
:10C56000290336406300DFF8FC802B78206B032B17
:10C5700053D1404594BF4FF000094FF00109B9F184
:10C58000000F48D101A94EF017FD012863D1206B9F
:10C590004946FFF72FFD01285DD1019B2363D7F8A2
:10C5A0001422013B934294BFC7F81432C7F81422F7
:10C5B000DBE731462046FFF739FE0128034648D124
:10C5C000626B02B1022384F83C30C3E7626B04F172
:10C5D00030010020FFF730FD01283AD10323F2E7B4
:10C5E000E26AD7F89431C7F894219B1AD7F8102241
:10C5F0001B485343D7F8782102EB4322C7F8782130
:10C60000D7F87C21002102EB4323C7F87C31FFF7E8
:10C610000DFE01281DD10423D5E71FFA80F94FF63E
:10C62000F7739945A6E794F82830042B04BF00233C
:10C6300084F82830A36B0BB12046984701200AE00C
:10C64000022094F82830042B05D1002384F82830E8
:10C6500001E00228F5D003B0BDE8F0839C40002043
:10C660000C520020F7FFFF0F70B50378023B012B3F
:10C6700004461CD8237E990623D42046FFF7EAFA05
:10C68000237E1A070AD51F4D95F89801C31F5842FB
:10C69000584150F02DFD002385F898310023237078
:10C6A00084F82830E36A5BB1BDE870401847037E28
:10C6B00013F0060FDED00121FFF7B8FD0128D9D015
:10C6C00070BDE2691049002318014058824211D11F
:10C6D0000E4903F5817201EB0213DB79C3F34503C5
:10C6E000012B0BD8002301EB0212D17963F3460131
:10C6F000D171C2E70133082BE6D1BEE7013B03F05D
:10C700003F03F0E79C500020B45000209C400020E4
:10C7100010B580B1027872B190F828206AB9D0E9DA
:10C72000012494422CBF84608260032280F8282078
:10C73000C162FFF799FF012010BD0020FCE7B1F9AD
:10C7400004300F2B2DE9F34104460D4616460BD15C
:10C750004FF40071FFF7DCFA18B9002002B0BDE811
:10C76000F0814FF6FF73AB802046FFF743FA94F950
:10C770001B20531C074611D01E4B41F2180103EB3E
:10C78000021041588F4230D0FFF71DFB2046FFF7C3
:10C790009BFA0028E1D00023336024E02046FFF715
:10C7A00093FA80460028F1D1381E18BF012050F0BE
:10C7B0009FFC4346112201A93846FFF725FB0128BB
:10C7C000E4D10198FFF70EFBE076019A002ADDD054
:10C7D000AB8801331BB2AB8002EB431333602046BE
:10C7E000FFF708FA28600120B8E7183303EB42236B
:10C7F0000193EAE79C4000202DE9F043A24E87B068
:10C800000446A6F5DC7594F83030042B11D8DFE827
:10C8100013F0130005005E00EF00360104F11C095F
:10C8200001AA49463046FFF78AFF01280ED00228A8
:10C830002FD007B0BDE8F08330464FF0A7F94FF690
:10C84000FF732384012384F83030DCE7019F0FB1AC
:10C850003B7863B93046FFF7FDF9237EDF061BD531
:10C860004FF094F94FF6FF7323840223EBE797F818
:10C870000B8018F0080FD3D10B2204F13101384698
:10C8800057F0E4FC0028CBD1637E88EA0303D90685
:10C8900004D53046FFF7DEF90423D4E7BA8A7B8B50
:10C8A00043EA02436362D5F81022FB69A360520297
:10C8B000B3FBF2F102FB113109B113445B1AE360DF
:10C8C00084F819803046FFF7C5F90323BBE795F8D4
:10C8D000E031002BADD104F11C08092701AA414623
:10C8E0003046FFF72CFF012875D10198002853D05E
:10C8F0000378E52B01D0002BF0D1FFF773FA6349E1
:10C9000001EB0010FBF710FE01F5D070FFF7A2F964
:10C9100020220198002157F04AFC019BD4F83120D5
:10C920001A60D4F835205A60B4F839201A8194F886
:10C930003B209A72019B627EDA7203A803F048FBE7
:10C9400000284CD0524B03A9B3F8B838ADF80830E2
:10C9500002AA08464EF094FA9DF80E209DF80F307A
:10C96000019943EA4213BDF80C20A2F2BC7243EADB
:10C9700042230B829DF810309DF81120DB0243EA20
:10C9800042139DF8122043EA5203CB81019B1A8A7D
:10C990001A83DA89DA8298E795F8B831022B3FF4E6
:10C9A0007BAF95F8E031002B7FF476AFC5E97D339E
:10C9B000D5F8CC2185F8F03185F8EC31D5F8143272
:10C9C00085F8E071C5F8E421C5F8E8313046FFF795
:10C9D000C5FC012882D002283FF45EAF29E7019B05
:10C9E0006FF07E021A7447225A749873D873CDE799
:10C9F000237E9A0608D5E0690023112202A9FFF7D9
:10CA000003FA01287FF415AF20464FF0BFF82269E2
:10CA1000237E8AB91B0708D51E4B93F89821002A5C
:10CA20007FF407AF072283F89821002384F8283089
:10CA3000E36A20469847FCE603F0F70213F004038C
:10CA4000227608D00023E26AA16884F828302046C4
:10CA5000FFF7A2F9EDE6122AE7D1E26AA263626A61
:10CA600084F83C300421C4E90B22C4E9023384F881
:10CA700028106363636220464FF088F8D9E60020EF
:10CA8000E36A2070D6E700BF54520020B450002063
:10CA9000C82700209C5000202DE9F341037804466C
:10CAA000002B72D090F82830013B082B6DD8DFE8BE
:10CAB00003F0050947594B5E6C62670002B0BDE8A0
:10CAC000F04199E6324B4568D3F81072D3F818322A
:10CAD0007F021D40216B2046FFF7F6F805EB0108A9
:10CAE0004745064626D880B1D4E901329A422CBF88
:10CAF000A260A360002384F82830E36A002B44D0AE
:10CB0000204602B0BDE8F04118472169207E01AA05
:10CB100050F0C2FB012838D123696361019B236176
:10CB200063683B445B1B6360236BDB1B1D44256315
:10CB30003546CFE763680028D6D10B446360D3E75E
:10CB400002B0BDE8F0418FE50121FFF7F9FC0128B3
:10CB50001BD1216C0023204684F8283002B0BDE8A8
:10CB6000F041D5E5002102B0BDE8F041E8E402B0B3
:10CB7000BDE8F04184E402B0BDE8F041FFF789BBB5
:10CB800002B0BDE8F041FFF7E9BB02B0BDE8F081BB
:10CB90009C5000202DE9F0414FF0FF31304A314CDC
:10CBA0000D460023107804280ED103F5817004EBA4
:10CBB0000010C079C70707D46E1C52F80A0C01D0C8
:10CBC000884201D21D4601460133082B02F11002B2
:10CBD000E8D16B1C42D0234C234E05F5817704EB42
:10CBE0000713998849B1D6F8B43833B104EB05106E
:10CBF00041F218029B6880589847D6F8B4389BB128
:10CC00001A4ED3F80C801A4A04EB051C41F21800A6
:10CC100000235CF8000006EB4521C04720B1022844
:10CC200010D00020BDE8F081124BD3F89C2004EB1B
:10CC30000714013AC3F89C200322A271012283F851
:10CC4000A020EEE706F6E87604EB0714D6F89C3051
:10CC5000013BC6F89C300123A371E2E70120E1E724
:10CC6000C25000209C400020C8270020B440002073
:10CC7000499200089C50002008B500214422104829
:10CC800057F095FA0F4B03F580501B784FF6FF7263
:10CC9000A0F8D221022B4FF0030218BF134680F8F0
:10CCA000B831D0F81C32C0F8DC31102380F8D02124
:10CCB00080F8D13100F5DC704EF068FF012008BD2E
:10CCC000545200209C4000202DE9FF47BB4CDFF868
:10CCD000FCA2A378072B00F2B080DFE813F0080075
:10CCE0003900B100BC00C000520163016C01002397
:10CCF000092203A91846FFF787F8012840F09D8014
:10CD0000039B93F8FE21552A1BD193F8FF21AA2AF1
:10CD100017D103F5DF7203F5FF73906870B11179D5
:10CD2000A1F10B05012D05D8A54BC3F8FC0101238A
:10CD3000A370CEE701F0F7010629F5D01032934237
:10CD4000EBD19F4B022283F8B4210123637074E07E
:10CD50009B4D0023D5F8FC01092203A9FFF754F8E5
:10CD600001286AD10022039B2270B3F80B20B2F590
:10CD7000007F45D11A7C022A42D193F8FE21552A20
:10CD80003ED193F8FF21AA2A3AD1B3F80EE0D5F8A4
:10CD9000FC617644C5F8006293F80DC0C5F810C276
:10CDA0000CF1FF327F2A2BD8CCF100023CEA0202C0
:10CDB00026D14FEA4C22013AC5F81822DF8A07B97A
:10CDC0005F6AC5F80472B3F81100400100F2FF1069
:10CDD0004012C5F82002B3F8131001B9196A0EEB1E
:10CDE000000202EB47028A1A40F6F471B2FBFCF231
:10CDF0008A424FEA4708C5F8082205D80123237064
:10CE0000032385F8B431A0E74FF6F4718A4289BF55
:10CE1000032202232270DB6A9CBF23700023C5F823
:10CE20001C32064495F8E0314644C5F80C620BB953
:10CE3000FFF722FFA3780133A37004B0BDE8F087A9
:10CE40000323A3705F4B00935F49604830230522A2
:10CE500050F0DDF8F1E75D48FFF71EFEEDE7FEF765
:10CE6000A5FEDFF85C910546A9F6FC77A9F6F878EF
:10CE7000207D38B30128FCD1D9F810026368420242
:10CE80004FF0FF30B0FBF2F0D9F808221B1802F186
:10CE900002024FF000014941934271F1000138BF95
:10CEA0001A4641460220FFF741F90328E0D801A3C2
:10CEB00053F820F03BCE0008F9CE00083BCE000826
:10CEC000F9CE0008D9F8082239460232FFF72EF9C8
:10CED0000328CDD801A353F820F000BF3BCE0008B3
:10CEE000EDCE00083BCE000823CF00086368013375
:10CEF000A36001232375BBE7D4E901232669991AAE
:10CF0000B14288BFC4E9032103280AD00133B3FB2F
:10CF1000F5F205FB12320AB12B449B1A6360002321
:10CF2000E8E7216906236529A3707FF6D2AEA1F157
:10CF300064032361FEF73AFE653940420140013146
:10CF40002161FEF733FE81427FF6C3AE1C4FD4F859
:10CF50000C80D7F8080201EB08050230A84294BF04
:10CF60000020012050F0C4F82369D7F81022C7F838
:10CF7000948153435B02C7E95E33C4E9018505230D
:10CF8000D6E6A26812490120FFF756F8012801D120
:10CF90000623CDE602287FF450AF094A012382F828
:10CFA000B431D3E600215046FFF740F90128F1D112
:10CFB000A3780133BCE60323C8E600BF9C400020F1
:10CFC0009C500020C1BB000860D106080C52002014
:10CFD000A040002070B5124D124BC5F8BC3840F28D
:10CFE0000112002385F80D32A0F84421C0F85C310D
:10CFF00005F6BC020D23C0E95422044685F8C81882
:10D00000C0F8583100F5A27150F093FA05F5F672A8
:10D0100020461F23BDE87040012150F023BB00BF14
:10D02000C82700205553425310B5074B93F8F91108
:10D0300004464DF0F9FC002804DA20460121BDE841
:10D040001040C7E710BD00BFC8270020F8B50B7817
:10D0500013F0600506460C4638D0202D74D14A786E
:10D06000FE2A05D0FF2A1CD04EF002F802252BE044
:10D070004D88A5B9CF88012F11D11A060FD5334C91
:10D08000D4F818329B699847C0B284F8CC0830B104
:10D090003A4604F6CC01304650F020FA14E030460F
:10D0A000E2E74A88002AFAD1CD88002DF7D11B0685
:10D0B000F5D4264A012182F80D5282F80C121F2362
:10D0C00002F5F67250F0CEFA2846F8BD4B780A2BDE
:10D0D00024D00B2B25D0012BF6D194F9043089886C
:10D0E000C068002B22DA01F07F0150F0EFFA2179BD
:10D0F000164F304650F02CF9022321794022304659
:10D1000050F04FF997F80C32022B12D181213046A2
:10D1100050F0ECF8002387F80C32D5E70C490122D7
:10D12000BAE70A4B4A8883F8CD28CDE750F0B8FA21
:10D13000DDE794F90420002AC6DA012BC4D00121CE
:10D140003046FFF747FFBFE70025BDE7C8270020AF
:10D150009530002008B5084B93F80D32022B07D00C
:10D16000033B012B02D80021FFF734FF002008BD4C
:10D17000FFF75AFFFAE700BFC827002070B52F4C11
:10D1800094F80D6205461EB1012E54D0002070BDEA
:10D19000D4F8F031C4F8C038D4F8F431C4F8C43845
:10D1A000B0F8B4331F2B0DD1D4F8EC21244B9A42A4
:10D1B00008D194F8F911012904D894F8FA31013B07
:10D1C0000F2B0AD9202105204DF019FC022384F8E9
:10D1D0000C322846FBF77EFDD8E74DF025FC0028F1
:10D1E000F7DB94F80D32013B022BCFD9B4F8CE18FF
:10D1F000E9B1D4F8F43184F8C868994228BF1946D7
:10D20000D4F8C4385B1AC4F8C438042384F80D3247
:10D2100040F20113A5F844310A4BC5E95616C5E999
:10D22000543305F5A271284650F083F9AEE728463D
:10D23000FFF7D0FEAAE7FFF7F7FEA7E7C827002011
:10D24000555342439C3000202DE9F74FCDE90012A1
:10D25000514AD38911685689178A1B02C91A9389C2
:10D260006EEB0E0EA3FB010403FB0E441389C009F1
:10D2700040EA44601B04C018A6FB013506FB0E55AE
:10D28000D6884FEA132343EA05634FEAC6364FEACE
:10D29000E41444F100049B19A7FB012607FB0E666A
:10D2A0004FEAD25242EA46224FEA252545F10005CF
:10D2B000F61512F5FA6C46F1000BBCF5FA6F7BF12E
:10D2C00000074CDAA2FB02784FF0050A02FB06F9D0
:10D2D00008EB4909A7FB0A780AFB09884FEA5709B6
:10D2E00049EAC879BF08B0EB090047EA887764EBE0
:10D2F0006804DB1B294F65EBA805BC454FF0FF37E1
:10D300007BEB070720DA40F6AC57D21946F100064E
:10D310005643A2FB027202EB46064FEAC608FA0029
:10D32000BA1A48EA577866EB0808101844EB080464
:10D330004FF00B08A7FB087208FB06267F0847EA98
:10D34000C677DB1B65EB660501FB0EFEA1FB011238
:10D3500002EB4E0EC90F41EA4E01BCEB010C009AE4
:10D3600092B10D4A5169A1FB032301FB0535520D12
:10D3700042EAC522121A4FEA6555009B65EB040488
:10D38000D20B42EA44421A60019B0BB1C3F800C0C1
:10D39000012003B0BDE8F08FC052002024FAFFFF47
:10D3A00031B10A4BD3ED0C7AFDEEE77AC1ED007A8C
:10D3B00052B1064B9FED067AD3ED0D7A67EE877A70
:10D3C000FDEEE77AC2ED007A01207047C0520020DE
:10D3D0000000C84231B10C4BD3ED0E7AF8EEE77A7B
:10D3E000C1ED007A72B1084BDFED086ADB6BA3F583
:10D3F000D543333B07EE903AF8EEE77A87EEA67A0C
:10D4000082ED007A704700BFC05200200000C84281
:10D41000034B0022C3E91022C3E912220120704706
:10D42000C0520020014B1B6D5B681847C0520020A2
:10D43000024B1B6D08309B68184700BFC05200208C
:10D44000007970470079C0F34010704700794009B7
:10D45000704700BF704700BF704700BFD0ED007A33
:10D46000D0ED036A30EE677AE6EE877AB0EE670AAF
:10D47000C0ED007A704700BFD0ED017A80ED021A4E
:10D48000F5EE407AF1EE10FA04BF9FED0C7AC7EE8C
:10D49000207A31EE277A08BFC0ED017AC1EE076A23
:10D4A000D0ED007AC0ED036A30EE677AE6EE877A57
:10D4B000B0EE670AC0ED007A704700BF83F9223EE4
:10D4C0009FED047AC7EE007A77EEA07A80EEA70A85
:10D4D000704700BF72C7D13D00230360436080EDF9
:10D4E000020A704790ED017AD0ED036AD0ED027A1E
:10D4F00030EE470AA6EE807A90ED000A80ED017AC0
:10D5000037EE676AE6EE867A37EEC07AC0ED027AC9
:10D51000A6EE870A80ED000A704700BFD0ED056ACD
:10D52000D0ED017A90ED007A90ED066AD0ED025AC6
:10D5300090ED035A80ED050A66EEA77AC0ED066A03
:10D54000E7EE007A90ED077AE5EE867A90ED086ACC
:10D55000D0ED045A80ED087AE5EE477AE5EEC67A1A
:10D56000B0EE670AC0ED077A704700BFD0ED057ACC
:10D5700090ED006A90ED067AD0ED035AE6EE007A5F
:10D5800090ED016AF0EE406AA6EE267AB0EE670AE8
:10D59000D0ED047A90ED026A67EEC07AA5EEC07A0B
:10D5A000E6EE267A80ED057AC0ED067A70470368CC
:10D5B0005A1C02601970704703690133012B036123
:10D5C0001CD0D0ED005AD0ED026A07EE903A30EE52
:10D5D000656AF8EEE77A86EE277A77EE257AB0EE7E
:10D5E000667A30EE670AC0ED017AA6EE007AC0EDE9
:10D5F000007A80ED037A80ED027A7047002380ED97
:10D60000010A80ED000A8360704703685A1C0260BB
:10D61000197070470123037750F8043C0BB1183898
:10D620001847704790F83420034602F0FF0012B10B
:10D63000002283F8342070474FF4006383817047E1
:10D640004FF400638381704710B5064A042300211C
:10D6500052F8044B844208BF42F8041C013BF7D146
:10D6600010BD00BF145300203548F0B5B0F872303B
:10D67000B0F86450B0F97C40B0F96A60B0F976C097
:10D68000B0F98470ED1AB0F870306B43B0F97A508D
:10D6900004EBE334ED0295FBF4F505EBE335A5F57A
:10D6A0007A6E0EFB0EF42313B0F96C40C0F8805074
:10D6B0000EFB06F60EFB04FEB0F974405C4303FB60
:10D6C0000CFCF612241406EBEC2C04EB6E34B0F9CF
:10D6D0006860B0F86E3002340CEB860CA410D0F801
:10D6E000886004F500440CFA07FC63430CF1020C5B
:10D6F0004CF25030DC0BA6EBAC0640FA07F3734358
:10D7000055BF5B00B3FBF4F3B3FBF4F35B0071B103
:10D71000181240F6DE34404360430A4C00145C4368
:10D7200000EB244000F6CF6003EB20130B6022B126
:10D730000A235D4308352D1115600120F0BD00BF9F
:10D74000C052002043E3FFFF0120704701207047D3
:10D75000012070472DE9F843604F1546D7F88C40FB
:10D76000B7F89020B7F89690C2EB24135200C2EBA2
:10D77000E402B7F99240624303FB03F4B7F9943033
:10D7800024135C43A41304EBE224B7F99A30C7F8DE
:10D79000A8400E46A4F5FA3181FB01CE4FEAE378AA
:10D7A00003FB0EF20CFB0822A3FB0C389044B7F9E4
:10D7B000982082FB01021B0A120343EA086342EA33
:10D7C000105200031B1842EB282202F50042A3FB73
:10D7D000093809FB02884FEAE8734FEA680253EA06
:10D7E00068084FF000006DD0B7F9A0904FEAE978D3
