:020000040800F2
:10000000000002206D130508C1DA0408D94E030868
:100010001D1405081D1405081D1405080000000026
:10002000000000000000000000000000CDDA04081D
:10003000C9DA040800000000C5DA040845310408E4
:100040001D1405081D1405081D1405081D140508B8
:100050001D1405081D140508D13F0408E13F0408DC
:100060001D140508DD3F0408D93F040839F20408CF
:1000700029F2040819F2040809F20408F5F1040849
:10008000E1F10408CDF104081D140508000000008A
:10009000000000000000000000000000D53F040840
:1000A000E9F20408C1F2040899F2040811F3040803
:1000B00085F2040871F204085DF204081D140508B5
:1000C0001D1405081D1405081D1405081D14050838
:1000D0001D14050895F9040889F9040800000000BA
:1000E000CD3F04081D140508E900050800000000C4
:1000F000000000000000000000000000B9F104084A
:10010000000000001D14050849F204081D1405082C
:1001100000000000000000000000000000000000DF
:10012000A5F1040891F104087DF1040869F10408BF
:1001300055F104080000000000000000000000006D
:1001400000000000000000000000000019E20408A8
:1001500041F104082DF1040819F104081D140508E3
:100160001D1405081D140508000000000000000013
:10017000000000000000000000000000000000007F
:10018000000000001D140508000000000000000031
:080190001D1405081D140508EB
:080198000C0F0500010000003E
:1001A0007CF40020020800000300142A9CF40020C4
:1001B000020A00000300142ABCF40020010E000013
:1001C00000007700DCF40020010F00000000760042
:1001D000FCF4002001130000000076001CF5002054
:1001E00001100100000077003CF50020011500001F
:1001F000000076005CF500200116000000001E00E3
:100200007CF50020011C000000000D009CF5002082
:10021000011D000000000E00BCF50020011E0000C2
:1002200000001E00DCF500200119000000000C0099
:10023000FCF50020011A000000000E001CF6002052
:1002400001270100000018003CF60020011F0000FB
:10025000000048005CF6002001200000000049007A
:100260007CF600200121000000004A009CF60020DE
:100270000122000000004B00BCF60020012300001A
:1002800000004C00DCF600200124000000004D00BE
:10029000FCF600200125000000004E001CF70020A5
:1002A0000126000000004F003CF70020012C010057
:1002B000000028005CF70020012F000000003C0037
:1002C0007CF70020012D0000000040009CF700207A
:0802D0000132000000002000D3
:10800000F0B40D6800240CE0BCF1050F18D8A0F105
:1080100037030A2B14D104EB840415F8010B03EB8E
:108020004404A0F13003DEB2092EA0F16107A0F1F3
:10803000410CF0D9052FE7D8A0F157030A2BEAD05D
:108040000D601460F0BC704700B583B00268074B48
:108050008188CDF8012032221B68ADF805108DF81B
:1080600000206846984703B05DF804FB78140020B0
:10807000204B2DE9F0415D68064600F10708002419
:1080800006E01B68394698473C444645A4B215D0E3
:1080900016F8017BA7F17D03012B28462B684FF0D2
:1080A0007D01EED81B6898472B6887F020011B687C
:1080B00028469847E8E7E3B203EB1424FF2CFAD8EC
:1080C000C4F1FF04E4B2A4F17D03012B2B6805D9B0
:1080D000214628461B68BDE8F041184728461B6822
:1080E0007D2198472B6884F0200128461B68BDE855
:1080F000F0411847781400200A4AD36930B41C684C
:1081000055695D6019810025611C19609D81207091
:10811000D36951691A685A604FF6F67230BC19601B
:108120009A81704778140020F8B5CE1E0F46064499
:108130000239421E04464FF6FF7312F8015F5B1BC3
:10814000B2429BB2F9D1C5194354064E1B0A05F839
:10815000013C14F8011B306A3BF0A2F8A542F8D1AB
:10816000F8B2F8BD7814002010B582B00B4660F06C
:108170005F001A0E08211C14ADF802308DF80100C2
:10818000002368468DF804408DF805208DF8001016
:10819000ADF80630FFF7C8FF02B010BD30B50622BB
:1081A00083B060F05F030D460024114668468DF8E9
:1081B0000130ADF802508DF80020ADF80440FFF713
:1081C000B3FF03B030BD00BF284A116821F07043EF
:1081D00023F07F03002B0CBF012002204B075368C4
:1081E00048BF0430D90744BF0A3080B29A0744BF61
:1081F000143080B2D90544BF283080B25A0744BF3A
:10820000643080B2190744BFC83080B29A0644BFB8
:1082100000F5C87080B2D90644BF00F57A7080B20C
:10822000DA040FD500F5FA5080B2990403D500F5B1
:108230001C50103080B29A050AD5A0F5C7404038CE
:1082400080B2704719050AD500F5FA6080B2ECE7F4
:108250005B0503D500F59C40203080B270475A067C
:1082600044BF00F57A6080B2DFE700BF00F800206D
:10827000022805D0A0F10100B0FA80F04009704753
:10828000054B93F82C3023B9044B1868C0F38000D9
:108290007047102022F0D4BE7814002000F800208F
:1082A000014B93F86400704778140020F0B4424DFD
:1082B000424BAB66C823013885F86C3005F16D027E
:1082C00005F1A7014D2428E0DCB25BB2002B34DBC2
:1082D0006300DCB25BB2002B36DB6400E3B264B255
:1082E000002C38DB5C00E3B264B2002C3ADB5C00AB
:1082F000E3B264B2002C3CDB5C00E3B264B2002C5D
:108300003EDB5C00E3B264B2002C4FEA4303B8BF2B
:1083100083F0D5038A42DCB238D010F8013F02F86E
:10832000013B634013F0800F4FEA4303CCD083F04E
:10833000D50463B2002BE4B2CADA640084F0D50439
:1083400063B2002BE4B2C8DA630083F0D5035CB2F9
:10835000002CDBB2C6DA5B0083F0D5035CB2002CE4
:10836000DBB2C4DA5B0083F0D5035CB2002CDBB275
:10837000C2DA5B0083F0D5035CB2002CDBB2C0DA5A
:108380005B0083F0D5035CB2DBB2BDE70C4E85F831
:10839000A740A6F144070FCF0FC60FCF0FC60FCFD0
:1083A0000FC697E80F00402785F8A84086E80F0021
:1083B00085F8EC70F0BC704778140020C83E7BEA6A
:1083C000241500200020704738B504460D460A46A3
:1083D0000068FF214EF0C5FC21682944216038BDAA
:1083E000026810B57F21541C0460117002680024DB
:1083F000511C01600E211470FFF7E6FF012010BD33
:1084000030B5324C94F8ED30012B85B001D005B079
:1084100030BD94F8EE00022826D0A0F10100B0FA99
:1084200080F0400948B36368002BF0D1D4F8F02005
:10843000002AECD094F8345094F82D1092F90400EE
:10844000002D14BF08220022002908BF42F00102BB
:1084500003254FF46141CDE9015200911A462021D4
:1084600021F0D6FC6060D2E794F82C30DBB9184BD1
:108470001868C0F380000028D5D16268002AC6D0F1
:10848000D4F8F830934213D0D4F804319A420ED085
:10849000D4F810319A4214D0D4F81C319A4212D038
:1084A00000236360B3E7102022F0CAFDBAE7012081
:1084B00000EB4000002104EB8003D162C3E93E11D0
:1084C000EEE70220F4E70320F2E700BF7814002073
:1084D00000F8002070B51D4E1D4D96F82C0163224A
:1084E000002144F0D3FDB6F8503104461948333B1F
:1084F00080FB0320DB17C3EB20100922002144F08E
:10850000C5FDAA68C0F10903642000FB0344A4B2BE
:10851000910744BF04F57A74A4B22B68D20744BF14
:1085200004F5FA64A4B25B0701D4204670BD15209F
:1085300022F086FD0028F8D06B6813F4016F04BFA9
:1085400004F57A64A4B2204670BD00BF7814002000
:1085500000F800201F85EB5110B5044CA36843F0D0
:108560008003A36023F0B4FA608210BD00F80020FD
:1085700038B5074CB4F8BC5123F0AAFA854204DDA3
:10858000044BB4F8BC215A8238BDBDE83840E3E75B
:108590007814002000F8002008B5FFF7E9FF00205C
:1085A00008BD00BF70B5214D95F8D231EA181C46C0
:1085B00092F8D4218AB11E4E09225C1CA6FB04133A
:1085C0005B0803EBC303E31AE918DCB291F8D4119A
:1085D00009B1013AF1D185F8D24102681549561C1A
:1085E00006600C2616700268561C0660002616707F
:1085F0000268561C066003EB430603EB8603147007
:1086000019440D2243F000FF95F8D211084B4A1C83
:10861000A3FB02035B08294403EBC3030120D31A25
:1086200081F8D40185F8D23170BD00BF78140020E4
:10863000398EE338581600202DE9F047724C82B08D
:10864000E269D2E900239B1A002B00AF40F39B8024
:10865000002384F868326D4B236103F18002A3F19B
:108660001406C4E99633C4E90526C4E9FB2203F5E0
:10867000C075E5610025421800F10109C4E90292C4
:1086800003785909012940F0858003F00F0813F0A1
:10869000100310D1002D00F0968094F8FD130131E5
:1086A00001F00F0141457ED01846083784F8683242
:1086B000BD46BDE8F087831CA360C31C4278D4F894
:1086C00010A0A3608078C6F800A00AEB02037360D4
:1086D000424084F8FC23D4E90292002584F8681211
:1086E0003081B581A2EB0902D5B2A3EB0A0A5FFA89
:1086F0008AFAEB1D03F4FC73AA45ADEB030D67D2B8
:108700005246494668464EF041F909EB0A03524683
:1087100030466946A36043F077FE2369306894F8D9
:10872000FC238342C6E9003009D00133336013F8DB
:10873000011C984282EA0102F7D184F8FC23A36865
:108740001B78934232D12369E169C6E9003063693D
:108750004B600023A0690B818B813A1D84F868323D
:108760007B602EF0A9FB013046D07B680BB1002066
:108770009847E3696269196801200837C3E9002155
:10878000BD46BDE8F08794F86852002D3FF463AF12
:10879000A66970E700210846FFF7AEFC0120083704
:1087A000BD46BDE8F087D6E900A39BE70023B6F9F4
:1087B000081084F868320120FFF79EFC012008377A
:1087C000BD46BDE8F08728460837BD46BDE8F087BE
:1087D0002A46494668464EF0D9F809EB050330466B
:1087E0002A466946A36043F00FFE0020083784F84C
:1087F000FD83BD46BDE8F087E26913680221581C7D
:1088000010601970B1E700BF78140020E416002052
:1088100038B5002025F0C4F948B10D4CB4F8BC516E
:1088200023F056F985420BDD0124204638BD04466D
:1088300023F04EF9FFF790FE064B5C77204638BDDB
:10884000044B94F8CC215A770224204638BD00BF4F
:108850007814002000F800202DE9F04F304D314E03
:10886000B5F9FE13B5F804C4B5F8007486FB0146EB
:10887000CC17C4EBA604A4B2A44583B016469A460E
:108880004BD1B5F80634BB4205F5816B33D0036894
:108890000190591C342201601A7003680022591C8F
:1088A00001601A70214643F0DFFD0198394643F01C
:1088B000DBFD019847F6FF7143F0D6FD019847F6BE
:1088C000FF7143F0D1FD019847F6FF7143F0CCFDF5
:1088D000019847F6FF7143F0C7FD01980221FFF7A9
:1088E00073FD0120CBE9006AA5F80444A5F80674DD
:1088F00003B0BDE8F08FD5F80834D5F80C14B2EB0E
:1089000003086AEB0109084A00234B4508BF4245AA
:10891000BDD3002003B0BDE8F08F05F5816BB6E74D
:10892000781400206766666680841E00604A536A79
:108930002DE9F041064613F0800000F09A8090681F
:1089400010F0020000F095805A4F97F82C1105297D
:1089500040F29380632900F28E800024DFF860C12A
:1089600089B22546ACFB0132D20802EB8203A1EBAF
:108970004303E0B28E469BB280008340BEF1090FF4
:1089800091B245EA030504F10104EBD8EDB2D7F842
:108990003831494A82FB0312D917C1EB623189B2DF
:1089A000002900F082804FF0000CDFF814E16446EB
:1089B000AEFB0132D20802EB8203A1EB43035FFA64
:1089C0008CF088469BB280008340B8F1090F91B2C9
:1089D00044EA03040CF1010CEAD8E4B2B7F84831D8
:1089E00036494FF4F36213FB02F381FB0312D917EC
:1089F000C1EBA21189B242F20F73994240D8C9B1BA
:108A00000027DFF8BCE0BC46AEFB0132D20802EB27
:108A10008203A1EB4303F8B288469BB280008340F7
:108A2000B8F1090F91B24CEA030C07F10107EBD83A
:108A30001FFA8CF133681722581C30601A703368A3
:108A40000022581C30601A70304643F00DFD4FF084
:108A5000FF31304643F0F0FC33685A1C32601D7021
:108A600033685A1C326030461C700621FFF7ACFC9C
:108A70000120BDE8F081992589E70020BDE8F0815B
:108A80000020DFF83CC00146ACFB0372D20802EBC9
:108A90008207A3EB47039BB283400430102841EACE
:108AA000030193B2F0D189B2C4E70C4696E700BF48
:108AB00000F800207814002089B5F814D34D621016
:108AC000CDCCCCCC2DE9F04FC14A536A804613F08F
:108AD000800083B000F06F81906810F0020000F019
:108AE0006A81DFF80CB39BF82C31052B40F26881CA
:108AF000DBF83031B74D0093002BB8BF5B42A5FBCC
:108B00000342B548B549920D00FB0233C3EB031392
:108B10009B0085FB034502EB8202DC1702EB82021D
:108B2000C4EBA55400FB043304EB8204A4B281FB24
:108B30000321DB17C3EBA111BCB10025A84F2E46C2
:108B4000A7FB0432D20802EB8203A4EB4303E8B292
:108B5000A4469BB280008340BCF1090F94B246EA60
:108B6000030605F10105EBD8340489B2B9B100253B
:108B70009B4F2E46A7FB0132D20802EB8203A1EBEA
:108B80004303E8B28C469BB280008340BCF1090FDE
:108B900091B246EA030605F10105EBD83443DBF850
:108BA00034E18C4D8C4E8D498EEAEE70A0EBEE7068
:108BB000A5FB0032920D06FB0200C0EB0010830003
:108BC00085FB035002EB8202DD1702EB8202C5EB4C
:108BD000A05506FB053305EB8205ADB281FB0321F1
:108BE000DB17C3EBA111C5B10020DFF8F4C10646C5
:108BF000ACFB0532D20802EB8203A5EB4303C7B2FC
:108C0000A9469BB2BF00BB40B9F1090F95B246EA35
:108C1000030600F10100EBD8350489B2C1B1002090
:108C2000DFF8BCC10646ACFB0132D20802EB82037E
:108C3000A1EB4303C7B289469BB2BF00BB40B9F169
:108C4000090F91B246EA030600F10100EBD8354363
:108C5000DBF83831624A0193002B1846B8BF5842FE
:108C6000A2FB00305F4E6049030AA6FB0363DB09E9
:108C700001FB03F1C1EBD00189B2B9B100269146E5
:108C80003746A9FB0132D20802EB8203A1EB430372
:108C9000F0B28C469BB280008340BCF1090F91B2C8
:108CA00047EA030706F10106EBD8B9B2BBF84A71EF
:108CB000DFB10026DFF828A1B446AAFB0732D208AC
:108CC00002EB8203A7EB43035FFA86F938469BB2B7
:108CD0004FEA890903FA09F3092897B24CEA030C11
:108CE00006F10106E9D81FFA8CF7BBF850313C4A6F
:108CF000A2FB0306F608632E28BF6326092B63D95F
:108D0000002093468146ABFB0632D20802EB820379
:108D1000A6EB43035FFA80FAB4469BB24FEA8A0A95
:108D200003FA0AF3BCF1090F96B249EA030900F10C
:108D30000100E8D85FFA89F9009B019A002BCCBFAB
:108D4000392338231616BEF1000F26F07F0635DDD5
:108D5000264A3343964543F00206C8BF43F0060651
:108D6000D8F800301622581CC8F800001A70D8F83D
:108D700000300022581CC8F800001A70404643F02A
:108D800073FB2146404643F057FB2946404643F0DB
:108D900053FB4046394643F067FBD8F800305A1C75
:108DA000C8F8002083F80090D8F800305A1CC8F8A2
:108DB000002001201E7003B0BDE8F08F1E43CFE7F6
:108DC000002003B0BDE8F08F4FF00009B4E700BF0A
:108DD00000F800206BCA5F6B806967FFD34D62109B
:108DE000CDCCCCCCC55A7C0AA0860100FFC99A3BE9
:108DF0007814002003687E22591C10B501601A7097
:108E000003680022591C01601A704FF6FF71044676
:108E100043F004FB0D4B93F8323083B11DF0D6FBC9
:108E20000146204643F0FAFA204647F6FF7143F028
:108E3000F5FA20460821FFF7C7FA012010BD1DF002
:108E4000DBFB0146204643F0E9FAEDE77814002009
:108E500070B504462DED028B00200D4624F0A0FED7
:108E6000002850D02A4ED6E90501201A65EB0101F1
:108E700048F056F89FED270A07EE900A27EE800A81
:108E800040F2DC53BCEEC00A10EE102A9A4234D8ED
:108E9000214CB8EEC08A22F01BFEB4F8BC319FED25
:108EA0001F1ADFED1F0A07EE900A02EE103AF8EEE5
:108EB000E71AB8EE422AB0EE480A44F0B7F894F840
:108EC000CC31DFED171A9FED151AFDEEC07A02EED8
:108ED000103A17EE903AB0EE480AB8EE422AF0EE99
:108EE000610A738244F0A2F8BDEC028BFCEEC07AFA
:108EF000002017EE903A737770BDFFF739FBBDEC99
:108F0000028B012070BDBDEC028B042070BD00BF40
:108F100000F800206F12833A781400200080BB44D0
:108F200000000000F0B5334D334FD5E905322DED8B
:108F3000028BC01A83B061EB020147F0F1FF9FED95
:108F40002F8AB7F8C46107EE900A27EE888A27F0C7
:108F500051FE002848D1BCEEC88A18EE103A9E4255
:108F600004D2012003B0BDEC028BF0BDB5F9123084
:108F7000DFED230A02EE103AB7F8BE3107EE906A31
:108F8000B8EEC88A01EE903AB8EE671AB8EEC22A77
:108F9000F8EE611AB0EE480A04468DED011A44F06D
:108FA00045F897F8CC31DFED160A9DED011A01EE78
:108FB000903AB5F90E30FDEEC07A02EE103A17EE97
:108FC000903AF8EE611AB8EEC22AB0EE480A6B8207
:108FD00044F02CF8FCEEC07A204617EE903A6B77FE
:108FE00003B0BDEC028BF0BD032003B0BDEC028BDF
:108FF000F0BD00BF00F80020781400206F12833A03
:10900000000000002DE9F041274E284DD6E9053239
:10901000C01A61EB020147F083FFDFED257AB5F856
:10902000C031B5F8C62107EE100A67EE277AFCEECC
:10903000E77A17EE904A234493422ED8B5F8C271CE
:10904000B5F8BE81A74204D2A6F812800120BDE87F
:10905000F08122F03DFDB5F8BC31DFED160A07EED8
:10906000908A9842B8BF1846B8EE672A07EE907A01
:1090700083B201EE903AB8EE671A07EE904AF8EE26
:10908000611AB8EEE70A43F0D1FFBDEEC00A002036
:1090900010EE103A7382BDE8F08127F0ABFD002896
:1090A000CCD00320BDE8F08100F800207814002027
:1090B0006F12833A0000000070B504460D46FFF7BA
:1090C00057FA124B124ED3E90501201A65EB010144
:1090D00047F026FFDFED0F7AB6F8C63107EE100A2B
:1090E00067EE277AFCEEE77A17EE904A9C4206D8A4
:1090F000B6F8C001A0422CBF0020012070BD27F0AF
:1091000079FD0028F4D0032070BD00BF00F80020D6
:10911000781400206F12833AF8B504462DED048BC5
:1091200000200F4624F03CFD002800F08180424DD5
:109130009FED427AD5ED0C7A414E9FED420A96F8AA
:10914000CD31F0EEE76AF4EEC76AF1EE10FA46DDD3
:1091500007EE103AB8EEC77AD5ED0E6AD5ED0D8A56
:1091600027EE000A86EEA79A44F044F8B6F8B83124
:1091700007EE903AF8EEE77AB0EE408AF4EEE78A2E
:10918000F1EE10FA44DCB6F8B63107EE903AF8EE9C
:10919000E77AF4EEC97AF1EE10FA41D5F5EEC08A1D
:1091A000F1EE10FA3CDDFFF7E3F9D5E90501201AED
:1091B00067EB010147F0B4FEDFED237AB6F8BA5150
:1091C00007EE100A67EE277ABDEC048BFCEEE77A17
:1091D00017EE903A9D422CBF00200120F8BD07EE0B
:1091E000903AF8EEE77AD5ED0D8A27EE800A44F042
:1091F00001F8B6F8B83107EE903AF8EEE77AB0EE3B
:10920000408AF4EEE78AF1EE10FA09DD9FED0F9A3D
:1092100021F0BCFEB4EEC80AF1EE10FAC3DAB2E7F0
:10922000FFF7A6F9BDEC048B0020C5E90547F8BDA2
:10923000BDEC048B0420F8BD00F80020F366DF3F8E
:109240007814002035FA8E3C6F12833A000000003B
:1092500000F01F0240090123032803FA02F304D09F
:10926000042807D002280AD07047074A116C0B4324
:1092700013647047044A116B0B4313637047024A2F
:10928000516C0B4353647047003802400B68144A1A
:1092900030B40568CC682A402343D1E9054513431F
:1092A0002343D1E907242B4313434A6A4D6B2343DD
:1092B00013438C6BCA6A2B43234343F4003303608C
:1092C00044690B6B0D6924F0070413432343D1E970
:1092D000014243614560846030BCC260704700BF9A
:1092E0003F801CF030B403681A6853797BB159B2DF
:1092F000002920DB174C0120651803F01F034909E2
:1093000000FA03F3302085F8000344F82130937904
:109310007BB15AB2002A15DB0E480121841803F0F4
:109320001F03520901FA03F3302184F8001340F8B7
:10933000223030BC7047084903F00F031944302332
:109340000B76E4E7044A03F00F031A443023137644
:1093500030BC704700E100E0FCEC00E010B40B4CC6
:109360000023224601330A2B02F1140209D011799D
:109370008142F7D103EB830304EB83005DF8044BD8
:10938000704700205DF8044B704700BF986E0508D9
:109390002DE9F047041E0D4612DB092C26DC824A1B
:1093A0000B468248A0FB0410C00800EB8000A4EB31
:1093B00040000021125C1A7059702846BDE8F08701
:1093C00064422D23092C01F8013B24D8764A774BBF
:1093D000A3FB0403DB0803EB8303A4EB430300209C
:1093E000D35C48700B702846BDE8F0876F4B632C48
:1093F000A3FB04264FEAD60621DC6B4A0B466B49D9
:10940000A1FB0601C90801EB8101A6EB4101515CFA
:1094100003F8011BC5E7654A632CA2FB04364FEA3B
:10942000D60637D8604A614BA3FB0603DB0803EB83
:109430008303A6EB4303D35C01F8013BC7E7A3FB1F
:109440000627B4F57A7F4FEAD7070DD2564A0B4666
:109450005649A1FB0701C90801EB8101A7EB4101B6
:10946000515C03F8011BCAE7A3FB072842F20F7205
:1094700094424FEAD80836D84B4A0B464B49A1FBD9
:109480000801C90801EB8101A8EB4101515C03F817
:10949000011BDDE7A2FB0637B4F57A7F4FEAD70759
:1094A0000CD2414A414BA3FB0703DB0803EB8303C8
:1094B000A7EB4303D35C01F8013BB4E7A2FB0738F9
:1094C00042F20F739C424FEAD80821D8364A374BF4
:1094D000A3FB0803DB0803EB8303A8EB4303D35C84
:1094E00001F8013BDEE7324AA3FB080994424FEA48
:1094F000D90921D82C4A0B462C49A1FB0901C908DE
:1095000001EB8101A9EB4101515C03F8011BB5E7B7
:10951000274BA2FB08099C424FEAD90921D8224ACD
:10952000224BA3FB0903DB0803EB8303A9EB4303F3
:10953000D35C01F8013BCAE71E4AA3FB090394422E
:109540004FEAD30A21D80B461849174AA1FB0A0152
:10955000C90801EB8101AAEB4101515C03F8011B31
:10956000CAE7144BA2FB09029C424FEAD20A13D865
:109570000E4B0D4AA3FB0A03DB0803EB8303AAEBA4
:109580004303D35C01F8013BCAE70A22BAFBF2F0BD
:1095900042F096FC0346D7E70A22BAFBF2F042F00B
:1095A0008FFC0146E4E700BF30CF0508CDCCCCCC22
:1095B0009F8601003F420F002DE9F04788B0541C00
:1095C00003941478002C00F04A8100250746884651
:1095D0001E46A9460BE0791C02D021463846C047FA
:1095E000039A0135531C03931478002C54D0252C76
:1095F000F1D1931CCDE9033950782D2800F0C480B7
:109600004FF0000A302800F0A780A0F13003DBB251
:10961000092B4FF0000440F2AB806C284AD0782828
:1096200034D857283CD9A0F15803202B2ED8DFE896
:1096300013F0FE002D002D002D002D002D002D001B
:109640002D002D002D002D00D500F8002D00BC00B0
:109650002D002D002D002D002D002D002D00B70018
:109660002D002D002D002D0021002D00DE002D00ED
:109670002D00FE0056F8042B049BCDE900924246D3
:109680004FF0FF31384642F02DFF0544039A531C3A
:1096900003931478002CAAD1284608B0BDE8F087BF
:1096A0000028F9D02528F1D17B1C99D025213846F6
:1096B000C04795E7039B5A1C03921978782991D8E3
:1096C000572967D9A1F15803202B8BD801A050F856
:1096D00023F000BF47980008E5950008E5950008CD
:1096E000E5950008E5950008E5950008E595000872
:1096F000E5950008E5950008E5950008E595000862
:10970000DD97000807980008E5950008AB9700086A
:10971000E5950008E5950008E5950008E595000841
:10972000E5950008E5950008E5950008A397000871
:10973000E5950008E5950008E5950008E595000821
:1097400075960008E595000813980008E59500084F
:10975000E595000847980008039B5A1C0392187867
:10976000A0F13003DBB2092B4FF001043FF655AFF7
:1097700004AA03A9FEF744FCBAF1000F3FF44DAF71
:10978000049B5B42049348E7D31C039390784FF00B
:10979000010A37E700293FF47FAF252984D021E76C
:1097A000039A56F8043B1D601CE7073626F00706AF
:1097B000F6E8020147F07CFA00EE100A05A842F034
:1097C00015FB05ABCDE900434246049B4FF0FF314A
:1097D000384642F087FE039A054403E77A1C3FF4BB
:1097E000FFAE56F8041B3846C9B2C047F8E656F833
:1097F000040B05AB00220A2142F0BEFB05ABCDE90C
:109800000043049B3BE756F8040B05A942F070FBAC
:10981000F4E756F8040B05AB00220A2142F0ACFB3A
:10982000ECE756F8040B05A942F062FBE6E7A0F16D
:109830005802B2FA82F256F8040B520905AB102115
:1098400042F09AFBDAE7A1F15802B2FA82F256F836
:10985000040B520905AB102142F08EFBCEE72546E2
:109860001AE700BF2DE9F047D0F804C0BCF810306B
:10987000804665480E4690B017464FEAD31E190938
:1098800000256A010135835A8EEAD31481EA131345
:1098900004F0030403F00703234308D0102DF0D194
:1098A0000023C8F80C30184610B0BDE8F08700EB74
:1098B0000209DCF8001099F81C20C8F80C90002A66
:1098C000F1D1B1F84430514C6FEA43436FEA53434E
:1098D0009BB2A1F844300B889BB243F080030B800D
:1098E0009CF805300A8C2344012593F8C83005FA0A
:1098F00003F39BB292B222EA03020A840A8C92B268
:1099000013430B840B889BB22B430B80484645F0D6
:10991000F7FBD8F80CA00A23A9F81C30504645F0F4
:10992000EFFB9AF914303A4ACAF81880002BCAF8AB
:109930000C205FDB374A03F01F0CD1185B09302085
:1099400005FA0CF581F8000342F82350D8F80C30E2
:10995000986845F03FFBD8F80C309868036823F00E
:109960000103036045F036FB0023CDE90C33CDE95C
:109970000E33D8F8042006930A935379032B40D86A
:10998000DFE803F035322F0213684033128A029366
:1099900002F00F0304EB8304D8F80C20D4F8CC3089
:1099A000906801934FF4806140224FF40033079197
:1099B0004FF480454FF4805401A904920B93CDE9F4
:1099C000084505970396FFF761FCD8F80C309A68B4
:1099D000136843F0100313600123184610B0BDE86C
:1099E000F08713683C33D1E713683833CEE7136848
:1099F0003433CBE7084A03F00F031A4430231376BD
:109A0000A4E70023C2E700BF00000020986E05080D
:109A1000D1A8040800E100E0FCEC00E082B00023E3
:109A20000193019A0C490D4BD1F81C1442F020020D
:109A30000192019A60F38A120192019A0A610A69FD
:109A4000019203E00A690192013B02D0019A920659
:109A5000F8D4002002B0704778140020400D0300B5
:109A600010B58021044644F033F82046002144F02C
:109A70002FF82046BDE8104044F05EB8037870B47B
:109A800033B30246C0F10105531912F8014FDBB29E
:109A9000002CF9D101335B00DAB20F4C0B800323A9
:109AA00084F8042A84F8053A017879B10223002663
:109AB0005A1CE51854FA82F285F8041A82F8046AEE
:109AC00010F8011F0233DBB20029F1D170BC7047DE
:109AD00002221346E1E700BF781400202DE9F04F81
:109AE0002DED108B034693B004331193DFEDC1AA23
:109AF000109002230F928B460E938946109C4FEADA
:109B0000DB0504EB451202EB0511A5EB85034FEADB
:109B1000C5084FEA051E05EB850A009101EBC3035A
:109B200008F104000EF104012E46204405EB450522
:109B300021444FEACA040D9602942C01C6EBC60CD0
:109B40000394EC000D9D04944FEACC0405946C0141
:109B50000194119D009C03EB46174FEACB0A02EBE0
:109B6000C6064FF0000C55ED011A11ED012AD6ED95
:109B7000005AD7ED004A92ED003AD4ED003A10EDCC
:109B8000015A93ED004A72EE238A34EE248A71EE74
:109B9000836A35EE257A36EEA86A77EE087A35EED6
:109BA000655A76EE275A36EE676A45ED015A82ED20
:109BB000006A90ED00AAD6ED012A93ED016AD7ED77
:109BC000019A94ED010AD1ED005AD5ED007A92ED9B
:109BD000019A34EE644A76EE690A7AEE624A35EE0C
:109BE000C01A31EEC33A72EE633A34EEA02A77EE31
:109BF000C91A74EEE04A75EE805A75EE440AB0EE6A
:109C0000410A35EE045AA2EE2A0ADC44E145A2EEEE
:109C10006A1AB0EE434AB0EE432AA0EEAA2AA0EE9A
:109C2000EA4AB0EE613AF0EE610AE4EEAA0AA4EE66
:109C3000EA3AF0EE634AE5EE6A3AE5EE2A4A7AEE4F
:109C4000222A36EE296A77EE897A72EE861A37EE84
:109C5000487A32EEC66A76EEE86AB0EE635A77EE7C
:109C6000A53A77EEE57A73EEA18A36EE868A73EE30
:109C7000E13A76EEC66A77EEC71A72EE002A77EE00
:109C8000277A74EE015A30EEE46A33EE457A32EE0A
:109C9000402A34EE414A74EEA04A35EE035AC5ED2F
:109CA000008AC2ED013A554401ED018A5244C4EDE7
:109CB000006AC1ED001AC4ED017A514440ED012A59
:109CC000544487ED002AC6ED005A83ED004A80ED2A
:109CD000006AC7ED014A504486ED017A574483ED8E
:109CE000015A564453443FF63EAF0D9B072B40F2BA
:109CF000A3810198109D059B049A0399029C08304A
:109D0000281808330A902846C31808328218059389
:109D1000034608F108080EF10C0E0C330834083124
:109D200006920246454472440419411804934B4676
:109D30000995D1460894079103924FF001084FF01E
:109D4000000E9A460E9B9E440F9B03EBCE0303EB43
:109D5000CE0202EBCE0000EBCE0404EBCE0505EB09
:109D6000CE060C9306EBCE07AEEB8E030B9207EB01
:109D7000031202EBCE0C0CEBCE03029203EBCE02ED
:109D800001931346D3ED01DA019BD0ED007A93EDF8
:109D900001DA029BCDED027A93ED01CA0B9BDCED5B
:109DA00001CAD3ED007A0C9BCDED017A02EBCE0215
:109DB00002EBCE01009201EBCE02D3ED007A92EDE0
:109DC00001FA009AD1ED01EA92ED01EAD7ED00BA6D
:109DD00096ED00BA95ED00AAD4ED009ACDED007A8B
:109DE000DDE90376DDE90554DDE90701DDE9092355
:109DF000C44601E0F304353F91ED006A56ED01FAE7
:109E0000D0ED002AD4ED005AD5ED006A93ED007A2A
:109E100057ED017A92ED002A96ED008A7FEE870ACF
:109E200032EE061A37EEA24A75EEA64A70EE841A92
:109E300031EE245A32EE462A31EE856A75EEE65A44
:109E400006ED016AD4ED018A92ED019A91ED013A95
:109E500095ED016A97ED000AD0ED016AD3ED013A64
:109E60003FEEC77A77EEE27A78EEC6FA79EE432AC9
:109E700039EE033A30EE669A38EE866A70EE266A5C
:109E800078EE638A32EEEF0A72EEAF2A78EE233A6A
:109E900030EEC44A32EE258AF0EE490A72EE655A77
:109EA000E2EEAA0ADC44E245A2EEEA9AB0EE682AA3
:109EB000F0EE472AE5EEAA2AA5EEEA7AA0EE2A2AD3
:109EC00073EE065AE0EE6A8AF0EE67FA33EEA60AFF
:109ED000E8EE6A7A71EE644A31EEC55A33EE463ADC
:109EE00070EE651A73EEE63A34EE036A72EEA06A1B
:109EF00034EE434A72EEE00A33EEE43AE8EE2AFA30
:109F000074EEA33A65EE6D2A77EE094A37EE499A68
:109F100038EEE77A77EEA88A6DEEA17A9DED018A98
:109F2000E9EE857AE9EEA12A26EE6C5A6CEE831AE8
:109F300032EE6F1AA8EE035AE8EE061A2EEEA33A96
:109F400024EE6E6A9DED008A3FEE822AABEE043A63
:109F5000ABEE236A2CEE014A66EECC3AA8EE264A16
:109F6000E8EE013A6FEE026A20EECF1AEBEEA06A3D
:109F7000ABEE821A64EECE0A2EEE072A9DED028A1F
:109F8000EAEE070AAAEE242A2DEE287A69EE4D4A57
:109F9000A8EE097AE8EE284A70EE255AC6ED005A76
:109FA000C3ED007AC3ED012A4E4447ED011A87ED57
:109FB000005A4B4480ED003A80ED016A4F4482ED37
:109FC000004AC2ED013A4844C5ED006A85ED011A28
:109FD0004A4481ED002A4D44C1ED010A84ED007A26
:109FE000C4ED014A49444C443FF606AF0A9B08338E
:109FF0000A93099B08330993089B08330893079B2E
:10A0000008330793069B08330693059B0833059393
:10A01000049B08330493039B083303930D9B08F1BF
:10A02000010843457FF48EAE0E9BDDF834B0DB00B3
:10A030009BB2D1460E9361E513B0BDEC108BBDE829
:10A04000F08F00BF804BB3FBF2F399420DD3002396
:10A050004FF07E5243608360C3600361026000235F
:10A06000836143610362C361704707EE902A9FEDED
:10A07000777AF8EE676A07EE901A66EE876AF8EE6E
:10A08000677A66EEA76AFDEEE67A17EE903A20331D
:10A09000402B00F2CA80DFED6E7AF4EEE76AF1EE53
:10A0A00010FAF0EE667A0CDDDFED6A5A9FED6A6A0F
:10A0B000B0EE677AB4EEC67AF1EE10FA77EEE57A92
:10A0C000F6DC9FED667AF4EEC77AF1EE10FA0CD565
:10A0D000DFED605A9FED626AB0EE677AB4EEC67A41
:10A0E000F1EE10FA77EEA57AF6D49FED5E7AF4EEF3
:10A0F000C77AF1EE10FA00F390809FED5B7AF4EEF0
:10A10000C77AF1EE10FA44BF9FED547A77EE677A82
:10A1100027EEA76ADFED554A9FED557A9FED555A18
:10A12000DFED555AA6EE247A67EE864AA6EE075A68
:10A13000B6EE007AE6EE055AE4EEA57A27EE877AC7
:10A140009FED486A76EE867AFDEEE75A15EE903A74
:10A150002033402B66D8F4EEC66AF1EE10FA0CDD1F
:10A16000DFED3C5A9FED3C6AF0EE676AF4EEC66A9A
:10A17000F1EE10FA77EEE57AF6DCDFED386AF4EE10
:10A18000E67AF1EE10FA0CD5DFED325A9FED346A23
:10A19000F0EE676AF4EEC66AF1EE10FA77EEA57A91
:10A1A000F6D4DFED306AF4EEE67AF1EE10FA3FDD38
:10A1B000DFED276A76EEE77A67EEA76ADFED2B4AD6
:10A1C0009FED2B5ADFED2B5A9FED2B6AA6EEA45A7A
:10A1D00067EEA64AE6EE855AB8EE005AA6EEA56AE4
:10A1E000E4EE867A67EE857AC7EE006AB7EE006A1B
:10A1F00076EE865A76EE666A86EE257A67EE277ADE
:10A2000066EE876AC0ED017AC0ED037A80ED007AD0
:10A2100080ED027AC0ED046A21E79FED0D7A77EEBA
:10A22000677A75E7DFED157ADEE79FED147A87E749
:10A23000DFED0D6AF4EEE67AF1EE10FA44BFDFEDE1
:10A24000076A76EEE77AB7E720A1070027D4D2366F
:10A25000DB0F4940DB0FC940E4CB1641DB0F49C09F
:10A26000E4CB16C1DB0FC93FDB0FC9BF9A7C2E368A
:10A27000FAAF4FB93587083CA4AA2ABE00000000F7
:10A280000023024A426003608360704783F9223EE4
:10A29000034A044B4260002101608360704700BFA5
:10A2A0005B128B3A6F12033B034B6428B8BF6420E8
:10A2B000C3F8B405704700BF00000020034B6428BA
:10A2C0001B6CB8BF6420D860704700BF00F8002046
:10A2D0002DE9F04790B0DDE918480E460746914653
:10A2E00001A83C2200219A461A9D4CF03AFD2E4BC3
:10A2F0008DF80460CDF834800293002E50D0B31E48
:10A30000012B4FD9042E14BF00230323DFF89C80B8
:10A310008DF80530D8F8443B03941C440123CDE963
:10A32000055704948DF83130B9F1000F06D052462C
:10A33000494607A84CF02AFB8DF830A098F84AEB64
:10A340000023BEF1010F0E931CD801AC0FCC98F87E
:10A3500049CBCCEB0C1508EB850505F64C350FC544
:10A360000FCC0FC50FCC0FC594E80700BCFA8CFCCE
:10A370000EF1010E4FEA5C1C85E8070088F84AEBF5
:10A3800088F849CB3B6843B153464A463146384684
:10A3900010B0BDE8F0471EF027BB10B0BDE8F08755
:10A3A0000523B3E70223B1E77C1F002078140020C7
:10A3B00000230360704700BFB4EEE00AF1EE10FA2C
:10A3C00009D4F7EE007AB4EEE70AF1EE10FA88BF8E
:10A3D000B0EE670A7047B0EE600A7047074B084955
:10A3E000D3F8F42BC3F8E41B931E4FF47871223298
:10A3F00023F8021F9342FBD1704700BF781400205E
:10A400009D2A020870B5244E244BC6F8E43B112463
:10A410004FF4787506F540634FF4787086F8C84BB2
:10A420004FF47874C3E90045C3E90245C3E9044524
:10A43000C3E90645C3E90845C3E90A45C3E90C4534
:10A44000C3E90E451649C6F8400C84B006F6C8327A
:10A4500041F60B2400254020C2E90245C6F8E81B5E
:10A460001FF0AAFEB0B196F84B3C0E4A90F90400DA
:10A470000092012B0CBF082200220323CDE90132F8
:10A480004021094A00231FF0C3FCC6F86C0C0038B9
:10A4900018BF012004B070BD78140020F535020803
:10A4A000ED360208A06806008943020880F0010129
:10A4B000014839F033BD00BF04230020054BD3F819
:10A4C0008C2EB3F8903E51690B4214BF5383138313
:10A4D000704700BF7814002070B40D4B0D4CA342A0
:10A4E00003D311E00C33A3420ED25A798242F9D140
:10A4F000DA798A42F6D11A681E791579AE42F1D11D
:10A5000015689D42EED100E00022104670BC7047F5
:10A51000A0010008D8020008642828BF64201C4B52
:10A5200000EB800070B54500A3FB05235E095B09C5
:10A5300018BF002422D001349F203BF043F8E3B23F
:10A540009E42F8D80A2E00D170BD1248A0FB0530FB
:10A550000009C6EB8613C6EB830366381844C0B205
:10A560003BF030F8092E06F10104EDD001349A20B9
:10A57000E4B23BF027F80A2CF8D170BD0548A0FBE7
:10A58000053000096638C0B23BF01CF80124EDE745
:10A590001F85EB51CDCCCCCCF0B41A4E96F8703F61
:10A5A000032B2CD80C2202FB036202F6787252F8BD
:10A5B000041C0133CC07DBB20ED501420CD092F95A
:10A5C0000070114C002194F90050BD4204F10C04BC
:10A5D0000BD001310429F6D1042B02F10C02E6D193
:10A5E00086F8703F0020F0BC704701EB410106EB9C
:10A5F000810186F8703FD1F8F800F0BC7047002068
:10A60000F1E700BF781400206C1500200144884257
:10A6100018D030B4441E4D1E002041F2210114F820
:10A62000012F082380EA022010F4004F81EA400243
:10A630000ABF400090B280B2013BF5D1AC42EED1EE
:10A6400030BC704700207047D0ED017AF5EE407ABB
:10A65000F1EE10FA05D19FED0B7AF0EE477A80ED1E
:10A66000017A30EEA77AD0ED007AC0ED020AC0EE92
:10A67000876A30EE670AE6EE807AB0EE670AC0EDD0
:10A68000007A704783F9223EBCEEC00A7F4AB2FBD3
:10A69000F1F210EE103A9BB2934208D300234FF030
:10A6A0007E5243608360C36003610260704707EEBF
:10A6B000901A9FED777AF8EE676A07EE903A66EEA9
:10A6C000876AF8EE677A66EEA76AFDEEE67A17EE1D
:10A6D000903A2033402B00F2CA80DFED6E7AF4EE20
:10A6E000E76AF1EE10FAF0EE667A0CDDDFED6A5AF9
:10A6F0009FED6A6AB0EE677AB4EEC67AF1EE10FAB0
:10A7000077EEE57AF6DC9FED667AF4EEC77AF1EE45
:10A7100010FA0CD5DFED605A9FED626AB0EE677AF1
:10A72000B4EEC67AF1EE10FA77EEA57AF6D49FED84
:10A730005E7AF4EEC77AF1EE10FA00F390809FEDA6
:10A740005B7AF4EEC77AF1EE10FA44BF9FED547ACB
:10A7500077EE677A27EEA76ADFED554A9FED557AC7
:10A760009FED555ADFED555AA6EE247A67EE864ADC
:10A77000A6EE075AB6EE007AE6EE055AE4EEA57AA2
:10A7800027EE877A9FED486A76EE867AFDEEE75AE5
:10A7900015EE903A2033402B66D8F4EEC66AF1EEFF
:10A7A00010FA0CDDDFED3C5A9FED3C6AF0EE676A73
:10A7B000F4EEC66AF1EE10FA77EEE57AF6DCDFED3C
:10A7C000386AF4EEE67AF1EE10FA0CD5DFED325A83
:10A7D0009FED346AF0EE676AF4EEC66AF1EE10FAA5
:10A7E00077EEA57AF6D4DFED306AF4EEE67AF1EE94
:10A7F00010FA3FDDDFED276A76EEE77A67EEA76AAB
:10A80000DFED2B4A9FED2B5ADFED2B5A9FED2B6A84
:10A81000A6EEA45A67EEA64AE6EE855AB8EE005AAE
:10A82000A6EEA56AE4EE867A67EE857AC7EE206A20
:10A83000B7EE006A76EE865A76EE666A86EE257A7E
:10A8400067EE277A66EE876AC0ED017AC0ED037A7B
:10A8500080ED007A80ED027AC0ED046A70479FEDCA
:10A860000D7A77EE677A75E7DFED157ADEE79FED13
:10A87000147A87E7DFED0D6AF4EEE67AF1EE10FA6E
:10A8800044BFDFED076A76EEE77AB7E720A107005D
:10A8900027D4D236DB0F4940DB0FC940E4CB164149
:10A8A000DB0F49C0E4CB16C1DB0FC93FDB0FC9BFCB
:10A8B0009A7C2E36FAAF4FB93587083CA4AA2ABE37
:10A8C0000000000070B4344890F8A83FA3F13001B4
:10A8D000092957D800F6A874224600F6B77012F876
:10A8E000015FA5F13001092904D88242F7D1002087
:10A8F00070BC7047141B022C4ADD2848002101E07F
:10A9000010F8013B01EB810103EB4103161A303BC8
:10A91000022E044603F0FF01F2DC214B03FB01F1A0
:10A92000A2424FF000030DD903EB830314F8016B2F
:10A930005B00303B3344A24203F0FF03F4D11948DB
:10A9400000FB03F32E2D06D01748A0FB032301EBD9
:10A95000930070BC7047013204200024157804EB8A
:10A960008404303D6400092D00F1FF30A4B202D808
:10A970002C44A4B2013210F0FF00EFD1642202FB9C
:10A980000433E1E700211D4600F6A8720B46D9E723
:10A99000064C0021C4E700BF7814002021240020C9
:10A9A0008096980040420F00ABAAAAAA202400205B
:10A9B0009B1A00FB03F090FBF1F01044704700BFBE
:10A9C000094BD3F8B80FD3F8BC2FD3F8C03F82425D
:10A9D00002DB114602460846984204DD9A42B8BF9F
:10A9E0001A461046704770477814002030B4144A55
:10A9F000D2F8C40FD2F8C83FD2F8CC4FD2F8D01F4B
:10AA0000D2F8D42F834202DB1D46034628468A42F1
:10AA100002DB15460A4629468842A8BF08469342EB
:10AA2000B8BF1346A04202DC2246044610468342C9
:10AA300003DAA342B8BF2346184630BC704700BFB4
:10AA4000781400200B6810B414681B1B0360546852
:10AA50004B681B1B43608B6892685DF8044B9B1A24
:10AA6000836070472DE9F04705468CB008461446D0
:10AA700041F008FC4FF47A72002306460F4646F078
:10AA800095FA394680464FF47A723046002346F0F4
:10AA90008DFA3C2604FB06884FF47A7396B20027A1
:10AAA000C3FB08673B4609A8324641F035FB764BAD
:10AAB00093F8DA3F012B00F09880022B17D19DF814
:10AAC0002680A8F10303082B11D8A8F10403062B54
:10AAD00040F28280BDF82400414641F0B3FAB8F15B
:10AAE000030F00F09E80B8F10B0F00F0A7803246F4
:10AAF0003B4609A841F010FB6449BDF8242081FBC6
:10AB000004310B19E117C1EB6311C1EB0113A4EB85
:10AB100083031BB2002BB8BF5B42B2F5FA6F9EB243
:10AB200009B220D39DF82630581E0B281BD89DF85B
:10AB30002770781E1E2816D89DF828C0BCF1170F64
:10AB400011D89DF829E0BEF13B0F0CD89DF82A9052
:10AB5000B9F13B0F07D8BDF82C00B0F57A7F02D2CF
:10AB60004FF0010812E00023DFF82CA1ADF82830E7
:10AB7000012718468DF82A30ADF82C3099469E46AC
:10AB80009C461A469846CDF824A03B4614F13B0F4C
:10AB9000B4BF2D242B240029B8BF494289B2CDE986
:10ABA0000390CDE90541CDE901CE394907960097DB
:10ABB000284641F063FC40460CB0BDE8F087B8F190
:10ABC000030F59D0B8F10A0F91D19DF82810B1FAAE
:10ABD00081F1490900298AD02E4B3C34F6184FF0F8
:10ABE000000324B243EB070781E79DF82680A8F114
:10ABF0000303072B3FF67BAFA8F10403052BEBD92A
:10AC0000BDF82400414641F01DFA9DF827309842D6
:10AC1000D5D0B8F1030118BF01210029DCD166E7C6
:10AC200007380E28FCDC9DF82730834212D0CCBFB9
:10AC3000012100210029CFD159E707380728FCDC82
:10AC40009DF8273083420ED0B4BF01210021002996
:10AC5000C2D14CE79DF82810012994BF00210121A1
:10AC60000029B9D143E79DF8281001298CBF0021A4
:10AC700001210029B0D13AE79DF82810003918BF0A
:10AC800001210029A8D132E778140020898888881A
:10AC900058CF050880EE3600000001012DE9F04193
:10ACA000274B86B09C1D1E4603F160081F464FF0DF
:10ACB000000C94F800E0A0EB0E05A0EB0C02002DB8
:10ACC000B8BF6D42002AB8BF52429542B8BF27466E
:10ACD00004F10604B8BF4FFA8EFCA045E9D17C8888
:10ACE00003F15A0E002204E02546B64516D016F8A8
:10ACF000062F6245F8D1B6F80280A1EB08020B1BC3
:10AD0000002AB8BF5242002BB8BF5B42934225468F
:10AD1000EBDDB645444645463746E8D17E793C7979
:10AD200002953A78019200910346CDE90346054A1F
:10AD30000321012042F04EFB384606B0BDE8F08109
:10AD4000846F050888CF0508074BD3F8E42FD3F8A4
:10AD5000DC1FD3F8E00FC3F8DC0F5242C3F8E01F4A
:10AD6000C3F8E42F704700BF7814002038B50A4CB0
:10AD70000A4D2321D5F8E80F3BF008FA14F8011F1B
:10AD80000029F7D106483EF0F1F895F8EC3F13B1F1
:10AD9000012385F8ED3F38BDC4CF050878140020A5
:10ADA000D0CF05082DE9F04F3C4B3D4D3D4A3E4C80
:10ADB000DFF8FC8041F630168946074641F631112E
:10ADC000985D5956002808BF2A468BB037483BF09B
:10ADD000F1FE4D460026B9F1000F3ED022782B78C7
:10ADE0009A426A683BD0D5E902CE0021A87D07903F
:10ADF000B5F914000690B5F912000590B5F91000E8
:10AE00000093CDE903E0CDE9012C334642463846B4
:10AE100009913CF04BFA09996268A37DB4F914B02A
:10AE2000B4F912A0B4F910E00793D4E9020C14F8B5
:10AE3000183B0093CDE901203346CDE905ABCDE9C0
:10AE400003CE4246013638463CF04CFA3C2E05F122
:10AE50001805C0D10BB0BDE8F08F4946DCE761684A
:10AE6000D5F808C0914202D0D5F80CE0BDE7A16842
:10AE7000D5F80CE06145B8D1E1687145B5D12069DC
:10AE800029698842B1D16069696920F07F4021F069
:10AE90007F418842A9D10121A8E700BF7814002092
:10AEA000E0CF050810D5050808280020E4CF0508E4
:10AEB000F4CF050870B541F21C33204EF35C2DED44
:10AEC000028B04460D4693B341F2283141F22C32F5
:10AED00041F224337158B258F3580360C0E90112AB
:10AEE00006F57F6393EDCC8ADFED158A95ED000AB8
:10AEF00080EE280A48F01CFD23681844206028EEE4
:10AF0000288A95ED010A80EE080A48F011FD636871
:10AF10001844606095ED020A48F00AFDBDEC028B12
:10AF2000A36841F21C321844A060B05C70BDC0E957
:10AF300000338360B7EE008AD6E700BF78140020A4
:10AF40002C7D8E3FF0B4264B41F21C3482B01C5D48
:10AF50003CB90023036043608360204602B0F0BC2C
:10AF6000704741F2283541F224365F594D689E59A9
:10AF700001950D689FED1B6AAE1B019DED1B07EE51
:10AF8000905A03F57F65D5EDCC6A07EE106A66EE40
:10AF9000866AB8EEC77AF8EEE77A27EE067A67EEA9
:10AFA000A67A012A80ED007AC0ED017A0ED041F236
:10AFB0002C358A685B59D21A07EE902AF8EEE77AA8
:10AFC000C0ED027A204602B0F0BC7047D1ED027AA3
:10AFD000F8EEE77AC0ED027A204602B0F0BC704786
:10AFE000781400202C7D8E3F1D4A2DE97003546C8F
:10AFF0001C4E002CD6F8A83503600EDD4832002325
:10B0000006F5B56501E09C4207D052F8041BA94241
:10B0100003F10103F7D1012200E00022D6F8B43594
:10B0200083600271104A96F8B83543711346F3E80D
:10B030000289D3E90045D6F8D83552F8042CD6F861
:10B04000D01581625B0943EAC2635209C0E90489F1
:10B05000C0E90645C0E90832BDE87003704700BF8B
:10B0600000F8002000000020E0050020014BD3F88C
:10B070002802704700000020014BD3F8B802704747
:10B0800000000020014BD3F8700270470000002040
:10B090000C4608B505461EF0E1FC20461EF0DEFC1D
:10B0A0000020FFF703FA284638F0D4F8B0B920465C
:10B0B00038F0D0F80028F6D00120FFF7F7F9204645
:10B0C00038F0C0F80146284638F0EAF80020FFF7CB
:10B0D000EDF9284638F0BEF80028E8D00120FFF747
:10B0E000E5F9284638F0AEF80146204638F0D8F8A1
:10B0F0000020FFF7DBF9DAE7F0B500230B604B60C7
:10B100008B60CB600B610268DFF88CC089B004AD46
:10B11000C2F385572E4647FA03F0C007344604D5DC
:10B1200013F80C0004F8010B26460133062BF2D16C
:10B130001748C2F303240444002394F854413370A5
:10B140008DF8184000F5AE7CC2F305370DF11906F5
:10B1500047FA03F0C007344604D513F80C0004F88E
:10B16000010B26460133062BF2D100233370C2F3C4
:10B17000834406ABCDE90134084602F00F030549CC
:10B180000095C2F3031241F079F909B0F0BD00BF98
:10B19000986E050814D00508E46F050810B4414AFC
:10B1A00092F8D130D2F8B800023BD2E92C14062B29
:10B1B00074D8DFE803F05A5C60500655040064421E
:10B1C0004942404280EAE073A3EBE07306EE903A16
:10B1D00084EAE473A3EBE47307EE103AF8EEE66A50
:10B1E0009FED316AB8EEC77A26EE866A81EAE1738E
:10B1F000A3EBE17307EE903AB4EEC76AF1EE10FAF2
:10B20000F8EEE77A04DDB4EEE76AF1EE10FA34DC2A
:10B210009FED256A27EE066AB4EEE76AF1EE10FAB2
:10B2200004DDF4EEC66AF1EE10FA2DD49FED1E6A2D
:10B2300067EE867AB4EEE77AF1EE10FA2BD5F4EEEB
:10B24000E76AF1EE10FA26D50029CCBF04200520CC
:10B250005DF8044B70474B42404221461C46B1E723
:10B26000634240420C461946ACE74942AAE74B42CA
:10B2700061421C46A6E76442A4E70028CCBF002038
:10B2800001205DF8044B7047002CCCBF0220032046
:10B290005DF8044B70474FF0FF30D9E723460C466A
:10B2A00019468FE700F80020ABAA2A3F70B5294B5A
:10B2B000294C93F8581C93F8593CDFED286A94F810
:10B2C0006C28D4F8905807EE101A07EE903AB8EEB2
:10B2D000C77AF8EEE77A27EE267A67EEA67A04EBCD
:10B2E0004206BDEEC77A0132FDEEE77A02F00F01A9
:10B2F000B6F8703884F86C1817EE102A17EE901A0A
:10B30000C31A2B448A42C4F8903882B0A6F8700859
:10B310004FEA131312DC17EE101A17EE902A98B2A8
:10B3200040F2FF350023009541F08EFE2A460021B1
:10B3300041F0ACFEA4F8940802B070BD9BB29942F3
:10B34000D4BF581A00208242A6BF101A80B2002033
:10B35000E6E700BF781400207025002014AE2341DA
:10B3600038B503782DED0A8BD0ED01AA70EE609A06
:10B37000044669EEAAAAF0EE408AB0EE607A0D4665
:10B38000B0EE41AAF0EE61BAB0EE42CAB0EE629AF7
:10B39000002B61D1D0ED0B7A01F00103002B54D0CA
:10B3A00079EEE77AB0EE697A87EE8A0AD4ED090A77
:10B3B00084ED0B7AF5EEC00AF1EE10FA57DCD4ED0D
:10B3C000032A20EE220A94ED0ABAD4ED057A20EE83
:10B3D000099A3AEE8B8A68EEA78A38EE098AB0EEAF
:10B3E0004C1A38EE288AF0EE6B0AB0EE480A41F0AB
:10B3F0003DFED4ED027A94ED047A84ED0E9A69EE66
:10B40000A77AF0EE4B6AEAEE276A6B0730EE488ABD
:10B41000F0EE667A28EE078AC4ED0F8AEAEE087A23
:10B4200084ED0CBAC4ED0DAA84ED100A08D5B0EE77
:10B43000CBBAB0EEE77AB4EECB7AF1EE10FA01D5E2
:10B44000C4ED0A7ABDEC0A8B38BD77EE677AF1EE6F
:10B45000677A87EE8A0AA9E711F001034FF000022C
:10B460000CBFF0EE607AF0EE697A027096E7B0EE0B
:10B470004A1A04F1180094ED038A3EF0E5FC28EE28
:10B48000000AA0E70648074B41F20101A3F11802A8
:10B49000415C002908BF134693ED020A704700BFC4
:10B4A00078140020442700202DE9F0413B4CDFF8C0
:10B4B000F480B4F8CA71B4F8BE31A8F812302DED9A
:10B4C000028B05460E4627BBD8E90501281A66EB14
:10B4D000010145F025FDDFED327AB4F8C031B4F852
:10B4E000C211B4F8C62107EE100A67EE277A0B44A2
:10B4F000FCEEE77A17EE905A2B449A423BD3BDEC10
:10B50000028BB4F8C801A8422CBF00200120BDE87E
:10B51000F081FFF7B7FF07EE907AB8EEE78AF0EE1A
:10B52000408AB4EEC80AF1EE10FA1FDAD8E9050134
:10B53000281A66EB010145F0F3FCDFED197AB4F847
:10B54000C031B4F8C211B4F8C62107EE100A67EE94
:10B55000277A0B44FCEEE77A17EE905A2B4493427D
:10B5600012D8F4EEC88AF1EE10FAC8DBBDEC028BFB
:10B570000120BDE8F08125F03DFB0028BFD0BDECE7
:10B58000028B0320BDE8F08125F034FB0028F6D1C2
:10B59000FFF778FFF0EE408AE3E700BF7814002061
:10B5A0006F12833A00F80020F8B5214D1D260C4695
:10B5B000074685F896681DF0B1FD00201DF032FDAC
:10B5C00008201DF02FFD0E201DF02CFD30461DF033
:10B5D00029FD04201DF026FD04201DF023FD002080
:10B5E0001DF020FD30201DF01DFD00201DF01AFD76
:10B5F00020461DF017FD00201DF014FD1DF06EFD0E
:10B6000005F698001DF070FC00B9F8BD95F8983863
:10B6100063B995F89938302B00D03BB995F89A3832
:10B6200023B995F89B383B700120F8BD0120F8BD87
:10B63000702500202DE9F04FB74CDFF8E492DFF8D9
:10B64000E4A22DED028B0022002304F54075C9E928
:10B6500046239FEDB28A87B02E46A4F6A80800279D
:10B660000CE008EBC3032278D3F8A83B02B163B91E
:10B670002F601834A64205F108053ED094F9013038
:10B68000002BEEDA2378002BF2D02B79D807F0D4F8
:10B69000A16820791CF074FE21698346207B1CF090
:10B6A0006FFEA2780346252AE2D8DFE812F03600C2
:10B6B000F6005100EF0021012A014F003100EC019A
:10B6C000F501FB01080203020601100118016400E4
:10B6D0006D00780081004C015C01760188019001C9
:10B6E0009601AE01B401BA01C001C901DF01FD003C
:10B6F000B700D10091003D01E00098F8B83C13B1CB
:10B7000098F8BA3C9BB907B0BDEC028BBDE8F08F4E
:10B71000BBF1000FACD00028AAD0237D01222A6003
:10B72000DA07A6D52B7943F001032B71A1E798F82E
:10B73000B92CD8F8BC0C402139F050F9002388F816
:10B74000BA3C07B0BDEC028BBDE8F08F40F28263DB
:10B750009B45D4BF4FF0000B4FF0010B237DC5F884
:10B7600000B0DB0785D5BBF1000F82D02B7943F009
:10B7700001032B717DE700FB0BF047F6FF7251468A
:10B7800041F084FC8346E9E70028E7D09BFBF0F01A
:10B7900047F6FF72514641F079FC8346DEE75FFAD7
:10B7A0008BF0194600931CF0C5FD009B9B46D5E726
:10B7B0005FFA8BF20190104600921CF0D5FD019BC0
:10B7C000009A03EB000B594610461CF0B3FDC5E789
:10B7D00007EE90BAF8EEE78A002868EE888A08BF7C
:10B7E0004FF4FA73B0EE680ACDE9003341F07CFD06
:10B7F000F0EE407AB0EE680AF0EE678A41F0FAFCAB
:10B80000C8EE807A009B07EE103AB8EEC77A67EE72
:10B81000877AFDEEE77A17EE90BA9FE707EE90BAC7
:10B82000B8EEE70A002808BF4FF4FA7320EE080AC2
:10B83000CDE9003341F058FD009B07EE903AF8EE59
:10B84000E77A27EE800AFDEEC07A17EE90BA85E718
:10B8500007EE90BAB8EEE70A002808BF4FF4FA7373
:10B8600020EE080ACDE9003341F0C4FCE4E7009083
:10B870004FF47A725846002141F008FC009B0022E8
:10B880004FF47A71FFF794F8834667E78345ACBFBE
:10B890004FF0000B4FF0010B60E7ABEB000BBBFA76
:10B8A0008BFB4FEA5B1B59E7D9F81831C9F8A0B1F7
:10B8B00043F08003C9F8183150E7BBF1000F7FF463
:10B8C0002CAF002840F00281D5F800B046E758447C
:10B8D00047F6FF72514641F0D9FB83463EE7ABEB9A
:10B8E000000047F6FF72514641F0D0FB834635E732
:10B8F00040F234539B45CCBF4FF0000B4FF0010B8F
:10B900002CE7ABF23550B0F5A77F2CBF4FF0000B02
:10B910004FF0010B22E700BF182E002035FA8E3CB5
:10B9200000F800200080FFFF1A46584600210093CF
:10B9300041F0ACFB009B002219464FF47A73FFF7ED
:10B9400037F883460AE75FFA8BF2019010460092BF
:10B950001CF00AFD019B009AA0EB030B5946104610
:10B960001CF0E8FCFAE65FFA8BFBBBF1070F00F274
:10B97000AB80C2B2003A98F8B91C18BF012201206E
:10B98000524200FA0BFB4A4002EA0B024A409B4635
:10B9900088F8B92C88F8BA0CE0E6D9F81831227D7D
:10B9A00043F00103C9F81831D1074FF001032B60B0
:10B9B0007FF55FAE2B7943F001032B7159E6D9F87F
:10B9C0001831227DC9F87CB143F00203EAE7D9F8C7
:10B9D0001831227D43F00403E4E7D9F884319B4514
:10B9E0003FF446AED8F8A80C02A937F0DFFA0028D9
:10B9F00047D058469DF80A20012141F047FB834675
:10BA0000C9F8840188F8AE0CA8E6D9F81831227D6F
:10BA100043F00803C6E7D9F81831227D43F010033C
:10BA2000C0E7D9F81831227D43F02003BAE7D9F8EE
:10BA30001831C9F894B143F04003C9F818318DE6C4
:10BA4000D9F898319B453FF413AED8F8A80C02A959
:10BA500037F0ACFAA8B158460522012141F016FB97
:10BA60008346C9F8980188F8AC0C77E6D9F89C3180
:10BA70009B453FF4FDADD8F8A80C02A937F096FA23
:10BA800038BB2860F5E5BBF1000F7FF446AE002817
:10BA90007FF443AE2860ECE5BBEB000B18BF4FF022
:10BAA000010B5BE6BBF1000F3FF437AE00283FF41B
:10BAB00034AEDDE5BBFA8BFB4FEA5B1B4EE65BEA7F
:10BAC00003033FF42AAED3E5834647E6C5F800B04A
:10BAD000CFE558460822012141F0D8FA8346C9F83B
:10BAE0009C0188F8AD0C39E6164991F8A82F32B3BD
:10BAF000F0B4064600200346074602E092F8A82F5D
:10BB0000DAB100EB80002E2A4FEA400004D1013365
:10BB1000CA18324482F8A87FCA18A0F1300592F8FA
:10BB2000A82FA2F13004092C98BF50190E2B03F155
:10BB3000010301EB0302E1D90020F0BC70470020B3
:10BB4000704700BF7814002070B5164ED6F8C03C80
:10BB50001A791E3A012A054605D91846002137F000
:10BB60009FFBD6F8C03C002D0ADD0F4C254414F88D
:10BB7000011B184637F094FBA542D6F8C03CF6D11D
:10BB80001846002137F08CFB0849B6F8F03CD1F894
:10BB9000441B074AC6F8E81C01330021A6F8F03C14
:10BBA000516070BD702500203432002078140020D0
:10BBB0005832002010B50B4C04F5C950143004F570
:10BBC000CA540CF033FA2368C01A41F083FA0028F3
:10BBD000B8BF404242F210739842D4BF0020012007
:10BBE00010BD00BF78140020036813F0400004D09B
:10BBF00013F4057F14BF0120002070472DE9F043A6
:10BC0000244D254C85B005F1280980460F4616467F
:10BC1000C4F8F89BC4F8F45BFEF7E0FB1F4BC4F8D4
:10BC2000E83B122284F8C82B04F6C83142F6F82209
:10BC300000234020C1E902231EF0BEFA044610B3DF
:10BC4000FFF7D2FF98F800203F78034694F90400EC
:10BC500000961C1E14BF03210121002A0CBF0722DD
:10BC60000622012F0CBF082300231A43CDE901123D
:10BC70004B460B4A40211EF0CBF8A5F550652CB978
:10BC8000003818BF012005B0BDE8F083C5F8680D85
:10BC9000F6E700BF7032002078140020112C020853
:10BCA000513C02080348044A00F64B4100F64A4062
:10BCB000A4E700BF78140020400D03000348044AA5
:10BCC00000F64B4100F64A4098E700BF7814002088
:10BCD000A086010008490138002310F8012F222A0C
:10BCE00004D001330F2B01F8012FF6D1034A13447E
:10BCF000002283F846207047BD14002078140020ED
:10BD000010B5084C82B00223C4F86C3D019044F099
:10BD10005BFB0199C2B2D4F8700D02B0BDE81040CF
:10BD200037F09CBA702500202A490023421E81F872
:10BD3000743D043012F8013F33B3413B332B21D81B
:10BD4000DFE803F01A202020203E35202020202C80
:10BD500020202020202020232020202020202020E0
:10BD6000202020201A202020203E35202020202C9A
:10BD7000202020202020202391F8743D43F0080348
:10BD800081F8743D8242D5D1704791F8743D82426A
:10BD900043F0010381F8743DCCD1F5E791F8743D8F
:10BDA000824243F0100381F8743DC3D1ECE791F86F
:10BDB000743D824243F0040381F8743DBAD1E3E755
:10BDC00091F8743D824243F0020381F8743DB1D191
:10BDD000DAE700BF7025002070B5C64CD4F8786D46
:10BDE00084B02EB13046FFF7FFFE002840F072818C
:10BDF00094F8840DFCF73CFA94F87C3D83420546A8
:10BE00001CD0002800F08281C6B1BB4B96F904001B
:10BE100093F82D20B2FA82F252094FF41651002302
:10BE20000225CDE9015200911A4604211DF0F0FFD0
:10BE3000C4F8800D10B1012384F87C3D94F8850D81
:10BE4000FCF716FA94F8863D834205461ED000287A
:10BE500000F01C81D4F8883DC3B1A74A93F90400CF
:10BE600092F83420002A18BF08224FF4964100238C
:10BE70000325CDE9015200911A4608211DF0C8FFA3
:10BE8000C4F88C0D10B1012384F8863DFCF7B8FA94
:10BE9000D4F8905D2DB12846FFF7A6FE002840F0AB
:10BEA000FE8094F8A00DFCF7E3F994F8943D8342EA
:10BEB000064632D0002800F032818F4B93F837309D
:10BEC000012B00F03B81022B0CBF8C4A8C4AC4F83A
:10BED0009C2D15B32A7A002A00F02D81022A00F049
:10BEE0003181012A40F03C81844BC4F89C3D4FF4E1
:10BEF000966395F9040000930025022101910295B3
:10BF00002B462A4610211DF083FFC4F8980D20B15E
:10BF1000012384F8A15D84F8943D94F8A20DFCF708
:10BF2000A7F994F8A33D8342054636D0002800F0D7
:10BF3000A480D4F8A43DD3B11A7A002A00F0F88086
:10BF4000704901EB8202D2F8642193F90400009257
:10BF500000230321019102931A464FF480711DF0D2
:10BF600057FFC4F8A80D10B1012384F8A33D624A1D
:10BF7000654BB2F85E1092F8605092F86100A3F839
:10BF80002E1992F8621092F8632083F8325983F8E0
:10BF9000360983F8371983F8382994F8AC0DFCF783
:10BFA00067F994F8AD3D8342054627D058B34FF466
:10BFB000FA70FEF779F9D4F8B03DFBB11A6802F4D3
:10BFC0001072B2F5107F19D093F9040003214FF4D9
:10BFD000E13200230825CDE9011500924FF40071EC
:10BFE0001A461DF015FFC4F8B80D38B142490122B8
:10BFF0000023086284F8AD2D84F8B43D94F8BC5D4C
:10C000006DB104B070BDD4F8B80D1DF0E5FEC4F8F4
:10C01000B85D84F8AD5D94F8BC5D002DF1D1D4F825
:10C02000C03D002BEDD0032293F90400CDE901259A
:10C030001A7A344B03EB82034FF40021D3F86431B6
:10C0400000932A462B461DF0E3FEC4F8700D00282D
:10C05000D7D02948C4F8C85DD0F8443B84F8CC5DFB
:10C0600003F51C5310333A30C4F8C43DFFF75CFEAF
:10C07000012384F8BC3D04B070BDD4F8A80D1DF0B8
:10C08000ABFEC4F8A85D84F8A35D86E7D4F88C0DF8
:10C090001DF0A2FEC4F88C5D84F8865DF6E694F887
:10C0A000943D002B7FF439AFD4F8683D002B3FF46A
:10C0B00034AF114AC4F8983D92F83730012B48D07C
:10C0C000022B0CBF0D4B0E4BC4F89C3D012384F892
:10C0D000943D22E794F87C3D002B7FF4AFAED4F87A
:10C0E000683D002B3FF4AAAE0122C4F8803D84F8DD
:10C0F0007C2DA3E670250020781400201409002070
:10C1000020090020986E050800000020D4F8800D5A
:10C110001DF062FEC4F8805D84F87C5D8EE6D4F884
:10C12000980D1DF059FEC4F8986D84F8946DF4E6EE
:10C130004FF4614209E74FF49643DAE60B4AC4F83C
:10C140009C2DC6E64BB9094BC4F89C3D4FF41663D1
:10C15000CFE6064BC4F89C3DB8E74FF41663C8E63B
:10C16000034B03EB8202D2F86431C2E608090020D7
:10C17000986E050870B5254C064604F1460044F05B
:10C1800023F994F846502B2D38D0302D27D0382D58
:10C190002ED01F49002301E011F8015F0C464DB37A
:10C1A0000133102BF8D1324606F11005134612F870
:10C1B000011B222926D0AA42F8D1002820DDC0F197
:10C1C00001001918621C013301E08B4218D013F8EA
:10C1D000014D12F8010D8442F7D0002070BD94F893
:10C1E0004720A2F13101012903460DD9362A0BD08F
:10C1F0000138CEE7002BF0D04C1ED4E70538C8E755
:10C20000012070BD013BD8E7981EC2E778140020DA
:10C21000BE1400202DE9F04F2DED028B87B00E46A5
:10C2200000AF144620B10378303B012B40F2698106
:10C23000DFF828A3DFF82893DFEDC18A9FEDC18ADC
:10C240000AF5965808F10C083378002B3BD02CB136
:10C25000DAF8443B22689A4240F27D83DFF8F8B274
:10C260009BF8CD5D002D40F078829BF8D02DB64B29
:10C2700003EB4203B3F8A8315BBB01238BF8D03D3D
:10C28000B24B5A6A11061CD59A68920740F1428354
:10C29000BAF84821DAF800304FF4F36112FB01F2EA
:10C2A00089FB0201D217C2EB61121020C7F81320DC
:10C2B0003021082238747974BA74381800259847E8
:10C2C0003570002CC0D11C37BD46BDEC028BBDE8DB
:10C2D000F08F0132D2B2B3F58A6F8BF8D02D00F017
:10C2E000648125D8B3F5806F00F0FD8167D9B3F57F
:10C2F000866F00F0DE814BD9B3F5886FE1D19AF8F3
:10C300003130002BDDD0914ADAF80030B2F9BC218F
:10C31000C7F81320102240213A7404227974BA74A9
:10C3200007F11000002598473570002C8CD1CAE722
:10C33000B3F5006F00F016817FD9B3F5046F00F0FC
:10C34000E8805AD9B3F5116F00F0E481B3F5206F9E
:10C35000B7D17E4BD3F8B8319A06B2D57C4ADAF819
:10C360000030D2ED057A67EEA87A1021FCEEE77A6C
:10C37000002517EE902AC7F813200A2239747D741D
:10C38000BA74781898473570002C7FF45DAF9AE73F
:10C39000B3F5826F00F0B081B3F5846F91D16B4A31
:10C3A000536A18068DD59368990740F19182DBF89E
:10C3B000683EC7F8133010212022042330E0B3F583
:10C3C000007F00F0538153D9B3F5047F7FF479AF38
:10C3D0005E4B5B6A9A077FF574AF9AF83230002B98
:10C3E00040F07B829BF8DE3D012B0CBFBBF8EC3D9F
:10C3F000BBF8EE3D10220221A0E1B3F5026F62D13D
:10C40000524B5A6A15067FF55CAF9A68900740F167
:10C410007482DAF83831C7F813301021202208234B
:10C42000BB743974DAF800307A74781800259847AC
:10C430003570002C7FF408AF45E7B3F5E26F00F0EC
:10C44000F88048D9B3F5E46F7FF43BAF9AF8313008
:10C45000002B7FF436AF3D4B93ED380A20EE080AEF
:10C4600047F066FA10212022C7F813000723D7E708
:10C47000B3F5807F00F0C280B3F5887F7FF421AFF1
:10C48000324BD3F8B83159077FF51BAF314B1A78CF
:10C49000002A40F0818203F2B32393ED050A47F0AE
:10C4A00047FA10230122C7F813003B747B74BA7457
:10C4B000DAF8003007F11000002598473570002C9D
:10C4C0007FF4C2AEFFE6B3F5036F3FF4D9AE002CA4
:10C4D0007FF4BAAEF7E6B3F5C06F77D0B3F5E06F8F
:10C4E0007FF4EFAE9AF83150002D7FF4EAAE174B8F
:10C4F00093ED360A20EE080A47F01AFA10220723B5
:10C50000F5E001300621FCF797F8134B83F8CD0DC9
:10C510008EE60E4ADAF80030B2F9C02102EB820250
:10C5200052001020C7F81320402108223874797473
:10C53000BA74381898473570002C7FF485AEC2E67F
:10C54000B80C473E0000C842986E050800F800206D
:10C550006833002079240020702500207814002002
:10C560001F85EB51D6494B6A18067FF5AAAE8B683A
:10C570009B0740F1EB81D30700F1D681DAF8302137
:10C5800082EAE273A3EBE27303EB5303A9FB031309
:10C59000DB08002AB8BF43F08043102100250822A1
:10C5A000C7F8133039747D7479E0C54B5A6A1206A6
:10C5B0007FF587AE9A68950740F1B181BAF94A31A3
:10C5C000C7F8133010215022042329E79AF8353098
:10C5D000002B40F0408119F09BFF0025102206231C
:10C5E000C7F813003A747D74BB74B818DAF80030D9
:10C5F00098473570002C7FF427AE64E6B04BD3F833
:10C60000B8315D077FF55DAEAE4B1A78002A40F079
:10C61000C18103F2B323D3ED027ADAF80030FCEEE5
:10C62000E77A102117EE902A0025C7F8132001227F
:10C63000A4E69AF83150002D7FF443AEA04B93ED61
:10C64000370A20EE080A47F073F910230722C7F8CB
:10C6500013003B747B74BA74DAF8003007F11000F1
:10C6600098473570002C7FF4EFAD2CE6944B5B6A55
:10C670001B057FF526AE9BF8DC3D002B3FF421AE79
:10C68000BAF9FE33904A7D7482FB0312DB17C3EBC9
:10C69000A2031BB210210222C7F813303974DAF852
:10C6A0000030BA74781898473570002C7FF4CCAD00
:10C6B00009E69AF83130002B3FF403AE804ADAF8ED
:10C6C0000030B2F9BE21C7F81320102230213A748D
:10C6D00004227974BA7407F1100098473570002C61
:10C6E0007FF4B2ADEFE5FBF76FFD10220423C7F82E
:10C6F00013007D743A7477E7714B5A6A12067FF51E
:10C70000E0AD9A68950740F10081FBF7E3FE102346
:10C710000422C8E66A4B5B6A99077FF5D2AD9BF8A5
:10C72000D13D4BB19BF8DE2D012A0CBFBBF8EC2D9F
:10C73000BBF8EE2DB2FBF3F310220921C7F813303A
:10C740003A74DAF800307A74B974B818002598474A
:10C750003570002C7FF478ADB5E5DFF870A107F1F6
:10C7600008033B61DAF81C8007F10E037B61D8F8FF
:10C770000020DAF814309A426C469BF8CE3D00F067
:10C78000818007F109023A615A1C8BF8CE2D03F023
:10C790000F030522D8F804903B7294461346D8F84C
:10C7A0000010A9EB0109D01D5FFA89F920F00700FC
:10C7B000CC45ADEB000D40F2D6804A4668464AF0C3
:10C7C000E5F8D8F800304B44C8F800304A466946CE
:10C7D00007F110003FF018FEDAF81C20DAF81430E8
:10C7E000D8F80000117AC8F80400C21A4A40D2B240
:10C7F0008342C8F800308BF8CF2D0AD00133C8F837
:10C80000003013F8011C984282EA0102F6D18BF83D
:10C81000CF2D3B69591C39611A70D7E90432D21AFD
:10C82000012A08DD00215A1C3A611970D7E9043247
:10C83000D21A012AF7DC07F10800FBF705FC0025F6
:10C8400000231C37A5468BF8CD5D3370BD46BDEC8B
:10C85000028BBDE8F08F1A4A526A10057FF531ADA0
:10C860009BF8DC2D002A3FF42CAD012B00F09680C4
:10C87000DBF8F03DC7F813301022002506233A7488
:10C880007D74B1E6B8F90C20591C03F00F0343F096
:10C890001003002AB8BF43F0200307F109023A61F0
:10C8A0003B72D8E900390422A9EB03038BF8CE1DB3
:10C8B00007F10A017B723961134694466FE700BFA6
:10C8C00000F800207924002067666666781400204E
:10C8D00013681B077FF56BADF3E49BF8D13D002B8C
:10C8E0003FF488AD9BF8DE2D012A0CBFBBF8EC2D80
:10C8F000BBF8EE2DB2FBF3F37CE51B6819077FF55F
:10C9000088AD002C7FF4A0ACDDE41B6818077FF530
:10C91000FCAED6E41B681D077FF5BAACD1E41B68FA
:10C9200018077FF54BAECCE4DAF8342182EAE273E3
:10C93000A3EBE27303EB5303A9FB0313DB08002A09
:10C94000ACBF43F0004343F0404326E60B681D07AD
:10C950007FF511AEB5E400231C373370BD46BDEC46
:10C96000028BBDE8F08F6846C7E900324AF00EF846
:10C97000D8F800107A683B681144C8F8001007F135
:10C9800010001A4669463FF03FFD07F10800FBF72B
:10C990005BFB55E743463EE643467EE5DAF8003466
:10C9A00068E700BF2DE9F041DFF8208198F8ED300D
:10C9B000012B82B002D002B0BDE8F081D8F80400AB
:10C9C0000028F8D0D8F8443B3E4C3F4E01330025B8
:10C9D000019304F66C678DF803500AE01B2B84F872
:10C9E000745E48D00D2B5CD0012386F83939D8F815
:10C9F000040003685B689847002849D0002D47D1A0
:10CA0000D8F804000368DB68984783B27E2B4BD0CC
:10CA100096F83929002AEAD194F8742E002ADDD13B
:10CA20007D2B4BD094F8782E2AB180F02003D8B219
:10CA300084F8785E034694F8732E062A0BD8B4F86F
:10CA400076CEA11863440132A4F8763E81F86C0ECC
:10CA500084F8732ECBE7B4F8762E1344C3F3072281
:10CA600052FA83F30122A4F8763EFF2B08BF3D461D
:10CA700086F83929BBE7D8F8040003685B68984753
:10CA80000028B1D101238DF8033086F83939AEE79B
:10CA9000284601AA0DF10301FFF7BCFB02B0BDE877
:10CAA000F081A4F8765EA2E701238DF8035084F8A4
:10CAB000735E86F8395984F8743E98E7012384F848
:10CAC000783E94E7702500200000002078140020B4
:10CAD00010B441F20101074C074B615C5DF8044B57
:10CAE000A3F11802002908BF134603EB800090ED64
:10CAF000030A70477814002044270020054B93F860
:10CB0000ED200AB1002070470222186083F8ED2062
:10CB10000120704778140020F0B5224C224DC4F853
:10CB2000F45B85B0FDF75AFC12232049204A84F8B3
:10CB3000C83B42F6F82604F6C83300274020C3E974
:10CB40000267C4F8E81BC4F8EC2B1DF035FB30B3CA
:10CB500094F84B3C94F84A1C90F90400154A022BB7
:10CB600014BF08230023002908BF43F00103032456
:10CB70004FF4E131CDE901430091002340211DF044
:10CB800047F9A5F67C65C5F8A00E014620B10A4814
:10CB9000FFF7B4FF85F8A40E081E18BF012005B0EA
:10CBA000F0BD00BF78140020EC3300202D3E0208B9
:10CBB000854C0208994102084935020810B50C4C11
:10CBC00094F8ED300BB1002010BD20201DF0F4FAD8
:10CBD000C4F8F00050B120211DF0E4FA054B84F8B0
:10CBE000EE000120236084F8ED0010BD012010BD8F
:10CBF000781400207180000870B5104E96F8AB5E76
:10CC0000C2B0AC1D224606F6AA61684649F0BEFED7
:10CC1000B6F8A83E0DF804300DEB040208351B0AE7
:10CC20006C465370254414F8011BD6F8A80D36F055
:10CC300037FBAC42F7D142B070BD00BF7025002079
:10CC40002DE9F04FD14CD24DDFF8588393B004F664
:10CC5000E877D4F8A80D36F0FDFA002800F08D80B2
:10CC6000D4F8A80D36F0EEFA94F8BB3F0022064641
:10CC700084F8B82F0A2B00F2DA87DFE813F0BF0040
:10CC8000BF0071015C01470132011A01FC00DC00A8
:10CC900081008100022E3246BE4928BF02220025B3
:10CCA00002A8ADF8085049F071FE9DF80830012B3C
:10CCB00040F01E8294F8ED1FB7488DF8221041F61F
:10CCC000311194F8BE2F415694F8EE5F8DF8235041
:10CCD000ADF82010B14D089E84F8AD3E511C40F2D5
:10CCE000FE4042F6FA4384F8AC2E84F8BE1FA4F846
:10CCF000AA0EC4F8B06E291DA4F8AE3E04224FF669
:10CD0000FF7001E015F8012B424082EA0212D2B214
:10CD1000130983EA102343EA0223A94283EAC200EB
:10CD2000F0D19F4DA4F8A80E291D15F8012B82EA19
:10CD3000000383EA0312D2B2130983EA102383EAC1
:10CD4000022383EAC20398B28D42A4F8A80E1BB254
:10CD5000EBD183F0DD0282EA0212D2B2130983EA38
:10CD6000102383EA022383EAC2031BB2A4F8A83E7D
:10CD7000A4F8B43EFFF740FF012013B0BDE8F08FE8
:10CD80000A2B05D02A8883B2B3EB122F00F00C8156
:10CD900094F8BCAF05EB0A094FF48872294638466F
:10CDA00089F8096049F0F2FD99F8091099F808200E
:10CDB00094F8BD3F94F8BA0F95F803C0B4F8C0EFEB
:10CDC00085F844A442EA012201330121A4F8E82FA6
:10CDD000FE2E4FF0000285F8453484F8EBCF85F83D
:10CDE000431484F8BA1FA5F84A04A5F848E484F867
:10CDF000B82F00F0818184F8BB1F2AE7FE2800F0DD
:10CE0000D882EE7894F8BC1F94F8BD2F94F8BACF6E
:10CE1000B4F8C0EF84F8EB6F0132002085F843349A
:10CE200085F8441485F84524A5F848E4A5F84AC4D3
:10CE300084F8BA0F0DE7E879B5F800C094F8BC1F84
:10CE4000404490F8D43183EA0C0383EA0313DBB245
:10CE50001A0982EA1C2242EA032282EAC3036A1800
:10CE6000D8B22B80864214BF0A2309231672EE78AB
:10CE700084F8BB3FC8E794F8BC1F6A1801311072F0
:10CE8000B5F800C0EE7880EA0C0080EA0010C0B26D
:10CE9000020982EA1C22C9B242EA002282EAC000E8
:10CEA000B14284F8BC1F2880AED1082384F8BB3F70
:10CEB000AAE72A88E871504080EA0010C0B203094E
:10CEC00083EA122343EA0023EE7883EAC000288035
:10CED000002E40F01981082394F8BC1F84F8BB3F52
:10CEE00092E72A8894F8BC1FA871564086EA061675
:10CEF000F6B2330983EA122343EA062383EAC6061D
:10CF000006232E8084F8BB3FEE787DE72A8894F8CC
:10CF1000BC1F2871564086EA0616F6B2330983EA2A
:10CF2000122343EA062383EAC60603232E8084F8ED
:10CF3000BB3FEE7868E72A8894F8BC1F68715640BA
:10CF400086EA0616F6B2330983EA122343EA062379
:10CF500083EAC60605232E8084F8BB3FEE7853E7AC
:10CF60002988E87080EA010383EA0313DBB21A0917
:10CF700082EA112242EA032282EAC3020021042348
:10CF80002A8084F8BC1F84F8BB3F3DE77025002051
:10CF90006836002060350020781400201C34002002
:10CFA00020340020986E050894F8BC9F05EB090119
:10CFB000012348724FF488722946384684F8B83FF6
:10CFC00084F8BB3F49F0E2FCB4F8C03F2A7984F80A
:10CFD000BD2F0BB9A4F8C23F01339BB20132A4F8B4
:10CFE000C03FA5F8483494F8EF1FEE7885F8452443
:10CFF000012394F8BA2F85F84334002385F844942C
:10D0000084F8EB6FA5F84A2484F8BA3F2D296FD82D
:10D0100001A353F821F000BF53CC0008F1D0000861
:10D02000F1D00008F1D00008F1D00008F1D00008DC
:10D03000F1D00008F1D00008F1D00008F1D00008CC
:10D04000F1D00008F1D00008F1D00008F1D00008BC
:10D05000F1D00008F1D00008F1D00008F1D00008AC
:10D06000F1D00008F1D00008F1D00008F1D000089C
:10D07000F1D00008F1D00008F1D00008F1D000088C
:10D08000F1D00008F1D00008F1D00008F1D000087C
:10D09000F1D00008F1D00008F1D00008F1D000086C
:10D0A000F1D00008F1D00008F1D00008F1D000085C
:10D0B000F1D00008D1D20008D1D00008F1D000088A
:10D0C000F1D0000895CC000801D2000815D1000865
:10D0D000042E3246BB4928BF0422002501A8019531
:10D0E00049F054FC9DF80680B8F1010F00F07481FE
:10D0F000002013B0BDE8F08F02214FF6FF73EA70F5
:10D1000084F8BB1F2B80A4E5072394F8BC1F84F888
:10D11000BB3F79E6022E3246AA4928BF02220025EB
:10D1200002A8ADF8085049F031FC9DF80860012EC6
:10D13000DED10AF055FE94F8EE2F94F8ED3F8DF80D
:10D1400022508DF820308DF82120089A94F8BE3FA7
:10D150009D4D84F8AD6E591C160C40F2FE30A4F8BB
:10D16000B02E42F6FA7284F8BE1FA4F8AA0EA4F8F4
:10D17000AE2E84F8B26E84F8AC3E291D03224FF621
:10D18000FF7001E015F8012B424082EA0212D2B290
:10D19000130983EA102343EA0223A94283EAC20067
:10D1A000F0D18A4DA4F8A80EE91C15F8013B4340C4
:10D1B00083EA0312D2B2130983EA102383EA02231B
:10D1C00083EAC20398B28D42A4F8A80E1BB2ECD138
:10D1D00083F0990282EA0212D2B2130983EA102381
:10D1E00083EA022383EAC20293B2190A84F8B32EB7
:10D1F000A4F8A83E84F8B41EFFF7FEFC0120BCE5AD
:10D20000042E32466F4928BF0422002602A8029647
:10D2100049F0BCFB9DF80A30012B7FF469AFBDF8E3
:10D2200008203C2A40F28C81694A1268510740F17B
:10D23000AE8294F8EE1F94F8ED2F8DF822308DF821
:10D2400020208DF82110089994F8BE2F5E4D84F8A7
:10D25000AD3E0B0C561C40F2FE3084F8B23E42F656
:10D26000FA73A4F8B01E84F8AC2EA4F8AA0E84F8C1
:10D27000BE6F291DA4F8AE3E03224FF6FF7001E0F9
:10D2800015F8012B424082EA0212D2B2130983EA56
:10D29000102343EA0223A94283EAC200F0D14B4D96
:10D2A000A4F8A80EE91C15F8012B82EA000383EA12
:10D2B0000312D2B2130983EA102383EA022383EA1A
:10D2C000C20398B28D42A4F8A80E1BB2EBD17FE73F
:10D2D0002522002108A849F044FD252E324639496F
:10D2E00028BF252208A849F051FB9DF84030012BAA
:10D2F0007FF4FEAE364A1268520700F17D819DF838
:10D30000442032B1BDF83E2022F00401102900F083
:10D31000D98194F8EE3F94F8ED2F8DF8093003236E
:10D320008DF808208DF80A30029A94F8BE1FA4F8F0
:10D33000B02E120C244D84F8B22E40F2FE324E1C58
:10D340000120A4F8AA2E42F6FA7284F8AC1E84F8E2
:10D35000AD0E84F8BE6F291DA4F8AE2E4FF6FF70F7
:10D3600001E015F8013B434083EA0313DBB21A09DD
:10D3700082EA102040EA0320A94280EAC300F0D1EB
:10D38000124DA4F8A80EE91C15F8012B82EA00033F
:10D3900083EA0312D2B2130983EA102383EA022339
:10D3A00083EAC20398B28D42A4F8A80E1BB2EBD157
:10D3B0000EE7084A94F8BC1F2A60022384F8BB3F9A
:10D3C000002621E5603500201C3400202034002098
:10D3D00000F80020FFFFFE00D44ABDF8046041F6CB
:10D3E0003113D3569E4280F22282701CC0B202A931
:10D3F0000AF004FDDDED037A9FEDCD6ADFEDCD5A35
:10D400009DF80820ADF83C60F8EEE76ADDED047A9F
:10D4100094F8ED1F8DF84350B8EEE77ADDED057A0C
:10D420008DF84480F8EEE77A86EE865A042A4FF0AB
:10D43000000394F8EE2F089315BF03260226102050
:10D4400014208DF84260ADF83E0009930A930B93C7
:10D45000C7EE066A8DF840108DF841200DF12009C5
:10D46000DFF8D4C2E64642F2FE5B42F2FA7AACF151
:10D47000040725264FF6FF7587EEA57A8DED0C5A29
:10D48000CDED0D6A8DED0E7AB9E80F00AEE80F0014
:10D49000B9E80F00AEE80F0099E8030094F8BE3F2A
:10D4A0004EF8040B5A1C84F8AD8E8EF8001084F8E8
:10D4B000AC3E84F8BE2FA4F8AABEA4F8AEAE01E03C
:10D4C00017F8016B86EA050383EA0313DBB21A0936
:10D4D00082EA152242EA0322BC4582EAC305EFD163
:10D4E0009549A4F8A85E01F1250011F8013B6B40B5
:10D4F00083EA0313DBB21A0982EA152282EA0322C5
:10D5000082EAC3039DB28142A4F8A85E1BB2ECD1AB
:10D5100083F0FE0383EA0313DBB21A0982EA1522C1
:10D5200082EA032282EAC3039AB2110A84F8D53E42
:10D53000A4F8A82E84F8D61EFFF75EFB01201CE499
:10D5400094F8ED1F8DF8221094F8EE1F8DF823103B
:10D5500094F8BE1F794FADF82060481CC5F84C24E4
:10D56000C5F8506440F2FE42089D84F8AD3E42F694
:10D57000FA0384F8AC1E84F8BE0FA4F8AA2EC4F8EF
:10D58000B05E391DA4F8AE3E04224FF6FF7001E0F4
:10D5900017F8012B424082EA0212D2B2130983EA41
:10D5A000102343EA0223B94283EAC200F0D1624D5C
:10D5B000A4F8A80E291D15F8013B434083EA031285
:10D5C000D2B2130983EA102383EA022383EAC20357
:10D5D00098B28D42A4F8A80E1BB2ECD183F0E603FA
:10D5E00083EA0313DBB21A0982EA102282EA0322D9
:10D5F00082EAC303FFF7B9BB94F8EE1F94F8ED2F4E
:10D600008DF80A308DF808208DF80910029994F8E9
:10D61000BE2F4A4D84F8AD3E0B0C561C40F2FE3036
:10D6200084F8B23E42F6FA73A4F8B01E84F8AC2E29
:10D63000A4F8AA0E84F8BE6F291DA4F8AE3E0322FA
:10D640004FF6FF7001E015F8012B424082EA02120A
:10D65000D2B2130983EA102343EA0223A94283EAE0
:10D66000C200F0D1344DA4F8A80EE91C15F8013B16
:10D67000434083EA0312D2B2130983EA102383EAF8
:10D68000022383EAC20398B28D42A4F8A80E1BB20B
:10D69000ECD183F0990383EA0313DBB21A0982EA1F
:10D6A000102282EA032282EAC3039AB2110A84F8A2
:10D6B000B33EA4F8A82E84F8B41EFFF79DFA01200B
:10D6C000FFF75BBB9DF84210032900F0FF800229A1
:10D6D00002D1142A00F0048294F8EE3F94F8ED2F62
:10D6E0008DF8093002238DF808208DF80A30029B4E
:10D6F00094F8BE2F114DA4F8B03E1B0C511C012014
:10D7000040F2FE3684F8B23E42F6FA7384F8AC2E4C
:10D7100084F8BE1F84F8AD0E291DA4F8AA6EA4F8E3
:10D72000AE3E03224FF6FF700CE000BF78140020DD
:10D730008096184B0000C842203400201C34002082
:10D7400015F8012B424082EA0212D2B2130983EA91
:10D75000102343EA0223A94283EAC200F0D1DB4D41
:10D76000A4F8A80EE91C15F8013B434083EA031214
:10D77000D2B2130983EA102383EA022383EAC203A5
:10D7800098B28D42A4F8A80E1BB2ECD120E594F813
:10D79000EE2F94F8ED1F8DF8212004228DF8222021
:10D7A0008DF82010089994F8BE2FC94D84F8AD3E2D
:10D7B0000B0C561C40F2FE3084F8B23E42F6FA736F
:10D7C000A4F8B01E84F8AC2EA4F8AA0E84F8BE6F9C
:10D7D000291DA4F8AE3E03224FF6FF7001E015F8B4
:10D7E000012B424082EA0212D2B2130983EA1023CB
:10D7F00043EA0223A94283EAC200F0D1B34DA4F860
