:020000040801F1
:1000000000060020B912010861F60808BDF50808CD
:1000100029F60808BDF50808F5F50808BB1201081F
:10002000BB120108BB120108BB12010899960B080C
:10003000BB120108BB120108BB120108BB12010868
:10004000BB120108BB120108BB120108BB12010858
:10005000BB120108BB12010815A20B0841A20B0834
:100060006DA20B0899A20B08C5A20B0819470B0833
:1000700041470B086D470B0899470B08C5470B080C
:10008000ED470B0819480B08CD450B08BB120108BA
:10009000BB120108BB120108BB120108F1A20B0838
:1000A000BB120108BB120108BB120108BB120108F8
:1000B000BB120108D55C0B0809AA0B08594D0B08A7
:1000C000F54E0B08BB120108BB120108BB12010858
:1000D000BB12010899630B08AD630B08C1630B08E1
:1000E00059A30B08BB120108BB120108BB1201087F
:1000F000BB120108BB120108BB12010845480B08DE
:10010000BB1201085D530B08BB120108BB120108AA
:10011000BB120108BB120108BB120108BB12010887
:1001200071480B0899480B08C5480B08F1480B08A3
:100130001D490B08BB120108BB120108BB120108C4
:10014000BB120108BB120108BB120108D19D0B08AC
:1001500045490B0871490B089D490B08D5630B08ED
:10016000BB120108BB120108BB120108BB12010837
:10017000BB120108BB120108BB120108BB12010827
:10018000BB120108BB120108BB120108BB12010817
:10019000BB120108BB120108BB120108BB12010807
:1001A000BB120108BB120108BB120108BB120108F7
:1001B000BB120108BB120108BB120108BB120108E7
:1001C000BB120108BB120108BB120108BB120108D7
:1001D000BB120108BB120108BB120108BB120108C7
:1001E0009D430108B5070208A93E0308790D0508DB
:1001F00085130508B17D050889E105082DE9050885
:1002000075EC0508A1750608C9290708D162070819
:100210008D6F070871C3080839C908082DED080853
:10022000C9C40908493D0A088DB10A0871C40A0801
:10023000EDF30A08C5F90A080000000000000000FC
:1002400081F0004102E000BF83F0004330B54FEA87
:1002500041044FEA430594EA050F08BF90EA020FF4
:100260001FBF54EA000C55EA020C7FEA645C7FEA87
:10027000655C00F0E2804FEA5454D4EB5555B8BFAA
:100280006D420CDD2C4480EA020281EA030382EA1B
:10029000000083EA010180EA020281EA0303362DAD
:1002A00088BF30BD11F0004F4FEA01314FF4801C80
:1002B0004CEA113102D0404261EB410113F0004F92
:1002C0004FEA03334CEA133302D0524263EB430349
:1002D00094EA050F00F0A780A4F10104D5F1200EE7
:1002E0000DDB02FA0EFC22FA05F2801841F1000142
:1002F00003FA0EF2801843FA05F359410EE0A5F116
:1003000020050EF1200E012A03FA0EFC28BF4CF046
:10031000020C43FA05F3C01851EBE37101F00045FC
:1003200007D54FF0000EDCF1000C7EEB00006EEB09
:100330000101B1F5801F1BD3B1F5001F0CD3490893
:100340005FEA30004FEA3C0C04F101044FEA4452EA
:1003500012F5800F80F09A80BCF1004F08BF5FEA71
:10036000500C50F1000041EB045141EA050130BD51
:100370005FEA4C0C404141EB0101013C28BFB1F563
:10038000801FE9D291F0000F04BF01460020B1FAAE
:1003900081F308BF2033A3F10B03B3F120020CDA81
:1003A0000C3208DD02F1140CC2F10C0201FA0CF05F
:1003B00021FA02F10CE002F11402D8BFC2F1200CC4
:1003C00001FA02F120FA0CFCDCBF41EA0C0190407A
:1003D000E41AA2BF01EB0451294330BD6FEA0404C3
:1003E0001F3C1CDA0C340EDC04F11404C4F12002AE
:1003F00020FA04F001FA02F340EA030021FA04F3C0
:1004000045EA030130BDC4F10C04C4F1200220FA16
:1004100002F001FA04F340EA0300294630BD21FA54
:1004200004F0294630BD94F0000F83F4801306BF1A
:1004300081F480110134013D4EE77FEA645C18BF0E
:100440007FEA655C29D094EA050F08BF90EA020FA5
:1004500005D054EA000C04BF1946104630BD91EA9D
:10046000030F1EBF0021002030BD5FEA545C05D1A0
:100470004000494128BF41F0004130BD14F58004DF
:100480003CBF01F5801130BD01F0004545F0FE4153
:1004900041F470014FF0000030BD7FEA645C1ABF88
:1004A000194610467FEA655C1CBF0B46024650EABF
:1004B000013406BF52EA033591EA030F41F40021EB
:1004C00030BD00BF90F0000F04BF0021704730B571
:1004D0004FF4806404F132044FF000054FF0000146
:1004E00050E700BF90F0000F04BF0021704730B507
:1004F0004FF4806404F1320410F0004548BF4042DC
:100500004FF000013EE700BF42004FEAE2014FEA30
:1005100031014FEA02701FBF12F07F4393F07F4F0B
:1005200081F06051704732F07F4208BF704793F00E
:100530007F4F04BF41F40021704730B54FF4607421
:1005400001F0004521F000411CE700BF50EA010224
:1005500008BF704730B54FF000050AE050EA0102CD
:1005600008BF704730B511F0004502D5404261EB3D
:1005700041014FF4806404F132045FEA915C3FF47E
:10058000D8AE4FF003025FEADC0C18BF03325FEA1B
:10059000DC0C18BF033202EBDC02C2F1200300FACC
:1005A00003FC20FA02F001FA03FE40EA0E0021FAF1
:1005B00002F11444BDE600BF70B54FF0FF0C4CF4DF
:1005C000E06C1CEA11541DBF1CEA135594EA0C0F91
:1005D00095EA0C0F00F0DEF82C4481EA030621EACC
:1005E0004C5123EA4C5350EA013518BF52EA033507
:1005F00041F4801143F4801338D0A0FB02CE4FF0B9
:100600000005E1FB02E506F00042E0FB03E54FF0E8
:100610000006E1FB03569CF0000F18BF4EF0010EE0
:10062000A4F1FF04B6F5007F64F5407404D25FEADC
:100630004E0E6D4146EB060642EAC62141EA55518F
:100640004FEAC52040EA5E504FEACE2EB4F1FD0CD1
:1006500088BFBCF5E06F1ED8BEF1004F08BF5FEA4F
:10066000500E50F1000041EB045170BD06F0004601
:1006700046EA010140EA020081EA0301B4EB5C04AE
:10068000C2BFD4EB0C0541EA045170BD41F48011A6
:100690004FF0000E013C00F3AB8014F1360FDEBFCB
:1006A000002001F0004170BDC4F10004203C35DAA7
:1006B0000C341BDC04F11404C4F1200500FA05F32A
:1006C00020FA04F001FA05F240EA020001F00042CB
:1006D00021F0004110EBD37021FA04F642EB060141
:1006E0005EEA430E08BF20EAD37070BDC4F10C046B
:1006F000C4F1200500FA04F320FA05F001FA04F22F
:1007000040EA020001F0004110EBD37041F100011A
:100710005EEA430E08BF20EAD37070BDC4F1200525
:1007200000FA05F24EEA020E20FA04F301FA05F28D
:1007300043EA020321FA04F001F0004121FA04F235
:1007400020EA020000EBD3705EEA430E08BF20EA05
:10075000D37070BD94F0000F0FD101F0004640003F
:1007600041EB010111F4801F08BF013CF7D041EAC1
:10077000060195F0000F18BF704703F000465200C5
:1007800043EB030313F4801F08BF013DF7D043EA96
:100790000603704794EA0C0F0CEA135518BF95EA4C
:1007A0000C0F0CD050EA410618BF52EA4306D1D1D3
:1007B00081EA030101F000414FF0000070BD50EAF2
:1007C000410606BF1046194652EA430619D094EA7C
:1007D0000C0F02D150EA013613D195EA0C0F05D166
:1007E00052EA03361CBF104619460AD181EA0301BA
:1007F00001F0004141F0FE4141F470014FF0000072
:1008000070BD41F0FE4141F4780170BD70B54FF00C
:10081000FF0C4CF4E06C1CEA11541DBF1CEA13558C
:1008200094EA0C0F95EA0C0F00F0A7F8A4EB05046E
:1008300081EA030E52EA03354FEA013100F0888065
:100840004FEA03334FF0805545EA131343EA12632E
:100850004FEA022245EA111545EA10654FEA0026E3
:100860000EF000419D4208BF964244F1FD0404F59C
:10087000407402D25B084FEA3202B61A65EB0305F8
:100880005B084FEA32024FF480104FF4002CB6EBB5
:10089000020E75EB030E22BFB61A754640EA0C0035
:1008A0005B084FEA3202B6EB020E75EB030E22BF75
:1008B000B61A754640EA5C005B084FEA3202B6EBB6
:1008C000020E75EB030E22BFB61A754640EA9C0075
:1008D0005B084FEA3202B6EB020E75EB030E22BF45
:1008E000B61A754640EADC0055EA060E18D04FEA03
:1008F000051545EA16754FEA06164FEAC30343EAA3
:1009000052734FEAC2025FEA1C1CC0D111F4801F6F
:100910000BD141EA00014FF000004FF0004CB6E768
:1009200011F4801F04BF01430020B4F1FD0C88BF07
:10093000BCF5E06F3FF6AFAEB5EB030C04BFB6EB12
:10094000020C5FEA500C50F1000041EB045170BD05
:100950000EF0004E4EEA113114EB5C04C2BFD4EB32
:100960000C0541EA045170BD41F480114FF0000EB6
:10097000013C90E645EA060E8DE60CEA135594EA32
:100980000C0F08BF95EA0C0F3FF43BAF94EA0C0F35
:100990000AD150EA01347FF434AF95EA0C0F7FF4AA
:1009A00025AF104619462CE795EA0C0F06D152EAFE
:1009B00003353FF4FDAE1046194622E750EA4106E2
:1009C00018BF52EA43067FF4C5AE50EA41047FF4F3
:1009D0000DAF52EA43057FF4EBAE12E74FF0FF3C58
:1009E00006E000BF4FF0010C02E000BF4FF0010C29
:1009F0004DF804CD4FEA410C7FEA6C5C4FEA430CA2
:100A000018BF7FEA6C5C1BD001B050EA410C0CBFF0
:100A100052EA430C91EA030F02BF90EA020F002052
:100A2000704710F1000F91EA030F58BF994208BFB9
:100A300090422CBFD8176FEAE37040F00100704776
:100A40004FEA410C7FEA6C5C02D150EA013C07D1CD
:100A50004FEA430C7FEA6C5CD6D152EA033CD3D018
:100A60005DF8040B704700BF8446104662468C4612
:100A70001946634600E000BF01B5FFF7B7FF002845
:100A800048BF10F1000F01BD4DF808EDFFF7F4FF6E
:100A90000CBF012000205DF808FB00BF4DF808EDF9
:100AA000FFF7EAFF34BF012000205DF808FB00BF1C
:100AB0004DF808EDFFF7E0FF94BF012000205DF83E
:100AC00008FB00BF4DF808EDFFF7CEFF94BF0120F3
:100AD00000205DF808FB00BF4DF808EDFFF7C4FFEC
:100AE00034BF012000205DF808FB00BF4FEA410C35
:100AF0007FEA6C5C02D150EA013C0AD14FEA430C18
:100B00007FEA6C5C02D152EA033C02D14FF0000054
:100B100070474FF0010070474FEA410212F5001292
:100B200015D211D56FF47873B3EB625212D94FEA34
:100B3000C12343F0004343EA505311F0004F23FA1E
:100B400002F018BF404270474FF00000704750EA73
:100B5000013005D111F0004008BF6FF00040704730
:100B60004FF00000704700BF4A0011D212F500128A
:100B700011D20DD56FF47873B3EB62520ED44FEAF5
:100B8000C12343F0004343EA505323FA02F0704775
:100B90004FF00000704750EA013002D14FF0FF30B3
:100BA00070474FF0000070474FEA4102B2F1E04356
:100BB00024BFB3F5001CDCF1FE5C0DD901F0004C44
:100BC0004FEAC0024CEA5070B2F1004F40EB830094
:100BD00008BF20F00100704711F0804F21D113F1C0
:100BE0003872BCBF01F00040704741F480114FEAF9
:100BF0005252C2F11802C2F1200C10FA0CF320FA82
:100C000002F018BF40F001004FEAC1234FEAD3239E
:100C100003FA0CFC40EA0C0023FA02F34FEA430308
:100C2000CCE77FEA625307D150EA01331EBF4FF091
:100C3000FE4040F44000704701F0004040F0FE40AC
:100C400040F40000704700BF80F0004002E000BFA9
:100C500081F0004142001FBF5FEA410392EA030FA7
:100C60007FEA226C7FEA236C6AD04FEA1262D2EBF1
:100C70001363C1BFD218414048404140B8BF5B42F6
:100C8000192B88BF704710F0004F40F4000020F08F
:100C90007F4018BF404211F0004F41F4000121F0A5
:100CA0007F4118BF494292EA030F3FD0A2F10102EF
:100CB00041FA03FC10EB0C00C3F1200301FA03F12D
:100CC00000F0004302D5494260EB4000B0F5000F50
:100CD00013D3B0F1807F06D340084FEA310102F10F
:100CE0000102FE2A51D2B1F1004F40EBC25008BFC1
:100CF00020F0010040EA03007047490040EB00008B
:100D0000013A28BFB0F5000FEDD2B0FA80FCACF18B
:100D1000080CB2EB0C0200FA0CF0AABF00EBC250B8
:100D200052421843BCBFD0401843704792F0000FA6
:100D300081F4000106BF80F400000132013BB5E7F9
:100D40004FEA41037FEA226C18BF7FEA236C21D06F
:100D500092EA030F04D092F0000F08BF08467047D4
:100D600090EA010F1CBF0020704712F07F4F04D1A2
:100D7000400028BF40F00040704712F100723CBFB5
:100D800000F50000704700F0004343F0FE4040F4DF
:100D9000000070477FEA226216BF08467FEA23639D
:100DA0000146420206BF5FEA412390EA010F40F488
:100DB000800070474FF0000304E000BF10F00043D4
:100DC00048BF40425FEA000C08BF704743F09643BB
:100DD00001464FF000001CE050EA010208BF7047D6
:100DE0004FF000030AE000BF50EA010208BF70475D
:100DF00011F0004302D5404261EB41015FEA010C72
:100E000002BF84460146002043F0B64308BFA3F169
:100E10008053A3F50003BCFA8CF2083AA3EBC2534B
:100E200010DB01FA02FC634400FA02FCC2F120026A
:100E3000BCF1004F20FA02F243EB020008BF20F0A1
:100E40000100704702F1200201FA02FCC2F1200207
:100E500050EA4C0021FA02F243EB020008BF20EAFC
:100E6000DC7070477BB972B90029BEBF00204FF01B
:100E7000004106E008BF00281CBF6FF000414FF0A2
:100E8000FF3000F017BAADF1080C6DE904CE00296F
:100E900009DB002B1ADB00F0A5F8DDF804E0DDE942
:100EA000022304B07047404261EB4101002B1BDB81
:100EB00000F098F8DDF804E0DDE9022304B04042D8
:100EC00061EB4101524263EB43037047524263EBD3
:100ED000430300F087F8DDF804E0DDE9022304B005
:100EE000404261EB41017047524263EB430300F023
:100EF00079F8DDF804E0DDE9022304B0524263EB47
:100F00004303704753B94AB9002908BF00281CBFE2
:100F10004FF0FF314FF0FF3000F0CCB9ADF1080CCD
:100F20006DE904CE00F05EF8DDF804E0DDE90223AF
:100F300004B07047430803F05533C01A830803F028
:100F4000333300F03330184400EB101000F00F3052
:100F500000EB002000EB0040000E704780EA1040DC
:100F600080EA102080EA101046F6961300F00F0079
:100F700043FA00F000F00100704700BF07EE900A4E
:100F8000F5EEC07AF1EE10FA01D400F00BB8F1EEF4
:100F9000677A08B517EE900A00F004F8404261EB5A
:100FA000410108BDD0B5FFF7AFFA0C4B0022064651
:100FB0000F46FFF701FBFFF7D7FD0446FFF782FA64
:100FC000074B0022FFF7F8FA02460B463046394637
:100FD000FFF73AF9FFF7C8FD2146D0BD0000F03D0C
:100FE0000000F0412DE9F047089D04468E46002B95
:100FF0004DD18A42944669D9B2FA82F252B101FACD
:1010000002F3C2F1200120FA01F10CFA02FC41EADC
:10101000030E94404FEA1C48210CBEFBF8F61FFA61
:101020008CF708FB16E341EA034306FB07F19942FC
:101030000AD91CEB030306F1FF3080F01F819942AF
:1010400040F21C81023E63445B1AA4B2B3FBF8F089
:1010500008FB103344EA034400FB07F7A7420AD910
:101060001CEB040400F1FF3380F00A81A74240F238
:1010700007816444023840EA0640E41B00261DB1A3
:10108000D4400023C5E900433146BDE8F0878B42D8
:1010900009D9002D00F0EF800026C5E90001304697
:1010A0003146BDE8F087B3FA83F6002E4AD18B4271
:1010B00002D3824200F2F980841A61EB030301201B
:1010C0009E46002DE0D0C5E9004EDDE702B9FFDE07
:1010D000B2FA82F2002A40F09280A1EB0C014FEAB2
:1010E0001C471FFA8CFE0126200CB1FBF7F307FB0F
:1010F000131140EA01410EFB03F0884208D91CEBB2
:10110000010103F1FF3802D2884200F2CB8043464E
:10111000091AA4B2B1FBF7F007FB101144EA01442D
:101120000EFB00FEA64508D91CEB040400F1FF31BC
:1011300002D2A64500F2BB800846A4EB0E0440EAAA
:1011400003409CE7C6F12007B34022FA07FC4CEAB3
:10115000030C20FA07F401FA06F31C43F9404FEAA6
:101160001C4900FA06F3B1FBF9F8200C1FFA8CFEBB
:1011700009FB181140EA014108FB0EF0884202FA0F
:1011800006F20BD91CEB010108F1FF3A80F08880D0
:10119000884240F28580A8F102086144091AA4B28D
:1011A000B1FBF9F009FB101144EA014100FB0EFE0E
:1011B0008E4508D91CEB010100F1FF346CD28E453D
:1011C0006AD90238614440EA0840A0FB0294A1EBCE
:1011D0000E01A142C846A64656D353D05DB1B3EB2B
:1011E000080261EB0E0101FA07F722FA06F3F1405B
:1011F0001F43C5E9007100263146BDE8F087C2F102
:101200002003D8400CFA02FC21FA03F39140014379
:101210004FEA1C471FFA8CFEB3FBF7F007FB1036B2
:101220000B0C43EA064300FB0EF69E4204FA02F45E
:1012300008D91CEB030300F1FF382FD29E422DD9B1
:10124000023863449B1B89B2B3FBF7F607FB1633E6
:1012500041EA034106FB0EF38B4208D91CEB010166
:1012600006F1FF3816D28B4214D9023E6144C91AE6
:1012700046EA004638E72E46284605E70646E3E6F6
:101280001846F8E64B45A9D2B9EB020864EB0C0E00
:101290000138A3E74646EAE7204694E74046D1E70F
:1012A000D0467BE7023B614432E7304609E76444BD
:1012B000023842E7704700BF02E000F000F8FEE7A6
:1012C00072B63A4880F30888394880F3098839486B
:1012D0004EF60851CEF20001086040F20000CCF258
:1012E00000004EF63471CEF200010860BFF34F8F5C
:1012F000BFF36F8F40F20000C0F2F0004EF688514D
:10130000CEF200010860BFF34F8FBFF36F8F4FF035
:101310000000E1EE100A4EF63C71CEF200010860CA
:10132000062080F31488BFF36F8FA8F035FAA8F079
:1013300011FAA7F0BFFA4FF055301F491B4A9142EE
:101340003CBF41F8040BFAE71C49194A91423CBFE3
:1013500041F8040BFAE71A491A4A1B4B9A423EBF5E
:1013600051F8040B42F8040BF8E700201749184A1B
:1013700091423CBF41F8040BFAE7A8F0EFF9A7F05F
:10138000EDFA144C144DAC4203DA54F8041B8847B0
:10139000F9E702F0F3FF114C114DAC4203DA54F8B7
:1013A000041B8847F9E7A8F0D7B900000006002021
:1013B000002200200000010800000020000600209C
:1013C00088F40D0800220020E0250020E025002000
:1013D00088490120E00101083802010838020108AB
:1013E000380201082DE9F04F2DED108AC1F80CD01C
:1013F000C3689D46BDEC108ABDE8F08F002383F3DF
:1014000011882846A0470020A7F03EF8FEE7A6F086
:10141000DFFE00DFFEE7000001F0FF01102A2BDBFA
:1014200010F0070F08D010F8013B013A8B422DD085
:1014300010F0070F42B3F6D1F0B441EA012141EABE
:10144000014122F007047FF000070023F0E8025674
:10145000083C85EA010586EA010685FA47F5A3FA04
:1014600087F586FA47F6A5FA87F68EB9EED1F0BC75
:1014700001F0FF0102F0070232B110F8013B013A1E
:1014800083EA010313B1F8D1002070470138704797
:10149000002D06BF35460338073815F0010F07D178
:1014A000013015F4807F02BF013015F4C03F0130D8
:1014B000F0BC0138704700BF10F8012B11F8013B58
:1014C000012A28BF9A42F7D0D01A7047034613F872
:1014D000012B002AFBD1181A0138704738B50022B9
:1014E000002304460D46FFF7D9FA28B920462946BD
:1014F000BDE8384000F00AB8204605F1004100F090
:1015000005F8404261EB410138BD00BFD0B50C4B3E
:10151000002206460F46FFF74FF8FFF725FB04466B
:10152000FEF7D0FF074B0022FFF746F802460B46B6
:1015300030463946FEF788FEFFF716FB2146D0BD40
:101540000000F03D0000F04170B50D4B1C68656D6A
:101550002B681E686FF04EF9014630B1606D03686C
:101560001B6A9847411E18BF01212846B04748F022
:1015700067FC636DBDE8704093F89C1047F094BC25
:10158000E025002070B58EB02E2205460E4602A83A
:1015900000210191ABF07EFF0C48322201A961F0DD
:1015A00081FC044638B99DF904303BB9084A3146FC
:1015B00028466FF003FB20460EB070BD054A01AB14
:1015C000314628466FF0FAFAF5E700BFA461002023
:1015D000940F0C0806100C0808B58368012B0A4606
:1015E00001D09B060FD5094BDFED097A93EDE37A25
:1015F000B4EEE77AF1EE10FA05DA064B20216FF02F
:101600000DF9002008BD0120FCE700BFE8550020CF
:1016100000000034AC0F0C0837B5094B01910546AA
:10162000D3F8280A03689B6998470199044618B9BA
:10163000044A28466FF0C2FA204603B030BD00BF0E
:10164000E8650020C00F0C0837B58368012B0A46F7
:1016500001D05B062FD51949D1F8383ED1F83C1E90
:10166000B3F90A5040F21454A54213DCB3F90E50FA
:1016700040F2A3639D4218DDB1F90A50A54212DC85
:10168000B1F90E10994214DD114603B0BDE83040A7
:101690006FF04ABA0A4B00930A4B40216FF0BEF834
:1016A000002003B030BD084BF5E7054B0093074B16
:1016B000F3E7054BFAE70120F3E700BFE855002008
:1016C0008C0F0C08D40F0C08A05D0C08EA0F0C0856
:1016D0002DE9F041DFF8A4800546D8F8280A036810
:1016E0008EB05B6A0E469847F0B1314628466FF0DF
:1016F000C9F8044600B309F08FFF002704462E22E4
:10170000394602A80197ABF0C5FE2046322301AA54
:10171000012109F0B3FC044690B9144A01AB3146EB
:1017200028466FF04BFA07E0D8F8280A03689B6A4E
:1017300098470028D9D1012420460EB0BDE8F08199
:1017400098F8403A33B10A4A314628466FF036FAE3
:101750003C46F1E7074803F059F904460028EAD16E
:10176000054A314628466FF029FAE5E700100C08D3
:1017700009100C08E825002016100C08E865002068
:101780002DE96843057F804689463DB9836893B358
:101790001A4B1B782BB11A4A6FF010FA2846BDE895
:1017A0006883184890F9783B002B09DD00F5257017
:1017B00078F060FD054618B9134A49464046EBE704
:1017C0004946404670F07CF8494606460F4879F095
:1017D00087FD494606404046FFF7D4FEF5B2054076
:1017E00049464046FFF7F8FE494605404046FFF7A8
:1017F00013FF0540D2E70125D0E700BFC8840020D1
:1018000030100C08E855002049100C08D05000207A
:1018100083680BB16FF0D0BD0120704738B5054625
:1018200070F00CF9044630B90D4A137843F0010307
:101830001370204638BD01210A4873F005F90A48A3
:1018400005F0C6FF094878F09DFD2846FFF77CFEAD
:1018500051F0E2FD064A06214BF00EFBE9E700BF1E
:10186000D47A0020BC560020907900207C580020BB
:101870006C100C0838B5054670F08EF9044690B12E
:101880000A4BD3F8282A0A4B9A4203D003F13800B6
:1018900022F0ACF82846FFF757FE51F0BDFD054A8F
:1018A00006214BF0E9FA204638BD00BFE86500206C
:1018B0009C7600207C100C0801485FF05DBC00BFE6
:1018C00090470020704700007047000070470000FC
:1018D00000207047002070470120704700207047AB
:1018E0007047000000207047C820704701207047F3
:1018F00001207047024BD3F8280A03681B68184779
:10190000E8650020044BD3ED007AFDEEE77A17EE90
:10191000903A18B2704700BFF8500020014B93F87E
:10192000AC027047E8450020034B93F938030038B8
:1019300018BF0120704700BFE8450020014B93F914
:10194000AE027047E8450020044BD3F8280A03F69E
:101950005C73C01A18BF0120704700BFE865002003
:101960007047000010B50F4BD3F8284A2368204673
:10197000DB689847A8B123682046DB6B9847B2EE36
:10198000047AC0EE077A9FED087AF4EEC77AF1EE9A
:1019900010FA58BFF0EE477AFCEEE77A17EE903A6D
:1019A00098B210BDE865002000FF7F477047000037
:1019B00008B5044807F020FB00280CBF0A200B20C4
:1019C00008BD00BFE825002038B5154DD5F8280A18
:1019D0000368DB6998470028D5F8280A0368DB68A4
:1019E0000CBF01244124984708B144F008040D4B72
:1019F000D5F8282A93F98433002B0B4B0ADD9A4241
:101A00000AD044F0400409486EF0F4FE20B144F0DE
:101A1000800401E09A42F6D144F0010038BD00BFD5
:101A2000E8650020E855002044750020A4650020EA
:101A300000B513EE103A8DB06222CDF8253013EECA
:101A4000903ACDF829302123CDE900328DF82410C9
:101A5000192303AAC2218DED030ACDED040A8DEDF1
:101A6000051ACDED061A8DED072ACDED082A4CF0AA
:101A700041FA0DB05DF804FB2DE9F0412DED028B2C
:101A80001D4F9FED1E8A002484B005462646F0EEC9
:101A9000488A07F1F80897F87833E1B28B4216D9F3
:101AA00040463FF01DFE80B1436836B1D3ED007A69
:101AB000F4EEE78AF1EE10FA07DDD3ED008A9B8899
:101AC00008EE103AB8EE488A01260134E3E76EB119
:101AD00008235322CDE90032287CCDED028A0DEB9C
:101AE0000302AD218DED038A4CF004FA04B0BDEC85
:101AF000028BBDE8F08100BFE83500200000000047
:101B0000F8B5B54DB5F8BC32DA07044639D505F657
:101B1000086CDCED000ADFEDB17A05F6046C9CED93
:101B2000000A05F61C6305F5616205F6246605F6F4
:101B3000186005F6146105F5626796ED003AD0ED80
:101B4000002A91ED002A93ED001AD7ED003AD2ED6C
:101B5000001A207C60EEA70A20EE270A0521FFF775
:101B600067FF207C4CF04CF90646207C4DF062F873
:101B700000F121039E4204D2207CBDE8F8404BF0E6
:101B800003BCB5F8BC329B072ED505F6DC7305F611
:101B9000F87E05F6FC7C05F57E6205F6EC7605F62A
:101BA000E87005F6F47105F57F6796ED002AD0ED33
:101BB000001A91ED001A93ED000ADEED003A9CED5B
:101BC000003AD7ED002AD2ED000A207C0421FFF76D
:101BD0002FFF207C4CF014F90646207C4DF02AF8AB
:101BE00000F121039E42C7D3B5F8BC325F0733D55D
:101BF00005F57767D7ED000ADFED787A05F68C708A
:101C000005F66C7790ED003A97ED000A744805F6FA
:101C1000847305F6787205F6887605F67C71D6ED44
:101C2000003AD0ED002A91ED002A93ED001AD2ED92
:101C3000001A207C60EEA70A20EE270A0221FFF797
:101C4000F7FE207C4CF0DCF80646207C4CF0F2FFDE
:101C500000F121039E428FD3B5F8BC321E0723D575
:101C6000002160486CF046FA0721D0ED2A3A90ED49
:101C70002B3AD0ED282A90ED272AD0ED261A90EDA8
:101C8000291AD0ED240A90ED230A207CFFF7D0FE1C
:101C9000207C4CF0B5F80646207C4CF0CBFF00F1E0
:101CA00021039E42FFF468AFB5F8BC32D80623D5B5
:101CB00001214C486CF01EFA0821D0ED2A3A90ED33
:101CC0002B3AD0ED282A90ED272AD0ED261A90ED58
:101CD000291AD0ED240A90ED230A207CFFF7A8FEF4
:101CE000207C4CF08DF80646207C4CF0A3FF00F1E0
:101CF00021039E42FFF440AFB5F8BC32990620D5CF
:101D0000394B207CD3ED2F3A93ED303AD3ED2D2A89
:101D100093ED2C2AD3ED2B1A93ED2E1AD3ED290A2D
:101D200093ED280A0921FFF783FE207C4CF068F828
:101D30000646207C4CF07EFF00F121039E42FFF41A
:101D40001BAFB5F8BC325A0620D5284B207CD3ED0A
:101D5000003A93ED013A53ED022A13ED032A53EDB5
:101D6000041A13ED011A53ED060A13ED070A0A21AE
:101D7000FFF75EFE207C4CF043F80646207C4CF0DA
:101D800059FF00F121039E42FFF4F6AEB5F8BC32D4
:101D90001B0620D5164B207CD3ED003A93ED013A7B
:101DA00053ED022A13ED032A53ED041A13ED011A21
:101DB00053ED060A13ED070A0B21FFF739FE207CCD
:101DC0004CF01EF80546207C4CF034FF00F1210356
:101DD0009D42FFF4D1AEF8BDE8450020E02E6542FB
:101DE00068550020E0510020E8550020786300206D
:101DF000A063002038B5C5780B46352D044628BFB2
:101E00003525352200211846ABF044FB2A4604F163
:101E10000C01BDE83840ABF015BB000037B50446F7
:101E20000D4606480192114673F0E4FA019A2946DC
:101E3000204603B0BDE8304050F054BEB8570020F3
:101E4000014802F09FBB00BFE8250020014802F0D6
:101E500021BB00BFE825002030B58B8BD12B85B08E
:101E60000C4653D00BD8B22B1AD0C22B21D0142B36
:101E70000DD0214605B0BDE8304052F0B1BFD52BA2
:101E800026D0B3F5967FF4D13049022201E03049E3
:101E90000222304806F00AFFC0B9042005B030BD68
:101EA0002D4B91ED010AD3F8280A0368DB6C9847A3
:101EB000F2E7294B91ED000AD3F8285AF7EE000A11
:101EC0001CF020F80146284603F03AFB0020E5E725
:101ED000214BD3F8280A03681B6998470028DCD0F7
:101EE000DFED1E7A94ED000AD4ED010A1C4820EEC5
:101EF000270AD4ED027AF5EEC07AF1EE10FA02DD8F
:101F000004F0F6FEE2E704F0C7FEDFE7D1ED017A68
:101F1000FCEEE77ACDED027AD1ED007AFCEEE77ABD
:101F2000CDED037AD1ED027A9DF80C20FDEEE77A33
:101F300017EE903A1BB2009391ED030A9DF808301A
:101F40000146044805F02CFFA8E700BF9C7600205E
:101F5000DC780020E8250020E86500200000C84269
:101F6000247600202DE9FF414FF00008CDE900283C
:101F70000F4F9FED100A0C46064615464FF47A7334
:101F8000B1F90220D7F8381E8DED030A51F0EAF8B6
:101F9000CDE900589DED030AB4F90420D7F83C1EA2
:101FA0004FF47A73304651F0DDF804B0BDE8F081AB
:101FB000E85500200000FA4408B54DF0A5FA40F4B9
:101FC000E67040F0010008BD13B50D4BD3F8284A68
:101FD00023682046DB68984778B123682046DB6A8F
:101FE00098471BF0FDFFF6EE007A20EE270AFCEE84
:101FF000C07ACDED017A9DF8040002B010BD00BF9B
:10200000E865002013B54FF4F470CDE900210EF01F
:10201000D7FBDDE90021044652F010F8024B2360A3
:10202000204602B010BD00BFD4120C0810B5044603
:102030000EF0CCFB204610BD0B4B93F8382A7AB932
:1020400093F8402A62B9D3F8280A03F65C729042EA
:1020500008D003F69473984214BF042003207047FD
:102060000520704702207047E865002038B5F7EE7C
:10207000000A91ED050A05460C461BF043FF38B1F6
:102080000C4878F089F908B1002038BD0420FCE73D
:1020900094ED050AF0EE000A1BF034FF18B1054874
:1020A00078F086F9EFE721462846BDE838404FF042
:1020B00025BF00BF7C58002008B590F884308B42C3
:1020C00008D245F0B3FF11224FF4802145F064FFA0
:1020D000002008BD223150F82100FAE713B5114B5A
:1020E0000446D3F8280A0368DB689847B8B1236828
:1020F0002046D3F8B8309847F1EE047A20EE270A4C
:10210000DFED097AB4EEE70AF1EE10FA58BFB0EE4F
:10211000670AFCEEC07ACDED017A9DF8040002B0AA
:1021200010BD00BFE865002000007F4307B50D48E3
:1021300078F0A0F890B10C4BDFED0C7A93EDB70A74
:1021400020EE270A1BF04CFFF6EE007A20EE270A5D
:10215000FCEEC07ACDED017A9DF8040003B05DF885
:1021600004FB00BF7C580020E8550020E02E6542AB
:1021700007B50E4878F07EF8A8B10D4BD3EDD47AB0
:10218000B1EE047A67EE877A9FED0A7AF4EEC77AA9
:10219000F1EE10FA58BFF0EE477AFCEEE77ACDED9B
:1021A000017A9DF8040003B05DF804FB7C58002020
:1021B000E855002000007F4310B594B0044603A802
:1021C0000DF074FF1A4BD3F8280A036803A91B6C9F
:1021D000984750B3247C7DF075FA059BDDED047AB9
:1021E0000893069B09930023F8EEE77A9FED117A96
:1021F0000B930C930D930E930F93109311931293D3
:102200004FF6F853ADF84C300023962267EE877AEC
:102210008DF84E303323CDE90032079007AA5721BD
:102220002046CDED0A7A4BF065FE14B010BD00BF1C
:10223000E86500200AD7233CF0B52DED028B2C4C2D
:102240000546D4F8280A03688BB0DB689847002855
:1022500049D0D4F8284A27482F7CDFED278A6DF033
:1022600035FB236820461B6B60EE288A9847BDEE3D
:10227000C00A204610EE103A1EB22368DB6A984767
:10228000BDEEC00A204610EE103A1DB22368DB6B8B
:102290009847DFED1A7A2368B4EEE70AB0EE408A79
:1022A000F1EE10FA5B6B58BFB0EE678A2046984794
:1022B000BCEEC88A002303930593069318EE103AE8
:1022C000B722ADF824301A23CDE900323E2103AA0B
:1022D0003846CDED048A8DED070AADF82060ADF8E3
:1022E00022504BF007FE0BB0BDEC028BF0BD00BFDF
:1022F000E86500205C530020E02E654200FF7F4728
:1023000008B590F884308B4208D245F08FFE112238
:102310004FF4802145F040FE002008BD223150F8E6
:102320002100FAE708B590F8E63153B9C06B0368AD
:102330001B6A9847B0F5005F28BF4FF4005080B289
:1023400008BD0020FCE7000070B52DED048B0446AD
:1023500088B029489FED298A78F020FFD8B349201A
:1023600054F0A8FC9FED269A4A20C0EE098A54F04A
:10237000A1FCC0EE097A68EE888A27EE888A267C5E
:102380007DF0A0F90546204650F04CFFFDEEE88AAE
:10239000BDEEC88A18EE903A18EE102AADF80C304F
:1023A0000023CDE90533ADF80E30ADF81020ADF8BF
:1023B00012308DF81C30ED221623CDE900328DF855
:1023C0001D0002AA2221304602954BF093FD08B071
:1023D000BDEC048B70BD1A2054F06CFCDFED097A63
:1023E000C0EE278A462054F065FC9FED077A68EE20
:1023F000888AC0EE077AC0E7D050002000401C4613
:1024000000007A4400A08C450000C8422DE9F0434A
:1024100000F50057C7B097F8E85B04460E46002D5C
:1024200035D07022002106A804F58044ABF032F8C4
:1024300004F63C731868FEF767F8012D804689465C
:1024400028D004F574642068FEF75EF804460D4653
:102450007DF038F94FF47A725043002297F8E83B48
:102460002290239202A9802224A88DF81031CDE970
:102470000289CDE90445AAF0E5FF71228923CDE95F
:10248000003242F2283122AA30464BF033FD47B0E9
:10249000BDE8F08300240025DAE700003329F7B512
:1024A00004460E463FD00AD819292BD024294FD0F4
:1024B0003146204603B0BDE8F04051F0F5B8372969
:1024C000F6D163F0B7FB074658B32046FFF72AFF63
:1024D0000546207C4CF0AEFB00F126039D424FF0F8
:1024E000000519D30DF1060231462046ADF806501D
:1024F0004EF00AFFA8B1BDF80620217C384663F0F3
:1025000081FA0EE0FFF70EFF0546207C4CF092FBAF
:1025100000F116039D4201D2207C10E02046FFF717
:1025200013FF01200EE0FFF7FDFE0546207C4CF076
:1025300081FB00F189039D42217C05D208464AF0C7
:1025400023FF002003B0F0BD0948FFF75FFFE8E775
:10255000FFF7E8FE0546207C4CF06CFB00F10C0315
:102560009D42217CEAD3034877F02EFFD9E700BFD4
:10257000E82500207C58002030B52DED028BCD7869
:1025800091B0272D28BF27250C462722002106A819
:10259000AAF080FF2A462E4D04F10C0106A8AAF0ED
:1025A00051FFD5F8280A03681B69984700284AD0CC
:1025B0009DF83E4014F04001019144D1FFEE000A25
:1025C0004FF44D70B7EE001A9DED0E0ADFED218A33
:1025D0001BF0B0FD0199D5F8280A8DED0E0AB0EE7A
:1025E000408A02F099FF14F0040F68EE000A9FED94
:1025F0001A8A1AD0079B0293089B0393099B0493A2
:1026000002A80A9BCDED010A05931EF075FA20EE93
:10261000280ADDED010A114820EE080A11B0BDECD0
:10262000028BBDE8304004F037BB9DED0D0A0B482E
:1026300020EE280A20EE080A11B0BDEC028BBDE89E
:10264000304004F075BB11B0BDEC028B30BD00BF53
:10265000E8650020E02E65420000C8422476002094
:1026600038B504460D460548082106F0BFFC29464A
:1026700002462046BDE838404DF028BFE82500203E
:1026800030B50D4BD3F8280A036887B01B690C4698
:10269000984778B102AD28460DF008FD06AB13E966
:1026A00003008DE80300054895E80C0004F10801DB
:1026B00004F01AFD07B030BDE86500202476002044
:1026C0002DE9F04F2DED028B954F9FB0084610A9D4
:1026D000FFF790FBD7F8280A03681B699847002882
:1026E00000F0D98004A80DF0E1FC04A9A7F52A5058
:1026F00008F07EFD002800F0CE809DF874C0BCF18B
:10270000010F04D0ACF10703022B00F2C48007F6DE
:1027100034130FCBBDF8705008AC15F0030984E8F2
:102720000F0005F0180B05F0C00A05F4806805F4E9
:1027300000661ED1BCF1070F9DED110ADDED120AF6
:1027400014D0ACF1080CBCF1010F00F2A980754B5C
:1027500093ED037AD3ED007A60EEC76A67EEA00AC4
:10276000E7EE806AE7EE000AB0EE660A20460DF05A
:10277000C7FFBBF1000F40F098805946D7F8280AF0
:1027800002F0CAFEDDED157A9DED147A8DED030A97
:1027900027EEA70AA7EE070A1BF0E8FB9DED031A38
:1027A0004FF46170F1EE410A1BF0C4FCDDED140A38
:1027B000B0EE408A9DED150AA8F076FCDFED5A7A5E
:1027C0009DF8743060EE277A083B9FED580A012B84
:1027D00067EE807A0CD8564B03F2847393ED000AAF
:1027E000B8EEC00A30EE270A1BF04EFCF0EE407A3D
:1027F000B8F1000F1BD19FED4C0ADDED1A7A9DF860
:10280000743067EE807A083B9FED480A012B67EE33
:10281000807A0CD8464B03F2847393ED000AB8EE2D
:10282000C00A30EE270A1BF02FFCF0EE407A002E93
:1028300040D19FED3D0A9DED1B7A27EE007A9FED7A
:102840003B0A27EE000ABBF1000F5AD105F44065A0
:10285000B5F5406F52D09FED377ADDED146AF4EE96
:10286000C76AF1EE10FAFFEE000AB7EE007A88BFF1
:10287000F0EE470AB9F1000F1FD10CAD28460DF05C
:1028800015FCDDE90E018DE803002B4895E80C00EE
:10289000214604F029FC1FB0BDEC028BBDE8F08F8F
:1028A00004AB0FCB84E80F0060E7DFED247AB0EED5
:1028B000678A9DE79FED210AC5E7BAF1000FEAD0CC
:1028C000B5F5406F07D168EE200A1B48B0EE670AE5
:1028D00004F0E2F9DFE7B8F1000F07D0002EDAD1FB
:1028E00068EE200A144804F023FAD4E7002ED2D070
:1028F000E9E7002ECFD1DFED110AF3E7F7EE000A8A
:10290000B8E7B9F1000FB8D0BAF1000FC3D0B8F1F1
:10291000000FEED1002EBED0DFED080AD5E700BFD4
:10292000E8650020B03D0020E02E65420000C8426E
:10293000E8350020000000B42476002000000000EC
:102940002DE9F04F2DED028BDFF8C4B19BB00846A6
:102950000CA9FFF74FFADBF8280A03681B699847B0
:10296000002800F0C2809DF864200B2A00F2BD8090
:1029700040F66943D340DB0740F1B7800BF63413D0
:102980000FCBBDF8604004AD14F0030985E80F00DB
:1029900004F0180804F0C00A04F4806704F4006628
:1029A0000AD1DDE90D011CF0DFF9002800F09D805F
:1029B0000D9B06930E9B0793B8F1000F66D141461D
:1029C000DBF8280A02F0A8FDDDED117A9DED107A02
:1029D0008DED030A27EEA70AA7EE070A1BF0C6FA39
:1029E0009DED031A4FF47B70F1EE410A1BF0A2FB40
:1029F000DDED100AB0EE408A9DED110AA8F054FBFF
:102A0000DFED3E7A60EE277A9FED3D0A67EE807A31
:102A10004FB99FED3A0ADDED167A67EE807A9FEDA9
:102A2000380A67EE807AB6BB9FED340A9DED177ABF
:102A300027EE007A9FED320A27EE000AB8F1000F68
:102A400042D104F44064B4F5406F53D09FED2D7A29
:102A5000DDED106AF4EEC76AF1EE10FAFFEE000A3F
:102A6000B7EE007A88BFF0EE470AB9F1000F2ED01A
:102A7000BAF1000F39D0B4F5406F0FD168EE200ADB
:102A80002148B0EE670A04F007F92EE0DFED1F7A67
:102A9000B0EE678ABCE79FED1D0ACFE737B126BBD2
:102AA00068EE200A184804F043F91EE0EEB1E5E7AD
:102AB000BAF1000F19D01FB9BEB1DFED140ADFE77C
:102AC0009EB9DFED120AEDE7B9F1000FF0D108ACC5
:102AD00020460DF0EBFADDE90A018DE803000A4813
:102AE00094E80C00294604F0FFFA1BB0BDEC028B01
:102AF000BDE8F08FF7EE000AB7E700BFE02E6542B1
:102B00000000C842000000B424760020000000004D
:102B1000E865002030B48D7A4B7A43EA0523CD7AFC
:102B200043EA0543562B04460A4618D008D8522BD0
:102B30000FD0542B10D02046114630BC51F0EABEC5
:102B40006D2B01D0A62BF6D12046114630BCFFF7E5
:102B500087BD30BCFFF710BD30BCFFF7B1BD30BC46
:102B6000FFF7EEBE70B5304D2DED028B0646D5F861
:102B7000280A91ED018A03688AB01B690C469847C0
:102B800050B9BDEEC88A18EE103ADB0704D4022013
:102B90000AB0BDEC028B70BDD4E904011CF0E4F86E
:102BA0000028F4D0236913B96369002BEFD002A881
:102BB0000DF07CFA02AA2146304650F0A1F9002817
:102BC000E5D0D5F8280A03681B699847D0B194ED81
:102BD000000ADFED167AB4EEE70AF1EE10FA1ADA1F
:102BE00006AC20460DF062FA0AAB13E903008DE84B
:102BF00003000F4894E80C0002A904F075FA40B1F4
:102C00000020C5E70B4802220F2106F0ABF8002890
:102C1000DDD10420BCE7D5F8280A0368DB6C9847AF
:102C20000028DDD1F5E700BFE86500200000003492
:102C300024760020E825002010B58A8BC02A10D009
:102C4000C22A12D0B22A1FD1114A91ED010AD2F83C
:102C5000280A0268D26C9047002814BF0020042084
:102C600010BDBDE81040FFF77DBF094A91ED000A95
:102C7000D2F8284AF7EE000A1BF044F90146204634
:102C800002F05EFC0020EBE7BDE8104050F030BAE7
:102C9000E8650020014B93F8AA027047E845002040
:102CA000074B084AD3F8281A914201BFA3F5805375
:102CB00093F99002B0FA80F0400918BF00207047E5
:102CC000E865002090790020074B084AD3F8281ABD
:102CD000914207D1A3F5805393F99002431E5842C5
:102CE0005841704700207047E86500209079002027
:102CF00038B543691D4D43F4B84343610446D5F8E4
:102D0000280A03681B6A984738B1D4E9062342F4BD
:102D1000406243F44063A261E361D5F8280A036886
:102D2000DB68984738B1D4E9062342F4A04243F463
:102D3000A043A261E3610E4B1868A8B190F88032FD
:102D400093B1636943F480736361A36943F480734F
:102D5000A36100213EF0C4FC30B13FF0ADFB18B1DF
:102D6000E36943F48073E36138BD00BFE865002088
:102D7000607B00207FB500F535563436044630467A
:102D80006CF0A4FDDFED1F7A20EE270ADFED1E7A3E
:102D900020EE270A002301A904F5AC5001938DED24
:102DA000020A039304F5795507F052F808F034FC51
:102DB00008F018FC103504F5385204326721284613
:102DC00045F034FE284606F51A72662145F02EFEBF
:102DD000204601F057FB30B104F53D522C326421FE
:102DE000284645F023FE094B93F9783B002B06DD7E
:102DF00004F5425220326321284645F017FE04B004
:102E000070BD00BFE02E65420000C842E8550020BA
:102E10002DE9F04F044693B0394806F0EDF800284C
:102E20006BD004F587561836192130463EF0DCFC8D
:102E3000002862D00EA80DF039F90EA904F5AC50A7
:102E400007F094FC04F579594FF0000809F11009D6
:102E500004F580535FFA88F793F87833BB4246D97C
:102E6000394630463EF03CFC054600283CD083689D
:102E700093F92130192B37D13FF01EFB002833D0B6
:102E80006B681A6904EB870303F58043D3F8481A8B
:102E9000914229D0C3F8482A2B680DA91B6A2846FD
:102EA000984708B900230D937CF014FC82460D98D6
:102EB0008B46FDF729FBCDE90A016A681068FDF72A
:102EC00023FB119A0F4B0692109A01930E4B00931D
:102ED000CDE90801CDE90472CDE902AB0B4B0C4AF8
:102EE0000C49484646F0FAFB08F10108B0E704F542
:102EF0008E404421243051F03FFC13B0BDE8F08FE8
:102F0000E82500202B140C0832140C0800140C08BF
:102F100007140C0826140C08F0B58BB015460646AD
:102F20000F462422002101A81C46AAF0B3FAA323CD
:102F30008DF8043095238DF8053003238DF8063085
:102F40007CF0C8FB2B6804936B680593AB68069311
:102F50002368CDF80700079306F579506368CDF82C
:102F60000B1008932422A3688DF80F7001A910306C
:102F7000099345F0B5FF0BB0F0BD000030B589B046
:102F80001D22044600216846AAF084FAA3238DF886
:102F9000003095238DF8013001238DF802307CF04C
:102FA00099FB04F58045CDF80300D5F8280ACDF843
:102FB00007100368DB6B984710EE103AD5F8280A23
:102FC000CDF80B300368DB6A984710EE103AD5F85D
:102FD000280ACDF80F3003681B6B984710EE103AA3
:102FE000CDF8133004F58053D5F8280AD3F8843788
:102FF000ADF8173003685B6B984704F5795010EE15
:10300000103A1D2269461030CDF8193045F068FF9E
:1030100009B030BD2DE9F04F2DED068B06462D4849
:1030200090F9783B002B91B04CDD00F5257077F0DE
:1030300021F906F5795710370446002847D006F5E0
:10304000405393EDB88ADFED247A93F8744328EE69
:10305000278A7CF03FFB06F52B558146E86E8846B3
:10306000FDF752FA8246286F8B46FDF74DFA41EC88
:10307000190B686FFDF748FA41EC1A0B06F56D5015
:10308000383005F0D1F810EE100AFDF73DFACDE921
:103090000E0118EE100A8DED0CAB8DED0A9BCDE9FB
:1030A00008ABFDF731FA0D4B01930D4B0093CDE9C1
:1030B0000601CDE902980B4B0B4A0C4904943846A3
:1030C00046F00CFB11B0BDEC068BBDE8F08F9FED18
:1030D000088ABEE7E8550020E02E65427C140C0803
:1030E00084140C083C140C0844140C0877140C08C5
:1030F0005241C07F70B52DED028B00F535558AB079
:10310000343504462F4B0093694628466CF0CAFCC0
:103110002122002101A8AAF0BDF9A3238DF80430D3
:1031200095238DF8053002238DF806307CF0D2FA15
:1031300004F54053CDF80B10D3F8383ECDF8070016
:10314000B3F90830ADF80F3004F52B5328339FED59
:103150001E8A5B6ACDF8113004F5804304F5AC5645
:10316000D3F8280A03689B6B984710EE103A28465C
:10317000CDF81530009BCDF819306CF099FA20EE9F
:10318000080A304610EE103ACDF81D3007F0AEF9BF
:103190000546304607F0AEF900F1180128461DF04B
:1031A000AFFF20EE080A04F5795010EE103A212204
:1031B00001A91030CDF8213045F092FE0AB0BDECE7
:1031C000028B70BD5241C07FE02E654270B590F811
:1031D0005D2F00F50F630C2101FB023300F535551F
:1031E0008AB034350446D3F810621D4B019301A90F
:1031F00028466CF0EBFB1D22002102A8AAF04AF938
:10320000A3238DF8083095238DF809307CF062FAFD
:1032100004F54053CDF80B00D3F83C3ECDF80F1029
:10322000B3F90830ADF8133004F52B532833284692
:103230009B6ACDF815306CF069FD10EE103A04F57C
:103240007950CDF819301D22019BCDF81D3002A90F
:103250001030CDF8216045F043FE0AB070BD00BFCC
:103260005241C07F13B5044600F57950103004F583
:103270008054019045F018F8019845F0ADF894F9A4
:10328000A833019823B102B0BDE8104045F06CB9F5
:1032900002B010BD10B500F580430446D3F8280AEB
:1032A00003681B68984704F50053C1B204F57950D0
:1032B00093F86022103045F0BBFF04F5AC5008F0E5
:1032C0009FFB04F58470BDE8104012F029BB00009C
:1032D00000F5795002498F22103046F0B5BA00BF90
:1032E000C0350C0800207047002070470020704750
:1032F00008B500F58040D0F8280A03681B68984795
:10330000C0B208BDF0B5B5B005463BF0E3FE6C4B6E
:103310001E6838B9306C6B4903681B6898476A4867
:103320007CF0A2F905F50A54203420463CF04EFF0B
:1033300028B105F50053B3F9A032102B14D0306C2E
:10334000624903681B68984754F036F93BF072FBFA
:10335000102314A92046ADF850303DF00DFE306C1E
:103360005B4903681B689847102314A92046ADF8F1
:1033700050303DF0DDFD7CF09DF904463DF0A8FCA9
:103380005448002224213CF039FD3DF07DF8524A9A
:1033900013881A2143F002030020138053F036FFF4
:1033A0000220462153F032FF284601F06BF840B16D
:1033B00005F547501E2314A90C308DF850303DF010
:1033C0006BFD53F0CFFC366C33681F687CF072F9EC
:1033D000021B424C42493046B84794E80F0004AE05
:1033E00086E80F0002A930463CF02AFCF0B104F157
:1033F000100314AA183418685968164603C608330F
:10340000A3423246F7D118681B79306033719DF8BA
:1034100008300C2B0AD834AA1344079813F8803CC0
:1034200000EE103AB8EE400A3DF0C0F92D4C94E899
:103430000F0008AE103486E80F0094E80F000CAFC0
:1034400087E80F0003A930463CF0FAFB014698B329
:103450000021B7EE000A30463CF03EFC22498022B3
:1034600014A8A9F0EFFF082114A800223CF0C6FC24
:1034700005F50B5010A920303CF00CF9D0B140F606
:10348000E573002405F50151CDE90034174ABDF874
:103490004000252310313CF0C5FC40F6D17305F502
:1034A00006510093124ABDF84000019411232831BF
:1034B0003CF0B8FC35B0F0BDB7EE000A3846CBE7BB
:1034C000E02500201C480C082B480C0839480C0843
:1034D0005D480C0878480C08407B0020E80B0C087D
:1034E00064480C08080C0C08280C0C0898690C0897
:1034F000F43A0D08F7B5044665F0FAFC04F15C00F7
:1035000052F028F93D4E3E4BE3657C25601952F0A0
:103510007BFA66512C35B5F54F7FF7D104F54F7026
:1035200053F004FF04F6181504F24C706FF0A0FB82
:103530002A46344904F6080077F034FD04F6940175
:10354000084604F6942701916AF0A2FB01992846E7
:103550006AF0FAFC38466BF0C9FF002104F6F4501B
:1035600071F07CF804F56B605FF016FF04F56F6096
:1035700071F06EFE04F578605DF084F804F69C70DE
:103580003DF0B0FD04F5D1561F4BC4F89C3F04F547
:10359000855508351C3604F6B47076F023FE39469E
:1035A000324628466EF02EFB04F58053174AC3F8C6
:1035B000A82005F5F5600CF079FD04F5C3500CF07A
:1035C00075FD05F5F9600CF071FD04F5C4500CF0C3
:1035D0006DFD04F5C450183004F0B6FD04F5C65076
:1035E0001C305FF033FC394630466CF045FD204618
:1035F00007493CF09FFE204603B0F0BDD0550C08B3
:10360000E4550C08083B0020D8100C08105E0D088B
:10361000B84A0C080069C0F3401070470F299DBFDD
:103620002C2303FB0100203000207047014B93F94D
:10363000D4027047E8450020034B93F8300AC0439A
:1036400000F00100704700BFE8650020014BD3F88F
:10365000380E7047E855002008B53AB1022A10D15B
:10366000BDE808400748012205F020BB064AD2F811
:10367000282A8A4205D152F0B5F9BDE8084052F037
:103680006DB908BDE8250020E865002030B589B097
:103690001C2200210F4C03AD01A8A9F0FBFE284617
:1036A0000CF004FD94E80F0085E80F00102301A939
:1036B00004F5F760ADF806301EF044FC40B1064B4F
:1036C000B4F8E4271B680549186C03681B68984721
:1036D00009B030BD1C6F0020E025002094530C0879
:1036E00001290A4603D0022900D019B90122024853
:1036F00004F006BE704700BF6061002000290DDBAA
:10370000074890F85C2FCBB29A4207D3D0F8583FC5
:103710000122595CA0F5405005F024BB704700BF62
:10372000E85500204A2910B40B4604462BD021DC72
:10373000102910DC032917DD01208840144910E00E
:10374000A3F1C9000121814040F2434001420BD066
:103750005DF8044B70472A39152905D801208840A7
:103760000C4901400029F3D1204619465DF8044B6D
:1037700052F00EBFD329F7DCC829E1DC6129E7D07C
:103780009B29F1D1E4E75DF8044B1146FFF7A8BF90
:103790009000010001FF22000B464A2BF7B50646B8
:1037A00011465FDC292B0FDC072B70D056DC002B79
:1037B0005DD0042B00F0AE800A463046194603B0B7
:1037C000BDE8F04052F090BCA3F12A02202AF3D8C1
:1037D00001A050F822F000BF19390108B9370108DB
:1037E000B9370108B9370108B9370108B9370108F5
:1037F000B9370108B9370108EB380108F738010873
:1038000003390108093901080F3901081F39010876
:10381000253901082B390108B93701083139010868
:10382000B9370108B9370108B93701083739010834
:10383000B9370108B9370108B9370108B9370108A4
:10384000B9370108B9370108B9370108B937010894
:10385000B9370108B937010845390108102BABD138
:103860004D494BE09B2B71D003DC612BA4D101248B
:103870000AE0A3F1C9050A2D9ED8012404FA05F532
:1038800040F24342154297D0204603B0F0BD022AD1
:10389000EDD1424D404FD5F8283ABB42E7D0A5F1D3
:1038A00044006CF0A7FF044678B907F138001EF019
:1038B0006DF94FF0B1FD3A4A052149F0DDFA214694
:1038C000A5F5804000F05EFED1E7D5F8283ABB426E
:1038D000CDD005F58055B5F9183113B93046FFF74D
:1038E000D5FE3046FFF7D2FECEE70229BFD12D48E4
:1038F00000F09AFFBBE70A462B493046FFF7ACFEC3
:10390000B5E70A462949F8E70A462949F5E70A468C
:103910002849F2E72849F1E70A462849EDE70A462F
:103920002749EAE70A462749E7E70A462649E4E73E
:103930000A462649E1E7194BD3F8280A03681B6DAC
:10394000984794E73046FFF7CBFE90E72048019276
:1039500077F024FC00288AD11E486CF04BFF044607
:10396000002884D00D4B1748D3F8282A82423FF410
:103970007EAF03F694739A423FF479AF019902291E
:103980007FF475AF1A2053F009FB4FF045FD124A42
:10399000019949F071FA77E79C760020E8650020EC
:1039A000A8530C08E8250020B4750020EC75002011
:1039B000A07800207C750020DC7800201879002099
:1039C000247600205478002054790020907900203B
:1039D000D0500020A4650020C1530C08002070477F
:1039E0000020704708B50368DB68984780F0010045
:1039F000C0B208BD01207047012070479FED010A49
:103A0000704700BF00000000002070470120704791
:103A10000020704770470000102070470048704732
:103A2000FC550C08704700000020704701207047CB
:103A3000002070470020704703685B68184700004B
:103A400000F0A2BF00F0F2BD57F008B942F0CABFC3
:103A500018F0EEB845F092BB04F09EBF39F0D2B832
:103A600003F02ABF01F0A6B801F024BA0BF068BB3E
:103A700054F00CBC54F072B85CF050BE58F052BD1B
:103A80000AF02CBE51F02EBF51F064BC4FF04CB97F
:103A900004F07EBF04F09ABF76F070BD6FF0ECBA10
:103AA00009F0A8BF13F0DCB900F090BC05F036B8FF
:103AB00004F026BB01F0CCB902F054BD02F000BD09
:103AC00002F0B0BA38B5214B036000F580430446DC
:103AD000D3F8C8081E4AC3F8242708B10CF07CFEAE
:103AE0001C4B236004F5005393F844203AB91D6C35
:103AF0002DB1284616F014FF28460CF067FE04F599
:103B0000A5506BF093F804F59D50083054F060FA1E
:103B1000114BC4F8F03804F65C2048F033FA04F591
:103B2000246048F02FFA04F6242048F02BFA04F61B
:103B3000881048F027FA04F66C1048F023FA04F5D0
:103B4000156048F01FFA204638BD00BF54530C08DA
:103B500000160D08ACF50C0898B50C0838B5404BAC
:103B6000044640F8043B57F099F904F110000AF0BC
:103B700099FE04F1600042F0DFFC04F5847011F05E
:103B8000EBF904F5906009F0F9FC04F2AC500FF089
:103B9000B3F904F50F6017F0A3FE04F58150083067
:103BA00056F03CFF04F5875018303DF043FD04F516
:103BB0009D50083054F0F4F904F59F5004300BF098
:103BC000DFFB04F5A5506BF01DF804F5A5501C3083
:103BD00043F054F804F5A850103058F049FB04F5B0
:103BE000805304F5A9520025104683F820551D4B3B
:103BF00010301A6038F0BAFE294604F5AC5006F0D1
:103C000095FA04F5D850103064F078FD04F5F650BC
:103C1000143067F0ABFF04F5FF500C306AF0CEFBB8
:103C200004F50150103005F0EFF904F50650283086
:103C30005DF064F904F5005304F5095083F860520F
:103C4000094D38306BF0A0FB2B6813B107487BF0AF
:103C50000BFD204606493CF06DFB2C60204638BD2C
:103C6000ACF50C081C8A0020987B002004560C0838
:103C7000F0F40C08034808602521117008221A602E
:103C8000704700BF505A0C0870B50446254601F035
:103C9000B1FA1F4B45F8383B1E4BE464C4E91434B9
:103CA0001D4BC4E916341D4B236604F174000CF05F
:103CB000FDF904F190000CF0F9F904F1AC000CF0FE
:103CC000F5F94FF6FF76164BC4F8C030A4F8C4607F
:103CD00004F1C8000CF0EAF9124B13491D602846A4
:103CE0003CF028FBA4F86C60A4F8886004F59A7096
:103CF0000CF0DCF904F5B6700CF0D8F904F5C470DA
:103D00000CF0D4F904F5D2700CF0D0F9204670BD57
:103D1000DC600C08B93A0108BD3A0108C13A010853
:103D20000000FFFF847A002024C20C08F0B504468E
:103D300085B0FFF713FF914B2360914B91481860BA
:103D400004F50A521C32002318269DB229467143FD
:103D50000133415C0029F8D18B4B1D808B4B1968D6
:103D600011B18B487BF080FC04F50B5020301A60B9
:103D7000FFF7C0FB04F5785030306EF05FFF04F5BC
:103D80000A5104F579502431103044F0C1FF04F594
:103D9000405504F50B531533C5F8583F04F57D50D5
:103DA000062385F85C3F203053F02AFD04F57E5051
:103DB0003C306CF0E3FC774BC5F8BC3F04F5804029
:103DC000183004F5804571F0BDFD04F58E46724B48
:103DD000C5F8243704F58F47443628373046143663
:103DE0004CF08EFFBE42F9D10723C5F8CC38002332
:103DF000A5F8D0384FF4CB700CF0ECFCC5F8C8082F
:103E000004F59140543078F017FA04F592401830D8
:103E100078F012FA614A13681BB904F58E43243313
:103E200013605F4BC5F8243704F5924004F59246C1
:103E300034300CF03BF906F168000CF037F904F56A
:103E4000934010300CF032F948364FF48053554906
:103E5000C5F8B43930463CF06DFA534B04F5934045
:103E600038301E6054F0FCF904F59E464F4B039326
:103E70005C364F4BC5F8286A0294009304F59440D1
:103E800004AB13E90C004FF4007174300AF0F8F839
:103E9000304601F0AFF9474BC5F85C3F04F59F4051
:103EA000143001F0A7F9444BC5F8943F04F59F4046
:103EB0004C3001F09FF9414BC5F8CC3F04F5A040D0
:103EC00004F5A045043001F095F93D4B6B602846A0
:103ED0003C3001F08FF93B4BEB6304F5A1402430FB
:103EE0000CF0E4F804F5A44604F5A1406C36343037
:103EF000FFF7CAFE304601F07DF9334BC5F86C324E
:103F000006F138000CF0D2F804F5A540383001F085
:103F100071F92E4BC5F8B83204F5A540743001F0A4
:103F200069F92B4BC5F8F43204F5A640303001F0A6
:103F300061F9284BC5F8303304F5A6406C3001F028
:103F400059F9254BC5F86C3304F5A740283001F02A
:103F500051F9224BC5F8A83304F5A7456835B0EEF2
:103F6000000A284648F06CFAB0EE000A05F110008D
:103F700048F066FA204605B0F0BD00BF54530C0867
:103F8000547B0020C44D0C08527B00200C7B002089
:103F900018560C0898100C0800160D088C84002088
:103FA000C8130C0840780C08607A0020B53A010864
:103FB000345D0C083C560C085C620C083C630C0831
:103FC000E05E0C08F4610C08CC620C081C650C085F
:103FD000B8630C08B4640C0844610C0828640C082D
:103FE00010B500F50B5400F52B50283078F0AAF8E6
:103FF00020340146204665F059F82046BDE81040BF
:1040000064F0F4BFFFF7ECBF7FB5044600F57E50C7
:104010003C30FDF799FA04F5AC56204604F092FDC9
:104020000021304606F05CFD04F592413431304603
:1040300006F09CFB04F5804504F5805385F8440A9E
:1040400093F84C1811F0010102D1204600F09AFAC1
:10405000002301A9304601930293039306F00AFC62
:1040600028B301A81BF0DEFF05F5276585ED000AE2
:104070000121204604F0BAFF28B12046FEF77AFE5F
:104080002046FEF7C7FF8021204604F0AFFF18B19D
:1040900019F0C0FA17F0E8FA4FF48011204604F046
:1040A000A5FF10B1304605F0C5FF04B070BD94F80F
:1040B000D823B02302FB0333234494F87E2493F8DF
:1040C0000931002AD4D1022BD2D9304606F0C4FDE2
:1040D000CAE70000FFF798BF70B500F5005305462A
:1040E00093F9CC32ABB100F58043D3F8C44874B136
:1040F0007BF0E8FA041BB4F5FA6F94BF00230123A8
:104100002846044ABDE87040022100F0D3BD234692
:10411000F6E770BD9D460C08FFF7DEBF38B50221FB
:10412000044604F063FF50B10121204604F05EFF15
:1041300028B92046FEF71EFE2046FEF76BFF102131
:10414000204604F053FF38B12046FFF73FF804F54E
:1041500028502C306FF002F82021204604F046FF52
:1041600000B304F5745520461C35FEF707FF2846BA
:104170006BF0C6FFB0B1284604F5795504F57454C8
:10418000103534346CF0AAF804F140022846682156
:1041900044F04CFC04F1680228466921BDE838402F
:1041A00044F044BC38BD0000FFF7B8BF10B54FF471
:1041B0000051044604F01AFF10B12046FEF79AFFA2
:1041C0004FF48041204604F011FF38B12046FFF73C
:1041D00049F804F52D50343069F060FE8021204606
:1041E00004F004FF28B119F015FABDE8104017F0EB
:1041F0005FBA10BDFFF7DABF73B5044603682B4DF5
:10420000DB6B04F57E563C36984752F021FE0021C8
:104210003046FDF7B5FAA8713046254E0123EB7103
:104220006CF0E8FA336828715B6D224A93F89C3091
:104230006B7104F50055B5F8AA12117013B9204638
:1042400000F0C6F933685B6D93F89C6036B195F861
:1042500062321BB97BF036FAC5F8640285F86262F7
:1042600004F5405604F52B5596ED330A28352846BB
:104270008DED010A76F092FF014604F54E509DED5A
:10428000010A08306DF0F8FD96ED330A28468DEDF1
:10429000010A76F083FF9DED010A014604F5745092
:1042A0001C3002B0BDE870406BF06ABFB57A0020E8
:1042B000E025002068220020FFF79EBF10B5094BC3
:1042C0001B78044623B100F5355034306BF0C4FE42
:1042D00004F58044D4F8280A0368BDE810409B68C0
:1042E000184700BFC8840020FFF7E8BF70B50A4B2D
:1042F0000446D3F8280A0368DB680E46984705464B
:1043000040B104F58044D4F8280A0368DB6B984771
:1043100086ED000A284670BDE865002070B50A4B9E
:104320000446D3F8280A0368DB680E46984705461A
:1043300040B104F58044D4F8280A0368DB6A984742
:1043400086ED000A284670BDE865002070B50A4B6E
:104350000446D3F8280A0368DB680E4698470546EA
:1043600040B104F58044D4F8280A03685B6B984791
:1043700086ED000A284670BDE865002038B5054B7B
:104380001C6823680A461D68034B01462046A8475F
:10439000002038BDE0250020E825002010B578F089
:1043A000BBFA064C064B18602046FFF7BFFC2046C0
:1043B000044A0549BDE81040A6F02EBBE8250020C0
:1043C000E025002068E60020C53A010813B500F595
:1043D0008043044693F8593F23B102B0BDE8104032
:1043E00003F012BC00F5355001A934306BF0EEFA41
:1043F00008B90023019304F57E503C306CF0FAF9C3
:10440000014604F52B50D4ED400A9DED010A2830F9
:1044100077F048FE02B010BD10B500F54053D1ED65
:10442000007A9FED157AD3ED720A93EDE00A90EDD4
:10443000401A00F5005367EEC77A9FED107A93F8A3
:10444000E83A67EEA07A20EE070A13F00C0F00F5A9
:1044500035500C46A7EE870A14BF0121002160EEFB
:10446000870A34306BF052F9DFED057A20EE270A27
:1044700084ED000A10BD00BF0AD7233C35FA8E3CFC
:104480000000C84200F5405090F98C01C31E58420C
:10449000584170472DE9F0472DED028B00F580590A
:1044A0008EB0044600F5AC5099F84C680F46924621
:1044B00008F06AFB06F001068046002855D004F596
:1044C000A1456C35AEB94FF48071204604F08EFDE5
:1044D00078B109A80BF0EAFD07AA314628461DF07D
:1044E000F3FB30B104F5795007AA2946103044F0A7
:1044F000D3FEBAF1000F05D099F84C3843F002030F
:1045000089F84C3828461DF03DFDD7ED017A9FED26
:104510001A7A9FED1A8AF8EEE77A04F58E4467EE70
:10452000877A243417EE900AFBF7EEFFD7ED037A73
:10453000F8EEE77ACDE9040167EE887A17EE900A83
:10454000FBF7E2FFD7ED027AF8EEE77ACDE9020158
:1045500067EE887A17EE900AFBF7D6FF084ACDE996
:1045600000010621204648F087FC40460EB0BDEC15
:10457000028BBDE8F08700BF0AD7233C95BFD63336
:10458000405D0C087FB5054605F5AC5668460C46FF
:104590000BF08CFD304606F065F918B90024204672
:1045A00004B070BD6946304606F0E0F80028F5D04A
:1045B000224669462846FFF76DFF04460028EDD0E5
:1045C00005F543500121143070F03EFAE7E7000092
:1045D0007FB500F58056044696F84C389A0715D4F6
:1045E000684604F5AC550BF061FD6946284606F0B7
:1045F000BDF858B104F5906009F0FAF896F84C3817
:10460000DB0705D46946284608F0BEFA04B070BD41
:1046100005F52F7168460CF003F8F6EE007AB4EE5B
:10462000E70AF1EE10FAEDD5F0E70000F0B52DED58
:10463000028B00F57E563C3683B0044630466CF063
:10464000D9F8054630B9544B00221A8003B0BDECAE
:10465000028BF0BD04F5005797F9CD32002BF2D054
:1046600004F58043D3F8280A0368DB68984720B92B
:104670002046FFF707FF0028E5D004F5405393F9E3
:10468000CC31002B45D007EE903A9FED447AF8EEFE
:10469000E77A04F5805303F2747267EE877A92ED3D
:1046A000007AB0EEC77AB4EEE77AF1EE10FA0CDCDD
:1046B00003F5EE6393ED007AB0EEC77AB4EEE77AD5
:1046C000F1EE10FACCBF012500252046FFF7DAFEF7
:1046D00008B3002DBAD045F0B3FB0C21012245F000
:1046E00079F92046FFF7CEFE04F58E4324330146C8
:1046F000002840D02A4A0021184648F0BDFB01227C
:104700000C21304603B0BDEC028BBDE8F040FDF754
:10471000B1B81D46D9E735BB04F5AC50019006F0A1
:104720009BFA9FED208AB4EEC80AF1EE10FA8ADAFD
:10473000019805F0DBFED0ED027AF0EEE77AF4EEB8
:10474000C87AF1EE10FABFF67EAF07F6E823D3ED94
:104750000A7AB1EE047AF0EEE77AF4EEC77AF1EE77
:1047600010FA3FF570AF0C4A138801339BB2132B3C
:104770001380AED9AFE718460B4A48F07DFB04F52D
:104780009F4113221431204604F090FA97F9CD325C
:10479000022B7FF45BAFB2E7007A002035FA8E3C43
:1047A000605D0C080AD7A33D715D0C082DE9F04D42
:1047B00088B0044645F044FB05467AF08BFF04F5CB
:1047C000A0430746D3F8083404F5A740B3F1000826
:1047D00000F1680018BF4FF001080E4647F0A6FE32
:1047E0000068FBF791FE824604F5A74078308B46BF
:1047F00047F09CFE0068FBF787FECDE904ABCDE9EE
:104800000601CDE90076054B054A0649CDF808803A
:10481000284644F073FF08B0BDE8F08D885D0C08B1
:104820008D5D0C08A95D0C0873B5044600F57E503B
:104830003C306BF0DFFF04F58E45243504F5A046CF
:1048400048B90023164AC6F808340221284648F021
:1048500013FB02B070BD04F5355001A934306BF084
:10486000B5F80028EDD004F5A7409DED010A6830A9
:1048700047F05EFE04F52B5304F5A74093ED140AB0
:10488000783047F055FE7AF01DFF0023C6F8080483
:10489000C6F80C342046FFF789FF024AD5E700BF6F
:1048A000B05D0C08CC5D0C0870B52DED028B00F5E9
:1048B000A04686B0D6F808340446002B52D000F546
:1048C000A740783047F032FE90ED008A04F5A7400B
:1048D000683047F02BFEB2EE047AD0ED007AB4EEE9
:1048E000C78A04F58E45F1EE10FACDED057A05F193
:1048F00024053BDB9FED207AB4EEC78AF1EE10FA77
:1049000034D89FED1E7AF4EEC77AF1EE10FA2DDB63
:10491000FDEEC87A04F50A5017EE903A0DF1130136
:104920003E308DF813303CF0D5FA04F50A5005A955
:1049300030303CF075FA04F5005292F9BE32D2F8EC
:10494000B0020393FBF7E0FD039B0D4ACDE90001A4
:104950000221284648F090FA0023C6F80834204681
:10496000FFF724FF06B0BDEC028B70BD054A0221A3
:10497000284648F081FAEFE70000C8420000003402
:10498000E45D0C08075E0C0837B500F5A045044649
:10499000D5F80834A3B300F5355001A934306BF0D5
:1049A00015F868B304F5A740DFED160A9DED010A7E
:1049B000683047F051FD04F52B5304F5A74093ED03
:1049C000140ADFED100A783047F046FDD5F80C34B4
:1049D0000D4A5343B3F1333F02D82046FFF7E6FEBA
:1049E000D5F80C340133C5F80C347AF06BFED5F8E9
:1049F0000834C01AB0F5FA6F02D32046FFF754FF0F
:104A000003B030BD0AD7A33CCDCCCCCC13B5044603
:104A100000F5AC5005F026FFD8B101A9134806F007
:104A2000F3F904F57E503C306BF0E4FE9DF8043061
:104A300088B9DC06C3F300100BD49DF8052091075C
:104A4000C2F3400005D41C07C3F3C00001D402F038
:104A5000010002B010BDD90603D41A07C3F3C00089
:104A6000F7D583F08000C009F3E700BF683B002062
:104A700070B500F50055D5EDB47AF5EEC07AF1EEDB
:104A800010FA8AB004464FF0000345D90793089303
:104A9000099307AE06AB019303AA05AB04A90096E0
:104AA00000F5AC5006F040FC30461CF0ABFED5EDF6
:104AB000B47A9DED047ADDED036AB4EEE70AF1EE17
:104AC00010FAF4EEC77AACBF01230023F1EE10FA1E
:104AD000F4EEE67A77EEA76A98BF0133F1EE10FAAA
:104AE00098BF0133B4EEE67A98BFDBB2F1EE10FA6C
:104AF00010DAF4EEC77AF1EE10FA9CBF0133DBB2A4
:104B0000012B07D82046FFF781FF80F00100C0B2DB
:104B10000AB070BD0120FBE70020F9E770B500F591
:104B20008045044695F8403A2BBB012685F8406A3B
:104B300045F086F93246112144F04CFFD5F8280A99
:104B400003685B6A9847B0B104F5005393F9CE321D
:104B50008BB1022B06D004F59F410622143120466A
:104B600004F0A4F804F58E40034ABDE87040022129
:104B7000243048F081B970BD09100C0838B500F533
:104B80008043044693F8402A8AB1002583F8405AAE
:104B900045F056F92A46112144F01CFF04F58E40D9
:104BA000034ABDE838400221243048F065B938BDD9
:104BB000205E0C08F0B585B0054668460BF076FA25
:104BC000694605F5AC5006F013FBD8B105F57E50EB
:104BD0003C306BF00FFE344C344E40B105F50053C1
:104BE000D3EDB47AF5EEC07AF1EE10FA0CD8238842
:104BF00023F4FF7323F00103238028460023F3737B
:104C0000FFF7BCFF05B0F0BD2846FFF731FF0746B0
:104C100088B36378DB0705D423780133DBB2092B33
:104C200005D82370637803F00103F373EAE7238860
:104C300023F4FF7323F0010343F48573238045F0CD
:104C4000FFF80222102144F0C5FE7AF03BFD6368B4
:104C5000C01A47F23053984209D905F58E40144ADC
:104C60000221243048F008F97AF02CFD60602846D3
:104C7000FFF754FFD6E72378002BD3D0013B2370F6
:104C80002388C3F30803B3F5807FCBD1637860F347
:104C90000003637045F0D4F83A46102144F09AFEC0
:104CA0002846FFF76BFFBDE7047A0020B57A0020A5
:104CB000385E0C082DE9F04700F580459146044622
:104CC00095F8302A0F46002B6FD042EA010385F891
:104CD000303A22B91BB17AF0F5FCC5F8340A95F8E0
:104CE000383A53B195F8303A3BB904F58E40414A11
:104CF0004B460621243048F0BFF895F8383A95F82D
:104D0000302A134085F8383A002B70D1002A6ED033
:104D10007AF0D8FCD5F8343ADFED376AC01A04F5DA
:104D2000005A07EE900A9AEDB17AF8EE677A27EE0C
:104D3000267AF4EEC77AF1EE10FA58DDD5F8283A63
:104D400004F5A54808F17408434550D004F59F4682
:104D50001436B34205D104F54053D3F8183DDB07B0
:104D600045D595F8303A254A85F8383A04F58E400D
:104D70004B460421243048F07FF850F065FDD5F80B
:104D8000282A04F5A14334339A4205D1012F0FD1CB
:104D90009AF9C832022B2AD09AF9C032013B032B70
:104DA00025D8DFE803F012180A1F22EA01038EE774
:104DB000022FF1D19AF9CC32ECE704F5A641192281
:104DC0003031204603F072FF88B91922414620464F
:104DD00003F06CFF58B9314620461922BDE8F04770
:104DE00003F064BF04F5A64119223031EFE7BDE8B6
:104DF000F08700BF485E0C0800007A445C5E0C0837
:104E000010B504467AF056FC0E4AB4F8B610138872
:104E10008B420D4B02D01180186010BD1B68C01A68
:104E20000A4B9842F9D904F57E543C3420466BF085
:104E3000E1FC0028F1D020460122BDE81040062107
:104E4000FCF718BD0C7A0020107A0020400D0300FA
:104E5000013A10B50446042A2AD8DFE802F00A1203
:104E6000031B200000F5A6410422303103F01EFF91
:104E7000F0B904F5A54104227431204603F016FF71
:104E8000B0B904F59F4120460422BDE8104014311A
:104E900003F00CBF00F5A64104223031EDE700F528
:104EA0007E50BDE81040012207213C30FCF7E2BCF7
:104EB00010BD00002DE9F04100F5065600F5005741
:104EC00028360446304697F8E8815CF0E5FA054656
:104ED00004F57E503C306BF08DFC00283FD0002D57
:104EE0003AD097F9AB3153B3294630465CF012FB08
:104EF000DFED1C7AB4EEE70AF1EE10FA18D897F954
:104F0000AB31013B032B1AD8DFE803F00A12022170
:104F100004F5A6410A223031204603F0C7FE70B9DD
:104F200004F5A5410A227431204603F0BFFE30B9D2
:104F300004F59F410A221431204603F0B7FE44F0E5
:104F40007FFF2A460921BDE8F04144F043BD04F546
:104F5000A6410A223031E7E7B8F1000FEFD1BDE8F2
:104F6000F08100BF0000C842012070470020704758
:104F7000012070470120704710B50368DB680446C4
:104F8000984748B1E368DFED067A03F5C25393ED25
:104F9000000A20EE270A10BD9FED020AFBE700BFC2
:104FA0000AD7233C0000000010B50368DB68044604
:104FB000984748B1E368DFED067A03F5C15393EDF6
:104FC000070A20EE270A10BD9FED020AFBE700BF8B
:104FD0000AD7233C0000000010B50368DB680446D4
:104FE000984728B1E36803F5C25393ED010A10BD59
:104FF0009FED010AFBE700BF0000000010B5036849
:10500000DB680446984728B1E36803F5C15393ED84
:10501000060A10BD9FED010AFBE700BF000000007B
:1050200008B50368DB68984720B1BDE8084002482E
:1050300003F020BA08BD00BF6061002070B52DEDFF
:10504000028B654E88B0D6ED400A8DED030A04460A
:10505000806A0D466AF068FE8DED030A75B3E0685C
:1050600000F56B65A06A6AF033FE6368D6ED401AFE
:1050700093ED7E1AF6EE000A60EE200A28469FEDB8
:10508000570A03A95FF0CEFCE06800F5C450183061
:1050900003F084F990B1E5687AF014FBD5F8D43EBA
:1050A000C01AB0F5FA7F09D206F58043D3F8280A72
:1050B0004B4B984202D003681B6D9847494D9DEDBC
:1050C000030A95F9782B0023002A049328DD059321
:1050D0000693079307AB05AA04A9009305F6783059
:1050E00006AB03F035FB9DED050AA5F5A36076F050
:1050F0000DF89DED060AA5F5A36076F017F89DED75
:10510000070AA5F5A36076F021F8E0689DED040A92
:1051100000F6080075F0AAFF08B0BDEC028B70BD68
:10512000DFED317ADFED318A9FED318AB0EEC00AD2
:10513000B4EEE70AF1EE10FA1FD4E368A06A93F820
:1051400008385A0745D490F89C12D6ED401A9DEDC8
:10515000030A1B07A36858BF90F89C2293F91E50BE
:10516000D3ED040A01EE105AB8EEC11A48BF01226D
:1051700021EE281A6AF034FE1DE0A5F54050FFF735
:1051800081F90028D9D1A268E36892ED040A93F866
:10519000081892F91E3096ED401AA06A07EE903A70
:1051A000F8EEE77AC1F3C00267EEA80A07ABC1F3D5
:1051B00080016AF0C1FE20EE080A07488DED040A5E
:1051C000FFF760F90028A0D0034804A9FFF724F9ED
:1051D0009BE70121B9E700BFE8250020000000009F
:1051E000EC750020E8550020000000340AD7233C6D
:1051F0000000C8420C4A02600C4A426002F552614B
:10520000816002F5566102F5235282610432C16069
:10521000C261074901610432026204320431426210
:10522000044A416182627047705E0C08683B00204E
:10523000206400205C53002003689B6D1847000029
:1052400037B51D4B1B685B6D93F89C3004460BB360
:1052500001A91A4805F0D8FD1948FFF7D7FB054604
:1052600020B1184B93F8405A85F001052368204679
:105270005B6A984700B14DB1236820469B6A984706
:1052800040B13DB99DF804309B0703D40025284662
:1052900003B030BD236820465B6D98470546002863
:1052A000F5D0E368084803F58053002283F81D28F1
:1052B00002F0F2FFEBE700BFE0250020683B002092
:1052C000E8250020E86500206061002070B52DED24
:1052D000028B304C94F8303ADB070D46164605D564
:1052E00000230B601360BDEC028B70BDA4F500536E
:1052F000A4F5805493F9BF32012B20D0032BD4F8AE
:105300003C3EB3F9083007EE903AF8EEE77AC2ED8A
:10531000007A35D0002BD4F8383EB3F90830FFEED0
:10532000007AB7EE007AB8BFB0EE677A07EE903A2F
:10533000F8EEE77A67EE877AC5ED007AD3E7D4F81E
:10534000380E50F033FCD4F83C0EB0EE408A50F0EA
:105350002DFC78EE007AB6EE007A67EE877ADFED04
:105360000E6A38EE408A67EEA67A28EE078AC6ED06
:10537000007ADFED0A7A28EE278A85ED008AB2E707
:10538000D4F8383EB3F9083007EE903AF8EEE77AF1
:10539000D2E700BFE86500200000C84200A08C45AD
:1053A00070B506462DED028B0D461446FFF78EFFB5
:1053B000F06800F6080075F0F1FEA0B3DFED317A79
:1053C00095ED000A712080EE270AB7EE001AFFEE75
:1053D000000A18F0AFFEDFED2C7AB0EE408A94EDB3
:1053E000000A722080EE270AB7EE001AFFEE000ACC
:1053F00018F0A0FEB0EEC88AB0EEC00A38EE000A7F
:10540000F7EE007AB4EEE70AF1EE10FA0BDD95ED57
:10541000007AC7EE007AC5ED007A94ED007AC7EE07
:10542000007AC4ED007A194BF068D3ED400A94ED90
:10543000000A00F6080075F099FEDFED157A94ED8C
:10544000007AB4EEE77AF1EE10FAB4EEE70A94BF10
:1054500001220022F1EE10FA94BF012300239A42A8
:105460000BD0B36893F91F3033F0020302BFD5EDC0
:10547000007AF1EE677AC5ED007ABDEC028B84ED1F
:10548000000A70BD00A08C450000C842E82500203D
:10549000000000B40A4B93F8302AD2070DD4A3F5CC
:1054A0008053D3F8403E43B1B3F9083007EE903A49
:1054B000F8EEE77AC1ED007A7047DFED027AF9E79E
:1054C000E86500200000000070B5C3690546186853
:1054D0000E46144658B150F029FB86ED000A2B6A9F
:1054E000186838B150F022FB84ED000A70BD00232B
:1054F0000B60F4E700232360F8E7000010B5436A6F
:1055000018680C4620B150F011FB84ED000A10BD64
:1055100000230B60FBE70000C36851B103F6A862EB
:1055200092ED000ADFED057AB4EEE70AF1EE10FA2B
:1055300003DA03F5805393ED2B0A70470000003423
:10554000C36803F5805383F81D18704730B52DEDFF
:10555000028B404D9FED408A83B0002304462846CD
:105560008DF80330FEF78EFFD4E90223DFED3B0A0E
:1055700093F8081892F91E30002850D001EE103A26
:10558000B8EEC11AA06AD5ED401A9FED350A21EE9A
:10559000201AD2ED040AC1F3C002C1F380016AF0FF
:1055A0001FFC20EE080A01A928468DED010AFEF72E
:1055B00033FFE0689FED280A00F6080075F0A6FDAD
:1055C000E0689FED270A00F6080075F0AFFDE0687F
:1055D0009DED010A00F6080075F048FD9DF80330C6
:1055E000ABBBE368D5ED400A93F808189FED1C0AA1
:1055F000A06AC1F3400201F001016AF067FAE068B5
:10560000DFED187A012120EE270A00F6080075F078
:1056100027FD9DF8030003B0BDEC028B30BD07EE03
:10562000903AF8EEE77A92ED040A95ED401AA06AF6
:10563000C1F3C00267EEA00A0DF10303C1F38001BC
:105640006AF07AFC20EE080A8DED010AB1E79FEDC1
:10565000040AD4E7E82500200000C8420AD7233C0A
:105660000000000000A08C45B7EE007AF4EEC70AF7
:10567000F1EE10FA18DCDFED107AF4EEE70AF1EE45
:1056800010FA11D4C368DFED0D6A03F5D153D3EDE1
:10569000047AF4EEE67AF1EE10FAB6BFC7EE207A9D
:1056A000B0EE670A20EE270ADFED050A40F281100E
:1056B000B3EE0E1A18F03EBDCDCC4C3D00000034C8
:1056C00000000000F8B52DED028B324C0546D4F8F1
:1056D000380E0F46164650F069FAB7EE001AFFEE84
:1056E000000AA52018F026FDD4F83C0EA4F580543D
:1056F000B0EE408A50F05AFAA620B7EE001AFFEE3C
:10570000000A18F017FD94F9BF32012BF0EE408A21
:1057100009D178EE008A38EE407AF6EE007A68EE2B
:10572000A78A27EE278AF0EE680AB0EE480AA5F0AD
:10573000BBFCDFED197A20EE270A18F08FFC87ED0D
:10574000000A28EE080AA8EEA80A18F00FFCAB68B9
:10575000DFED120A93F91E20F7EE007AB4EEE70AA5
:10576000B0EE408AF1EE10FA58BFB0EE678A07EE4D
:10577000902AF8EEE77A93ED040A67EEA00A28462D
:10578000FFF772FF20EE080ABDEC028B86ED000ADF
:10579000F8BD00BFE8550020A00CB3450AD7233C54
:1057A00070B52DED028B044682B0154601AA0E4657
:1057B000FFF78CFDA3689DED010A93F91E20DFED34
:1057C000200A07EE902AF8EEE77A20EE208A20469B
:1057D00067EEA00A93ED040AFFF746FF28EE000AE1
:1057E000184B85ED000AE068D3ED400A00F69420DE
:1057F0006AF09AFADFED147A95ED007AB4EEE77A62
:10580000F1EE10FAB4EEE70A94BF01220022F1EEA5
:1058100010FA94BF012300239A420BD0A36893F996
:105820001F3033F0020302BFD6ED007AF1EE677A43
:10583000C6ED007A85ED000A02B0BDEC028B70BDAA
:105840000AD7233CE8250020000000B430B52DED38
:10585000028B83689B7F053B5F2B83B00546F0EE90
:10586000408A0C4621D801AA6946FFF72FFDAB6894
:10587000DFED200A93F91E209DED018A93ED040AC5
:1058800007EE902AF8EEE77A28EE208A284667EE9F
:10589000A00AFFF7E9FEDFED187A28EE000AB4EE61
:1058A000E70AF1EE10FA03DBE4B1B0EE680A0DE0AE
:1058B000DFED127AB4EEE70AF1EE10FA0AD8002C06
:1058C000F3D0B4EEE80AF1EE10FAEEDC03B0BDEC72
:1058D000028B30BD002CF4D1B4EEE80AF1EE10FAE0
:1058E000E3D4F3E7DFED057AB4EEE70AF1EE10FA60
:1058F000F2D8DAE70AD7233C00000034000000B4F5
:1059000010B52DED028B0368DB680446B0EE408ACB
:105910009847A8B1E36803F5805393F9A430002BAE
:105920000EDDBDEEC80A10EE103A1BB200EE103AC2
:105930002369B8EEC00A186850F038FAB0EE408A11
:10594000B0EE480ABDEC028BE0680121BDE81040D2
:1059500000F6080075F084BB10B5C36893F808180A
:10596000094B0446C1F34002806AD3ED400A01F0BE
:1059700001016AF0ABF8DFED057A204620EE270A38
:10598000BDE81040FFF7BCBFE825002000A08C4513
:1059900010B5836ADFED157A93ED911AB4EEE71A2C
:1059A000F1EE10FAD8BFB0EE671ADFED117A21EEF2
:1059B000271A0446F1EE410A4FF4F27018F0BAFBD0
:1059C000E368A06A93F808180A4BC1F34002D3EDCC
:1059D000400A01F001016AF04FF9DFED077A204635
:1059E00020EE270ABDE81040FFF78ABFCDCCCC3DA2
:1059F0000AE81C41E825002000A08C4510B59FED69
:105A0000107AC368DFED0F7A93F808180E4B20EE7A
:105A1000070A044660EEA70A20EE270A806A93ED83
:105A2000401AC1F3400201F001016AF00DF9DFED07
:105A3000077A204620EE270ABDE81040FFF760BF36
:105A40000AD7233C35FA8E3CE825002000A08C457F
:105A5000102939D8DFE801F0090D381115191D207A
:105A6000383824282C383830340000F59F404C302A
:105A7000704700F5A0400430704700F5A54038306D
:105A8000704700F59F401430704700F5A4406C301B
:105A9000704700F5A640FAE700F5A74028307047A8
:105AA00000F5A1403430704700F5A54074307047D0
:105AB00000F5A6403030704700F5A0403C307047FC
:105AC00000F59E405C3070470020704782B073B58F
:105AD0000E4606A981E80C00C5680446DDE9080108
