:020000040801F1
:1000000000060020B9120108D17C0A082D7C0A08DC
:10001000997C0A082D7C0A08657C0A08BB12010835
:10002000BB120108BB120108BB120108210F0D0809
:10003000BB120108BB120108BB120108BB12010868
:10004000BB120108BB120108BB120108BB12010858
:10005000BB120108BB1201089D1A0D08C91A0D0830
:10006000F51A0D08211B0D084D1B0D0885C20C0843
:10007000ADC20C08D9C20C0805C30C0831C30C086A
:1000800059C30C0885C30C0839C10C08BB12010800
:10009000BB120108BB120108BB120108791B0D0835
:1000A000BB120108BB120108BB120108BB120108F8
:1000B000BB120108BB1201088D220D08C5C80C082F
:1000C00061CA0C08BB120108BB120108BB1201086F
:1000D000BB12010805DD0C0819DD0C082DDD0C082C
:1000E000E11B0D08BB120108BB120108BB1201087D
:1000F000BB120108BB120108BB120108B1C30C08F6
:10010000BB120108C9CE0C08BB120108BB120108C2
:1001100041DD0C08BB120108BB120108BB1201082B
:10012000DDC30C0805C40C0831C40C085DC40C0800
:1001300089C40C08BB120108BB120108BB120108DC
:10014000BB120108BB120108BB12010859160D08A9
:10015000B1C40C08DDC40C0809C50C0855DD0C0839
:10016000BB120108BB120108BB120108BB12010837
:10017000BB120108BB120108BB120108BB12010827
:10018000BB120108BB120108BB120108BB12010817
:10019000BB120108BB120108BB120108BB12010807
:1001A000BB120108BB120108BB120108BB120108F7
:1001B000BB120108BB120108BB120108BB120108E7
:1001C000BB120108BB120108BB120108BB120108D7
:1001D000BB120108BB120108BB120108BB120108C7
:1001E0008D700108B11A0308C159040819020608E4
:1001F00041080608C182060865E7060809EF0608F7
:1002000051F206084D7F07082936080831440808CE
:10021000ED5008088D490A08314F0A0839730A0859
:10022000794C0B08F1C50B08D5310C0879440C0842
:100230004D720C084D780C08000000000000000012
:1002400081F0004102E000BF83F0004330B54FEA87
:1002500041044FEA430594EA050F08BF90EA020FF4
:100260001FBF54EA000C55EA020C7FEA645C7FEA87
:10027000655C00F0E2804FEA5454D4EB5555B8BFAA
:100280006D420CDD2C4480EA020281EA030382EA1B
:10029000000083EA010180EA020281EA0303362DAD
:1002A00088BF30BD11F0004F4FEA01314FF4801C80
:1002B0004CEA113102D0404261EB410113F0004F92
:1002C0004FEA03334CEA133302D0524263EB430349
:1002D00094EA050F00F0A780A4F10104D5F1200EE7
:1002E0000DDB02FA0EFC22FA05F2801841F1000142
:1002F00003FA0EF2801843FA05F359410EE0A5F116
:1003000020050EF1200E012A03FA0EFC28BF4CF046
:10031000020C43FA05F3C01851EBE37101F00045FC
:1003200007D54FF0000EDCF1000C7EEB00006EEB09
:100330000101B1F5801F1BD3B1F5001F0CD3490893
:100340005FEA30004FEA3C0C04F101044FEA4452EA
:1003500012F5800F80F09A80BCF1004F08BF5FEA71
:10036000500C50F1000041EB045141EA050130BD51
:100370005FEA4C0C404141EB0101013C28BFB1F563
:10038000801FE9D291F0000F04BF01460020B1FAAE
:1003900081F308BF2033A3F10B03B3F120020CDA81
:1003A0000C3208DD02F1140CC2F10C0201FA0CF05F
:1003B00021FA02F10CE002F11402D8BFC2F1200CC4
:1003C00001FA02F120FA0CFCDCBF41EA0C0190407A
:1003D000E41AA2BF01EB0451294330BD6FEA0404C3
:1003E0001F3C1CDA0C340EDC04F11404C4F12002AE
:1003F00020FA04F001FA02F340EA030021FA04F3C0
:1004000045EA030130BDC4F10C04C4F1200220FA16
:1004100002F001FA04F340EA0300294630BD21FA54
:1004200004F0294630BD94F0000F83F4801306BF1A
:1004300081F480110134013D4EE77FEA645C18BF0E
:100440007FEA655C29D094EA050F08BF90EA020FA5
:1004500005D054EA000C04BF1946104630BD91EA9D
:10046000030F1EBF0021002030BD5FEA545C05D1A0
:100470004000494128BF41F0004130BD14F58004DF
:100480003CBF01F5801130BD01F0004545F0FE4153
:1004900041F470014FF0000030BD7FEA645C1ABF88
:1004A000194610467FEA655C1CBF0B46024650EABF
:1004B000013406BF52EA033591EA030F41F40021EB
:1004C00030BD00BF90F0000F04BF0021704730B571
:1004D0004FF4806404F132044FF000054FF0000146
:1004E00050E700BF90F0000F04BF0021704730B507
:1004F0004FF4806404F1320410F0004548BF4042DC
:100500004FF000013EE700BF42004FEAE2014FEA30
:1005100031014FEA02701FBF12F07F4393F07F4F0B
:1005200081F06051704732F07F4208BF704793F00E
:100530007F4F04BF41F40021704730B54FF4607421
:1005400001F0004521F000411CE700BF50EA010224
:1005500008BF704730B54FF000050AE050EA0102CD
:1005600008BF704730B511F0004502D5404261EB3D
:1005700041014FF4806404F132045FEA915C3FF47E
:10058000D8AE4FF003025FEADC0C18BF03325FEA1B
:10059000DC0C18BF033202EBDC02C2F1200300FACC
:1005A00003FC20FA02F001FA03FE40EA0E0021FAF1
:1005B00002F11444BDE600BF70B54FF0FF0C4CF4DF
:1005C000E06C1CEA11541DBF1CEA135594EA0C0F91
:1005D00095EA0C0F00F0DEF82C4481EA030621EACC
:1005E0004C5123EA4C5350EA013518BF52EA033507
:1005F00041F4801143F4801338D0A0FB02CE4FF0B9
:100600000005E1FB02E506F00042E0FB03E54FF0E8
:100610000006E1FB03569CF0000F18BF4EF0010EE0
:10062000A4F1FF04B6F5007F64F5407404D25FEADC
:100630004E0E6D4146EB060642EAC62141EA55518F
:100640004FEAC52040EA5E504FEACE2EB4F1FD0CD1
:1006500088BFBCF5E06F1ED8BEF1004F08BF5FEA4F
:10066000500E50F1000041EB045170BD06F0004601
:1006700046EA010140EA020081EA0301B4EB5C04AE
:10068000C2BFD4EB0C0541EA045170BD41F48011A6
:100690004FF0000E013C00F3AB8014F1360FDEBFCB
:1006A000002001F0004170BDC4F10004203C35DAA7
:1006B0000C341BDC04F11404C4F1200500FA05F32A
:1006C00020FA04F001FA05F240EA020001F00042CB
:1006D00021F0004110EBD37021FA04F642EB060141
:1006E0005EEA430E08BF20EAD37070BDC4F10C046B
:1006F000C4F1200500FA04F320FA05F001FA04F22F
:1007000040EA020001F0004110EBD37041F100011A
:100710005EEA430E08BF20EAD37070BDC4F1200525
:1007200000FA05F24EEA020E20FA04F301FA05F28D
:1007300043EA020321FA04F001F0004121FA04F235
:1007400020EA020000EBD3705EEA430E08BF20EA05
:10075000D37070BD94F0000F0FD101F0004640003F
:1007600041EB010111F4801F08BF013CF7D041EAC1
:10077000060195F0000F18BF704703F000465200C5
:1007800043EB030313F4801F08BF013DF7D043EA96
:100790000603704794EA0C0F0CEA135518BF95EA4C
:1007A0000C0F0CD050EA410618BF52EA4306D1D1D3
:1007B00081EA030101F000414FF0000070BD50EAF2
:1007C000410606BF1046194652EA430619D094EA7C
:1007D0000C0F02D150EA013613D195EA0C0F05D166
:1007E00052EA03361CBF104619460AD181EA0301BA
:1007F00001F0004141F0FE4141F470014FF0000072
:1008000070BD41F0FE4141F4780170BD70B54FF00C
:10081000FF0C4CF4E06C1CEA11541DBF1CEA13558C
:1008200094EA0C0F95EA0C0F00F0A7F8A4EB05046E
:1008300081EA030E52EA03354FEA013100F0888065
:100840004FEA03334FF0805545EA131343EA12632E
:100850004FEA022245EA111545EA10654FEA0026E3
:100860000EF000419D4208BF964244F1FD0404F59C
:10087000407402D25B084FEA3202B61A65EB0305F8
:100880005B084FEA32024FF480104FF4002CB6EBB5
:10089000020E75EB030E22BFB61A754640EA0C0035
:1008A0005B084FEA3202B6EB020E75EB030E22BF75
:1008B000B61A754640EA5C005B084FEA3202B6EBB6
:1008C000020E75EB030E22BFB61A754640EA9C0075
:1008D0005B084FEA3202B6EB020E75EB030E22BF45
:1008E000B61A754640EADC0055EA060E18D04FEA03
:1008F000051545EA16754FEA06164FEAC30343EAA3
:1009000052734FEAC2025FEA1C1CC0D111F4801F6F
:100910000BD141EA00014FF000004FF0004CB6E768
:1009200011F4801F04BF01430020B4F1FD0C88BF07
:10093000BCF5E06F3FF6AFAEB5EB030C04BFB6EB12
:10094000020C5FEA500C50F1000041EB045170BD05
:100950000EF0004E4EEA113114EB5C04C2BFD4EB32
:100960000C0541EA045170BD41F480114FF0000EB6
:10097000013C90E645EA060E8DE60CEA135594EA32
:100980000C0F08BF95EA0C0F3FF43BAF94EA0C0F35
:100990000AD150EA01347FF434AF95EA0C0F7FF4AA
:1009A00025AF104619462CE795EA0C0F06D152EAFE
:1009B00003353FF4FDAE1046194622E750EA4106E2
:1009C00018BF52EA43067FF4C5AE50EA41047FF4F3
:1009D0000DAF52EA43057FF4EBAE12E74FF0FF3C58
:1009E00006E000BF4FF0010C02E000BF4FF0010C29
:1009F0004DF804CD4FEA410C7FEA6C5C4FEA430CA2
:100A000018BF7FEA6C5C1BD001B050EA410C0CBFF0
:100A100052EA430C91EA030F02BF90EA020F002052
:100A2000704710F1000F91EA030F58BF994208BFB9
:100A300090422CBFD8176FEAE37040F00100704776
:100A40004FEA410C7FEA6C5C02D150EA013C07D1CD
:100A50004FEA430C7FEA6C5CD6D152EA033CD3D018
:100A60005DF8040B704700BF8446104662468C4612
:100A70001946634600E000BF01B5FFF7B7FF002845
:100A800048BF10F1000F01BD4DF808EDFFF7F4FF6E
:100A90000CBF012000205DF808FB00BF4DF808EDF9
:100AA000FFF7EAFF34BF012000205DF808FB00BF1C
:100AB0004DF808EDFFF7E0FF94BF012000205DF83E
:100AC00008FB00BF4DF808EDFFF7CEFF94BF0120F3
:100AD00000205DF808FB00BF4DF808EDFFF7C4FFEC
:100AE00034BF012000205DF808FB00BF4FEA410C35
:100AF0007FEA6C5C02D150EA013C0AD14FEA430C18
:100B00007FEA6C5C02D152EA033C02D14FF0000054
:100B100070474FF0010070474FEA410212F5001292
:100B200015D211D56FF47873B3EB625212D94FEA34
:100B3000C12343F0004343EA505311F0004F23FA1E
:100B400002F018BF404270474FF00000704750EA73
:100B5000013005D111F0004008BF6FF00040704730
:100B60004FF00000704700BF4A0011D212F500128A
:100B700011D20DD56FF47873B3EB62520ED44FEAF5
:100B8000C12343F0004343EA505323FA02F0704775
:100B90004FF00000704750EA013002D14FF0FF30B3
:100BA00070474FF0000070474FEA4102B2F1E04356
:100BB00024BFB3F5001CDCF1FE5C0DD901F0004C44
:100BC0004FEAC0024CEA5070B2F1004F40EB830094
:100BD00008BF20F00100704711F0804F21D113F1C0
:100BE0003872BCBF01F00040704741F480114FEAF9
:100BF0005252C2F11802C2F1200C10FA0CF320FA82
:100C000002F018BF40F001004FEAC1234FEAD3239E
:100C100003FA0CFC40EA0C0023FA02F34FEA430308
:100C2000CCE77FEA625307D150EA01331EBF4FF091
:100C3000FE4040F44000704701F0004040F0FE40AC
:100C400040F40000704700BF80F0004002E000BFA9
:100C500081F0004142001FBF5FEA410392EA030FA7
:100C60007FEA226C7FEA236C6AD04FEA1262D2EBF1
:100C70001363C1BFD218414048404140B8BF5B42F6
:100C8000192B88BF704710F0004F40F4000020F08F
:100C90007F4018BF404211F0004F41F4000121F0A5
:100CA0007F4118BF494292EA030F3FD0A2F10102EF
:100CB00041FA03FC10EB0C00C3F1200301FA03F12D
:100CC00000F0004302D5494260EB4000B0F5000F50
:100CD00013D3B0F1807F06D340084FEA310102F10F
:100CE0000102FE2A51D2B1F1004F40EBC25008BFC1
:100CF00020F0010040EA03007047490040EB00008B
:100D0000013A28BFB0F5000FEDD2B0FA80FCACF18B
:100D1000080CB2EB0C0200FA0CF0AABF00EBC250B8
:100D200052421843BCBFD0401843704792F0000FA6
:100D300081F4000106BF80F400000132013BB5E7F9
:100D40004FEA41037FEA226C18BF7FEA236C21D06F
:100D500092EA030F04D092F0000F08BF08467047D4
:100D600090EA010F1CBF0020704712F07F4F04D1A2
:100D7000400028BF40F00040704712F100723CBFB5
:100D800000F50000704700F0004343F0FE4040F4DF
:100D9000000070477FEA226216BF08467FEA23639D
:100DA0000146420206BF5FEA412390EA010F40F488
:100DB000800070474FF0000304E000BF10F00043D4
:100DC00048BF40425FEA000C08BF704743F09643BB
:100DD00001464FF000001CE050EA010208BF7047D6
:100DE0004FF000030AE000BF50EA010208BF70475D
:100DF00011F0004302D5404261EB41015FEA010C72
:100E000002BF84460146002043F0B64308BFA3F169
:100E10008053A3F50003BCFA8CF2083AA3EBC2534B
:100E200010DB01FA02FC634400FA02FCC2F120026A
:100E3000BCF1004F20FA02F243EB020008BF20F0A1
:100E40000100704702F1200201FA02FCC2F1200207
:100E500050EA4C0021FA02F243EB020008BF20EAFC
:100E6000DC7070477BB972B90029BEBF00204FF01B
:100E7000004106E008BF00281CBF6FF000414FF0A2
:100E8000FF3000F017BAADF1080C6DE904CE00296F
:100E900009DB002B1ADB00F0A5F8DDF804E0DDE942
:100EA000022304B07047404261EB4101002B1BDB81
:100EB00000F098F8DDF804E0DDE9022304B04042D8
:100EC00061EB4101524263EB43037047524263EBD3
:100ED000430300F087F8DDF804E0DDE9022304B005
:100EE000404261EB41017047524263EB430300F023
:100EF00079F8DDF804E0DDE9022304B0524263EB47
:100F00004303704753B94AB9002908BF00281CBFE2
:100F10004FF0FF314FF0FF3000F0CCB9ADF1080CCD
:100F20006DE904CE00F05EF8DDF804E0DDE90223AF
:100F300004B07047430803F05533C01A830803F028
:100F4000333300F03330184400EB101000F00F3052
:100F500000EB002000EB0040000E704780EA1040DC
:100F600080EA102080EA101046F6961300F00F0079
:100F700043FA00F000F00100704700BF07EE900A4E
:100F8000F5EEC07AF1EE10FA01D400F00BB8F1EEF4
:100F9000677A08B517EE900A00F004F8404261EB5A
:100FA000410108BDD0B5FFF7AFFA0C4B0022064651
:100FB0000F46FFF701FBFFF7D7FD0446FFF782FA64
:100FC000074B0022FFF7F8FA02460B463046394637
:100FD000FFF73AF9FFF7C8FD2146D0BD0000F03D0C
:100FE0000000F0412DE9F047089D04468E46002B95
:100FF0004DD18A42944669D9B2FA82F252B101FACD
:1010000002F3C2F1200120FA01F10CFA02FC41EADC
:10101000030E94404FEA1C48210CBEFBF8F61FFA61
:101020008CF708FB16E341EA034306FB07F19942FC
:101030000AD91CEB030306F1FF3080F01F819942AF
:1010400040F21C81023E63445B1AA4B2B3FBF8F089
:1010500008FB103344EA034400FB07F7A7420AD910
:101060001CEB040400F1FF3380F00A81A74240F238
:1010700007816444023840EA0640E41B00261DB1A3
:10108000D4400023C5E900433146BDE8F0878B42D8
:1010900009D9002D00F0EF800026C5E90001304697
:1010A0003146BDE8F087B3FA83F6002E4AD18B4271
:1010B00002D3824200F2F980841A61EB030301201B
:1010C0009E46002DE0D0C5E9004EDDE702B9FFDE07
:1010D000B2FA82F2002A40F09280A1EB0C014FEAB2
:1010E0001C471FFA8CFE0126200CB1FBF7F307FB0F
:1010F000131140EA01410EFB03F0884208D91CEBB2
:10110000010103F1FF3802D2884200F2CB8043464E
:10111000091AA4B2B1FBF7F007FB101144EA01442D
:101120000EFB00FEA64508D91CEB040400F1FF31BC
:1011300002D2A64500F2BB800846A4EB0E0440EAAA
:1011400003409CE7C6F12007B34022FA07FC4CEAB3
:10115000030C20FA07F401FA06F31C43F9404FEAA6
:101160001C4900FA06F3B1FBF9F8200C1FFA8CFEBB
:1011700009FB181140EA014108FB0EF0884202FA0F
:1011800006F20BD91CEB010108F1FF3A80F08880D0
:10119000884240F28580A8F102086144091AA4B28D
:1011A000B1FBF9F009FB101144EA014100FB0EFE0E
:1011B0008E4508D91CEB010100F1FF346CD28E453D
:1011C0006AD90238614440EA0840A0FB0294A1EBCE
:1011D0000E01A142C846A64656D353D05DB1B3EB2B
:1011E000080261EB0E0101FA07F722FA06F3F1405B
:1011F0001F43C5E9007100263146BDE8F087C2F102
:101200002003D8400CFA02FC21FA03F39140014379
:101210004FEA1C471FFA8CFEB3FBF7F007FB1036B2
:101220000B0C43EA064300FB0EF69E4204FA02F45E
:1012300008D91CEB030300F1FF382FD29E422DD9B1
:10124000023863449B1B89B2B3FBF7F607FB1633E6
:1012500041EA034106FB0EF38B4208D91CEB010166
:1012600006F1FF3816D28B4214D9023E6144C91AE6
:1012700046EA004638E72E46284605E70646E3E6F6
:101280001846F8E64B45A9D2B9EB020864EB0C0E00
:101290000138A3E74646EAE7204694E74046D1E70F
:1012A000D0467BE7023B614432E7304609E76444BD
:1012B000023842E7704700BF02E000F000F8FEE7A6
:1012C00072B63A4880F30888394880F3098839486B
:1012D0004EF60851CEF20001086040F20000CCF258
:1012E00000004EF63471CEF200010860BFF34F8F5C
:1012F000BFF36F8F40F20000C0F2F0004EF688514D
:10130000CEF200010860BFF34F8FBFF36F8F4FF035
:101310000000E1EE100A4EF63C71CEF200010860CA
:10132000062080F31488BFF36F8FBFF079FEBFF003
:1013300055FEBEF073FF4FF055301F491B4A9142D6
:101340003CBF41F8040BFAE71C49194A91423CBFE3
:1013500041F8040BFAE71A491A4A1B4B9A423EBF5E
:1013600051F8040B42F8040BF8E700201749184A1B
:1013700091423CBF41F8040BFAE7BFF033FEBEF0E8
:10138000A1FF144C144DAC4203DA54F8041B8847F7
:10139000F9E701F039FA114C114DAC4203DA54F877
:1013A000041B8847F9E7BFF01BBE000000060020C1
:1013B000002200200000010800000020000600209C
:1013C00068CD0F0800220020C82A0020C82A00206B
:1013D00098580120E001010838020108380201088C
:1013E000380201082DE9F04F2DED108AC1F80CD01C
:1013F000C3689D46BDEC108ABDE8F08F002383F3DF
:1014000011882846A0470020BEF0F2FCFEE7BEF09F
:101410009FFB00DFFEE7000001F0FF01102A2BDB3D
:1014200010F0070F08D010F8013B013A8B422DD085
:1014300010F0070F42B3F6D1F0B441EA012141EABE
:10144000014122F007047FF000070023F0E8025674
:10145000083C85EA010586EA010685FA47F5A3FA04
:1014600087F586FA47F6A5FA87F68EB9EED1F0BC75
:1014700001F0FF0102F0070232B110F8013B013A1E
:1014800083EA010313B1F8D1002070470138704797
:10149000002D06BF35460338073815F0010F07D178
:1014A000013015F4807F02BF013015F4C03F0130D8
:1014B000F0BC0138704700BF10F8012B11F8013B58
:1014C000012A28BF9A42F7D0D01A7047034613F872
:1014D000012B002AFBD1181A0138704738B50022B9
:1014E000002304460D46FFF7D9FA28B920462946BD
:1014F000BDE8384000F00AB8204605F1004100F090
:1015000005F8404261EB410138BD00BFD0B50C4B3E
:10151000002206460F46FFF74FF8FFF725FB04466B
:10152000FEF7D0FF074B0022FFF746F802460B46B6
:1015300030463946FEF788FEFFF716FB2146D0BD40
:101540000000F03D0000F04110B503685B68044600
:10155000984708B194F84D0010BD00002DE9F04700
:10156000874B03F5A04790B097F9C82405460E466F
:10157000002A00F0038197F8004534B9814A7DF0D4
:1015800093FE204610B0BDE8F087B3F99C201AB94D
:10159000B3F89A20A3F89C20B3F89C30632B05D8AD
:1015A000794A314628467DF07FFE002400212E2214
:1015B00004A80391C3F0B0FBD7F85404036803AA4E
:1015C0001B6832219847804630B9704A03AB3146D8
:1015D00028467DF069FE4446B7F83034A3F57A73A7
:1015E0009BB241F65832934206D9694B32462021CC
:1015F00028467DF089FC002497F91436002B40F32F
:10160000AA8097F9C835002B40F39980614B324688
:10161000202128467DF078FC00245F49D7F860043B
:10162000322303AA86F012FE804640B903AB009332
:1016300032465A4B202128467DF066FC44465849E4
:10164000D7F85C04322303AA85F076F9804640B9C6
:1016500003AB00933246514B202128467DF054FCC9
:101660004446D7F89036DFF8688113F4802F08F1EC
:101670006C0A25D0D8F80C0203689B69984781460C
:1016800068B9D8F80C32534509D008F1B402934236
:1016900005D0444A314628467DF006FE4C46D8F82F
:1016A0000C3253450CD1B8F86A183F480EF056FF7B
:1016B000814628B93D4A314628467DF0F5FD4C4625
:1016C000D8F80C3253450AD1394833F029F981460C
:1016D00028B9384A314628467DF0E6FD4C46D8F810
:1016E0000C22354B9A4205D1344A314628467DF0CA
:1016F000DBFD0024202128467DF0FEFB00283FF47E
:1017000040AF07F59463D3ED007A9FED2D7AF0EEAC
:10171000E77AF4EEC77AF1EE10FA7FF532AF97F977
:101720001436002B04DD97F86C36002B7FF429AFBC
:10173000244A314628467DF0B7FD002421E797F87A
:101740006C86B8F1000F06D11F4B32462021284687
:101750007DF0DAFB444697F9C835002B7FF75DAF83
:1017600097F8F985B8F1000F7FF457AF174B324661
:10177000202128467DF0C8FB44464EE7012400E7BF
:10178000D02A002094870D08B6870D08DD870D0844
:10179000E8870D08FA870D086B880D086F880D081B
:1017A00081880D0885880D08F87E002093880D0833
:1017B00004730020A7880D08546B0020C0880D0812
:1017C00000000034CC880D0820880D0846880D08DC
:1017D000D06A002038B504467DF082FB154B164DCB
:1017E00093F8AC35014603B938B12B68586D0368DE
:1017F0001B6A9847411E18BF01212D68686D036858
:101800001B68984758F0D2FD6B6D93F89C1057F009
:1018100001FE94F859305BB196F08CFA6B6DD3F8F9
:10182000A030C01AB0F5FA6F24BF002384F85930F5
:1018300038BD00BFD07A0020CC2A002008B5FFF7C1
:10184000C9FF054B05481B685B6D93F89C10BDE80C
:1018500008400EF001B900BFCC2A0020F87E00201D
:10186000034BD3F85C330BB97DF0F4BA0120704719
:10187000D04A00202DE9F341037F04460D4623B1F1
:101880000127384602B0BDE8F08190F90430002B02
:10189000F6D08368002BF3D05D4B1B68586DFFF7C3
:1018A00053FE80460028EBD1294620467EF0BEFB41
:1018B000584E0746294620467DF0D4FD96EDC17A64
:1018C000D6EDC07AB4EEE77A0740F1EE10FAFFB237
:1018D00009D596F9FC32032B05D04F4A29462046FC
:1018E0007DF0E2FC4746B6F9B232B3F5967F05DAF1
:1018F0004A4A294620467DF0D7FC0027B6F9B43283
:10190000B3F5967F05DA464A294620467DF0CCFCA1
:101910000027B6F9B63213F5967F05DD414A294610
:1019200020467DF0C1FC0027B6F9A232042B07DC6B
:101930000522009229463C4A20467DF0B5FC00274E
:10194000D6F8180E64F058FA80B196F9F2326BB1FD
:10195000D6F8183EB6F9F422B3F90E309A4205DAF9
:10196000324A294620467DF09FFC0027DFF8DC80C4
:1019700029462046FFF7F2FDD8F80C2208F16C0347
:101980009A4207EA000709D1B8F86038012B05D858
:10199000274A294620467DF087FC002798F8213207
:1019A0002BB1244A294620467DF07EFC0027224B9D
:1019B0001B782BB1214A294620467DF075FC002773
:1019C000D6F8083D5B050FD5D6F8183EB3F90C30B4
:1019D000A3F2E24292B2B2F5FA7F05D9184A29463B
:1019E00020467DF061FC002798F83838002B3FF442
:1019F00048AF144832F094FF064600287FF441AF08
:101A0000114A294620467DF04FFC374639E700BF92
:101A1000CC2A0020D04A0020E8880D080B890D0848
:101A200026890D0843890D0860890D0880890D08F5
:101A3000A6890D08B8890D083C8E0020CD890D08B7
:101A4000E6890D08047300200E8A0D08D06A002074
:101A5000F0B591B005460E467DF028FE0446D0B1A3
:101A6000AB6813F0110F16D000212E2204A803AF8B
:101A70000391C3F051F91AF021FD32233A460121B6
:101A80001AF0F6F9044630B9044B0097324610219B
:101A900028467DF039FA204611B0F0BD248A0D08A1
:101AA00070B505460E46B1B990F910408CB11C488E
:101AB00013F04AF8DFED1B7AB0EEC00AB4EEE70A85
:101AC000F1EE10FA07D4184A012128467DF0ECFB0C
:101AD0003446204670BD154BD3F80C0203681B69D1
:101AE0009847044628B9124A012128467DF0DCFBBC
:101AF000EFE7AB68002BECD00E4B1B68586DFFF77F
:101B000023FD044630B161F08BFE0B4A04215BF0EB
:101B1000A1FCDEE731462846BDE870407DF0FEBFFF
:101B2000D02A002000000034308A0D08D06A00203E
:101B3000428A0D08CC2A00205D8A0D0838B505467A
:101B40007EF032FB044658B12846FFF777FE0123AA
:101B500085F8593061F064FE024A06215BF07AFC98
:101B6000204638BD808A0D08F8B506460D46174652
:101B7000E2B101291AD82A4809F03CFB044698B181
:101B800000242046F8BD96F91030022B0ED061F0EB
:101B900047FE244A06215BF05DFCF2E7002387F84C
:101BA000C33687F8DE3633E0002DECD03A462946BE
:101BB00030467EF0A7FB04460028E1D01A4DD5F848
:101BC0000C2205F16C039A4203D005F6340033F081
:101BD0002DFCD5F80C02154F0368DB6B9847D7F83E
:101BE000743485F80808012B07D164F0CFF854212C
:101BF00065F0AEF808B9C7F874043046FFF71EFE6A
:101C0000D5F80C220A4B9A42C8D10A4890F050FDF0
:101C10004FF0FF33C5F8443261F002FE064AB9E7DF
:101C2000D02A0020908A0D08D06A0020D07A0020A7
:101C30007C6C002088810020A88A0D082DE9F04FD7
:101C40002DED028B91B0804689467DF06FFA0746F4
:101C5000424832F017FF58B1414B93F9C7423CB9A3
:101C6000404B4A464FF4804140467DF04DF92746AF
:101C70003D4E96F80035002B6AD0A6F580531C2205
:101C8000002102A8B3F860A8DFED388AC3F044F859
:101C900004A81FF067FBA6F2CC7B0125A6F5005631
:101CA000554555D20BA81FF05DFB09AA2946584699
:101CB00031F042FB00284BD0BDF8263023F0400322
:101CC0009BB2152B35D1BDF80A30102B31D104A9A8
:101CD0000BA81FF023FEB0EE408A96ED0E0AB4EE7C
:101CE000E80AF1EE10FA08DA1D4B9FED210AD3ED58
:101CF000AA7AF8EEE77A27EE800A20EE000A1D485D
:101D00000EF04AFCF6EE087A60EE277AB4EEE78A27
:101D1000F1EE10FA0DD517EE900AFEF7F5FB164B13
:101D2000CDE900014A464FF4804140467DF0ECF891
:101D3000002709AC0FCC0DF1080CACE80F0094E8BB
:101D40000700ACE8030001358CF80020ADB2A7E72E
:101D5000384611B0BDEC028BBDE8F08F0473002053
:101D6000D04A0020BC8A0D08D07A00200000003440
:101D70000AD7233CF87E0020E88A0D0816F0CABA7C
:101D80006FF0B0BB75F08EBC69F0D2BE63F07EBF61
:101D90002BF078B957F0A8BC09F072BB55F0D0BD54
:101DA0000CF0F6BE14F020BA04F016B854F082B865
:101DB0001EF066BB67F0D4B966F03ABE14F06CBA98
:101DC00012F024BF4AF058B91DF08CB91DF026BEA0
:101DD0006BF00EBB63F0ACBC61F0AAB908F096BD25
:101DE00005F08ABD0CF0B8B90CF03CBE08F034BC6C
:101DF00014F016B814F00EBB12F05EBD14F042B928
:101E000001F0AEBF00F2AC5022F0D6BC09F0D6B85B
:101E100090F8D022B02302FB0333034490F87623DA
:101E20005B7812B1012B28BF0123184670470000D0
:101E3000034690F8D80018B193F8F400C0F34000BE
:101E400070470000034808603021117008221A60B2
:101E5000704700BF08900D0870B5044600F5A74014
:101E6000443004F5AC56FFF7B5FC0021304619F0BC
:101E700009FD8021204614F047FD18B12CF070FEBA
:101E80002AF070FD04F5005504F5AC40B5F9B23206
:101E9000C5F8303FB5F9B632C5F8343F0C3014F010
:101EA00015FF08BBD5F8303F96ED917A07EE903AD2
:101EB000F8EEE77A67EE877AFDEEE77A17EE903A6A
:101EC000C5F8303FD5F8343F96ED907A07EE903A5A
:101ED000F8EEE77AB0EEC77A67EE877AFDEEE77A3A
:101EE00017EE903AC5F8343F304619F0B3F905467D
:101EF000304619F0B3F900F11801284630F02AFDF8
:101F000004F58E4594ED407AD5ED177AE7EE007A28
:101F1000C5ED177AB0EE670A2DF0A6FB04F5A840D0
:101F200085ED170A28300DF07DFB04F5A84000214F
:101F3000343080F071FD4FF40011204614F0E4FCC1
:101F400020B13046BDE8704018F092BC70BD000072
:101F5000FFF782BF10B500F580430446D3F80C02AA
:101F60000368DB6B984718B104F53F5080F0B8FC6C
:101F700004F5A844283420460FF04EFD18B9204639
:101F8000FFF756FF20B12046BDE8104010F0CABC54
:101F900010BD0000FFF7DEBF38B54FF480110546D5
:101FA00014F0B2FC044620B90121284614F0ACFC20
:101FB00004460221284614F0A7FC48B114B928466B
:101FC00003F040FE05F5AC50BDE8384018F036BBD4
:101FD000002CF7D138BD0000FFF7DEBF38B54FF455
:101FE0008011044614F090FC01210546204614F0AF
:101FF0008BFC18B115B9204603F024FE10212046B1
:1020000014F082FC30B1204603F0F4FE2CF0A8FD61
:102010002AF0A4FD2021204614F076FC28B12046A9
:1020200003F0A4FF204604F0B9F84FF40051204615
:1020300014F06AFC10B1204604F096F88021204686
:1020400014F062FC28B12CF08BFDBDE838402AF07A
:10205000ADBC38BDFFF7C2BF00F5804300F5A4401A
:10206000D3F8301240307CF065BD0000FFF7F4BFBC
:1020700010B5044622F09EFE90F921308BB190F805
:10208000403373B194F9D0355BB1064B1B685B6D7F
:1020900093F89C302BB904F2AC50BDE8104022F00C
:1020A0004BBB10BDCC2A0020FFF7E2BF2DE9F04169
:1020B00000F5015600F500551036044695F89611C6
:1020C000304617F091FE002854D004F58477384646
:1020D000FFF79EFE02284DD994F8D8234FF0B008A0
:1020E00008FB024292ED757AF1EE007AB4EEE77ADF
:1020F000F1EE10FA3ED495F89611304618F0FAF841
:10210000B5F9A23207EE903AB8EEE77AB4EEC07AAB
:10211000F1EE10FA0CDD94F8D83308FB0343F8EE27
:10212000677A93ED757AF4EEC77AF1EE10FA21DC56
:1021300004F58052D5F8301FD2F87C37002BB8BF99
:102140005B428B4216DCD2F88037B5F9B422934259
:1021500010DCD5F8342F93420CDB94F8D813B5F982
:10216000A422B02303FB01713046E431BDE8F04105
:1021700017F0C4BCBDE8F081FFF798BF38B504463E
:1021800000F5847025F0EAFF04F5AC5504F5A5418F
:102190005031284619F0A4F904F5804304F5A6410E
:1021A00083F83D0204F5A0440C31284619F0BCFF29
:1021B000D4EDC37AF1EE677AC4EDC37A38BD00007E
:1021C000FFF7DCBF2DE9F04190F8D8332D4D00EB3F
:1021D00003132F68D3F88C8100F5847604463046CB
:1021E000FFF716FE474514D0022814D904F580479E
:1021F000C5F8008097F83C32012B15D817D104F5AB
:10220000A045D5F8D832E3B9D5F8DC32CBB90523EF
:102210000BE0022810D804F5804393F83C225AB111
:10222000052283F83C2207E0013B87F83C3204F5A5
:10223000C6501C301BF038FC2046BDE8F0410CF0C5
:1022400099B9114B1B68586D03685B6898478046C5
:102250000028ECD194F8D813B02303FB0161BC3102
:10226000204606F00DFCD5F8BC320FCB05F53076D4
:1022700005F5387586E80F0085E80F0087F83C8281
:10228000D5E700BFC82A0020CC2A0020FFF79ABF5C
:1022900070B500F5A043044693F8003500F580566C
:1022A0004BB100F5AC400C3015F00CF818B101231F
:1022B00086F8D93817E004F5A845283528460FF0E8
:1022C000ABFB88B92846FFF7B3FD68B904F5804336
:1022D000D3F81038042BEAD104F5A340383089F044
:1022E000C3F886F8D90870BD0023E1E710B500F502
:1022F00080442346D4F80C226C339A421CBF4FF022
:10230000FF33C4F85437FFF7C3FFD4F80C02036857
:10231000BDE810405B691847FFF7E8BF70B500F5EE
:1023200080460446D6F810388B420D461CD00B1F51
:10233000594200F5A3405941383088F08FFF072DEE
:102340000BD104F55750D6F864276423052192FB7E
:10235000F3F33830054A5BF07DF8C6F81058204694
:10236000BDE8704003F06ABE70BD00BF708B0D0801
:1023700070B500F580450446D5F80C020368DB6BA8
:102380009847A0B195F808388BB9D5F80C222B46A0
:102390006C339A424ED104F5A846283630460EF0EA
:1023A0003DFF60B995F895377BB9012108E004F548
:1023B000A845283528460FF02FFB002840D00221E1
:1023C0002046BDE87040FFF7A9BFB5F86A38152B65
:1023D00029D104F5A04393F8BC1111F0010120D1DB
:1023E000D5F81028072A1CD093F932320BB90421F2
:1023F000E6E7204612F0A8FBDFED127AB4EEE70A1A
:10240000F1EE10FAF3DB04F5A340383088F076FFE4
:102410000028ECD004F557500B4A062138305BF009
:1024200019F80721CCE73046FFF702FD0028C6D196
:102430000321C5E704F5834344339A42F8D170BDC4
:102440002846F1E70000B442948B0D0810B52DED3D
:10245000028B00F580430446D3F81038042B0BD1CF
:1024600005F0BAFC2046B0EE408A05F0CBFD38EE10
:10247000400ABDEC028B10BD00F5A04494EDC30AE8
:10248000F7E700002DE9F0412DED028B044600F541
:10249000906504F5A0468AB028461CF003FC96F827
:1024A000003533B12846D6F854741CF0ADFA87EDE8
:1024B000140A002307A904F5AC5007930893099365
:1024C00019F092F8002876D09DED090ADFED517AD7
:1024D00004F5804505F2747393ED007A20EE270A27
:1024E000DFED4D7AA7EE270A204683ED000AFFF7BD
:1024F0003FFFD5F80C020368DB6B9847002855D0E6
:1025000095F80838002B51D1D5F81038042B69D034
:102510009FED428A204605F095FDC6F8A008D5F843
:102520000C2204F5814304339A421CD196F85033AF
:10253000CBB904F50053B3F9F83D002B04DC384A5D
:10254000D2F8082DD2060ED5D6F8BC12D6F8C42281
:1025500049680A33521A64214B438242ACBF9B182C
:102560001B18C6F8A038D5F81038D6F8A018D5F83A
:102570004022059120460492039315F07DFDB5F9A4
:102580004E7206462046FFF761FFCDE9006705F66B
:102590002C05F0EE400ADDE9033295ED001A0599AD
:1025A000B0EE480A04F53F507FF044FD0AB0BDECA0
:1025B000028BBDE8F08104F58470FFF729FC022846
:1025C0000AD994F8D833B02202FB034393F80822C7
:1025D00012B193ED7D0A79E728461CF03FF9B1EE80
:1025E000400A73E704F5A54704F5A548503708F1FC
:1025F000600804F5A5414246403138461FF044F9D1
:10260000002885D0414638461FF088F9B0EE408A50
:1026100080E700BFCDCC4C3ECDCC4C3F000000004D
:10262000D04A0020FFF72EBF2DE9F04100F580478A
:1026300000F58143D7F80C2268339A4204460E46CF
:1026400025D000F5A84808F1280840460FF0E4F925
:102650000546B0B140460DF067FF78B104F5A044DF
:10266000D4F8640403689B689847DFED0A7A20EE8B
:10267000270A86ED000A2846BDE8F0819FED060A8C
:10268000F7E707F27C7701253B683360F3E7002525
:10269000F1E700BF0AD7233C00000000F8B500F5C1
:1026A000804200F58143D2F80C2268339A420446F6
:1026B0000E4630D000F5A847283738460FF0ACF961
:1026C0000546A8B138460DF02FFF70B104F5A044BF
:1026D000D4F864040368DB68984707EE900AF8EEC4
:1026E000E77AC6ED007A2846F8BDDFED0C7AF8E708
:1026F00004F540540125D4F8080803681B6998477D
:1027000007EE900A9FED067AF8EEE77A67EE877A91
:10271000C6ED007AE7E70025E5E700BF000000000E
:102720000AD7233CF8B500F5804200F58143D2F882
:102730000C2268339A4204460E4624D000F5A8477E
:10274000283738460FF068F9054688B138460DF04D
:10275000EBFE50B104F5A044D4F86434186984F059
:10276000CDFE86ED000A2846F8BD9FED080AF8E781
:1027700004F540540125D4F8080803685B699847BC
:1027800086ED000AEFE70025EDE700BF000000003E
:1027900070B5044600F5A84028300E4615460EF0E8
:1027A00027F850B104F5A044D4F880369B682B601C
:1027B000D4F880365B68336070BD04F5805303F253
:1027C000747203F5EE6312682A601B68336004F5C7
:1027D0000054D4F8083D9B05EED4B4F93033DFED56
:1027E000086A07EE103AF8EEC77A9FED067A27EEF0
:1027F000677AD5ED007AE7EE267AC5ED007ADBE759
:1028000035FA8E3C0AD7233C38B5054B1C68236843
:102810000A461D68034B01462046A847002038BDE4
:10282000CC2A0020D02A002070B52DED028B044662
:10283000036804F50055DB6B9847D5F8083D1B0687
:1028400017D5B5F9A232B5F9A412CA1A0B4402EB96
:10285000D27203EBD37352105B1000EE902A00EE9D
:10286000103AF8EEE00AB8EEC00A04F5AC5019F0E0
:10287000DFF9B5F8C2224D4B4D4E1A7004F5A7454D
:10288000443564F069FF00212846FEF7F3FF012379
:10289000B0712846F3717CF023FB28B928467DF0FF
:1028A000A9FBB0FA80F0400930710421204614F0F1
:1028B0002BF820B104F592401C3054F0DFFF28467D
:1028C0007CF00EFBE0B994F8D83304F5A04504EB96
:1028D000031341F28832D3F88C61D5F85433F31ADC
:1028E00093420DD904F58470FFF792FA022807D9B4
:1028F000C5F85463204606F067F80023C5F8B831E0
:10290000B4F99C301BB9B4F89A30A4F89C30B4F8F0
:102910009C30DFED288A07EE903AF8EEE77AB7EEC2
:10292000008A88EE270AD4ED297AF0EEE77AF4EEF1
:10293000E87AF1EE10FA09D5B4F99A3007EE903A38
:10294000F8EEE77A88EE277A84ED297AD4ED290A21
:102950002CF08CFD58B955F0F1FDBDEC028B4FF415
:10296000AC72BDE870404FF4801155F09DBDD4EDC0
:10297000297A94ED400AF0EEE77AF4EEE87AF1EE87
:1029800010FA09D5B4F99A3007EE903AF8EEE77AE2
:1029900088EE277A84ED297AD4ED290A2CF066FD99
:1029A0000028D8D0BDEC028B70BD00BF682200208B
:1029B0002584002000000034FFF736BF70B500F515
:1029C000A046044696F93032002B2ADD08F012FCAE
:1029D00038BB04F5A745443528467DF00BFB00B312
:1029E00028467CF07DFAE0B195F0A4F904F5804327
:1029F0004FF47A72D3F88437C01A96F930325343C1
:102A000098420ED301221C212846FFF7ADF840B1B1
:102A100004F55750034ABDE87040062138305AF09B
:102A200019BD70BDB48B0D0800B52DED028B9FED67
:102A30000B8AD0ED407A67EE887A83B0C0ED407A99
:102A40003830019073F078FF019820EE080A03B047
:102A5000BDEC028B5DF804EB74F00CB952B87E3F0C
:102A600000B52DED028B9FED0B8AD0ED417A67EE1C
:102A7000887A83B0C0ED417A3C30019073F05CFFFE
:102A8000019820EE080A03B0BDEC028B5DF804EB60
:102A900074F0F0B852B87E3F30B52DED048B83B0A2
:102AA000044601A900F5AC5019F0C6FB002800F05F
:102AB000B08004F58E43D3ED1B7A9DED017AF4EEE0
:102AC000C77AF1EE10FA03F16C0307D5624A126877
:102AD000526D92F89C200AB183ED007A04F50055FE
:102AE000D5EDB96AB5F9A232052BB8BF052307EEBB
:102AF000903AB5F9A432F8EEE78A07EE903AF8EE8C
:102B0000E77AB6EE009A77EEA77A1820C6EEA70A03
:102B1000DFED527A68EEA77AF4EE490A86EEA71A3C
:102B2000F0EE007AF1EE10FAB4EE671AC8BFF0EEDC
:102B3000490AF1EE10FA48BFB0EE671ADFED487AA5
:102B4000B4EEE77AF1EE10FACCBF86EE870AB0EE6B
:102B5000410A2CF09DFD04F5A8402830B0EE408AD3
:102B60000EF05AFFB8B33C4B1B685B6D93F89C307A
:102B70008BB328EE892A9DED011AB4EEC21AF1EE4C
:102B800010FA28D5D5EDB90ADFED361A9FED360AD1
:102B9000C0EE820A2CF0AEFC04F548502030B4EEB2
:102BA000408AF0EE408AF1EE10FA48BFF0EE488A13
:102BB000FFF73AFF04F54C50383004F55154FFF755
:102BC0004FFFD4ED4E7A9FED297A67EE877AB0EE0B
:102BD000688AC4ED4E7A264818F0F6FF98B9254B5E
:102BE000D3F8082D52060ED503F50053D3F810384C
:102BF000012B08D1F7EE007AB4EEE78AF1EE10FA75
:102C000058BFB0EE678AB0EE480A03B0BDEC048B43
:102C100030BD114B1B685B6D93F89C30B7EE008A9A
:102C2000002BD8D0462064F0AFFBB4EEC80ADFED2D
:102C3000127AF1EE10FAD8BFB0EE480A87EE800A99
:102C4000BFF0BEFF2F209FED0D1ADFED0D0A2CF017
:102C50001FFDB0EE408ABEE7CC2A00203333333F5D
:102C600017B7D138000000006F12833A52B87E3F88
:102C700050400020D04A0020000034428FC2D53F8F
:102C80009A99193FF8B5044663F080F803689B6889
:102C90009847054610B900252846F8BD04F580463A
:102CA000204608F079F9D6F80C2204F58243603307
:102CB0009A42074605D104F5A04393F8A835022BA4
:102CC000E9D804F5A84028300FF006FF0028E2D12B
:102CD000D6F80C020368DB6B984758B996F8203297
:102CE000002BD9D004F5005494F9FC52023D18BFD2
:102CF0000125D1E7084BD3F80C0203689B6B98477A
:102D00000028EBD004F5005494F93933002BC2D0DD
:102D1000032BC0D03D46BFE7D06A002030B52DED73
:102D2000028B044600F5A84083B02830B0EE408AFC
:102D30000EF09CFF04F54855203570B304F5804330
:102D400004F57E52D3F80C123832914223D104F5A7
:102D50000052D2F8102EB2F90820003A18BF012212
:102D600004F58054D3F82418D4F87C0793F820385D
:102D7000091A33B1174BD3F8083D83F40063C3F34A
:102D8000C023B0EE480A284603B0BDEC028BBDE874
:102D900030407BF041B80022E2E704F5A044D4F8CB
:102DA0005C0403689B689847DFED0B7A90ED230A7B
:102DB000F0EE480A20EE270A28467BF029F828463C
:102DC0008DED010AFFF730FE9DED010A03B0BDEC69
:102DD000028B30BDD04A0020E02E654213B5044678
:102DE0008DED010A07F0ECFC9DED010A98B104F5A8
:102DF0008042D2F8243803F58C415031C2F82418AF
:102E000004F58051D1F87C170029BEBFA3F58C438F
:102E1000503BC2F824382046FFF780FF042002B060
:102E2000BDE8104064F09CBA2DE9F04700F5A845D4
:102E300028352DED028B04462846F0EE408A0EF030
:102E400015FF04F54C563836002860D004F580474D
:102E500004F5005828460DF095FBB8F93033D7F843
:102E60002828134407EE903A81464620B8EEE78AB8
:102E700064F08AFAD8EDB57AD7F80C02A0EE278A6A
:102E800004F57E5338339842FDEEC87A17EE905A17
:102E90003AD1D8F8143EB3F90880B8F1000818BF49
:102EA0004FF00108B9F1000F15D103689B699847ED
:102EB00088B9D7F80C020368DB6B984758B904F55A
:102EC000A049D9F89838022B05D1204611F09CFC76
:102ED00008B1B9F9105297F8203804F58054D4F8A5
:102EE0008017691A33B1194BD3F8083D83F4006396
:102EF000C3F3C023B0EE680ABDEC028B42463046F5
:102F0000BDE8F0477AF0E6BC4FF00008CAE704F5E8
:102F1000A044D4F85C040368DB689847DFED0C7AC2
:102F200090ED230AF0EE680A20EE270A30467AF088
:102F3000EBFB3046B0EE408AFFF792FDBDEEC80ACB
:102F4000BDEC028BB8EEC00ABDE8F087D04A002085
:102F5000E02E654213B504468DED010A15F09CF98B
:102F60009DED010A70B100B200EB4000C0EB001310
:102F700000EE103AB8EEC00A132002B0BDE81040CF
:102F800064F0EEB92046FFF74FFFF5E770B5044651
:102F9000FFF778FE00285CD004F5804504F57F52E9
:102FA000D5F80C322832934253D0AB4251D06C3218
:102FB00093424ED03C3A93424BD01832934248D081
:102FC00004F58242934244D01832934241D004F532
:102FD0008242303293423CD004F5824248329342DE
:102FE00037D004F582426032934232D004F58242F7
:102FF0007C3293422DD004F583422C32934228D068
:1030000004F57F521032934223D004F50056042079
:1030100064F0BAF9D6F8100E63F0CEF8042064F02C
:103020009FF904F58144D5F80C321C34A34204D135
:10303000084BD3F8083DDB040BD4132064F0A4F94B
:10304000D6F8140E63F0B8F8BDE87040132064F0B1
:1030500087B970BDD04A002070B52DED028B0446B3
:10306000FFF710FE002800F0BB8004F5804504F552
:103070007F52D5F80C322832934200F0B180AB4237
:1030800000F0AE806C32934200F0AA803C3A93424A
:1030900000F0A6801832934200F0A28004F582422C
:1030A000934200F09D801832934200F0998004F51D
:1030B00082423032934200F0938004F582424832DB
:1030C000934200F08D8004F582427C32934200F0FE
:1030D000878004F583422C32934200F0818004F50E
:1030E0007F52103293427BD004F50056F6EE008AF0
:1030F000D6F8100E62F014FFB4EEE80AF1EE10FA02
:1031000071DDB0EE087AFFEE007AE0EE077AB0EEFD
:10311000670AD6F8302FD5F8243807EE902AB8EE93
:10312000E77A07EE903AF8EEE77A5142E7EE007A56
:10313000FDEEE77A17EE900AC5F824082CF048FB5C
:10314000D5F80C22C5F8240804F581431C339A42B3
:1031500004D1314BD3F8083DDB0441D4D6F8140E2A
:1031600062F0DEFEB4EEE80AF1EE10FAB0EE408A4C
:1031700045DDB0EE087AFFEE007AE8EE077AB0EEB1
:10318000678A204607F01CFB08B1B1EE488AD5F8E3
:103190002838B6F9B422D6F8341FB5EEC08AF1EE5D
:1031A00010FACCBF07EE102A07EE101A07EE903A7D
:1031B000C8BFB8EEC77AF8EEE77AD6BFB8EEC77ADE
:1031C000E7EE087AE7EE487AFDEEE77A17EE903AF6
:1031D00017EE900AC5F828382CF0FAFAC5F8280836
:1031E000BDEC028B70BDFEEE007AB4EEE70AF1EEA4
:1031F00010FA8ED5B0EE087AF7EE007A85E7FEEE8B
:10320000007AB4EEE70AF1EE10FABAD5B0EE087A19
:10321000F7EE007AB1E700BFD04A00202DE9F04F69
:103220002DED0C8B012197B0044600F58E46B0EED3
:1032300040BA11F0CBFA01212046F0EE408A11F09D
:10324000CFFA01212046B0EE408A11F0D3FADFED2B
:10325000DD7A9FEDDDDA9FEDDD9A88EEA77A04F541
:1032600000572836B7F9143301A804F580450DF14D
:10327000280B0AEE903AF8EEEAAAB7F91633DFED1A
:10328000D48A6AEE87AA88EE277A0AEE103AB8EE58
:10329000CAAAB7F918339FEDCF8A2AEE07AA80EEA3
:1032A000277A09EE903AF8EEE99A6AEE8D7A69EE9D
:1032B000879AF0EEEACAF4EEC8CACDED017AB0EE14
:1032C000CACA6AEE0D7AF1EE10FAF0EEE9BAB4EE7F
:1032D000C8CACDED027A58BF4FF0010A69EE8D7A67
:1032E00048BF4FF0000AF1EE10FAF4EEC8BA94EDC0
:1032F000400ACDED037A54BF4FF001094FF00009A9
:10330000F1EE10FA54BF4FF001084FF000082FF013
:10331000F9FA01A930462EF047FF30462FF036F873
:1033200030462EF0ADFF20EE090A304620EE280A86
:10333000BDEEC00A10EE103AC5F824382EF0BAFFE0
:1033400020EE090A594620EE280ADFEDA38ABDEED9
:10335000C00A04F5AC5010EE103AC5F828384FF00A
:103360007E530A93CDED0D8ACDED0C8ACDED0B8AFF
:1033700018F0F2FA0021204611F0E6FBB0EEC00A88
:10338000B4EEC80AF1EE10FA18D5204607F032FF65
:10339000A0B9F4EEC8CAF1EE10FA0FD5B4EEC8CA5F
:1033A000F1EE10FA0AD5F4EEC8BAF1EE10FA42BF07
:1033B0009BE80F0005F5E56C8CE80F0058462FF0F0
:1033C00049F8314612A88DED141A8DED120ACDED93
:1033D000130ACDED151A2FF04FF80DF1100B5946C9
:1033E0000EA88DED101ACDED048ACDED058ACDED38
:1033F000068A8DED0E0ACDED0F0ACDED111A2EF0D5
:103400000DFEB7F91433DFED757A01EE103AB7F916
:10341000163309EE103AB7F9183308EE903AB8EEC1
:10342000C11AB8EEC99AF8EEE88A21EE271A29EEF9
:10343000279A68EEA78AF4EEC8CAF1EE10FA21EED8
:103440000D1A29EE0D9A68EE8D8A07D595F8383752
:10345000DFED617A002B18BFB0EE671AB4EEC8CA70
:10346000F1EE10FA07D595F83937DFED5B7A002BCE
:1034700018BFB0EE679AF4EEC8BAF1EE10FA07D5AD
:1034800095F83A37DFED547A002B18BFF0EE678AD3
:103490009BE8070007AF87E80700F1EE410A40F21A
:1034A00022209DED070A2CF0F3F840F223208DED49
:1034B000070AB0EE491AF1EE490A9DED080A2CF010
:1034C000E7F8B0EE681AF1EE680A8DED080A4FF4DD
:1034D00009709DED090A2CF0DBF8594638468DED50
:1034E000090A2FF0A5F9304612A98DED120ACDED8B
:1034F000130A8DED141A2EF057FE304604F540568F
:103500002EF044FFDDED076A96ED897A9FED2F0AD4
:10351000C6EE877A3846DDED086ACDED077AD6ED3E
:10352000CF7A86EEA77ADDED096A8DED087A86EE10
:10353000A77A8DED097A2FF0E5F9BAF1000F01D0E5
:10354000CDED07AAB9F1000F01D08DED08AAB8F1B1
:10355000000F01D0CDED099A04F54850F0EE4B0A6A
:103560009DED070A20307AF053FC042063F0F8FE4A
:1035700004F54C50F0EE4B0A9DED080A38307AF015
:10358000C3F8132063F0ECFE04F551509DED090AD9
:103590000021F0EE4B0A14307BF024F8BDEEC00A97
:1035A00010EE103A1BB2A6F8F235A6F8F03585F801
:1035B00038A785F8399785F83A8717B0BDEC0C8B9A
:1035C000BDE8F08F00A08C4535FA8E3CE02E6542B8
:1035D0000000C8420000003400000000CDCC4C3E8A
:1035E00010B52DED028B00F5005393F99F32012B9E
:1035F00008DC9FED160ABDEC028B4620BDE81040AA
:1036000063F0AEBE00F53F5300F5804093ED2B8A8A
:10361000D0F80C029FED0E0A03685B6A28EE008A60
:10362000984780B10B4CD4F8C03763B194F082FB5B
:10363000D4F8C037C01A40F6B73398429CBF04F2A2
:10364000BC7494ED008AB0EE480AD4E70000000094
:103650000000C842D06A00202DE9F8432DED028B0E
:103660000546F0EE408A10F0F7FE05F58044074667
:10367000D4F80C0203685B6A984705F5405690B190
:10368000DFF86481D8F8B837002B0CDD94F052FBDA
:10369000D8F8B837C01A40F6B733984203D8B8F90B
:1036A000AC0700247BE0D4F80C2205F580435433AA
:1036B00005F551599A4205F5005809F1140906D14A
:1036C000B8F91833002B02DD96F96A34F3B905F521
:1036D0007E5338339A4273D00021B0EE680A4846D0
:1036E0007AF022FE0446042063F04EFE23B207EE79
:1036F000903A98EDB37AF8EEE77AE0EE077AFDEECD
:10370000E77A17EE903A3B4418B2CAE701212846FF
:1037100011F070F89FED2E7AB8F91833C0EE077AE1
:1037200004F5036408EE103A54F80C3C9FED290AA6
:10373000B8EEC88A28EE278A07EE903AF8EEE77AC4
:1037400067EE807A9FED240A27EE800ABFF05CF8CE
:10375000B8F9A232DFED217A94ED007A20EE270A43
:1037600007EE903AF8EEE77A4846B4EEE77AF1EEE3
:1037700010FA58BFF0EE477A80EE277A0021012434
:10378000DFED177AB0EE480AA7EE270AF0EE680AD6
:103790007AF028FFBDEEC00A10EE103A18B21149B7
:1037A00041F294122CF024F8A6F8F20564B9BDECAD
:1037B000028B05F551501430BDE8F8437BF018B882
:1037C000391E18BF012188E7BDEC028BBDE8F883E4
:1037D00000A08C450AD7233C35FA8E3C0AE81C41F0
:1037E000E02E65426CEEFFFFD06A00202DE9F84321
:1037F0002DED048B00F50056044696F91A33022B82
:10380000B0EE408A00F540570CD1B6F91833002BC2
:1038100008DD97F96A342BB1BDEC048BBDE8F843A1
:10382000FFF7FCBC0121204610F0D0FFDFED769AB7
:10383000F0EE408A0121204610F0D2FFC8EEA97AAE
:10384000B6F914337149724804F5485804F58045B7
:1038500008F1200809EE103AB8EEC99AB6F9163305
:1038600029EE279AC0EE297A08EE903AF8EEE88A17
:1038700068EEA78A18F070F896F91A3343B19FEDF5
:10388000657AF0EEC97AF4EEC77AF1EE10FA42D416
:10389000002385F81C37F0EE480AB0EE490A40468E
:1038A0007AF0B6FA042063F05BFD96F91A3304F55A
:1038B0004C50383043B19FED577AF0EEE87AF4EE91
:1038C000C77AF1EE10FA5FD4002385F81D37F0EEC9
:1038D000480AB0EE680A79F017FF132063F040FD44
:1038E000204610F0B9FDA7F8F005B6F91833002B03
:1038F00003DD97F96A34002B5FD1474BD3F8083DBD
:103900009B067DD5B0EE480ABDEC048B2046BDE891
:10391000F843FFF7A1BE95F81C3705F5E46923BB12
:10392000012385F81C370023C9F8003005F5E4634E
:1039300093ED007ADFED397A67EEC77A9FED387A3A
:1039400067EE877A04F58053FDEEE77AD3F87C378B
:1039500017EE901A0B44C5F8243801220023B0EE6C
:10396000480A40467AF058FA9CE704F5AC5017F044
:1039700071FC94ED407AD0ED006AD9ED007AE6EE64
:10398000877AC9ED007AD1E704F58053D3F8801720
:1039900095F81D3723B9012385F81D37C5F824177D
:1039A000D5F824C7C5F828C800231A46B0EE480A3F
:1039B000ACEB010179F08EFF8FE70121204610F07A
:1039C00019FF80EE297AB6F9183304F55150002119
:1039D000143007EE903AF8EEE77AF0EE480A27EE58
:1039E000870A7AF0FFFDBDEEC00A10EE103A1BB256
:1039F000A7F8F235A7F8F035BDEC048BBDE8F883E5
:103A0000A7F8F205F8E700BF00A08C45F871002088
:103A10005040002000000034D04A0020E02E6542D3
:103A20000000C84238B500F540550446D5F80808EE
:103A30000368DB689847014604F5565010307AF069
:103A400009FCA5F8F0052046FFF71CF988B1B5F987
:103A5000F03504F5005400EE103AD4F81C0EB8EE20
:103A6000C00A62F0A9FBBDEEC00A10EE103AA5F83C
:103A7000F0350549B5F9F00541F294122BF0B8FE86
:103A8000A5F8F00538BD00BF6CEEFFFF70B590F8EB
:103A9000D833B02202FB030393ED757AF7EE007A78
:103AA000B4EEE77AF1EE10FA054600F5804400F531
:103AB00040561ED5002111F047F8DFED437AB0EEF5
:103AC000C00AB4EEE70AF1EE10FA12D5D4F81038B5
:103AD000012B0ED0072B0CD0002384F8583704F2AA
:103AE0005C7400232360284610F0B6FCA6F8F005AD
:103AF00070BD94F01FF9D4F86037C4F86007C31A9A
:103B0000B3F57A7F84BF002384F85837284610F035
:103B1000A3FCD4F81038012B07EE100A2FD0072B86
:103B20002DD0B8EEC77ADFED296AC7EE267A05F503
:103B30000052B2F9DC2200EE102AB8EEC00A27EEDD
:103B4000800ADFED217AB0EEC07AB4EEE77AF1EECA
:103B500010FA16D4002384F8583794F8583705F52E
:103B600056501030EBB97AF057FAA6F8F00518491C
:103B7000B6F9F00541F294122BF03AFEB6E79FED4C
:103B8000150A94F85827002AE7D10122934284F8B5
:103B90005827E2D0072B1EBF04F25C7300221A6084
:103BA000DBE704F25C7494ED007ADFED0B7A67EEEC
:103BB000C77A9FED0A7A67EE877AFDEEE77A17EE0D
:103BC000901A7AF047FBD0E70000003400A08C4543
:103BD0006CEEFFFF00000000E02E65420000C842CE
:103BE00070B500F5A34538352DED028B0446284607
:103BF000B0EE408A87F068FA04F54056C0B1012360
:103C000086F8EE35284687F05FFAB8BB04F58042A7
:103C100096F8EE35D2F85427013229D073BBB0EEB6
:103C2000480ABDEC028B2046BDE87040FFF714BD8A
:103C300004F50053D3F8102EB2F9082072B904F538
:103C4000A042D2EDC37A93EDB67AF0EEE77AF4EEC5
:103C5000C77AF1EE10FA4CBF0120002086F8EE057D
:103C6000284687F045FA0028CCD186F8EE05C9E74A
:103C7000002BD4D02046FFF709FFD0E72046FFF7FE
:103C8000D1FECCE770B500212DED048B0446B0EEDB
:103C9000409A10F09BFD04F5405500212046F0EEBF
:103CA000408A10F09DFD95F8EC35B0EE408AABB13E
:103CB000B0EE680A042063F053FB95F8ED3573B35A
:103CC000B0EE480A132063F04BFBB0EE490ABDEC9E
:103CD000048B2046BDE87040FFF782BF04F58046A4
:103CE000B0EE490A2046FFF779F8D6F82438002BC1
:103CF0000CDCD6F82438002BDFDA042063F044FB18
:103D0000B4EEE80AF1EE10FAD2D4D6E7042063F05C
:103D10003BFBB4EEE80AF1EE10FAEADDC8E704F581
:103D20008045B0EE490A2046FFF714F9D5F8283847
:103D3000002B0CDCD5F82838002BC6DA132063F0F2
:103D400023FBB4EEC80AF1EE10FAB9D4BDE7132094
:103D500063F01AFBB4EEC80AF1EE10FAEADDAFE741
:103D60002DE9F0412DED028B00F5804500F58143F2
:103D7000D5F80C2268339A4282B004460BD1002356
:103D800085F8583705F25C7500232B6002B0BDEC56
:103D9000028BBDE8F08104F5A04795ED968A93F07B
:103DA000C9FF01238DF8073097F8003506466BB13F
:103DB000D7F81805036804F5904204F59041D3F84C
:103DC000208024320DF107032831C047D5F81C327A
:103DD000F31AB3F5FA6F15D904F5485020307AF08C
:103DE0005DF804F54C50383079F024FE04F551505C
:103DF00014307AF0F1FC002385F8583705F25C7333
:103E000000221A60D5F80C02C5F81C6204F57F5335
:103E10001033984255D1B0EE480A2046FFF732FFE2
:103E20000021204610F090FEDFED587AB0EEC00A77
:103E3000B4EEE70AF1EE10FAA8D5D7EDC37AB1EEE9
:103E4000047AF0EEE77AF4EEC77AF1EE10FA9DD537
:103E500004F590601AF002FDF6EE007AB0EEC00AAA
:103E6000B4EEE70AF1EE10FA90D504F5AC55284609
:103E700017F0C4FDF0EE087AB4EEE70AF1EE10FA9E
:103E800084D504F5485020307AF008F804F54C50F9
:103E9000383079F0CFFD04F5515014307AF09CFCA5
:103EA000284617F0ABFDF7EE007AB4EEE70AF1EE24
:103EB00010FA7FF56BAF04F5565010307AF0E8F940
:103EC00064E704F57F532833984205D1B0EE480AE1
:103ED0002046FFF78BFCA3E703689B699847F0B186
:103EE00004F5AC4031460C3013F046F9B8B9284D12
:103EF000D5F80C0203681B689847D5F80C020368D4
:103F00005B6898471728E1D0B0EE480A2046FEF7D4
:103F100065FFB0EE480A2046FFF71CF880E79DF8E1
:103F2000073013BBB0EE480A2046FEF757FFB0EE4D
:103F3000480A2046FFF70EF89DF807307BB104F5DC
:103F4000005393F93933022B06D0D5F80C2204F52F
:103F50007E5338339A4202D12046FFF717F8B0EE6D
:103F6000480A2046FFF73CFE5AE704F5005393F950
:103F70003933012BD6D1D5F80C2204F57E533833D2
:103F80009A42CFD02046FFF767F8CBE70000003415
:103F9000D06A0020F8B500F53F5300F58047D3ED17
:103FA0002C7A9FED157A0446D7F80C0267EE877AD3
:103FB0000368FDEEE77A5B6A17EE905A984778B18E
:103FC0000E4ED6F8B437002B0ADD93F0B3FED6F8C8
:103FD000B437C01A40F6B733984298BFD6F8A857FE
:103FE00004F500542846B4F9B422D4F8341F2BF059
:103FF000EFFBC7F82808F8BDA00CB345D06A002035
:1040000010B5044612F086FC031E2ADB04F50051AD
:1040100091F99F229A4224DD04F58040D0F810489F
:10402000022C1ED0D1EDB87ADFED0E6AD31A66EEFF
:10403000E76A07EE102A07EE903AB8EEC77AF8EE74
:10404000E77AD0F8283887EE876A07EE903AF8EEDC
:10405000E77AE6EE867AFDEEE77A17EE903AC0F858
:10406000283810BD0000C84270B52DED028B00F558
:1040700080459FED550AD5F824389FED547A07EE18
:10408000903AF8EEE77A044667EE807A9FED500AA0
:10409000F0EEE76AF4EE476AF1EE10FAC8BFF0EE10
:1040A000477A27EE800ABEF01FFA2BF013FAB7EE1C
:1040B000008AC8EE007A05F62C0304F50056C3ED1D
:1040C000007A04F5A04393F80025A2B1D3F81805AF
:1040D000036804F53C515B6A3031984758B1D6F813
:1040E000302FD5F8240851422BF072FBC5F8240874
:1040F000BDEC028B70BD96F9B932002BF8D020468A
:1041000006F05EFB0028F3D104F5AC400C3012F051
:10411000DDFD0028ECD1B6F9A232012BB8BF012396
:1041200007EE903A05F50362F8EEE77AD2ED006A01
:1041300086EEA77AB4EEC87AF1EE10FA13D840F6FC
:10414000C4122449D5F824082BF042FBC5F82408F2
:10415000D6F8302F40F6C4139A42D4BFC6F8302F99
:10416000C6F8303FC4E705F62C03D3ED007AF4EE31
:10417000C77AF1EE10FABBDD88EE070A20EE000ADE
:10418000BEF06CFBDFED147AD5F8240820EE270A88
:10419000DFED127A20EE270A40F6C413FDEEC07A56
:1041A00017EE904A9C42B8BF1C46224661422BF053
:1041B0000FFBC5F82408D6F8303FA342D4BFC6F899
:1041C000303FC6F8304F93E70AD7233C0000AA429D
:1041D00035FA8E3C3CF6FFFFE02E65420000C842F7
:1041E000F0B52DED048B00F540530546D3F80808D3
:1041F000036885B01B68984705F580440646D4F8E7
:104200000C0203685B6A984708B3644FD7F8B0376D
:10421000002B1CDD93F08EFDD7F8B037C01A40F6A6
:10422000B733984213D8D7F8A46705F50053304642
:10423000D3F8302F51422BF0CBFAC4F8240828468B
:1042400005B0BDEC048BBDE8F040FFF70DBFD4F81E
:104250000C2205F5814334339A42E6D194F8F037C5
:10426000002BE2D093F066FDD4F8EC37DFED4C7A0A
:10427000C4F8EC07C31A09EE103A94F8F037B8EE18
:10428000499A022B29EE279A04F2E47670D196ED32
:10429000008A18F013F990ED7E0A38EE400A2BF0F0
:1042A000E3F904F5FD63DFED3F7ADFED3F8AB0EE21
:1042B000408A93ED000A80EE270ABDF0F5FF05F570
:1042C00035500021019020EE280ADFED388AF0EE0B
:1042D000490A60EE288AB0EE480A72F035FC01986F
:1042E00072F02AFBDFED327A0198B4EEE78AF1EE44
:1042F00010FAB0EE409A02D894F8F1374BB1DFEDE6
:104300002D7AB4EEE78AF1EE10FA08DB94F8F23772
:104310002BB9019072F010FB0198B0EE409A019019
:1043200072F002FB019830EE099A72F009FB39EE47
:10433000000AF1EE680AF4EEC00AF1EE10FAF4EEAB
:10434000C08AACBF01230023F1EE10FA84F8F137E4
:1043500094BF0123002384F8F2374FF45B70B0EE72
:10436000681A2BF095F9FDEEC07A17EE906A5CE7BB
:1043700018F0A4F817F01CFBF0EE607AF1EE400A9A
:10438000B1EE670A96ED008ABEF0D0FADFED0A7A48
:1043900038EE400A30EE270A81E700BFD06A0020DD
:1043A0006F12833A0AE81C41E02E65420000C842C1
:1043B000000000B400000034DB0F494070470000EB
:1043C00070470000704700000120704770470000F0
:1043D00001207047014B93F8C4027047D04A002077
:1043E000034B93F9C00A003818BF0120704700BF83
:1043F000D04A0020014B93F9C6027047D04A0020F2
:1044000013B5064BD3F80C024B69046800930831CE
:104410000EC9646CA04702B010BD00BFD06A002076
:10442000084B9FED097AD3ED907AF8EEE77A82B0E7
:1044300067EE877AFCEEE77ACDED017A9DF804000D
:1044400002B07047D06A0020CDCC4C3D70470000D0
:1044500038B5254DD5F80C0203685B6898471928D4
:104460003BD8DFE800F00D38360D0D363636363ADB
:104470003838383838383A3636363638360D3838EF
:1044800040241A4B93F8ED2512B193F8EC350BB993
:1044900044F01004164BD5F80C229A42A3F11803ED
:1044A00003D09A4218BF44F01004124991F939130D
:1044B000A9B19A4215D0032902D10F4B9A4201D1DA
:1044C00044F040040D487AF00BFD50B144F08004F4
:1044D00007E01024D5E71824D3E70124D1E79A4256
:1044E000F0D144F0010038BDD06A0020D05A00203D
:1044F000B86B0020D04A00203C6B0020947E002046
:1045000008B5044806F076FE00280CBF0120022002
:1045100008BD00BFD02A0020F0B52DED028B8BB076
:10452000054617F0CBFF224BD0F8F071D3F8082DD9
:1045300090ED7D8AD0F8F861D10504460DD4B3F929
:10454000303307EE903AB8EEE77ADFED1A7A67EE8D
:10455000C77A9FED197AA7EE878A18480CF048F9B8
:1045600030B1174BD3F880365F6893ED028ADE686E
:10457000204616F06FFE04462D7C93F0DBFB62684C
:10458000A36821680892099327221C23CDE90032F1
:104590000390079103AA1E21284604978DED058AF2
:1045A000069659F095FF0BB0BDEC028BF0BD00BF35
:1045B000D04A00200AD7233C35FA8E3CF87E0020F2
:1045C000D07A002008B5024812F0A4F900B208BD64
:1045D000D02A00207FB5002303930493059317F09E
:1045E0006DFF16F09DFF03A88DED030ACDED040AC3
:1045F0008DED051A2EF0B6FDF1EE047A20EE270AB5
:10460000DFED087AB4EEE70AF1EE10FA58BFB0EE2B
:10461000670AFCEEC07ACDED017A9DF8040007B080
:104620005DF804FB00007F430F4BC868C3F8E40249
:104630000A7AD20741BFD3F8BC2252681218C3F8D5
:10464000E42293F8E02209486FF3000283F8E022A5
:104650000A7A93F8E012C2F3800262F3820183F8CF
:10466000E01203F049BA00BFD07A0020D02A00201F
:1046700010B5054C012384F8F5355BF09DFB002354
:1046800084F8F53510BD00BFD05A00205EF02EBC76
:1046900070B58B8BBF2B8EB00C467ED018D8162BE6
:1046A0006DD009D8112B60D0142B65D021460EB0E7
:1046B000BDE8704060F082BDB22B33D0BD2BF5D188
:1046C0006A4831F0EDF8002839D0694902224EE0FD
:1046D000B3F5967FF9D015D8D12B00F09E80D42B5E
:1046E000E4D1D1ED007A9FED637A6348F0EEE77A8A
:1046F000F4EEC77AF1EE10FA54BF0121002106F062
:1047000059F837E040F6B8329342CFD1D1ED007A74
:104710005A48FCEEE77ACDED037A9DF80C100BF0C9
:10472000B1FB37E0564DD5F80C0203685B6A984739
:1047300038B9D5F80C2205F16C039A4201D0042453
:104740000EE009A81CF00EFE204607A92FF09EFCE3
:10475000044640B9484807A904F010FD0028EED0EF
:1047600020460EB070BD0224FAE7464902224248B4
:1047700011F0D0FE0024F3E743490222F7E7434853
:1047800090F80035002BDAD091ED060A00F585602F
:104790000CF006FF0028EDD1D1E7394DD5F81038DF
:1047A000042B06D0B5F86A3823F040039BB2152BD2
:1047B000C5D12E4831F09CF80028DBD1334E96F855
:1047C0000035EBB9D4ED007A9FED2A7AF0EEE76A76
:1047D000F4EEC76AF1EE10FA09D49FED2D7A67EE78
:1047E000877AFDEEE77A17EE903AC5F864372948E4
:1047F00086F084FD0028A2D0002485F89847AFE712
:1048000006F585600CF00AFD002898D106F5856054
:104810000CF0CCFC0028D5D091E7D1ED017AFCEE6C
:10482000E77ACDED037AD1ED007AFCEEE77ACDEDB3
:10483000047AD1ED047A9DF81020FCEEE77ACDEDF4
:10484000057A9DF814300193D1ED027AFCEEE77AF7
:1048500017EE903A9BB2009391ED030A9DF80C304D
:10486000017C064809F040FB044679E70473002008
:104870003C6B002000000034D02A0020F87E00208D
:10488000D06A00206C6B0020546B0020D07A00208E
:104890000000C842887C00202DE9F0412DED028BFC
:1048A0004FF0000882B0CDE900281E4F9FED1E8A10
:1048B0000C461546B0EE480AB1F90220D7F8101E92
:1048C0004FF47A7306465EF051FE0123CDE90053A2
:1048D000B4F90020D7F8141EB0EE480A30464FF461
:1048E0007A735EF043FEB4F90420D7F8181E9FEDEA
:1048F0000F0A43463046CDE900585EF037FECDE959
:104900000058B4F90620D7F81C1EB0EE480A4FF440
:104910007A7330465EF02AFE02B0BDEC028BBDE831
:10492000F08100BFD04A00200000FA4400007A4421
:1049300038B5C5780B46352D044628BF35253522B8
:1049400000211846C0F0E8F92A4604F10C01BDE840
:104950003840C0F0B9B90000F0B58A7A4B7A43EA22
:104960000223CA7A43EA0243562B99B005460C4605
:1049700000F0E6800BD8522B25D0542B00F0A480F9
:104980002146284619B0BDE8F04060F0B1B9872B48
:104990000FD8852B0FD86D2BF2D10821914811F03B
:1049A000B3FF21460246284619B0BDE8F0405CF04E
:1049B00063B8A62BF0E70A46017C8B4819B0BDE826
:1049C000F04052F0D3B8894DD5F80C2205F1B4036C
:1049D0009A4277D1CE78272E28BF2726272200217A
:1049E0000AA8C0F099F9324604F10C010AA8C0F0F7
:1049F0006BF90B9B9DF84E4003930C9B0493E4438F
:104A00000D9B0593E4B20E9B06938DF84E4093F0F8
:104A100091F914F0810F04F08707064601D1802F29
:104A200012D103A82DF02CFCDFED717AC5F8B06728
:104A300020EE270ADFED6F7A20EE270ABDEEC00ACE
:104A400010EE103AC5F8A43714F0820F01D1802F70
:104A500012D103A82DF02EFCDFED657AC5F8B467FE
:104A600020EE270ADFED637A20EE270ABDEEC00AAA
:104A700010EE103AC5F8A83714F0840F01D1802F3A
:104A800012D103A82DF026FCDFED597AC5F8B867DE
:104A900020EE270ADFED577A20EE270ABDEEC00A86
:104AA00010EE103AC5F8AC3763060BD5DDED127A7F
:104AB0009FED507AC5F8C06767EE877A05F2BC7340
:104AC000C3ED007A19B0F0BD2046484C0AA9FFF7A3
:104AD0002FFFD4F80C2204F1B4039A42F2D19DF8CE
:104AE0005C30072BEED104F58054D4EDB97ADDEDBE
:104AF0000D6A9FED407AF8EEE77AE6EEC77AFDEEB2
:104B0000E77AC4EDB97A5EF08BFED4F8BC22D4F813
:104B1000E43252689FED387A9B1A07EE903AF8EE2D
:104B2000E77A054667EE877A17EE900AFBF7ECFC0A
:104B3000324ACDE900010621284658F08BFCC1E736
:104B40002A4B03F1B402D3F80C329342BAD10AA92A
:104B50002046FFF7EDFE1C22002103A8C0F0DCF880
:104B600005A81CF0FFFBBDF8583023F004039BB2EE
:104B7000002BA7D0DDED0D7A9FED1E7A9DF8143045
:104B800067EE877A23F00503FDEEE77A8DF814309F
:104B90009DF85C30CDED067A0B2B1BD8DFE803F0D7
:104BA0000C1A1A1A1A0C061A1A1A1A139DF814302B
:104BB00043F001038DF814302B6803A9D3F8E430D7
:104BC000284698477EE79DF8143023F0050343F00C
:104BD0000503EFE75EF024FE094A042158F03AFC91
:104BE00070E700BFD02A0020EC730020D06A0020BC
:104BF000E02E65420000C8420AD7233CD0930D083E
:104C0000E3930D0810B5074B93F91C2940F24D347E
:104C100040F24D13002A08BF1C465AF04BFF2043B8
:104C200010BD00BFD06A00207FB517F047FC16F01A
:104C300077FCF0EE607AF1EE400AB1EE670ABDF063
:104C400075FEDFED097A20EE270A2AF08BFCF6EEDE
:104C5000007A20EE270AFCEEC07ACDED017A9DF8AD
:104C6000040007B05DF804FBE02E654210B5044671
:104C70001CF02AFF204610BD08B51B482DED028B05
:104C80000BF0B6FDB2EE048AF8B117480BF04CFCFD
:104C9000C0B1164BD3F8640403689B689847DFEDF6
:104CA000147AB4EEE70AF1EE10FA58BFB0EE670AD4
:104CB000C0EE087ABDEC028BFCEEE77A17EE903A74
:104CC00098B208BD9FED0B0AF2E70B4BDFED087AB7
:104CD00093ED007AB4EEE77AF1EE10FA58BFB0EE39
:104CE000677AC7EE087AE5E7F87E0020D07A0020E0
:104CF00000FF7F47000000004C72002010B50B4CF5
:104D0000002384F898375FF04DFFD4F80C2204F1AB
:104D10006C039A4208D194F834382BB904F6340065
:104D2000BDE8104030F038BD10BD00BFD06A002093
:104D300013B5124C94F8961104F1500015F054F884
:104D400078B194F8961104F1500015F08DFA40B145
:104D500094F8961104F1500002B0BDE8104015F02F
:104D6000C9BA17F0ABFB01A917F066FA18B19DEDAF
:104D7000010A02B010BD9FED020AFAE7D04A0020F6
:104D80000000000038B50D4623F028FA90F8D01244
:104D9000B02303FB0101BC310E4803F071FE044651
:104DA000A8B13DB117F08AFB90F8CC3243F0020372
:104DB00080F8CC32084BD3F80C0203F18402904205
:104DC00003D003F5B073984201D106F03DFD2046B3
:104DD00038BD00BFD02A0020D06A002037B5154664
:104DE000019117F06BFB019919F014F80446A8B172
:104DF0003DB117F063FB90F8CC3243F0020380F82A
:104E0000CC32084BD3F80C0203F18402904203D059
:104E100003F5B073984201D106F016FD204603B0A9
:104E200030BD00BFD06A002008B5084BD3F8D02CA5
:104E3000002A03DCBDE808405AF0ACBD03F6D430CC
:104E400057F058FE90ED000A08BD00BFD04A002080
:104E5000044B93F8000520B1D3F8180503681B6BC9
:104E600018477047D07A002008B51148D0F80C22B6
:104E700000F1D0039A4214D0B0F924329BB990F8D3
:104E8000193783B990F821326BB990F8F93763B9C3
:104E9000A0F5804006F0AEF900280CBF03200420E6
:104EA00008BD0220FCE70520FAE70620F8E700BF6E
:104EB000D06A002030B5224CD4F80C2204F1E8036B
:104EC0009A4291B0054638D0002304F597500293DA
:104ED0001CF038FA014620B902AA04F597501CF0DC
:104EE0007DFA2C7C92F026FF164BDDED027A9FEDC9
:104EF000167AD3E9BA2305930023F8EEE77A0793ED
:104F0000089309930A930B930C930D930E934FF60A
:104F1000F853ADF83C300023CDE9030267EE877A01
:104F200096228DF83E303323CDE90032572103AA73
:104F30002046CDED067A59F0CBFA11B030BD00BF56
:104F4000D06A0020D07A00200AD7233C1FB513482E
:104F50000BF04EFCA0B1124B9FED120AD3F85C048B
:104F60003C302DF07BFCDFED107A21EE271AFCEEB1
:104F7000C17A17EE900AC0F3470005B05DF804FB54
:104F80000A4BD3F8080803681B6998472AF054FBBA
:104F9000C82390FBF3F0C0B2EFE700BFF87E00201B
:104FA000D07A00209F0CB3450AD7233CD05A00206A
:104FB00010B52DED028B84B017F080FA04466846D8
:104FC0001CF0D0F96946204616F08AFA1D480BF00D
:104FD0000FFC1D4B18B3D3F80C1203F580729142ED
:104FE0002ED003F58053DDED017AD3F86034986854
:104FF00093ED8C8AF8EEE78A7DF064FD38EE408A06
:105000009FED120A38EE288A28EE008ABDEEC88A83
:1050100018EE103A18B204B0BDEC028B10BDD3F8F4
:105020005422019B9FED097A134407EE903AF8EE63
:10503000E77A67EE877AFDEEE77A17EE903AE9E7CE
:105040000020E8E7F87E0020D06A00200AD7233C41
:1050500010B560F061F8044678B90948D0F80C2220
:1050600080F8984700F16C039A4206D190F83438E2
:105070001BB900F6340030F08FFB204610BD00BF96
:10508000D06A00202DE9F0438D4C2DED068BD4F82D
:105090000C2204F1E8039A4291B0054600F0DF804B
:1050A00003F59A500BF0A4FBDFED868ADFED869ABC
:1050B0009FED869A002867D085480BF035FA0028C6
:1050C00062D004F580589FED830AD8F85C043C3028
:1050D0002DF0C4FB08F23440B0EE60AAB0EE418A75
:1050E000CDED070A8DED081AF0EE40AA8DED060A07
:1050F0007DF0E6FCD8F860340146D3F82C22D3F8D2
:105100002832059204A804932CF022FC09A88DED06
:10511000090AB0EE680ACDED0A0A2CF029FC28EE47
:10512000288A02A8BDEEC88A95F81090CDED030A32
:1051300018EE103A8DED020A1EB22CF08DFCDFED58
:10514000667A20EE270A02A8BDEEC00A6AEEA8AA77
:1051500010EE103A1FB22CF0C9FCB4EEE90AF1EEE1
:1051600010FA58BFB0EE690ABCEEC00AD4F80C229F
:1051700010EE103A9DB204F580739A422AEE28AAE6
:1051800072D1DFED568A7AE0554B95F81080D3F84E
:105190000878D4F8243807EE903AD4F82838F8EE96
:1051A000E7AA07EE903A3B6838469B68B8EEE7AA54
:1051B000984707EE900AF8EEE77A384667EEA87A45
:1051C0006AEEA8AAFDEEE77A2AEE28AA17EE903A30
:1051D0001EB23B681B69984707EE900AF8EEE77A23
:1051E000384667EEA87AFDEEE77A17EE903A1DB2E0
:1051F00004F27C7393ED008ADFED337A3B68B4EE02
:10520000E98AF1EE10FA58BFB0EE678AD4ED957ACC
:105210005B69F8EEE77A67EEA88AD4ED927A27EE1A
:10522000899A9847BCEEC88AB72118EE103AADF8B3
:105230003C301A23CDE90031CDED09AA8DED0AAA43
:10524000CDED0B8A8DED0C9A8DED0D0AADF8386021
:10525000ADF83A5009AA3E21404659F039F911B04B
:10526000BDEC068BBDE8F083D8F86034986893ED08
:105270008C8A7DF027FC38EE400A60EE288AD8F848
:105280006434D4ED927A186927EE899A82F036F95F
:10529000B7221A23CDE90032CDED09AA8DED0AAA75
:1052A000CDED0B8A8DED0C9A8DED0D0AADF83860C1
:1052B000ADF83A70ADF83C5009AA3E214846CCE71B
:1052C000D06A00200AD7233C00FF7F470000C84275
:1052D000F87E00209F0CB345E02E654200000000E0
:1052E000D05A002008B590F8E63153B9C06B036876
:1052F0001B6A9847B0F5005F28BF4FF4005080B29A
:1053000008BD0020FCE7000001480BF01FB900BFFA
:10531000F87E002008B5034BD3F80C0203685B68E5
:10532000984708BDD06A002030B587B0054617F011
:10533000C5F804462D7C92F0F5FCD4F8D422D4F8BC
:10534000D8320492059300211023CD22CDE90032FA
:105350000290039102AA42F60C31284659F0B8F89F
:1053600007B030BD10B52DED028B88B0044617F0A4
:10537000A5F816F0D5F8F0EE607A8DED020ACDEDC5
:10538000030AF1EE400AB1EE670A8DED041A247C9F
:10539000BDF0CCFA02A8B0EE408A2DF0E3FEDFEDBE
:1053A0000B7A049B079328EE278A0C230122CDE970
:1053B0000032A82105AA20468DED058A8DED060A4A
:1053C00059F086F808B0BDEC028B10BDE02E6542A6
:1053D000372938B5044606D007D8242924D02729F0
:1053E0000ED0192907D1012019E03A293AD04A29CB
:1053F000F9D0392928D02046BDE838405EF058BBA6
:10540000FFF770FF0546207C59F002FF00F1120300
:105410009D42217C04D2084658F0A4FA002038BDF1
:10542000134851F0A9FADEE7FFF75CFF0546207C40
:1054300059F0EEFE00F10C039D4201D2207CEBE717
:105440002046FFF78FFFCEE7FFF74CFF0546207C95
:1054500059F0DEFE00F110039D42EFD32046FFF726
:1054600063FFC0E7017C034885F02CFEBBE700BF6B
:10547000EC730020887C0020F0B52DED028B0546F2
:105480008DB01646B0EE408A0C46002930D0007C24
:1054900058F0A4FF0746287C59F0BAFE00F121031A
:1054A0009F4207D2287C0DB0BDEC028BBDE8F040D6
:1054B00058F058BA63690893236A2269CDF82530F9
:1054C000E369A069E1680792CDF8293062222123BF
:1054D00027680590CDE900320691287C03971923AF
:1054E00003AAC2218DED048A8DF8246058F0F0FFE4
:1054F0000DB0BDEC028BF0BD70B54B4ED6F80C2252
:1055000006F1E8039A42044600F08C80A6F50055A7
:10551000B5F86A33DA0713D544480CF07DFA002851
:1055200079D006F58053D3F85C0403689B689847EC
:1055300000F18C0191ED010A01222046FFF79CFF4A
:10554000B5F86A339B0712D538480CF065FA002885
:1055500064D0374BD3F85C040368DB68984700F1EC
:105560008C0191ED010A02222046FFF785FFB5F874
:105570006A33580712D52D480CF04EFA00284FD048
:105580002B4BD3F85C0403681B69984700F18C012E
:1055900091ED010A03222046FFF76EFFB5F86A334A
:1055A000190708D523490B4693ED000A0439052253
:1055B0002046FFF761FFB5F86A33DA0616D5D6F84C
:1055C0001038042B12D116F079FF15F043FE064671
:1055D000194885F0A7FD96ED020ADFED187A01461D
:1055E00020EE270A06222046FFF746FFB5F86A3369
:1055F0009B0617D50D480CF00FFA98B10C4BD3F859
:105600006014204691ED700ABDE87040042201F557
:10561000DE71FFF731BFA6F54F618BE70849A0E7C0
:105620000849B5E770BD00BFD06A0020F87E0020B1
:10563000D07A002094600020887C0020E02E654213
:10564000FC5E00203860002030B5054685B00C4671
:10565000D1E904012BF0F4F840B168461BF082FE5A
:105660006A46214628465DF04FFE08B9022055E003
:10567000D4ED037A9FED2A7A9DF800302949F0EEA7
:10568000E77AF4EEC77AF1EE10FA54BF0122002255
:1056900062F3410368468DF800301BF091FF00284B
:1056A000E4D1D4ED017AFDEEE77A17EE903AD9070E
:1056B00006D41D4B03F1B402D3F80C3293422CD123
:1056C00002221A491A4810F025FF9DF80030DA0727
:1056D0000AD5184AD2F8BC225168019A6FF3000328
:1056E0000A4401928DF800301148694603F02CF904
:1056F00094ED020AB4EE400AF1EE10FA0BD6B5EEC4
:10570000C00AF1EE10FA06DD9DF800100748C1F35B
:10571000400106F0CDFD002000E0042005B030BDC2
:1057200000000034A07D0020D06A0020846B00209F
:10573000D02A0020D07A0020F8B52DED028B8B8B7B
:105740004AF2F97293420D466ED04AF2FA729342CF
:1057500000F0DB804AF2F872934240F031819A4EB9
:10576000D6F80C2206F1B4039A4240F02B81D1ED19
:10577000007AFDEEE77A17EE903A0BB1022027E0AF
:10578000A6F5005391ED010AB3F9A42207EE902A81
:10579000F8EEE77AB4EEE70AF1EE10FAEEDCB3F9D0
:1057A000A23207EE903AF8EEE77AB4EEE70AF1EEAD
:1057B00010FAE3D49FED858A20EE088A06F2C477BA
:1057C000D7ED000AB0EE480A29F050FE18B10020CB
:1057D000BDEC028BF8BD87ED008A92F0ABFAC6F8FB
:1057E000CC07D5ED027A9FED7A7AD7ED006AF0EE1C
:1057F000E77AF4EE477A9FED777AF1EE10FA48BF38
:10580000F0EE477A96ED907A06F5F963B8EEC77A2E
:10581000C3ED007AF4EEC76AF1EE10FAD7D5F1EED7
:10582000677AC3ED007AD2E7674CD4F80C2204F112
:10583000B4039A4240F0C68091ED060AFFEE000ADA
:1058400029F014FE002899D1DFED630A95ED060AD0
:1058500029F00CFE002891D195ED068ADFED5B8AD8
:1058600095F8203068EE288A002B40D0032B85D194
:1058700004F5805304F5FA66D3F8BC3296ED000ABD
:1058800093ED018AB8EEC88A38EE288AF0EE480A0D
:1058900029F0ECFD00289AD186ED008A4F4E95F84C
:1058A000203084F8E037D6F8D432C4F8D43792F0F8
:1058B00041FAC4F8DC07D5ED027A9FED457AF0EEA7
:1058C000E77AF4EE477A9FED437AF1EE10FA48BF9B
:1058D000F0EE477A96EDB57A04F5FB6304F5FA64C9
:1058E000B8EEC77AD4ED006AC3ED007A92E704F50A
:1058F000FA6696ED000AF0EE680A29F0B7FD002876
:105900007FF465AFC6ED008AC8E72F4CD4F80C22AF
:1059100004F1B4039A4255D191ED010AB5EEC00AE3
:10592000F1EE10FA3FF52AAFDFED2D7AB4EEE70A7B
:10593000F1EE10FABFF622AF29F02AFE9FED298A78
:1059400020EE088A04F2E473D3ED000AB0EE480AB0
:1059500029F08CFD00287FF43AAFD5ED007AFDEEFA
:10596000E77A17EE903A23BB012304F5965684F8A4
:10597000F03706F110030FCB86E80F001A4870F0DD
:10598000F1FF04F2E47383ED008AD5ED027A9FED16
:10599000177AF4EEC77AF1EE10FAD8BFF0EE477A34
:1059A00004F5FD63C3ED007A92F0C4F9C4F8EC0786
:1059B0000DE7012B7FF4E2AE022384F8F037DDE738
:1059C000032005E7042003E7D06A00200000C84256
:1059D0000000003400007A4400000000D07A00206B
:1059E0000000B44335FA8E3C10580020CDCC4C3D1D
:1059F00010B48B8BC02B04460A4612D007D8202B3C
:105A000013D0204611465DF8044B5DF075BD03F5DB
:105A1000B04308339BB2022BF3D85DF8044BFFF779
:105A20008BBE5DF8044BFFF70FBE04205DF8044BFE
:105A30007047000000207047C82070470120704761
:105A4000002070470020704703207047014B93F8F7
:105A5000C2027047D04A002038B5044656480FF0BD
:105A60006DF818B1636943F40003636152480FF0A5
:105A700065F888B1462061F087FCDFED507AB4EE1E
:105A8000E70AF1EE10FA07D8A36943F40003A36113
:105A9000E36943F40003E3616369494D43F4F84368
:105AA0006361D5F80C0203685B68984701381828D1
:105AB00017D8DFE800F04E560D5856565656164E7B
:105AC0004E4E4E4E4E16565656564E56584E4E004A
:105AD0003C4A92F8EC35002B43D092F8ED25002A91
