:020000040800F2
:100000000000022095160508E9DD0408E950030800
:1000100045170508451705084517050800000000A5
:10002000000000000000000000000000F5DD0408F2
:10003000F1DD040800000000EDDD04088933040848
:10004000451705084517050845170508451705080C
:1000500045170508451705084517050845170508FC
:1000600045170508451705084517050861F50408F3
:1000700051F5040841F5040831F504081DF504089C
:1000800009F50408F5F40408451705080000000008
:1000900000000000000000000000000045170508F7
:1000A00011F60408E9F50408C1F5040839F6040856
:1000B000ADF5040899F5040885F504084517050809
:1000C000451705084517050845170508451705088C
:1000D00045170508BDFC0408B1FC04080000000039
:1000E000451705084517050811040508000000001C
:1000F000000000000000000000000000E1F404081F
:10010000000000004517050871F5040845170508AB
:1001100000000000000000000000000000000000DF
:10012000CDF40408B9F40408A5F4040891F4040813
:100130007DF4040800000000000000000000000042
:1001400000000000000000000000000041E504087D
:1001500069F4040855F4040841F404084517050837
:1001600045170508451705080000000000000000BD
:10017000000000000000000000000000000000007F
:100180000000000045170508000000000000000006
:08019000451705084517050895
:08019800341205000100000013
:1001A00054F40020020800000300140074F400203E
:1001B000020A00000300140094F40020020D000065
:1001C00003001400B4F40020010E000000007700CA
:1001D000D4F40020010F000000007600F4F40020A9
:1001E000011300000000760014F50020011001004A
:1001F0000000770034F500200115000000007600B3
:1002000054F500200116000000001E0074F50020C7
:10021000011C000000000D0094F50020011D0000ED
:1002200000000E00B4F50020011E000000001E00BA
:10023000D4F500200119000000000C00F4F50020A6
:10024000011A000000000E0014F600200127010032
:100250000000180034F60020011F000000004800D4
:1002600054F60020012000000000490074F6002030
:100270000121000000004A0094F600200122000045
:1002800000004B00B4F600200123000000004C00E9
:10029000D4F600200124000000004D00F4F60020F8
:1002A0000125000000004E0014F700200126000088
:1002B00000004F0034F70020012C0100000028004E
:1002C00054F70020012F000000003C0074F70020CC
:1002D000012D00000000400094F7002001320000D2
:0402E00000002000FA
:10800000F0B40D6800240CE0BCF1050F18D8A0F105
:1080100037030A2B14D104EB840415F8010B03EB8E
:108020004404A0F13003DEB2092EA0F16107A0F1F3
:10803000410CF0D9052FE7D8A0F157030A2BEAD05D
:108040000D601460F0BC704700B583B00268074B48
:108050008188CDF8012032221B68ADF805108DF81B
:1080600000206846984703B05DF804FB78140020B0
:10807000204B2DE9F0415D68064600F10708002419
:1080800006E01B68394698473C444645A4B215D0E3
:1080900016F8017BA7F17D03012B28462B684FF0D2
:1080A0007D01EED81B6898472B6887F020011B687C
:1080B00028469847E8E7E3B203EB1424FF2CFAD8EC
:1080C000C4F1FF04E4B2A4F17D03012B2B6805D9B0
:1080D000214628461B68BDE8F041184728461B6822
:1080E0007D2198472B6884F0200128461B68BDE855
:1080F000F0411847781400200A4AD36930B41C684C
:1081000055695D6019810025611C19609D81207091
:10811000D36951691A685A604FF6F67230BC19601B
:108120009A81704778140020F8B5CE1E0F46064499
:108130000239421E04464FF6FF7312F8015F5B1BC3
:10814000B2429BB2F9D1C5194354064E1B0A05F839
:10815000013C14F8011B306A3BF0C4F9A542F8D188
:10816000F8B2F8BD7814002010B582B00B4660F06C
:108170005F001A0E08211C14ADF802308DF80100C2
:10818000002368468DF804408DF805208DF8001016
:10819000ADF80630FFF7C8FF02B010BD30B50622BB
:1081A00083B060F05F030D460024114668468DF8E9
:1081B0000130ADF802508DF80020ADF80440FFF713
:1081C000B3FF03B030BD00BF284A116821F07043EF
:1081D00023F07F03002B0CBF012002204B075368C4
:1081E00048BF0430D90744BF0A3080B29A0744BF61
:1081F000143080B2D90544BF283080B25A0744BF3A
:10820000643080B2190744BFC83080B29A0644BFB8
:1082100000F5C87080B2D90644BF00F57A7080B20C
:10822000DA040FD500F5FA5080B2990403D500F5B1
:108230001C50103080B29A050AD5A0F5C7404038CE
:1082400080B2704719050AD500F5FA6080B2ECE7F4
:108250005B0503D500F59C40203080B270475A067C
:1082600044BF00F57A6080B2DFE700BFF8F7002076
:10827000022805D0A0F10100B0FA80F04009704753
:10828000054B93F82C3023B9044B1868C0F38000D9
:108290007047102022F0DCBF78140020F8F700208F
:1082A000014B93F86400704778140020F0B4424DFD
:1082B000424BAB66C823013885F86C3005F16D027E
:1082C00005F1A7014D2428E0DCB25BB2002B34DBC2
:1082D0006300DCB25BB2002B36DB6400E3B264B255
:1082E000002C38DB5C00E3B264B2002C3ADB5C00AB
:1082F000E3B264B2002C3CDB5C00E3B264B2002C5D
:108300003EDB5C00E3B264B2002C4FEA4303B8BF2B
:1083100083F0D5038A42DCB238D010F8013F02F86E
:10832000013B634013F0800F4FEA4303CCD083F04E
:10833000D50463B2002BE4B2CADA640084F0D50439
:1083400063B2002BE4B2C8DA630083F0D5035CB2F9
:10835000002CDBB2C6DA5B0083F0D5035CB2002CE4
:10836000DBB2C4DA5B0083F0D5035CB2002CDBB275
:10837000C2DA5B0083F0D5035CB2002CDBB2C0DA5A
:108380005B0083F0D5035CB2DBB2BDE70C4E85F831
:10839000A740A6F144070FCF0FC60FCF0FC60FCFD0
:1083A0000FC697E80F00402785F8A84086E80F0021
:1083B00085F8EC70F0BC704778140020C83E7BEA6A
:1083C000241500200020704738B504460D460A46A3
:1083D0000068FF214EF00DFE21682944216038BD60
:1083E000026810B57F21541C0460117002680024DB
:1083F000511C01600E211470FFF7E6FF012010BD33
:1084000030B5324C94F8ED30012B85B001D005B079
:1084100030BD94F8EE00022826D0A0F10100B0FA99
:1084200080F0400948B36368002BF0D1D4F8F02005
:10843000002AECD094F8345094F82D1092F90400EE
:10844000002D14BF08220022002908BF42F00102BB
:1084500003254FF46141CDE9015200911A462021D4
:1084600021F0DEFD6060D2E794F82C30DBB9184BC8
:108470001868C0F380000028D5D16268002AC6D0F1
:10848000D4F8F830934213D0D4F804319A420ED085
:10849000D4F810319A4214D0D4F81C319A4212D038
:1084A00000236360B3E7102022F0D2FEBAE7012078
:1084B00000EB4000002104EB8003D162C3E93E11D0
:1084C000EEE70220F4E70320F2E700BF7814002073
:1084D000F8F7002070B51D4E1D4D96F82C01632253
:1084E000002144F067FFB6F8503104461948333B89
:1084F00080FB0320DB17C3EB20100922002144F08E
:1085000059FFAA68C0F10903642000FB0344A4B228
:10851000910744BF04F57A74A4B22B68D20744BF14
:1085200004F5FA64A4B25B0701D4204670BD15209F
:1085300022F08EFE0028F8D06B6813F4016F04BFA0
:1085400004F57A64A4B2204670BD00BF7814002000
:10855000F8F700201F85EB5110B5044CA36843F0D9
:108560008003A36023F0BCFB608210BDF8F70020FD
:1085700038B5074CB4F8BC5123F0B2FB854204DD9A
:10858000044BB4F8BC215A8238BDBDE83840E3E75B
:1085900078140020F8F7002008B5FFF7E9FF002065
:1085A00008BD00BF70B5214D95F8D231EA181C46C0
:1085B00092F8D4218AB11E4E09225C1CA6FB04133A
:1085C0005B0803EBC303E31AE918DCB291F8D4119A
:1085D00009B1013AF1D185F8D24102681549561C1A
:1085E00006600C2616700268561C0660002616707F
:1085F0000268561C066003EB430603EB8603147007
:1086000019440D2244F094F895F8D211084B4A1CF5
:10861000A3FB02035B08294403EBC3030120D31A25
:1086200081F8D40185F8D23170BD00BF78140020E4
:10863000398EE338581600202DE9F047724C82B08D
:10864000E269D2E900239B1A002B00AF40F39B8024
:10865000002384F868326D4B236103F18002A3F19B
:108660001406C4E99633C4E90526C4E9FB2203F5E0
:10867000C075E5610025421800F10109C4E90292C4
:1086800003785909012940F0858003F00F0813F0A1
:10869000100310D1002D00F0968094F8FD130131E5
:1086A00001F00F0141457ED01846083784F8683242
:1086B000BD46BDE8F087831CA360C31C4278D4F894
:1086C00010A0A3608078C6F800A00AEB02037360D4
:1086D000424084F8FC23D4E90292002584F8681211
:1086E0003081B581A2EB0902D5B2A3EB0A0A5FFA89
:1086F0008AFAEB1D03F4FC73AA45ADEB030D67D2B8
:108700005246494668464EF089FA09EB0A0352463A
:1087100030466946A36044F00BF82369306894F84A
:10872000FC238342C6E9003009D00133336013F8DB
:10873000011C984282EA0102F7D184F8FC23A36865
:108740001B78934232D12369E169C6E9003063693D
:108750004B600023A0690B818B813A1D84F868323D
:108760007B602EF0B1FC013046D07B680BB100205D
:108770009847E3696269196801200837C3E9002155
:10878000BD46BDE8F08794F86852002D3FF463AF12
:10879000A66970E700210846FFF7AEFC0120083704
:1087A000BD46BDE8F087D6E900A39BE70023B6F9F4
:1087B000081084F868320120FFF79EFC012008377A
:1087C000BD46BDE8F08728460837BD46BDE8F087BE
:1087D0002A46494668464EF021FA09EB0503304621
:1087E0002A466946A36043F0A3FF0020083784F8B7
:1087F000FD83BD46BDE8F087E26913680221581C7D
:1088000010601970B1E700BF78140020E416002052
:1088100038B5002025F0CCFA48B10D4CB4F8BC5165
:1088200023F05EFA85420BDD0124204638BD044664
:1088300023F056FAFFF790FE064B5C77204638BDD2
:10884000044B94F8CC215A770224204638BD00BF4F
:1088500078140020F8F700202DE9F04F304D314E0C
:10886000B5F9FE13B5F804C4B5F8007486FB0146EB
:10887000CC17C4EBA604A4B2A44583B016469A460E
:108880004BD1B5F80634BB4205F5816B33D0036894
:108890000190591C342201601A7003680022591C8F
:1088A00001601A70214643F073FF0198394643F086
:1088B0006FFF019847F6FF7143F06AFF019847F692
:1088C000FF7143F065FF019847F6FF7143F060FFC9
:1088D000019847F6FF7143F05BFF01980221FFF713
:1088E00073FD0120CBE9006AA5F80444A5F80674DD
:1088F00003B0BDE8F08FD5F80834D5F80C14B2EB0E
:1089000003086AEB0109084A00234B4508BF4245AA
:10891000BDD3002003B0BDE8F08F05F5816BB6E74D
:10892000781400206766666680841E00604A536A79
:108930002DE9F041064613F0800000F09A8090681F
:1089400010F0020000F095805A4F97F82C1105297D
:1089500040F29380632900F28E800024DFF860C12A
:1089600089B22546ACFB0132D20802EB8203A1EBAF
:108970004303E0B28E469BB280008340BEF1090FF4
:1089800091B245EA030504F10104EBD8EDB2D7F842
:108990003831494A82FB0312D917C1EB623189B2DF
:1089A000002900F082804FF0000CDFF814E16446EB
:1089B000AEFB0132D20802EB8203A1EB43035FFA64
:1089C0008CF088469BB280008340B8F1090F91B2C9
:1089D00044EA03040CF1010CEAD8E4B2B7F84831D8
:1089E00036494FF4F36213FB02F381FB0312D917EC
:1089F000C1EBA21189B242F20F73994240D8C9B1BA
:108A00000027DFF8BCE0BC46AEFB0132D20802EB27
:108A10008203A1EB4303F8B288469BB280008340F7
:108A2000B8F1090F91B24CEA030C07F10107EBD83A
:108A30001FFA8CF133681722581C30601A703368A3
:108A40000022581C30601A70304643F0A1FE4FF0EF
:108A5000FF31304643F084FE33685A1C32601D708B
:108A600033685A1C326030461C700621FFF7ACFC9C
:108A70000120BDE8F081992589E70020BDE8F0815B
:108A80000020DFF83CC00146ACFB0372D20802EBC9
:108A90008207A3EB47039BB283400430102841EACE
:108AA000030193B2F0D189B2C4E70C4696E700BF48
:108AB000F8F700207814002089B5F814D34D62101F
:108AC000CDCCCCCC2DE9F04FC14A536A804613F08F
:108AD000800083B000F06F81906810F0020000F019
:108AE0006A81DFF80CB39BF82C31052B40F26881CA
:108AF000DBF83031B74D0093002BB8BF5B42A5FBCC
:108B00000342B548B549920D00FB0233C3EB031392
:108B10009B0085FB034502EB8202DC1702EB82021D
:108B2000C4EBA55400FB043304EB8204A4B281FB24
:108B30000321DB17C3EBA111BCB10025A84F2E46C2
:108B4000A7FB0432D20802EB8203A4EB4303E8B292
:108B5000A4469BB280008340BCF1090F94B246EA60
:108B6000030605F10105EBD8340489B2B9B100253B
:108B70009B4F2E46A7FB0132D20802EB8203A1EBEA
:108B80004303E8B28C469BB280008340BCF1090FDE
:108B900091B246EA030605F10105EBD83443DBF850
:108BA00034E18C4D8C4E8D498EEAEE70A0EBEE7068
:108BB000A5FB0032920D06FB0200C0EB0010830003
:108BC00085FB035002EB8202DD1702EB8202C5EB4C
:108BD000A05506FB053305EB8205ADB281FB0321F1
:108BE000DB17C3EBA111C5B10020DFF8F4C10646C5
:108BF000ACFB0532D20802EB8203A5EB4303C7B2FC
:108C0000A9469BB2BF00BB40B9F1090F95B246EA35
:108C1000030600F10100EBD8350489B2C1B1002090
:108C2000DFF8BCC10646ACFB0132D20802EB82037E
:108C3000A1EB4303C7B289469BB2BF00BB40B9F169
:108C4000090F91B246EA030600F10100EBD8354363
:108C5000DBF83831624A0193002B1846B8BF5842FE
:108C6000A2FB00305F4E6049030AA6FB0363DB09E9
:108C700001FB03F1C1EBD00189B2B9B100269146E5
:108C80003746A9FB0132D20802EB8203A1EB430372
:108C9000F0B28C469BB280008340BCF1090F91B2C8
:108CA00047EA030706F10106EBD8B9B2BBF84A71EF
:108CB000DFB10026DFF828A1B446AAFB0732D208AC
:108CC00002EB8203A7EB43035FFA86F938469BB2B7
:108CD0004FEA890903FA09F3092897B24CEA030C11
:108CE00006F10106E9D81FFA8CF7BBF850313C4A6F
:108CF000A2FB0306F608632E28BF6326092B63D95F
:108D0000002093468146ABFB0632D20802EB820379
:108D1000A6EB43035FFA80FAB4469BB24FEA8A0A95
:108D200003FA0AF3BCF1090F96B249EA030900F10C
:108D30000100E8D85FFA89F9009B019A002BCCBFAB
:108D4000392338231616BEF1000F26F07F0635DDD5
:108D5000264A3343964543F00206C8BF43F0060651
:108D6000D8F800301622581CC8F800001A70D8F83D
:108D700000300022581CC8F800001A70404643F02A
:108D800007FD2146404643F0EBFC2946404643F0B0
:108D9000E7FC4046394643F0FBFCD8F800305A1C4B
:108DA000C8F8002083F80090D8F800305A1CC8F8A2
:108DB000002001201E7003B0BDE8F08F1E43CFE7F6
:108DC000002003B0BDE8F08F4FF00009B4E700BF0A
:108DD000F8F700206BCA5F6B806967FFD34D6210A4
:108DE000CDCCCCCCC55A7C0AA0860100FFC99A3BE9
:108DF0007814002003687E22591C10B501601A7097
:108E000003680022591C01601A704FF6FF71044676
:108E100043F098FC0D4B93F8323083B11DF0BAFC4F
:108E20000146204643F08EFC204647F6FF7143F092
:108E300089FC20460821FFF7C7FA012010BD1DF06C
:108E4000BFFC0146204643F07DFCEDE7781400208E
:108E500070B504462DED028B00200D4624F0A8FFCE
:108E6000002850D02A4ED6E90501201A65EB0101F1
:108E700048F0EAF99FED270A07EE900A27EE800AEC
:108E800040F2DC53BCEEC00A10EE102A9A4234D8ED
:108E9000214CB8EEC08A22F023FFB4F8BC319FED1C
:108EA0001F1ADFED1F0A07EE900A02EE103AF8EEE5
:108EB000E71AB8EE422AB0EE480A44F04BFA94F8AA
:108EC000CC31DFED171A9FED151AFDEEC07A02EED8
:108ED000103A17EE903AB0EE480AB8EE422AF0EE99
:108EE000610A738244F036FABDEC028BFCEEC07A64
:108EF000002017EE903A737770BDFFF739FBBDEC99
:108F0000028B012070BDBDEC028B042070BD00BF40
:108F1000F8F700206F12833A781400200080BB44D9
:108F200000000000F0B5334D334FD5E905322DED8B
:108F3000028BC01A83B061EB020148F085F99FED06
:108F40002F8AB7F8C46107EE900A27EE888A27F0C7
:108F500059FF002848D1BCEEC88A18EE103A9E424C
:108F600004D2012003B0BDEC028BF0BDB5F9123084
:108F7000DFED230A02EE103AB7F8BE3107EE906A31
:108F8000B8EEC88A01EE903AB8EE671AB8EEC22A77
:108F9000F8EE611AB0EE480A04468DED011A44F06D
:108FA000D9F997F8CC31DFED160A9DED011A01EEE3
:108FB000903AB5F90E30FDEEC07A02EE103A17EE97
:108FC000903AF8EE611AB8EEC22AB0EE480A6B8207
:108FD00044F0C0F9FCEEC07A204617EE903A6B7769
:108FE00003B0BDEC028BF0BD032003B0BDEC028BDF
:108FF000F0BD00BFF8F70020781400206F12833A0C
:10900000000000002DE9F041274E284DD6E9053239
:10901000C01A61EB020148F017F9DFED257AB5F8C7
:10902000C031B5F8C62107EE100A67EE277AFCEECC
:10903000E77A17EE904A234493422ED8B5F8C271CE
:10904000B5F8BE81A74204D2A6F812800120BDE87F
:10905000F08122F045FEB5F8BC31DFED160A07EECF
:10906000908A9842B8BF1846B8EE672A07EE907A01
:1090700083B201EE903AB8EE671A07EE904AF8EE26
:10908000611AB8EEE70A44F065F9BDEEC00A0020A7
:1090900010EE103A7382BDE8F08127F0B3FE00288D
:1090A000CCD00320BDE8F081F8F700207814002030
:1090B0006F12833A0000000070B504460D46FFF7BA
:1090C00057FA124B124ED3E90501201A65EB010144
:1090D00048F0BAF8DFED0F7AB6F8C63107EE100A9D
:1090E00067EE277AFCEEE77A17EE904A9C4206D8A4
:1090F000B6F8C001A0422CBF0020012070BD27F0AF
:1091000081FE0028F4D0032070BD00BFF8F70020D6
:10911000781400206F12833AF8B504462DED048BC5
:1091200000200F4624F044FE002800F08180424DCC
:109130009FED427AD5ED0C7A414E9FED420A96F8AA
:10914000CD31F0EEE76AF4EEC76AF1EE10FA46DDD3
:1091500007EE103AB8EEC77AD5ED0E6AD5ED0D8A56
:1091600027EE000A86EEA79A44F0D8F9B6F8B8318F
:1091700007EE903AF8EEE77AB0EE408AF4EEE78A2E
:10918000F1EE10FA44DCB6F8B63107EE903AF8EE9C
:10919000E77AF4EEC97AF1EE10FA41D5F5EEC08A1D
:1091A000F1EE10FA3CDDFFF7E3F9D5E90501201AED
:1091B00067EB010148F048F8DFED237AB6F8BA51C1
:1091C00007EE100A67EE277ABDEC048BFCEEE77A17
:1091D00017EE903A9D422CBF00200120F8BD07EE0B
:1091E000903AF8EEE77AD5ED0D8A27EE800A44F042
:1091F00095F9B6F8B83107EE903AF8EEE77AB0EEA6
:10920000408AF4EEE78AF1EE10FA09DD9FED0F9A3D
:1092100021F0C4FFB4EEC80AF1EE10FAC3DAB2E7E7
:10922000FFF7A6F9BDEC048B0020C5E90547F8BDA2
:10923000BDEC048B0420F8BDF8F70020F366DF3F97
:109240007814002035FA8E3C6F12833A000000003B
:1092500000F01F0240090123032803FA02F304D09F
:10926000042807D002280AD07047074A116C0B4324
:1092700013647047044A116B0B4313637047024A2F
:10928000516C0B4353647047003802400B68144A1A
:1092900030B40568CC682A402343D1E9054513431F
:1092A0002343D1E907242B4313434A6A4D6B2343DD
:1092B00013438C6BCA6A2B43234343F4003303608C
:1092C00044690B6B0D6924F0070413432343D1E970
:1092D000014243614560846030BCC260704700BF9A
:1092E0003F801CF030B403681A6853797BB159B2DF
:1092F000002920DB174C0120651803F01F034909E2
:1093000000FA03F3302085F8000344F82130937904
:109310007BB15AB2002A15DB0E480121841803F0F4
:109320001F03520901FA03F3302184F8001340F8B7
:10933000223030BC7047084903F00F031944302332
:109340000B76E4E7044A03F00F031A443023137644
:1093500030BC704700E100E0FCEC00E010B40B4CC6
:109360000023224601330A2B02F1140209D011799D
:109370008142F7D103EB830304EB83005DF8044BD8
:10938000704700205DF8044B704700BF2871050846
:109390002DE9F047041E0D4612DB092C26DC824A1B
:1093A0000B468248A0FB0410C00800EB8000A4EB31
:1093B00040000021125C1A7059702846BDE8F08701
:1093C00064422D23092C01F8013B24D8764A774BBF
:1093D000A3FB0403DB0803EB8303A4EB430300209C
:1093E000D35C48700B702846BDE8F0876F4B632C48
:1093F000A3FB04264FEAD60621DC6B4A0B466B49D9
:10940000A1FB0601C90801EB8101A6EB4101515CFA
:1094100003F8011BC5E7654A632CA2FB04364FEA3B
:10942000D60637D8604A614BA3FB0603DB0803EB83
:109430008303A6EB4303D35C01F8013BC7E7A3FB1F
:109440000627B4F57A7F4FEAD7070DD2564A0B4666
:109450005649A1FB0701C90801EB8101A7EB4101B6
:10946000515C03F8011BCAE7A3FB072842F20F7205
:1094700094424FEAD80836D84B4A0B464B49A1FBD9
:109480000801C90801EB8101A8EB4101515C03F817
:10949000011BDDE7A2FB0637B4F57A7F4FEAD70759
:1094A0000CD2414A414BA3FB0703DB0803EB8303C8
:1094B000A7EB4303D35C01F8013BB4E7A2FB0738F9
:1094C00042F20F739C424FEAD80821D8364A374BF4
:1094D000A3FB0803DB0803EB8303A8EB4303D35C84
:1094E00001F8013BDEE7324AA3FB080994424FEA48
:1094F000D90921D82C4A0B462C49A1FB0901C908DE
:1095000001EB8101A9EB4101515C03F8011BB5E7B7
:10951000274BA2FB08099C424FEAD90921D8224ACD
:10952000224BA3FB0903DB0803EB8303A9EB4303F3
:10953000D35C01F8013BCAE71E4AA3FB090394422E
:109540004FEAD30A21D80B461849174AA1FB0A0152
:10955000C90801EB8101AAEB4101515C03F8011B31
:10956000CAE7144BA2FB09029C424FEAD20A13D865
:109570000E4B0D4AA3FB0A03DB0803EB8303AAEBA4
:109580004303D35C01F8013BCAE70A22BAFBF2F0BD
:1095900042F02AFE0346D7E70A22BAFBF2F042F075
:1095A00023FE0146E4E700BFA8D10508CDCCCCCC12
:1095B0009F8601003F420F002DE9F04788B0541C00
:1095C00003941478002C00F04A8100250746884651
:1095D0001E46A9460BE0791C02D021463846C047FA
:1095E000039A0135531C03931478002C54D0252C76
:1095F000F1D1931CCDE9033950782D2800F0C480B7
:109600004FF0000A302800F0A780A0F13003DBB251
:10961000092B4FF0000440F2AB806C284AD0782828
:1096200034D857283CD9A0F15803202B2ED8DFE896
:1096300013F0FE002D002D002D002D002D002D001B
:109640002D002D002D002D00D500F8002D00BC00B0
:109650002D002D002D002D002D002D002D00B70018
:109660002D002D002D002D0021002D00DE002D00ED
:109670002D00FE0056F8042B049BCDE900924246D3
:109680004FF0FF31384643F0C1F80544039A531CAC
:1096900003931478002CAAD1284608B0BDE8F087BF
:1096A0000028F9D02528F1D17B1C99D025213846F6
:1096B000C04795E7039B5A1C03921978782991D8E3
:1096C000572967D9A1F15803202B8BD801A050F856
:1096D00023F000BF47980008E5950008E5950008CD
:1096E000E5950008E5950008E5950008E595000872
:1096F000E5950008E5950008E5950008E595000862
:10970000DD97000807980008E5950008AB9700086A
:10971000E5950008E5950008E5950008E595000841
:10972000E5950008E5950008E5950008A397000871
:10973000E5950008E5950008E5950008E595000821
:1097400075960008E595000813980008E59500084F
:10975000E595000847980008039B5A1C0392187867
:10976000A0F13003DBB2092B4FF001043FF655AFF7
:1097700004AA03A9FEF744FCBAF1000F3FF44DAF71
:10978000049B5B42049348E7D31C039390784FF00B
:10979000010A37E700293FF47FAF252984D021E76C
:1097A000039A56F8043B1D601CE7073626F00706AF
:1097B000F6E8020147F010FC00EE100A05A842F09E
:1097C000A9FC05ABCDE900434246049B4FF0FF31B5
:1097D000384643F01BF8039A054403E77A1C3FF42C
:1097E000FFAE56F8041B3846C9B2C047F8E656F833
:1097F000040B05AB00220A2142F052FD05ABCDE976
:109800000043049B3BE756F8040B05A942F004FD16
:10981000F4E756F8040B05AB00220A2142F040FDA4
:10982000ECE756F8040B05A942F0F6FCE6E7A0F1D8
:109830005802B2FA82F256F8040B520905AB102115
:1098400042F02EFDDAE7A1F15802B2FA82F256F8A0
:10985000040B520905AB102142F022FDCEE725464C
:109860001AE700BF2DE9F047D0F804C0BCF810306B
:10987000804665480E4690B017464FEAD31E190938
:1098800000256A010135835A8EEAD31481EA131345
:1098900004F0030403F00703234308D0102DF0D194
:1098A0000023C8F80C30184610B0BDE8F08700EB74
:1098B0000209DCF8001099F81C20C8F80C90002A66
:1098C000F1D1B1F84430514C6FEA43436FEA53434E
:1098D0009BB2A1F844300B889BB243F080030B800D
:1098E0009CF805300A8C2344012593F8C83005FA0A
:1098F00003F39BB292B222EA03020A840A8C92B268
:1099000013430B840B889BB22B430B80484645F0D6
:109910008BFDD8F80CA00A23A9F81C30504645F05E
:1099200083FD9AF914303A4ACAF81880002BCAF815
:109930000C205FDB374A03F01F0CD1185B09302085
:1099400005FA0CF581F8000342F82350D8F80C30E2
:10995000986845F0D3FCD8F80C309868036823F079
:109960000103036045F0CAFC0023CDE90C33CDE9C7
:109970000E33D8F8042006930A935379032B40D86A
:10998000DFE803F035322F0213684033128A029366
:1099900002F00F0304EB8304D8F80C20D4F8CC3089
:1099A000906801934FF4806140224FF40033079197
:1099B0004FF480454FF4805401A904920B93CDE9F4
:1099C000084505970396FFF761FCD8F80C309A68B4
:1099D000136843F0100313600123184610B0BDE86C
:1099E000F08713683C33D1E713683833CEE7136848
:1099F0003433CBE7084A03F00F031A4430231376BD
:109A0000A4E70023C2E700BF00000020287105087A
:109A10001DAC040800E100E0FCEC00E082B0002393
:109A20000193019A0C490D4BD1F81C1442F020020D
:109A30000192019A60F38A120192019A0A610A69FD
:109A4000019203E00A690192013B02D0019A920659
:109A5000F8D4002002B0704778140020400D0300B5
:109A600010B58021044644F0C7F92046002144F097
:109A7000C3F92046BDE8104044F0F2B9037870B451
:109A800033B30246C0F10105531912F8014FDBB29E
:109A9000002CF9D101335B00DAB20F4C0B800323A9
:109AA00084F8042A84F8053A017879B10223002663
:109AB0005A1CE51854FA82F285F8041A82F8046AEE
:109AC00010F8011F0233DBB20029F1D170BC7047DE
:109AD00002221346E1E700BF781400202DE9F04F81
:109AE0002DED108B034693B004331193DFEDC1AA23
:109AF000109002230F928B460E938946109C4FEADA
:109B0000DB0504EB451202EB0511A5EB85034FEADB
:109B1000C5084FEA051E05EB850A009101EBC3035A
:109B200008F104000EF104012E46204405EB450522
:109B300021444FEACA040D9602942C01C6EBC60CD0
:109B40000394EC000D9D04944FEACC0405946C0141
:109B50000194119D009C03EB46174FEACB0A02EBE0
:109B6000C6064FF0000C55ED011A11ED012AD6ED95
:109B7000005AD7ED004A92ED003AD4ED003A10EDCC
:109B8000015A93ED004A72EE238A34EE248A71EE74
:109B9000836A35EE257A36EEA86A77EE087A35EED6
:109BA000655A76EE275A36EE676A45ED015A82ED20
:109BB000006A90ED00AAD6ED012A93ED016AD7ED77
:109BC000019A94ED010AD1ED005AD5ED007A92ED9B
:109BD000019A34EE644A76EE690A7AEE624A35EE0C
:109BE000C01A31EEC33A72EE633A34EEA02A77EE31
:109BF000C91A74EEE04A75EE805A75EE440AB0EE6A
:109C0000410A35EE045AA2EE2A0ADC44E145A2EEEE
:109C10006A1AB0EE434AB0EE432AA0EEAA2AA0EE9A
:109C2000EA4AB0EE613AF0EE610AE4EEAA0AA4EE66
:109C3000EA3AF0EE634AE5EE6A3AE5EE2A4A7AEE4F
:109C4000222A36EE296A77EE897A72EE861A37EE84
:109C5000487A32EEC66A76EEE86AB0EE635A77EE7C
:109C6000A53A77EEE57A73EEA18A36EE868A73EE30
:109C7000E13A76EEC66A77EEC71A72EE002A77EE00
:109C8000277A74EE015A30EEE46A33EE457A32EE0A
:109C9000402A34EE414A74EEA04A35EE035AC5ED2F
:109CA000008AC2ED013A554401ED018A5244C4EDE7
:109CB000006AC1ED001AC4ED017A514440ED012A59
:109CC000544487ED002AC6ED005A83ED004A80ED2A
:109CD000006AC7ED014A504486ED017A574483ED8E
:109CE000015A564453443FF63EAF0D9B072B40F2BA
:109CF000A3810198109D059B049A0399029C08304A
:109D0000281808330A902846C31808328218059389
:109D1000034608F108080EF10C0E0C330834083124
:109D200006920246454472440419411804934B4676
:109D30000995D1460894079103924FF001084FF01E
:109D4000000E9A460E9B9E440F9B03EBCE0303EB43
:109D5000CE0202EBCE0000EBCE0404EBCE0505EB09
:109D6000CE060C9306EBCE07AEEB8E030B9207EB01
:109D7000031202EBCE0C0CEBCE03029203EBCE02ED
:109D800001931346D3ED01DA019BD0ED007A93EDF8
:109D900001DA029BCDED027A93ED01CA0B9BDCED5B
:109DA00001CAD3ED007A0C9BCDED017A02EBCE0215
:109DB00002EBCE01009201EBCE02D3ED007A92EDE0
:109DC00001FA009AD1ED01EA92ED01EAD7ED00BA6D
:109DD00096ED00BA95ED00AAD4ED009ACDED007A8B
:109DE000DDE90376DDE90554DDE90701DDE9092355
:109DF000C44601E0F304353F91ED006A56ED01FAE7
:109E0000D0ED002AD4ED005AD5ED006A93ED007A2A
:109E100057ED017A92ED002A96ED008A7FEE870ACF
:109E200032EE061A37EEA24A75EEA64A70EE841A92
:109E300031EE245A32EE462A31EE856A75EEE65A44
:109E400006ED016AD4ED018A92ED019A91ED013A95
:109E500095ED016A97ED000AD0ED016AD3ED013A64
:109E60003FEEC77A77EEE27A78EEC6FA79EE432AC9
:109E700039EE033A30EE669A38EE866A70EE266A5C
:109E800078EE638A32EEEF0A72EEAF2A78EE233A6A
:109E900030EEC44A32EE258AF0EE490A72EE655A77
:109EA000E2EEAA0ADC44E245A2EEEA9AB0EE682AA3
:109EB000F0EE472AE5EEAA2AA5EEEA7AA0EE2A2AD3
:109EC00073EE065AE0EE6A8AF0EE67FA33EEA60AFF
:109ED000E8EE6A7A71EE644A31EEC55A33EE463ADC
:109EE00070EE651A73EEE63A34EE036A72EEA06A1B
:109EF00034EE434A72EEE00A33EEE43AE8EE2AFA30
:109F000074EEA33A65EE6D2A77EE094A37EE499A68
:109F100038EEE77A77EEA88A6DEEA17A9DED018A98
:109F2000E9EE857AE9EEA12A26EE6C5A6CEE831AE8
:109F300032EE6F1AA8EE035AE8EE061A2EEEA33A96
:109F400024EE6E6A9DED008A3FEE822AABEE043A63
:109F5000ABEE236A2CEE014A66EECC3AA8EE264A16
:109F6000E8EE013A6FEE026A20EECF1AEBEEA06A3D
:109F7000ABEE821A64EECE0A2EEE072A9DED028A1F
:109F8000EAEE070AAAEE242A2DEE287A69EE4D4A57
:109F9000A8EE097AE8EE284A70EE255AC6ED005A76
:109FA000C3ED007AC3ED012A4E4447ED011A87ED57
:109FB000005A4B4480ED003A80ED016A4F4482ED37
:109FC000004AC2ED013A4844C5ED006A85ED011A28
:109FD0004A4481ED002A4D44C1ED010A84ED007A26
:109FE000C4ED014A49444C443FF606AF0A9B08338E
:109FF0000A93099B08330993089B08330893079B2E
:10A0000008330793069B08330693059B0833059393
:10A01000049B08330493039B083303930D9B08F1BF
:10A02000010843457FF48EAE0E9BDDF834B0DB00B3
:10A030009BB2D1460E9361E513B0BDEC108BBDE829
:10A04000F08F00BF804BB3FBF2F399420DD3002396
:10A050004FF07E5243608360C3600361026000235F
:10A06000836143610362C361704707EE902A9FEDED
:10A07000777AF8EE676A07EE901A66EE876AF8EE6E
:10A08000677A66EEA76AFDEEE67A17EE903A20331D
:10A09000402B00F2CA80DFED6E7AF4EEE76AF1EE53
:10A0A00010FAF0EE667A0CDDDFED6A5A9FED6A6A0F
:10A0B000B0EE677AB4EEC67AF1EE10FA77EEE57A92
:10A0C000F6DC9FED667AF4EEC77AF1EE10FA0CD565
:10A0D000DFED605A9FED626AB0EE677AB4EEC67A41
:10A0E000F1EE10FA77EEA57AF6D49FED5E7AF4EEF3
:10A0F000C77AF1EE10FA00F390809FED5B7AF4EEF0
:10A10000C77AF1EE10FA44BF9FED547A77EE677A82
:10A1100027EEA76ADFED554A9FED557A9FED555A18
:10A12000DFED555AA6EE247A67EE864AA6EE075A68
:10A13000B6EE007AE6EE055AE4EEA57A27EE877AC7
:10A140009FED486A76EE867AFDEEE75A15EE903A74
:10A150002033402B66D8F4EEC66AF1EE10FA0CDD1F
:10A16000DFED3C5A9FED3C6AF0EE676AF4EEC66A9A
:10A17000F1EE10FA77EEE57AF6DCDFED386AF4EE10
:10A18000E67AF1EE10FA0CD5DFED325A9FED346A23
:10A19000F0EE676AF4EEC66AF1EE10FA77EEA57A91
:10A1A000F6D4DFED306AF4EEE67AF1EE10FA3FDD38
:10A1B000DFED276A76EEE77A67EEA76ADFED2B4AD6
:10A1C0009FED2B5ADFED2B5A9FED2B6AA6EEA45A7A
:10A1D00067EEA64AE6EE855AB8EE005AA6EEA56AE4
:10A1E000E4EE867A67EE857AC7EE006AB7EE006A1B
:10A1F00076EE865A76EE666A86EE257A67EE277ADE
:10A2000066EE876AC0ED017AC0ED037A80ED007AD0
:10A2100080ED027AC0ED046A21E79FED0D7A77EEBA
:10A22000677A75E7DFED157ADEE79FED147A87E749
:10A23000DFED0D6AF4EEE67AF1EE10FA44BFDFEDE1
:10A24000076A76EEE77AB7E720A1070027D4D2366F
:10A25000DB0F4940DB0FC940E4CB1641DB0F49C09F
:10A26000E4CB16C1DB0FC93FDB0FC9BF9A7C2E368A
:10A27000FAAF4FB93587083CA4AA2ABE00000000F7
:10A280000023024A426003608360704783F9223EE4
:10A29000034A044B4260002101608360704700BFA5
:10A2A0005B128B3A6F12033B034B6428B8BF6420E8
:10A2B000C3F8B405704700BF00000020034B6428BA
:10A2C0001B6CB8BF6420D860704700BFF8F700204F
:10A2D0002DE9F04790B0DDE918480E460746914653
:10A2E00001A83C2200219A461A9D4CF082FE2E4B7A
:10A2F0008DF80460CDF834800293002E50D0B31E48
:10A30000012B4FD9042E14BF00230323DFF89C80B8
:10A310008DF80530D8F8443B03941C440123CDE963
:10A32000055704948DF83130B9F1000F06D052462C
:10A33000494607A84CF072FC8DF830A098F84AEB1B
:10A340000023BEF1010F0E931CD801AC0FCC98F87E
:10A3500049CBCCEB0C1508EB850505F64C350FC544
:10A360000FCC0FC50FCC0FC594E80700BCFA8CFCCE
:10A370000EF1010E4FEA5C1C85E8070088F84AEBF5
:10A3800088F849CB3B6843B153464A463146384684
:10A3900010B0BDE8F0471EF02FBC10B0BDE8F0874C
:10A3A0000523B3E70223B1E77C1F002078140020C7
:10A3B00000230360704700BFB4EEE00AF1EE10FA2C
:10A3C00009D4F7EE007AB4EEE70AF1EE10FA88BF8E
:10A3D000B0EE670A7047B0EE600A7047074B084955
:10A3E000D3F8F42BC3F8E41B931E4FF47871223298
:10A3F00023F8021F9342FBD1704700BF781400205E
:10A40000C52B020870B5244E244BC6F8E43B11243A
:10A410004FF4787506F540634FF4787086F8C84BB2
:10A420004FF47874C3E90045C3E90245C3E9044524
:10A43000C3E90645C3E90845C3E90A45C3E90C4534
:10A44000C3E90E451649C6F8400C84B006F6C8327A
:10A4500041F60B2400254020C2E90245C6F8E81B5E
:10A460001FF0B2FFB0B196F84B3C0E4A90F90400D1
:10A470000092012B0CBF082200220323CDE90132F8
:10A480004021094A00231FF0CBFDC6F86C0C0038B0
:10A4900018BF012004B070BD781400201D370208D9
:10A4A00015380208A0680600B144020880F00101D6
:10A4B000014839F053BE00BF04230020054BD3F8F8
:10A4C0008C2EB3F8903E51690B4214BF5383138313
:10A4D000704700BF78140020F8B504460F461646B2
:10A4E00025218C2200681D463AF07AFC3A46206805
:10A4F00026213AF075FC45F08002272120683AF0C9
:10A500006FFC0A2038F024FF20682B463246492190
:10A5100039F06CFF0120F8BD642828BF64201C4B73
:10A5200000EB800070B54500A3FB05235E095B09C5
:10A5300018BF002422D001349F203BF047FAE3B239
:10A540009E42F8D80A2E00D170BD1248A0FB0530FB
:10A550000009C6EB8613C6EB830366381844C0B205
:10A560003BF034FA092E06F10104EDD001349A20B3
:10A57000E4B23BF02BFA0A2CF8D170BD0548A0FBE1
:10A58000053000096638C0B23BF020FA0124EDE73F
:10A590001F85EB51CDCCCCCCF0B41A4E96F8703F61
:10A5A000032B2CD80C2202FB036202F6787252F8BD
:10A5B000041C0133CC07DBB20ED501420CD092F95A
:10A5C0000070114C002194F90050BD4204F10C04BC
:10A5D0000BD001310429F6D1042B02F10C02E6D193
:10A5E00086F8703F0020F0BC704701EB410106EB9C
:10A5F000810186F8703FD1F8F800F0BC7047002068
:10A60000F1E700BF781400206C1500200144884257
:10A6100018D030B4441E4D1E002041F2210114F820
:10A62000012F082380EA022010F4004F81EA400243
:10A630000ABF400090B280B2013BF5D1AC42EED1EE
:10A6400030BC704700207047D0ED017AF5EE407ABB
:10A65000F1EE10FA05D19FED0B7AF0EE477A80ED1E
:10A66000017A30EEA77AD0ED007AC0ED020AC0EE92
:10A67000876A30EE670AE6EE807AB0EE670AC0EDD0
:10A68000007A704783F9223EBCEEC00A7F4AB2FBD3
:10A69000F1F210EE103A9BB2934208D300234FF030
:10A6A0007E5243608360C36003610260704707EEBF
:10A6B000901A9FED777AF8EE676A07EE903A66EEA9
:10A6C000876AF8EE677A66EEA76AFDEEE67A17EE1D
:10A6D000903A2033402B00F2CA80DFED6E7AF4EE20
:10A6E000E76AF1EE10FAF0EE667A0CDDDFED6A5AF9
:10A6F0009FED6A6AB0EE677AB4EEC67AF1EE10FAB0
:10A7000077EEE57AF6DC9FED667AF4EEC77AF1EE45
:10A7100010FA0CD5DFED605A9FED626AB0EE677AF1
:10A72000B4EEC67AF1EE10FA77EEA57AF6D49FED84
:10A730005E7AF4EEC77AF1EE10FA00F390809FEDA6
:10A740005B7AF4EEC77AF1EE10FA44BF9FED547ACB
:10A7500077EE677A27EEA76ADFED554A9FED557AC7
:10A760009FED555ADFED555AA6EE247A67EE864ADC
:10A77000A6EE075AB6EE007AE6EE055AE4EEA57AA2
:10A7800027EE877A9FED486A76EE867AFDEEE75AE5
:10A7900015EE903A2033402B66D8F4EEC66AF1EEFF
:10A7A00010FA0CDDDFED3C5A9FED3C6AF0EE676A73
:10A7B000F4EEC66AF1EE10FA77EEE57AF6DCDFED3C
:10A7C000386AF4EEE67AF1EE10FA0CD5DFED325A83
:10A7D0009FED346AF0EE676AF4EEC66AF1EE10FAA5
:10A7E00077EEA57AF6D4DFED306AF4EEE67AF1EE94
:10A7F00010FA3FDDDFED276A76EEE77A67EEA76AAB
:10A80000DFED2B4A9FED2B5ADFED2B5A9FED2B6A84
:10A81000A6EEA45A67EEA64AE6EE855AB8EE005AAE
:10A82000A6EEA56AE4EE867A67EE857AC7EE206A20
:10A83000B7EE006A76EE865A76EE666A86EE257A7E
:10A8400067EE277A66EE876AC0ED017AC0ED037A7B
:10A8500080ED007A80ED027AC0ED046A70479FEDCA
:10A860000D7A77EE677A75E7DFED157ADEE79FED13
:10A87000147A87E7DFED0D6AF4EEE67AF1EE10FA6E
:10A8800044BFDFED076A76EEE77AB7E720A107005D
:10A8900027D4D236DB0F4940DB0FC940E4CB164149
:10A8A000DB0F49C0E4CB16C1DB0FC93FDB0FC9BFCB
:10A8B0009A7C2E36FAAF4FB93587083CA4AA2ABE37
:10A8C0000000000070B4344890F8A83FA3F13001B4
:10A8D000092957D800F6A874224600F6B77012F876
:10A8E000015FA5F13001092904D88242F7D1002087
:10A8F00070BC7047141B022C4ADD2848002101E07F
:10A9000010F8013B01EB810103EB4103161A303BC8
:10A91000022E044603F0FF01F2DC214B03FB01F1A0
:10A92000A2424FF000030DD903EB830314F8016B2F
:10A930005B00303B3344A24203F0FF03F4D11948DB
:10A9400000FB03F32E2D06D01748A0FB032301EBD9
:10A95000930070BC7047013204200024157804EB8A
:10A960008404303D6400092D00F1FF30A4B202D808
:10A970002C44A4B2013210F0FF00EFD1642202FB9C
:10A980000433E1E700211D4600F6A8720B46D9E723
:10A99000064C0021C4E700BF7814002021240020C9
:10A9A0008096980040420F00ABAAAAAA202400205B
:10A9B0009B1A00FB03F090FBF1F01044704700BFBE
:10A9C000094BD3F8B80FD3F8BC2FD3F8C03F82425D
:10A9D00002DB114602460846984204DD9A42B8BF9F
:10A9E0001A461046704770477814002030B4144A55
:10A9F000D2F8C40FD2F8C83FD2F8CC4FD2F8D01F4B
:10AA0000D2F8D42F834202DB1D46034628468A42F1
:10AA100002DB15460A4629468842A8BF08469342EB
:10AA2000B8BF1346A04202DC2246044610468342C9
:10AA300003DAA342B8BF2346184630BC704700BFB4
:10AA4000781400200B6810B414681B1B0360546852
:10AA50004B681B1B43608B6892685DF8044B9B1A24
:10AA6000836070472DE9F04705468CB008461446D0
:10AA700041F09CFD4FF47A72002306460F4646F0E3
:10AA800029FC394680464FF47A723046002346F05E
:10AA900021FC3C2604FB06884FF47A7396B200270B
:10AAA000C3FB08673B4609A8324641F0C9FC764B18
:10AAB00093F8DA3F012B00F09880022B17D19DF814
:10AAC0002680A8F10303082B11D8A8F10403062B54
:10AAD00040F28280BDF82400414641F047FCB8F1C5
:10AAE000030F00F09E80B8F10B0F00F0A7803246F4
:10AAF0003B4609A841F0A4FC6449BDF8242081FB31
:10AB000004310B19E117C1EB6311C1EB0113A4EB85
:10AB100083031BB2002BB8BF5B42B2F5FA6F9EB243
:10AB200009B220D39DF82630581E0B281BD89DF85B
:10AB30002770781E1E2816D89DF828C0BCF1170F64
:10AB400011D89DF829E0BEF13B0F0CD89DF82A9052
:10AB5000B9F13B0F07D8BDF82C00B0F57A7F02D2CF
:10AB60004FF0010812E00023DFF82CA1ADF82830E7
:10AB7000012718468DF82A30ADF82C3099469E46AC
:10AB80009C461A469846CDF824A03B4614F13B0F4C
:10AB9000B4BF2D242B240029B8BF494289B2CDE986
:10ABA0000390CDE90541CDE901CE394907960097DB
:10ABB000284641F0F7FD40460CB0BDE8F087B8F1FB
:10ABC000030F59D0B8F10A0F91D19DF82810B1FAAE
:10ABD00081F1490900298AD02E4B3C34F6184FF0F8
:10ABE000000324B243EB070781E79DF82680A8F114
:10ABF0000303072B3FF67BAFA8F10403052BEBD92A
:10AC0000BDF82400414641F0B1FB9DF82730984241
:10AC1000D5D0B8F1030118BF01210029DCD166E7C6
:10AC200007380E28FCDC9DF82730834212D0CCBFB9
:10AC3000012100210029CFD159E707380728FCDC82
:10AC40009DF8273083420ED0B4BF01210021002996
:10AC5000C2D14CE79DF82810012994BF00210121A1
:10AC60000029B9D143E79DF8281001298CBF0021A4
:10AC700001210029B0D13AE79DF82810003918BF0A
:10AC800001210029A8D132E778140020898888881A
:10AC9000D0D1050880EE3600000001012DE9F04119
:10ACA000274B86B09C1D1E4603F160081F464FF0DF
:10ACB000000C94F800E0A0EB0E05A0EB0C02002DB8
:10ACC000B8BF6D42002AB8BF52429542B8BF27466E
:10ACD00004F10604B8BF4FFA8EFCA045E9D17C8888
:10ACE00003F15A0E002204E02546B64516D016F8A8
:10ACF000062F6245F8D1B6F80280A1EB08020B1BC3
:10AD0000002AB8BF5242002BB8BF5B42934225468F
:10AD1000EBDDB645444645463746E8D17E793C7979
:10AD200002953A78019200910346CDE90346054A1F
:10AD30000321012042F0E2FC384606B0BDE8F08174
:10AD40001472050800D2050838B504460D460C22D9
:10AD5000252100683AF044F820680A2226213AF0BA
:10AD60003FF82A46206863213AF03AF820688122A9
:10AD700027213AF035F8012038BD00BFF8B5104E54
:10AD8000044686F8E22F15460F468C2225210068DE
:10AD90003AF026F83A46206826213AF021F845F0A4
:10ADA0008002206827213AF01BF838F08FFA01233F
:10ADB00006F57E62C2E9020186F8E13F1846F8BD59
:10ADC00078140020074BD3F8F82FD3F8F01FD3F8EE
:10ADD000F40FC3F8F00F5242C3F8F41FC3F8F82F72
:10ADE000704700BF7814002038B50B4C0B4D232161
:10ADF000D5F8FC0F3BF0D2FB14F8011F0029F7D166
:10AE000007483EF0BBFA074B13F8F82C12B10122A9
:10AE100003F8F72C38BD00BF3CD205087814002099
:10AE200048D20508702500202DE9F04F3B4C3C4BE3
:10AE300094F84C583B4ADFF8F4808946002D08BF4F
:10AE40001A4694F94D188BB0074637483CF0BAF8CB
:10AE500004F52B744D460026B9F1000F3ED0227840
:10AE60002B789A426A683BD0D5E902CE0021A87DB2
:10AE70000790B5F914000690B5F912000590B5F9E0
:10AE800010000093CDE903E0CDE9012C33464246A2
:10AE9000384609913CF012FC0999A37D6268B4F927
:10AEA00014B0B4F912A0B4F910E0D4E9020C07937D
:10AEB00014F8183B0093CDE901203346CDE905ABEA
:10AEC000CDE903CE4246013638463CF013FC3C2E19
:10AED00005F11805C0D10BB0BDE8F08F4946DCE79D
:10AEE0006168D5F808C0914202D0D5F80CE0BDE702
:10AEF000A168D5F80CE06145B8D1E1687145B5D1DC
:10AF0000206929698842B1D16069696920F07F4070
:10AF100021F07F418842A9D10121A8E770250020B6
:10AF200058D2050888D705085CD205086CD20508F8
:10AF300070B51D4E96F838322DED028B04460D4645
:10AF40005BB3D6E99012D6F8483296ED8F8A8360CB
:10AF5000C0E90012DFED158A95ED000A80EE280A9F
:10AF600048F02EFE23681844206028EE288A95EDCC
:10AF7000010A80EE080A48F023FE63681844606006
:10AF800095ED020A48F01CFEBDEC028BA368024658
:10AF9000134496F83802A36070BDC0E900338360A3
:10AFA000B7EE008AD6E700BF702500202C7D8E3FCB
:10AFB000204BF0B493F8384234B900230360436067
:10AFC00083602046F0BC70470D68D3F84072D3F818
:10AFD0004462D3ED8F6A9FED186AED1B07EE105A9D
:10AFE0004D68AD1B07EE905AB8EEC77A66EE866ADA
:10AFF000F8EEE77A27EE067A67EEA67A012A80ED68
:10B00000007AC0ED017A0CD08A68D3F84832D21A9F
:10B0100007EE902AF8EEE77AC0ED027A2046F0BCFF
:10B020007047D1ED027AF8EEE77AC0ED027A204659
:10B03000F0BC7047702500202C7D8E3F1D4A2DE905
:10B040007003546C1C4E002CD6F8A83503600EDD3E
:10B050004832002306F5B56501E09C4207D052F85E
:10B06000041BA94203F10103F7D1012200E00022F1
:10B07000D6F8B43583600271104A96F8B83543713A
:10B080001346F3E80289D3E90045D6F8D83552F8DB
:10B09000042CD6F8D01581625B0943EAC2635209D9
:10B0A000C0E90489C0E90645C0E90832BDE870037B
:10B0B000704700BFF8F7002000000020E0050020E6
:10B0C000014BD3F82802704700000020014BD3F851
:10B0D000B802704700000020014BD3F8700270479F
:10B0E000000000200C4608B505461EF0BFFD2046B6
:10B0F0001EF0BCFD0020FFF7D9F9284638F0CCF946
:10B10000B0B9204638F0C8F90028F6D00120FFF782
:10B11000CDF9204638F0B8F90146284638F0E2F972
:10B120000020FFF7C3F9284638F0B6F90028E8D028
:10B130000120FFF7BBF9284638F0A6F90146204662
:10B1400038F0D0F90020FFF7B1F9DAE7F0B50023C5
:10B150000B604B608B60CB600B610268DFF88CC0CA
:10B1600089B004ADC2F385572E4647FA03F0C007F5
:10B17000344604D513F80C0004F8010B26460133BD
:10B18000062BF2D11748C2F303240444002394F899
:10B19000544133708DF8184000F5AE7CC2F305378A
:10B1A0000DF1190647FA03F0C007344604D513F829
:10B1B0000C0004F8010B26460133062BF2D10023C4
:10B1C0003370C2F3834406ABCDE90134084602F084
:10B1D0000F0305490095C2F3031241F0E3FA09B0E9
:10B1E000F0BD00BF287105088CD2050874720508EF
:10B1F00010B4414A92F8D130D2F8B800023BD2E9FB
:10B200002C14062B74D8DFE803F05A5C6050065506
:10B21000040064424942404280EAE073A3EBE073D9
:10B2200006EE903A84EAE473A3EBE47307EE103A77
:10B23000F8EEE66A9FED316AB8EEC77A26EE866AC6
:10B2400081EAE173A3EBE17307EE903AB4EEC76ACB
:10B25000F1EE10FAF8EEE77A04DDB4EEE76AF1EE0B
:10B2600010FA34DC9FED256A27EE066AB4EEE76A31
:10B27000F1EE10FA04DDF4EEC66AF1EE10FA2DD408
:10B280009FED1E6A67EE867AB4EEE77AF1EE10FA69
:10B290002BD5F4EEE76AF1EE10FA26D50029CCBFE3
:10B2A000042005205DF8044B70474B424042214684
:10B2B0001C46B1E7634240420C461946ACE749429E
:10B2C000AAE74B4261421C46A6E76442A4E7002875
:10B2D000CCBF002001205DF8044B7047002CCCBF90
:10B2E000022003205DF8044B70474FF0FF30D9E790
:10B2F00023460C4619468FE7F8F70020ABAA2A3FF1
:10B3000070B5294B294C93F8581C93F8593CDFED44
:10B31000286A94F88028D4F8A45807EE101A07EE8B
:10B32000903AB8EEC77AF8EEE77A27EE267A67EE1B
:10B33000A67A04EB4206BDEEC77A0132FDEEE77A4B
:10B3400002F00F01B6F8843884F8801817EE102A3E
:10B3500017EE901AC31A2B448A42C4F8A43882B05C
:10B36000A6F884084FEA131312DC17EE101A17EE32
:10B37000902A98B240F2FF350023009541F0F8FF83
:10B380002A46002142F016F8A4F8A80802B070BDC1
:10B390009BB29942D4BF581A00208242A6BF101A0D
:10B3A00080B20020E6E700BF78140020702500205E
:10B3B00014AE234138B503782DED0A8BD0ED01AAE8
:10B3C00070EE609A044669EEAAAAF0EE408AB0EEEA
:10B3D000607A0D46B0EE41AAF0EE61BAB0EE42CA14
:10B3E000B0EE629A002B61D1D0ED0B7A01F001032F
:10B3F000002B54D079EEE77AB0EE697A87EE8A0AAC
:10B40000D4ED090A84ED0B7AF5EEC00AF1EE10FADC
:10B4100057DCD4ED032A20EE220A94ED0ABAD4EDCB
:10B42000057A20EE099A3AEE8B8A68EEA78A38EE02
:10B43000098AB0EE4C1A38EE288AF0EE6B0AB0EEAC
:10B44000480A41F0A7FFD4ED027A94ED047A84ED26
:10B450000E9A69EEA77AF0EE4B6AEAEE276A6B075E
:10B4600030EE488AF0EE667A28EE078AC4ED0F8A3D
:10B47000EAEE087A84ED0CBAC4ED0DAA84ED100A48
:10B4800008D5B0EECBBAB0EEE77AB4EECB7AF1EEF7
:10B4900010FA01D5C4ED0A7ABDEC0A8B38BD77EEFF
:10B4A000677AF1EE677A87EE8A0AA9E711F001035D
:10B4B0004FF000020CBFF0EE607AF0EE697A027095
:10B4C00096E7B0EE4A1A04F1180094ED038A3EF0B4
:10B4D00061FE28EE000AA0E7064B13F8E31C03F513
:10B4E000F47203F5E873002918BF134693ED020ABE
:10B4F000704700BF70250020F8B5384C384FB4F8BD
:10B50000CA61B4F8BE317B822DED028B0D461EBBA5
:10B51000D7E90531C01A65EB010145F095FEDFED75
:10B52000317AB4F8C031B4F8C211B4F8C62107EECC
:10B53000100A67EE277A0B44FCEEE77A17EE905A72
:10B540002B449A4239D3BDEC028BB4F8C801A8420F
:10B550002CBF00200120F8BDFFF7BEFF07EE906A68
:10B56000B8EEE78AF0EE408AB4EEC80AF1EE10FABF
:10B570001FDAD7E90531C01A65EB010145F064FE19
:10B58000DFED187AB4F8C031B4F8C211B4F8C621AE
:10B5900007EE100A67EE277A0B44FCEEE77A17EE07
:10B5A000905A2B44934210D8F4EEC88AF1EE10FA68
:10B5B000C9DBBDEC028B0120F8BD25F023FC00287F
:10B5C000C1D0BDEC028B0320F8BD25F01BFC002888
:10B5D000F7D1FFF781FFF0EE408AE5E7781400200D
:10B5E000F8F700206F12833AF8B5214D1D260C465E
:10B5F000074685F8AA681DF099FE00201DF01AFE86
:10B6000008201DF017FE0E201DF014FE30461DF020
:10B6100011FE04201DF00EFE04201DF00BFE002084
:10B620001DF008FE30201DF005FE00201DF002FE7A
:10B6300020461DF0FFFD00201DF0FCFD1DF056FE14
:10B6400005F6AC001DF058FD00B9F8BD95F8AC3812
:10B6500063B995F8AD38302B00D03BB995F8AE38CA
:10B6600023B995F8AF383B700120F8BD0120F8BD33
:10B67000702500202DE9F04FB74CDFF8E492DFF899
:10B68000E4A22DED028B0022002304F54075C9E9E8
:10B6900046239FEDB28A87B02E46A4F6BC08002749
:10B6A0000CE008EBC3032278D3F8BC3B02B163B9CA
:10B6B0002F601834A64205F108053ED094F90130F8
:10B6C000002BEEDA2378002BF2D02B79D807F0D4B8
:10B6D000A16820791CF05CFF21698346207B1CF067
:10B6E00057FFA2780346252AE2D8DFE812F0360099
:10B6F000F6005100EF0021012A014F003100EC015A
:10B70000F501FB01080203020601100118016400A3
:10B710006D00780081004C015C0176018801900188
:10B720009601AE01B401BA01C001C901DF01FD00FB
:10B73000B700D10091003D01E00098F8CC3C13B176
:10B7400098F8CE3C9BB907B0BDEC028BBDE8F08FFA
:10B75000BBF1000FACD00028AAD0237D01222A60C3
:10B76000DA07A6D52B7943F001032B71A1E798F8EE
:10B77000CD2CD8F8D00C402139F032FB002388F8CA
:10B78000CE3C07B0BDEC028BBDE8F08F40F2826387
:10B790009B45D4BF4FF0000B4FF0010B237DC5F844
:10B7A00000B0DB0785D5BBF1000F82D02B7943F0C9
:10B7B00001032B717DE700FB0BF047F6FF7251464A
:10B7C00041F0F8FD8346E9E70028E7D09BFBF0F065
:10B7D00047F6FF72514641F0EDFD8346DEE75FFA22
:10B7E0008BF0194600931CF0ADFE009B9B46D5E7FD
:10B7F0005FFA8BF20190104600921CF0BDFE019B97
:10B80000009A03EB000B594610461CF09BFEC5E75F
:10B8100007EE90BAF8EEE78A002868EE888A08BF3B
:10B820004FF4FA73B0EE680ACDE9003341F0F0FE50
:10B83000F0EE407AB0EE680AF0EE678A41F06EFEF4
:10B84000C8EE807A009B07EE103AB8EEC77A67EE32
:10B85000877AFDEEE77A17EE90BA9FE707EE90BA87
:10B86000B8EEE70A002808BF4FF4FA7320EE080A82
:10B87000CDE9003341F0CCFE009B07EE903AF8EEA4
:10B88000E77A27EE800AFDEEC07A17EE90BA85E7D8
:10B8900007EE90BAB8EEE70A002808BF4FF4FA7333
:10B8A00020EE080ACDE9003341F038FEE4E70090CD
:10B8B0004FF47A725846002141F07CFD009B002233
:10B8C0004FF47A71FFF774F8834667E78345ACBF9E
:10B8D0004FF0000B4FF0010B60E7ABEB000BBBFA36
:10B8E0008BFB4FEA5B1B59E7D9F81831C9F8A0B1B7
:10B8F00043F08003C9F8183150E7BBF1000F7FF423
:10B900002CAF002840F00281D5F800B046E758443B
:10B9100047F6FF72514641F04DFD83463EE7ABEBE3
:10B92000000047F6FF72514641F044FD834635E77B
:10B9300040F234539B45CCBF4FF0000B4FF0010B4E
:10B940002CE7ABF23550B0F5A77F2CBF4FF0000BC2
:10B950004FF0010B22E700BF2C2E002035FA8E3C61
:10B96000F8F700200080FFFF1A4658460021009398
:10B9700041F020FD009B002219464FF47A73FFF737
:10B9800017F883460AE75FFA8BF20190104600929F
:10B990001CF0F2FD019B009AA0EB030B59461046E8
:10B9A0001CF0D0FDFAE65FFA8BFBBBF1070F00F24B
:10B9B000AB80C2B2003A98F8CD1C18BF012201201A
:10B9C000524200FA0BFB4A4002EA0B024A409B46F5
:10B9D00088F8CD2C88F8CE0CE0E6D9F81831227D15
:10B9E00043F00103C9F81831D1074FF001032B6070
:10B9F0007FF55FAE2B7943F001032B7159E6D9F83F
:10BA00001831227DC9F87CB143F00203EAE7D9F886
:10BA10001831227D43F00403E4E7D9F884319B45D3
:10BA20003FF446AED8F8BC0C02A937F0D3FB00288F
:10BA300047D058469DF80A20012141F0BBFC8346BF
:10BA4000C9F8840188F8C20CA8E6D9F81831227D1B
:10BA500043F00803C6E7D9F81831227D43F01003FC
:10BA6000C0E7D9F81831227D43F02003BAE7D9F8AE
:10BA70001831C9F894B143F04003C9F818318DE684
:10BA8000D9F898319B453FF413AED8F8BC0C02A905
:10BA900037F0A0FBA8B158460522012141F08AFCED
:10BAA0008346C9F8980188F8C00C77E6D9F89C312C
:10BAB0009B453FF4FDADD8F8BC0C02A937F08AFBDA
:10BAC00038BB2860F5E5BBF1000F7FF446AE0028D7
:10BAD0007FF443AE2860ECE5BBEB000B18BF4FF0E2
:10BAE000010B5BE6BBF1000F3FF437AE00283FF4DB
:10BAF00034AEDDE5BBFA8BFB4FEA5B1B4EE65BEA3F
:10BB000003033FF42AAED3E5834647E6C5F800B009
:10BB1000CFE558460822012141F04CFC8346C9F884
:10BB20009C0188F8C10C39E6164991F8A82F32B368
:10BB3000F0B4064600200346074602E092F8A82F1C
:10BB4000DAB100EB80002E2A4FEA400004D1013325
:10BB5000CA18324482F8A87FCA18A0F1300592F8BA
:10BB6000A82FA2F13004092C98BF50190E2B03F115
:10BB7000010301EB0302E1D90020F0BC7047002073
:10BB8000704700BF7814002070B5164ED6F8D43C2C
:10BB90001A791E3A012A054605D91846002137F0C0
:10BBA000A1FCD6F8D43C002D0ADD0F4C254414F836
:10BBB000011B184637F096FCA542D6F8D43CF6D1C6
:10BBC0001846002137F08EFC0849B6F8003DD1F840
:10BBD000441B074AC6F8F81C01330021A6F8003DB3
:10BBE000516070BD7025002048320020781400207C
:10BBF0006832002010B50A4C04F505600CF056FAC6
:10BC0000D4F85C38C01A41F0F9FB0028B8BF4042B4
:10BC100042F210739842D4BF0020012010BD00BF33
:10BC200070250020036813F0400004D013F4057F52
:10BC300014BF0120002070472DE9F043244D254C0E
:10BC400085B005F1280980460F461646C4F8F89BD2
:10BC5000C4F8F45BFEF7C2FB1F4BC4F8E83B1222AA
:10BC600084F8C82B04F6C83142F6F822002340209D
:10BC7000C1E902231EF0A8FB044610B3FFF7D2FF70
:10BC800098F800203F78034694F9040000961C1EA3
:10BC900014BF03210121002A0CBF07220622012F15
:10BCA0000CBF082300231A43CDE901124B460B4A6F
:10BCB00040211EF0B5F9A5F551652CB9003818BF23
:10BCC000012005B0BDE8F083C5F8780DF6E700BFA8
:10BCD0008032002078140020392D0208793D0208B6
:10BCE0000348044A00F64B4100F64A40A4E700BF6F
:10BCF00078140020400D03000348044A00F64B412D
:10BD000000F64A4098E700BF78140020A0860100A2
:10BD100008490138002310F8012F222A04D00133EA
:10BD20000F2B01F8012FF6D1034A1344002283F8A8
:10BD300046207047BD1400207814002010B5084C30
:10BD400082B00223C4F87C3D019044F0D1FC0199FB
:10BD5000C2B2D4F8800D02B0BDE8104037F0A0BBED
:10BD6000702500202A490023421E81F8843D0430BA
:10BD700012F8013F33B3413B332B21D8DFE803F006
:10BD80001A202020203E35202020202C202020207A
:10BD900020202023202020202020202020202020A0
:10BDA0001A202020203E35202020202C202020205A
:10BDB0002020202391F8843D43F0080381F8843D3E
:10BDC0008242D5D1704791F8843D824243F001030D
:10BDD00081F8843DCCD1F5E791F8843D824243F06F
:10BDE000100381F8843DC3D1ECE791F8843D824291
:10BDF00043F0040381F8843DBAD1E3E791F8843D30
:10BE0000824243F0020381F8843DB1D1DAE700BFFA
:10BE10007025002070B5C64CD4F8886D84B02EB162
:10BE20003046FFF7FFFE002840F0728194F8940D31
:10BE3000FCF71EFA94F88C3D834205461CD000287E
:10BE400000F08281C6B1BB4B96F9040093F82D2017
:10BE5000B2FA82F252094FF4165100230225CDE9BD
:10BE6000015200911A4604211EF0DAF8C4F8900D30
:10BE700010B1012384F88C3D94F8950DFCF7F8F986
:10BE800094F8963D834205461ED0002800F01C81A0
:10BE9000D4F8983DC3B1A74A93F9040092F834202E
:10BEA000002A18BF08224FF4964100230325CDE94C
:10BEB000015200911A4608211EF0B2F8C4F89C0DF8
:10BEC00010B1012384F8963DFCF79AFAD4F8A05DEE
:10BED0002DB12846FFF7A6FE002840F0FE8094F81A
:10BEE000B00DFCF7C5F994F8A43D8342064632D064
:10BEF000002800F032818F4B93F83730012B00F08F
:10BF00003B81022B0CBF8C4A8C4AC4F8AC2D15B374
:10BF10002A7A002A00F02D81022A00F03181012ABC
:10BF200040F03C81844BC4F8AC3D4FF4966395F9E6
:10BF30000400009300250221019102952B462A4618
:10BF400010211EF06DF8C4F8A80D20B1012384F86B
:10BF5000B15D84F8A43D94F8B20DFCF789F994F82A
:10BF6000B33D8342054636D0002800F0A480D4F8C3
:10BF7000B43DD3B11A7A002A00F0F880704901EB81
:10BF80008202D2F8642193F9040000920023032175
:10BF9000019102931A464FF480711EF041F8C4F8E3
:10BFA000B80D10B1012384F8B33D624A654BB2F875
:10BFB0005E1092F8605092F86100A3F82E1992F882
:10BFC000621092F8632083F8325983F8360983F8B7
:10BFD000371983F8382994F8BC0DFCF749F994F81F
:10BFE000BD3D8342054627D058B34FF4FA70FEF7A3
:10BFF0005BF9D4F8C03DFBB11A6802F41072B2F5D7
:10C00000107F19D093F9040003214FF4E13200238B
:10C010000825CDE9011500924FF400711A461DF074
:10C02000FFFFC4F8C80D38B142490122002308625D
:10C0300084F8BD2D84F8C43D94F8CC5D6DB104B096
:10C0400070BDD4F8C80D1DF0CFFFC4F8C85D84F8EA
:10C05000BD5D94F8CC5D002DF1D1D4F8D03D002B1E
:10C06000EDD0032293F90400CDE901251A7A344B6F
:10C0700003EB82034FF40021D3F8643100932A4686
:10C080002B461DF0CDFFC4F8800D0028D7D02948DD
:10C09000C4F8D85DD0F8443B84F8DC5D03F51C534C
:10C0A00010333A30C4F8D43DFFF75CFE012384F826
:10C0B000CC3D04B070BDD4F8B80D1DF095FFC4F8A8
:10C0C000B85D84F8B35D86E7D4F89C0D1DF08CFF55
:10C0D000C4F89C5D84F8965DF6E694F8A43D002BC8
:10C0E0007FF439AFD4F8783D002B3FF434AF114AD8
:10C0F000C4F8A83D92F83730012B48D0022B0CBF72
:10C100000D4B0E4BC4F8AC3D012384F8A43D22E74F
:10C1100094F88C3D002B7FF4AFAED4F8783D002B23
:10C120003FF4AAAE0122C4F8903D84F88C2DA3E61A
:10C130007025002078140020140900202009002018
:10C140002871050800000020D4F8900D1DF04CFF68
:10C15000C4F8905D84F88C5D8EE6D4F8A80D1DF0CF
:10C1600043FFC4F8A86D84F8A46DF4E64FF461426F
:10C1700009E74FF49643DAE60B4AC4F8AC2DC6E65D
:10C180004BB9094BC4F8AC3D4FF41663CFE6064BF0
:10C19000C4F8AC3DB8E74FF41663C8E6034B03EBB5
:10C1A0008202D2F86431C2E608090020287105082D
:10C1B00070B5254C064604F1460044F099FA94F80F
:10C1C00046502B2D38D0302D27D0382D2ED01F495A
:10C1D000002301E011F8015F0C464DB30133102B31
:10C1E000F8D1324606F11005134612F8011B222938
:10C1F00026D0AA42F8D1002820DDC0F1010019188C
:10C20000621C013301E08B4218D013F8014D12F883
:10C21000010D8442F7D0002070BD94F84720A2F1B0
:10C220003101012903460DD9362A0BD00138CEE75A
:10C23000002BF0D04C1ED4E70538C8E7012070BDB4
:10C24000013BD8E7981EC2E778140020BE140020F6
:10C250002DE9F04F2DED028B87B0884600AF1646D2
:10C2600020B10378303B012B40F28481DFF8349316
:10C27000DFEDC48A9FEDC48A98F80030002B3CD0D3
:10C2800036B1C24B3268D3F8443B9A4240F2AE8397
:10C29000BF4C94F8DD5D002D40F0A58294F8E00DD0
:10C2A000BC4B03EB4003B3F8A83163BB012384F814
:10C2B000E03DB94B5A6A11061DD59A68920740F1C4
:10C2C0007283B24AB2F8483112684FF4F36113FB3B
:10C2D00001F389FB0301DB17C3EB6113102030214D
:10C2E000C7F81330082338747974BB7438180024E5
:10C2F000904788F80040002EBED11C37BD46BDECEB
:10C30000028BBDE8F08F0130C0B2B3F58A6F84F8BC
:10C31000E00D00F0868127D8B3F5806F00F01B8216
:10C320006CD9B3F5866F00F0FB814FD9B3F5886FF8
:10C33000E1D1DFF858A29AF83130002BDBD0964AD1
:10C34000DAF80030B2F9BC21C7F8132010204021E0
:10C35000042238747974BA7438180024984788F81D
:10C360000040002E88D1C8E7B3F5006F00F034819B
:10C3700040F28980B3F5046F00F016816DD9B3F5F2
:10C38000116F00F00C82B3F5206FB4D1824BD3F85B
:10C39000B8319A06AFD5814A7C4BD2ED057A1B683D
:10C3A00067EEA87A1021FCEEE77A002417EE902AB7
:10C3B000C7F813200A2239747C74BA747818984725
:10C3C00088F80040002E7FF457AF96E7B3F5826FF0
:10C3D00000F0D481B3F5846F8DD16F4B5A6A120689
:10C3E00089D59A68950740F1B982D4F8782E674BC1
:10C3F000C7F8132010202021042242E0B3F5007F6B
:10C4000000F06A8169D9B3F5047F7FF474AF624BA1
:10C410005B6A9D077FF56FAFDFF870A19AF8323045
:10C42000002B40F0A38294F8EE3D012B0CBFB4F832
:10C43000FC3DB4F8FE3DC7F8133010220221DAF8B3
:10C4400000303A747A74B974B8180024984788F8A0
:10C450000040002E7FF410AF4FE7B3F5026F5CD1C0
:10C460004D4B5A6A11067FF546AF9A68920740F124
:10C470008D82464BD3F83821C7F813201020202195
:10C4800008221B6865E7B3F5E26F00F008814CD91C
:10C49000B3F5E46F7FF42FAFDFF8F0A09AF83130F6
:10C4A000002B7FF428AF3C4B93ED380A20EE080AAE
:10C4B00047F086FB102420210722C7F813003C74A4
:10C4C0003819DAF800307974BA740024984788F87B
:10C4D0000040002E7FF4D0AE0FE7B3F5807F00F070
:10C4E000C280B3F5887F7FF406AF2B4BD3F8B83109
:10C4F0005B077FF500AF2A4B14F8E31CA3F1180289
:10C50000002908BF134693ED050A47F059FB1F4A5F
:10C51000C7F813001023012158E1B3F5036F3FF46E
:10C52000C8AE002E7FF4A8AEE7E6B3F5C06F00F00A
:10C530008980B3F5E06F7FF4DEAE144D95F831409D
:10C54000002C7FF4D8AE144B93ED360A20EE080A87
:10C5500047F036FB102107222B68C7F813007C74C4
:10C560003974BA747818984788F80040002E7FF420
:10C5700083AEC2E601300621FCF75EF8044B83F877
:10C58000DD0D73E6B80C473E0000C8427814002069
:10C590007025002028710508F8F700207833002066
:10C5A000582700201F85EB51CE4BCF4AB3F9C0313D
:10C5B000126803EB83035B001020C7F8133040219F
:10C5C000082338747974BB743818904788F8005081
:10C5D000002E7FF451AE90E6C24B5A6A15067FF5E5
:10C5E0008AAE9A68940740F1FC81C30700F1E581A7
:10C5F000DFF8F4A2DAF8302182EAE273A3EBE27307
:10C6000003EB5303A9FB0313DB08002AB8BF43F075
:10C610008043C7F813301021DAF8003000240822D4
:10C62000C9E6B04B5A6A15067FF565AE9A6894075D
:10C6300040F1BE81AC4BB3F94A21C7F8132010205A
:10C640005021D9E6DFF8A0A29AF83530002B40F04F
:10C6500051811AF041F80024DAF80030C7F81300CD
:10C6600010210622A7E69F4BD3F8B83159077FF572
:10C6700042AE9E4B14F8E30C9B4AA3F1180100282C
:10C6800008BF0B46D3ED027A1368FCEEE77A10215F
:10C6900017EE902A0024C7F8132001228BE6924D52
:10C6A00095F83140002C7FF426AE8E4B93ED370A7F
:10C6B00020EE080A47F084FA10230721C7F8130078
:10C6C0002A683B747B74B974F818904788F8004066
:10C6D000002E7FF4D1AD10E6824B5B6A18057FF522
:10C6E0000AAE94F8EC3D002B3FF405AE7E49804A3B
:10C6F000B1F9FE337D7482FB0302DB17C3EBA203A7
:10C700001BB210240220B8740A68C7F813303C74B6
:10C710003819904788F80050002E7FF4ADADECE555
:10C72000714B93F83120002A3FF4E5AD6D4A1B6848
:10C73000B2F9BE21C7F81320102230213A74042226
:10C740007974BA7407F11000984788F80050002EE9
:10C750007FF492ADD1E5FBF737FD634BC7F81300CB
:10C76000102104221B687D743974BA7478189847B4
:10C7700088F80050002E7FF47FADBEE5594B5A6A11
:10C7800015067FF5B8AD9A68940740F10781FBF76D
:10C79000A1FE554AC7F813001023042116E0514B9F
:10C7A0005B6A99077FF5A7AD94F8E13D4BB194F82A
:10C7B000EE2D012A0CBFB4F8FC2DB4F8FE2DB2FB0F
:10C7C000F3F3494AC7F813300921102312683B7468
:10C7D0007B74B974F8180024904788F80040002E44
:10C7E0007FF44AAD89E5DFF800A107F108033B615A
:10C7F000DAF81C9007F10E037B61D9F80020DAF813
:10C8000014309A426E4694F8DE3D00F08A8007F1BB
:10C8100009023A615A1C84F8DE2D03F00F03052249
:10C82000D9F804B03B7294461346D9F80010ABEB2C
:10C83000010BD01D5FFA8BFB20F00700DC45ADEB50
:10C84000000D40F2DC805A4668464AF0E7F9D9F814
:10C8500000305B44C9F800305A46694607F11000C1
:10C860003FF066FFDAF81C20DAF81430D9F800003F
:10C87000117AC9F80400C21A4A40D2B28342C9F8F8
:10C88000003084F8DF2D0AD00133C9F8003013F8E6
:10C89000011C984282EA0102F6D184F8DF2D3B693F
:10C8A000591C39611A70D7E90432D21A012A08DDFD
:10C8B00000215A1C3A611970D7E90432D21A012AB0
:10C8C000F7DC07F10800FBF7BFFB002500231C374E
:10C8D000B54684F8DD5D88F80030BD46BDEC028BBE
:10C8E000BDE8F08FF8F700207814002058270020CA
:10C8F000676666664F4A526A12057FF5FCAC94F88B
:10C90000EC2D002A3FF4F7AC012B00F08F80D4F817
:10C91000003EC7F813301021DAF800300024062258
:10C9200049E5B9F90C20591C03F00F0343F010033B
:10C93000002AB8BF43F0200307F109023A613B72B5
:10C94000D9E9003B0422ABEB030384F8DE1D07F1B9
:10C950000A017B7239611346944666E71B68180723
:10C960007FF543AD002E7FF487ACC6E494F8E13D3B
:10C97000002B3FF460AD94F8EE2D012A0CBFB4F803
:10C98000FC2DB4F8FE2DB2FBF3F354E51B681B0736
:10C990007FF56FAD002E7FF46FACAEE41B68180717
:10C9A0007FF5F5AEA7E41B681B077FF58AACA2E410
:10C9B0001B6818077FF53EAE9DE4DFF87CA0DAF82F
:10C9C000342182EAE273A3EBE27303EB5303A9FB86
:10C9D0000313DB08002AACBF43F0004343F040439D
:10C9E00017E61B6819077FF500AE84E400231C37A7
:10C9F00088F80030BD46BDEC028BBDE8F08F68467C
:10CA0000C7E900324AF00AF9D9F800107A683B68A1
:10CA10001144C9F8001007F110001A4669463FF0AA
:10CA200087FE07F10800FBF70FFB4FE7DAF8003449
:10CA30006FE700BFF8F70020781400202DE9F041DF
:10CA4000DFF8208198F8ED30012B82B002D002B0DF
:10CA5000BDE8F081D8F804000028F8D0D8F8443BAD
:10CA60003E4C3F4E01330025019304F67C678DF860
:10CA700003500AE01B2B84F8845E48D00D2B5CD059
:10CA8000012386F83939D8F8040003685B689847B1
:10CA9000002849D0002D47D1D8F804000368DB688E
:10CAA000984783B27E2B4BD096F83929002AEAD1D9
:10CAB00094F8842E002ADDD17D2B4BD094F8882E5B
:10CAC0002AB180F02003D8B284F8885E034694F837
:10CAD000832E062A0BD8B4F886CEA11863440132FF
:10CAE000A4F8863E81F87C0E84F8832ECBE7B4F858
:10CAF000862E1344C3F3072252FA83F30122A4F8CB
:10CB0000863EFF2B08BF3D4686F83929BBE7D8F89B
:10CB1000040003685B6898470028B1D101238DF8B1
:10CB2000033086F83939AEE7284601AA0DF1030132
:10CB3000FFF78EFB02B0BDE8F081A4F8865EA2E7A5
:10CB400001238DF8035084F8835E86F8395984F800
:10CB5000843E98E7012384F8883E94E770250020FE
:10CB60000000002078140020074A12F8E31C02F5A8
:10CB7000F47302F5E872002908BF134603EB800343
:10CB800093ED030A704700BF70250020054B93F812
:10CB9000ED200AB1002070470222186083F8ED20D2
:10CBA0000120704778140020F0B5224C224DC4F8C3
:10CBB000F45B85B0FDF712FC12232049204A84F86B
:10CBC000C83B42F6F82604F6C83300274020C3E9E4
:10CBD0000267C4F8E81BC4F8EC2B1DF0F5FB30B37A
:10CBE00094F84B3C94F84A1C90F90400154A022B27
:10CBF00014BF08230023002908BF43F001030324C6
:10CC00004FF4E131CDE901430091002340211DF0B3
:10CC100007FAA5F68C65C5F8B00E014620B10A48A2
:10CC2000FFF7B4FF85F8B40E081E18BF012005B049
:10CC3000F0BD00BF78140020FC330020553F0208EF
:10CC4000AD4D0208C14202087136020810B50C4C05
:10CC500094F8ED300BB1002010BD20201DF0B4FB86
:10CC6000C4F8F00050B120211DF0A4FB054B84F85E
:10CC7000EE000120236084F8ED0010BD012010BDFE
:10CC8000781400207180000870B5104E96F8BB5ED5
:10CC9000C2B0AC1D224606F6BA61684649F0BEFF36
:10CCA000B6F8B83E0DF804300DEB040208351B0A47
:10CCB0006C465370254414F8011BD6F8B80D36F0B5
:10CCC00011FCAC42F7D142B070BD00BF702500200E
:10CCD0002DE9F04FD14CD24F93B004F6F878A7F17C
:10CCE0001005D4F8B80D36F0D7FB002800F08B8083
:10CCF000D4F8B80D36F0C8FB94F8CB3F00220646B6
:10CD000084F8C82F0A2B00F2CE87DFE813F0BD00AD
:10CD1000BD0070015B01460131011901FB00DA0021
:10CD20007F007F00022E3246BE4928BF0222002526
:10CD300002A8ADF8085049F071FF9DF80830012BAA
:10CD400040F01C8294F8CE2F94F8FD5F94F8FE0F0B
:10CD500094F94D188DF822508DF82300ADF820106D
:10CD6000B14D089E84F8BD3E511C40F2FE4042F693
:10CD7000FA4384F8BC2E84F8CE1FA4F8BA0EC4F887
:10CD8000C06E291DA4F8BE3E04224FF6FF7001E0DC
:10CD900015F8012B424082EA0212D2B2130983EA4B
:10CDA000102343EA0223A94283EAC200F0D19F4D37
:10CDB000A4F8B80E291D15F8012B82EA000383EAB6
:10CDC0000312D2B2130983EA102383EA022383EA0F
:10CDD000C20398B28D42A4F8B80E1BB2EBD183F017
:10CDE000DD0282EA0212D2B2130983EA102383EA37
:10CDF000022383EAC2031BB2A4F8B83EA4F8C43EDF
:10CE0000FFF742FF012013B0BDE8F08F0A2B05D0D9
:10CE10002A8A83B2B3EB122F00F00C8194F8CCAFC6
:10CE200005EB0A094FF488723946404689F81960C3
:10CE300049F0F4FE99F8191099F8182094F8CD3FAC
:10CE400094F8CA0F95F813C0B4F8D0EF85F854A43D
:10CE500042EA012201330121A4F8F82FFE2E4FF0FF
:10CE6000000285F8553484F8FBCF85F8531484F814
:10CE7000CA1FA5F85A04A5F858E484F8C82F00F092
:10CE8000818184F8CB1F2CE7FE2800F0D882EE7C4D
:10CE900094F8CC1F94F8CD2F94F8CACFB4F8D0EF03
:10CEA00084F8FB6F0132002085F8533485F8541460
:10CEB00085F85524A5F858E4A5F85AC484F8CA0F93
:10CEC0000FE7EB7D5A48B5F810C094F8CC1F184412
:10CED00090F8D43183EA0C0383EA0313DBB21A0916
:10CEE00082EA1C2242EA032282EAC3036A18D8B209
:10CEF0002B82864214BF0A2309231676EE7C84F81F
:10CF0000CB3FC7E794F8CC1F6A1801311076B5F80B
:10CF100010C0EE7C80EA0C0080EA0010C0B202096A
:10CF200082EA1C22C9B242EA002282EAC000B1426F
:10CF300084F8CC1F2882ADD1082384F8CB3FA9E721
:10CF40002A8AE875504080EA0010C0B2030983EADB
:10CF5000122343EA0023EE7C83EAC0002882002EDD
:10CF600040F01881082394F8CC1F84F8CB3F91E758
:10CF70002A8A94F8CC1FA875564086EA0616F6B29F
:10CF8000330983EA122343EA062383EAC60606230B
:10CF90002E8284F8CB3FEE7C7CE72A8A94F8CC1F63
:10CFA0002875564086EA0616F6B2330983EA12233C
:10CFB00043EA062383EAC60603232E8284F8CB3F86
:10CFC000EE7C67E72A8A94F8CC1F6875564086EA9B
:10CFD0000616F6B2330983EA122343EA062383EAEC
:10CFE000C60605232E8284F8CB3FEE7C52E7298AC1
:10CFF000E87480EA010383EA0313DBB21A0982EAC8
:10D00000112242EA032282EAC302002104232A8277
:10D0100084F8CC1F84F8CB3F3CE700BF702500208C
:10D0200078360020703500202C3400203034002069
:10D030002871050894F8CC9F05EB09010123487677
:10D040004FF488723946404684F8C83F84F8CB3F95
:10D0500049F0E4FDB4F8D03F2A7D84F8CD2F0BB918
:10D06000A4F8D23F01339BB20132A4F8D03FA5F817
:10D07000583494F8FF1FEE7C85F85524012394F86A
:10D08000CA2F85F85334002385F8549484F8FB6F35
:10D09000A5F85A2484F8CA3F2D296FD801A353F864
:10D0A00021F000BFE3CC00087DD100087DD100084D
:10D0B0007DD100087DD100087DD100087DD1000818
:10D0C0007DD100087DD100087DD100087DD1000808
:10D0D0007DD100087DD100087DD100087DD10008F8
:10D0E0007DD100087DD100087DD100087DD10008E8
:10D0F0007DD100087DD100087DD100087DD10008D8
:10D100007DD100087DD100087DD100087DD10008C7
:10D110007DD100087DD100087DD100087DD10008B7
:10D120007DD100087DD100087DD100087DD10008A7
:10D130007DD100087DD100087DD100087DD1000897
:10D140005DD300085DD100087DD100087DD10008C5
:10D1500025CD00088DD20008A1D10008042E32464A
:10D16000BB4928BF0422002501A8019549F056FDBE
:10D170009DF80680B8F1010F00F07881002013B00F
:10D18000BDE8F08F02214FF6FF73EA7484F8CB1FDD
:10D190002B82A6E5072394F8CC1F84F8CB3F79E6D1
:10D1A000022E3246AA4928BF0222002502A8ADF865
:10D1B000085049F033FD9DF80860012EDED10AF0D9
:10D1C0004FFE94F8FE2F94F8FD3F8DF822508DF815
:10D1D00020308DF82120089A94F8CE3F9D4D84F898
:10D1E000BD6E591C160C40F2FE30A4F8C02E42F65B
:10D1F000FA7284F8CE1FA4F8BA0EA4F8BE2E84F8F2
:10D20000C26E84F8BC3E291D03224FF6FF7001E078
:10D2100015F8012B424082EA0212D2B2130983EAC6
:10D22000102343EA0223A94283EAC200F0D18A4DC7
:10D23000A4F8B80EE91C15F8013B434083EA031239
:10D24000D2B2130983EA102383EA022383EAC203DA
:10D2500098B28D42A4F8B80E1BB2ECD183F09902BB
:10D2600082EA0212D2B2130983EA102383EA02236C
:10D2700083EAC20293B2190A84F8C32EA4F8B83E16
:10D2800084F8C41EFFF700FD0120BCE5042E3246E1
:10D290006F4928BF0422002602A8029649F0BEFC6E
:10D2A0009DF80A30012B7FF469AFBDF808203C2AB5
:10D2B00040F28E81694A1268510740F1A58294F8C4
:10D2C000FE1F94F8FD2F8DF822308DF820208DF868
:10D2D0002110089994F8CE2F5E4D84F8BD3E0B0CBA
:10D2E000561C40F2FE3084F8C23E42F6FA73A4F8AF
:10D2F000C01E84F8BC2EA4F8BA0E84F8CE6F291D87
:10D30000A4F8BE3E03224FF6FF7001E015F8012B92
:10D31000424082EA0212D2B2130983EA102343EA9E
:10D320000223A94283EAC200F0D14B4DA4F8B80E03
:10D33000E91C15F8012B82EA000383EA0312D2B23A
:10D34000130983EA102383EA022383EAC20398B213
:10D350008D42A4F8B80E1BB2EBD17FE72522002145
:10D3600008A849F046FE252E3246394928BF252215
:10D3700008A849F053FC9DF84030012B7FF4FEAE25
:10D38000364A1268520700F17F819DF8442032B17D
:10D39000BDF83E2022F00401102900F0DB8194F852
:10D3A000FE3F94F8FD2F8DF8093003238DF80820F7
:10D3B0008DF80A30029A94F8CE1FA4F8C02E120CF1
:10D3C000244D84F8C22E40F2FE324E1C0120A4F8F7
:10D3D000BA2E42F6FA7284F8BC1E84F8BD0E84F8A8
:10D3E000CE6F291DA4F8BE2E4FF6FF7001E015F890
:10D3F000013B434083EA0313DBB21A0982EA10209F
:10D4000040EA0320A94280EAC300F0D1124DA4F8FB
:10D41000B80EE91C15F8012B82EA000383EA031217
:10D42000D2B2130983EA102383EA022383EAC203F8
:10D4300098B28D42A4F8B80E1BB2EBD10EE7084AA1
:10D4400094F8CC1F2A61022384F8CB3F002621E503
:10D45000703500202C34002030340020F8F70020F4
:10D46000FFFFFE008096184B0000C842BDF8046024
:10D4700094F94D389E4280F21B82701CC0B202A902
:10D480000AF0FCFCDDED037A1FED0A6A5FED0A5A33
:10D490009DF80820ADF83C60F8EEE76ADDED047A0F
:10D4A00094F8FD1F8DF84350B8EEE77ADDED057A6C
:10D4B0008DF84480F8EEE77A86EE865A042A4FF01B
:10D4C000000394F8FE2F089315BF032602261020B0
:10D4D00014208DF84260ADF83E0009930A930B9337
:10D4E000C7EE066A8DF840108DF841200DF1200935
:10D4F000DFF8B4C3E64642F2FE5B42F2FA7AACF1E0
:10D50000040725264FF6FF7587EEA57A8DED0C5A98
:10D51000CDED0D6A8DED0E7AB9E80F00AEE80F0083
:10D52000B9E80F00AEE80F0099E8030094F8CE3F89
:10D530004EF8040B5A1C84F8BD8E8EF8001084F847
:10D54000BC3E84F8CE2FA4F8BABEA4F8BEAE01E06B
:10D5500017F8016B86EA050383EA0313DBB21A09A5
:10D5600082EA152242EA0322BC4582EAC305EFD1D2
:10D57000CD49A4F8B85E01F1250011F8013B6B40DC
:10D5800083EA0313DBB21A0982EA152282EA032234
:10D5900082EAC3039DB28142A4F8B85E1BB2ECD10B
:10D5A00083F0FE0383EA0313DBB21A0982EA152231
:10D5B00082EA032282EAC3039AB2110A84F8E53EA2
:10D5C000A4F8B82E84F8E61EFFF75EFB01201AE4EB
:10D5D00094F8FD1F8DF8221094F8FE1F8DF823108B
:10D5E00094F8CE1FB14FADF82060481CC5F85C24FC
:10D5F000C5F8606440F2FE42089D84F8BD3E42F6E4
:10D60000FA0384F8BC1E84F8CE0FA4F8BA2EC4F82E
:10D61000C05E391DA4F8BE3E04224FF6FF7001E043
:10D6200017F8012B424082EA0212D2B2130983EAB0
:10D63000102343EA0223B94283EAC200F0D19A4D93
:10D64000A4F8B80E291D15F8013B434083EA0312E4
:10D65000D2B2130983EA102383EA022383EAC203C6
:10D6600098B28D42A4F8B80E1BB2ECD183F0E60359
:10D6700083EA0313DBB21A0982EA102282EA032248
:10D6800082EAC303FFF7B7BB94F8FE1F94F8FD2F9F
:10D690008DF80A308DF808208DF80910029994F859
:10D6A000CE2F824D84F8BD3E0B0C561C40F2FE304E
:10D6B00084F8C23E42F6FA73A4F8C01E84F8BC2E69
:10D6C000A4F8BA0E84F8CE6F291DA4F8BE3E03223A
:10D6D0004FF6FF7001E015F8012B424082EA02127A
:10D6E000D2B2130983EA102343EA0223A94283EA50
:10D6F000C200F0D16C4DA4F8B80EE91C15F8013B3E
:10D70000434083EA0312D2B2130983EA102383EA67
:10D71000022383EAC20398B28D42A4F8B80E1BB26A
:10D72000ECD183F0990383EA0313DBB21A0982EA8E
:10D73000102282EA032282EAC3039AB2110A84F811
:10D74000C33EA4F8B82E84F8C41EFFF79DFA01204A
:10D75000FFF759BB9DF84210032900F0F880022919
:10D7600002D1142A00F0F08194F8FE3F94F8FD2FC6
:10D770008DF8093002238DF808208DF80A30029BBD
:10D7800094F8CE2F494DA4F8C03E1B0C511C01202B
:10D7900040F2FE3684F8C23E42F6FA7384F8BC2E9C
:10D7A00084F8CE1F84F8BD0E291DA4F8BA6EA4F823
:10D7B000BE3E03224FF6FF7001E015F8012B4240F8
:10D7C00082EA0212D2B2130983EA102343EA022347
:10D7D000A94283EAC200F0D1334DA4F8B80EE91C87
:10D7E00015F8013B434083EA0312D2B2130983EADE
